{
  "_format": "hh-sol-artifact-1",
  "contractName": "PriceOracle",
  "sourceName": "contracts/price-oracle/PriceOracle.sol",
  "abi": [
    {
      "inputs": [
        {
          "internalType": "contract ISANN",
          "name": "_sann",
          "type": "address"
        }
      ],
      "stateMutability": "nonpayable",
      "type": "constructor"
    },
    {
      "anonymous": false,
      "inputs": [
        {
          "indexed": false,
          "internalType": "uint8",
          "name": "version",
          "type": "uint8"
        }
      ],
      "name": "Initialized",
      "type": "event"
    },
    {
      "anonymous": false,
      "inputs": [
        {
          "indexed": false,
          "internalType": "uint256",
          "name": "identifier",
          "type": "uint256"
        },
        {
          "indexed": false,
          "internalType": "uint8",
          "name": "letter",
          "type": "uint8"
        },
        {
          "indexed": false,
          "internalType": "uint64",
          "name": "newPrice",
          "type": "uint64"
        }
      ],
      "name": "SetPrice",
      "type": "event"
    },
    {
      "inputs": [
        {
          "internalType": "uint256",
          "name": "amount",
          "type": "uint256"
        }
      ],
      "name": "attoUSDToWei",
      "outputs": [
        {
          "internalType": "uint256",
          "name": "",
          "type": "uint256"
        }
      ],
      "stateMutability": "view",
      "type": "function"
    },
    {
      "inputs": [
        {
          "internalType": "uint256",
          "name": "_startPremium",
          "type": "uint256"
        },
        {
          "internalType": "uint256",
          "name": "elapsed",
          "type": "uint256"
        }
      ],
      "name": "decayedPremium",
      "outputs": [
        {
          "internalType": "uint256",
          "name": "",
          "type": "uint256"
        }
      ],
      "stateMutability": "pure",
      "type": "function"
    },
    {
      "inputs": [],
      "name": "endValue",
      "outputs": [
        {
          "internalType": "uint256",
          "name": "",
          "type": "uint256"
        }
      ],
      "stateMutability": "view",
      "type": "function"
    },
    {
      "inputs": [
        {
          "internalType": "uint256",
          "name": "identifier",
          "type": "uint256"
        }
      ],
      "name": "initTldPriceModel",
      "outputs": [],
      "stateMutability": "nonpayable",
      "type": "function"
    },
    {
      "inputs": [
        {
          "internalType": "contract AggregatorInterface",
          "name": "_usdOracle",
          "type": "address"
        },
        {
          "internalType": "uint256",
          "name": "_startPremium",
          "type": "uint256"
        },
        {
          "internalType": "uint256",
          "name": "totalDays",
          "type": "uint256"
        }
      ],
      "name": "initialize",
      "outputs": [],
      "stateMutability": "nonpayable",
      "type": "function"
    },
    {
      "inputs": [
        {
          "internalType": "string",
          "name": "name",
          "type": "string"
        },
        {
          "internalType": "uint256",
          "name": "expires",
          "type": "uint256"
        },
        {
          "internalType": "uint256",
          "name": "duration",
          "type": "uint256"
        }
      ],
      "name": "premium",
      "outputs": [
        {
          "internalType": "uint256",
          "name": "",
          "type": "uint256"
        }
      ],
      "stateMutability": "view",
      "type": "function"
    },
    {
      "inputs": [
        {
          "internalType": "string",
          "name": "name",
          "type": "string"
        },
        {
          "internalType": "uint256",
          "name": "expires",
          "type": "uint256"
        },
        {
          "internalType": "uint256",
          "name": "duration",
          "type": "uint256"
        },
        {
          "internalType": "uint256",
          "name": "identifier",
          "type": "uint256"
        }
      ],
      "name": "price",
      "outputs": [
        {
          "components": [
            {
              "internalType": "uint256",
              "name": "base",
              "type": "uint256"
            },
            {
              "internalType": "uint256",
              "name": "premium",
              "type": "uint256"
            }
          ],
          "internalType": "struct IPriceOracle.Price",
          "name": "",
          "type": "tuple"
        }
      ],
      "stateMutability": "view",
      "type": "function"
    },
    {
      "inputs": [
        {
          "internalType": "string",
          "name": "name",
          "type": "string"
        },
        {
          "internalType": "uint256",
          "name": "expires",
          "type": "uint256"
        },
        {
          "internalType": "uint256",
          "name": "duration",
          "type": "uint256"
        },
        {
          "internalType": "uint256",
          "name": "identifier",
          "type": "uint256"
        }
      ],
      "name": "priceInWei",
      "outputs": [
        {
          "components": [
            {
              "internalType": "uint256",
              "name": "base",
              "type": "uint256"
            },
            {
              "internalType": "uint256",
              "name": "premium",
              "type": "uint256"
            }
          ],
          "internalType": "struct IPriceOracle.Price",
          "name": "",
          "type": "tuple"
        }
      ],
      "stateMutability": "view",
      "type": "function"
    },
    {
      "inputs": [],
      "name": "sann",
      "outputs": [
        {
          "internalType": "contract ISANN",
          "name": "",
          "type": "address"
        }
      ],
      "stateMutability": "view",
      "type": "function"
    },
    {
      "inputs": [
        {
          "internalType": "uint256",
          "name": "identifier",
          "type": "uint256"
        },
        {
          "internalType": "uint8",
          "name": "letter",
          "type": "uint8"
        },
        {
          "internalType": "uint64",
          "name": "newPrice",
          "type": "uint64"
        }
      ],
      "name": "setTldPriceModel",
      "outputs": [],
      "stateMutability": "nonpayable",
      "type": "function"
    },
    {
      "inputs": [
        {
          "internalType": "address",
          "name": "_usdOracle",
          "type": "address"
        }
      ],
      "name": "setUsdOracle",
      "outputs": [],
      "stateMutability": "nonpayable",
      "type": "function"
    },
    {
      "inputs": [],
      "name": "startPremium",
      "outputs": [
        {
          "internalType": "uint256",
          "name": "",
          "type": "uint256"
        }
      ],
      "stateMutability": "view",
      "type": "function"
    },
    {
      "inputs": [],
      "name": "usdOracle",
      "outputs": [
        {
          "internalType": "contract AggregatorInterface",
          "name": "",
          "type": "address"
        }
      ],
      "stateMutability": "view",
      "type": "function"
    },
    {
      "inputs": [
        {
          "internalType": "uint256",
          "name": "amount",
          "type": "uint256"
        }
      ],
      "name": "weiToAttoUSD",
      "outputs": [
        {
          "internalType": "uint256",
          "name": "",
          "type": "uint256"
        }
      ],
      "stateMutability": "view",
      "type": "function"
    }
  ],
  "bytecode": "0x608060405234801561001057600080fd5b5060405161178338038061178383398101604081905261002f91610054565b600080546001600160a01b0319166001600160a01b0392909216919091179055610084565b60006020828403121561006657600080fd5b81516001600160a01b038116811461007d57600080fd5b9392505050565b6116f0806100936000396000f3fe608060405234801561001057600080fd5b50600436106100ea5760003560e01c8063c8a4271f1161008c578063d1467f8611610066578063d1467f86146101eb578063d1d0ee10146101fe578063d46da38714610211578063f48bda981461022457600080fd5b8063c8a4271f1461019a578063c9920ebe146101c5578063cd1e520f146101d857600080fd5b80636c01c874116100c85780636c01c8741461014c5780637a1ac61e1461015f578063a34e359614610174578063b740af791461018757600080fd5b80630502c675146100ef57806316e72abb1461012257806359e1777c14610139575b600080fd5b6101026100fd366004611306565b61022d565b604080518251815260209283015192810192909252015b60405180910390f35b61012b60035481565b604051908152602001610119565b61012b610147366004611360565b61035d565b61012b61015a366004611382565b6103fa565b61017261016d3660046113b0565b610524565b005b61012b6101823660046113e5565b610786565b610172610195366004611436565b6107d7565b6004546101ad906001600160a01b031681565b6040516001600160a01b039091168152602001610119565b6101026101d3366004611306565b6108de565b6101726101e6366004611382565b61093a565b61012b6101f9366004611382565b610a48565b61017261020c366004611462565b610b75565b6000546101ad906001600160a01b031681565b61012b60025481565b6040805180820190915260008082526020820152600061028287878080601f016020809104026020016040519081016040528093929190818152602001838380828437600092019190915250610d0492505050565b905060008060058311156102985750600561029b565b50815b600085815260016020908152604080832060ff8516845290915290205467ffffffffffffffff1667fffffffffffffffe1981016102e25767ffffffffffffffff92506102f9565b6102f68767ffffffffffffffff83166114c7565b92505b604051806040016040528084815260200161034d8c8c8080601f0160208091040260200160405190810160405280939291908181526020018383808284376000920191909152508e92508d9150610e939050565b90529a9950505050505050505050565b60008062015180610376670de0b6b3a7640000856114c7565b61038091906114de565b90506000610396670de0b6b3a7640000836114de565b905084811c60006103af670de0b6b3a7640000846114c7565b6103b99085611500565b90506000670de0b6b3a76400006103d383620100006114c7565b6103dd91906114de565b905060006103eb8285610eff565b96505050505050505b92915050565b60048054604080517f50d25bcd000000000000000000000000000000000000000000000000000000008152905160009384936001600160a01b0316926350d25bcd92818301926020928290030181865afa15801561045c573d6000803e3d6000fd5b505050506040513d601f19601f820116820180604052508101906104809190611513565b90506000600460009054906101000a90046001600160a01b03166001600160a01b031663313ce5676040518163ffffffff1660e01b8152600401602060405180830381865afa1580156104d7573d6000803e3d6000fd5b505050506040513d601f19601f820116820180604052508101906104fb919061152c565b905061050881600a61162d565b61051283866114c7565b61051c91906114de565b949350505050565b600054600160a81b900460ff161580801561054c57506000546001600160a01b90910460ff16105b8061056d5750303b15801561056d5750600054600160a01b900460ff166001145b6105e45760405162461bcd60e51b815260206004820152602e60248201527f496e697469616c697a61626c653a20636f6e747261637420697320616c72656160448201527f647920696e697469616c697a656400000000000000000000000000000000000060648201526084015b60405180910390fd5b600080547fffffffffffffffffffffff00ffffffffffffffffffffffffffffffffffffffff16600160a01b179055801561062c576000805460ff60a81b1916600160a81b1790555b6000546040805163cdcd7fb560e01b8152905133926001600160a01b03169163cdcd7fb59160048083019260209291908290030181865afa158015610675573d6000803e3d6000fd5b505050506040513d601f19601f82011682018060405250810190610699919061163c565b6001600160a01b0316146107045760405162461bcd60e51b815260206004820152602c60248201527f41636365737369626c653a2063616c6c6572206973206e6f742074686520706c60448201526b30ba3337b9369030b236b4b760a11b60648201526084016105db565b6004805473ffffffffffffffffffffffffffffffffffffffff19166001600160a01b038616179055600283905582821c6003558015610780576000805460ff60a81b19169055604051600181527f7f26b83ff96e1f2b6a682f133852f6798a09c465da95921460cefb3847402498906020015b60405180910390a15b50505050565b60006107ce6101f986868080601f016020809104026020016040519081016040528093929190818152602001838380828437600092019190915250889250879150610e939050565b95945050505050565b6000546040805163cdcd7fb560e01b8152905133926001600160a01b03169163cdcd7fb59160048083019260209291908290030181865afa158015610820573d6000803e3d6000fd5b505050506040513d601f19601f82011682018060405250810190610844919061163c565b6001600160a01b0316146108af5760405162461bcd60e51b815260206004820152602c60248201527f41636365737369626c653a2063616c6c6572206973206e6f742074686520706c60448201526b30ba3337b9369030b236b4b760a11b60648201526084016105db565b6004805473ffffffffffffffffffffffffffffffffffffffff19166001600160a01b0392909216919091179055565b60408051808201909152600080825260208201526000610901878787878761022d565b9050604051806040016040528061091b8360000151610a48565b815260200161092d8360200151610a48565b9052979650505050505050565b600054604080517f6a0dfac1000000000000000000000000000000000000000000000000000000008152905133926001600160a01b031691636a0dfac19160048083019260209291908290030181865afa15801561099c573d6000803e3d6000fd5b505050506040513d601f19601f820116820180604052508101906109c0919061163c565b6001600160a01b031614610a3c5760405162461bcd60e51b815260206004820152602560248201527f41636365737369626c653a2063616c6c6572206973206e6f742074686520666160448201527f63746f727900000000000000000000000000000000000000000000000000000060648201526084016105db565b610a458161121f565b50565b600067fffffffffffffffe198201610a69575067ffffffffffffffff919050565b6000600460009054906101000a90046001600160a01b03166001600160a01b03166350d25bcd6040518163ffffffff1660e01b8152600401602060405180830381865afa158015610abe573d6000803e3d6000fd5b505050506040513d601f19601f82011682018060405250810190610ae29190611513565b90506000600460009054906101000a90046001600160a01b03166001600160a01b031663313ce5676040518163ffffffff1660e01b8152600401602060405180830381865afa158015610b39573d6000803e3d6000fd5b505050506040513d601f19601f82011682018060405250810190610b5d919061152c565b905081610b6b82600a61162d565b61051290866114c7565b6000546040517f0726f66800000000000000000000000000000000000000000000000000000000815260048101859052849133916001600160a01b0390911690630726f66890602401602060405180830381865afa158015610bdb573d6000803e3d6000fd5b505050506040513d601f19601f82011682018060405250810190610bff919061163c565b6001600160a01b031614610c7a5760405162461bcd60e51b8152602060048201526024808201527f4f776e61626c653a2063616c6c6572206973206e6f742074686520746c64206f60448201527f776e65720000000000000000000000000000000000000000000000000000000060648201526084016105db565b60058360ff161115610c8b57600080fd5b600084815260016020908152604080832060ff871680855290835292819020805467ffffffffffffffff191667ffffffffffffffff87169081179091558151888152928301939093528101919091527f2b60dfe49050ce9c23d540477cc3f3d85857400266dd2236add884e52d44076090606001610777565b8051600090819081905b80821015610e8a576000858381518110610d2a57610d2a611659565b01602001516001600160f81b03191690507f8000000000000000000000000000000000000000000000000000000000000000811015610d7557610d6e60018461166f565b9250610e77565b7fe0000000000000000000000000000000000000000000000000000000000000006001600160f81b031982161015610db257610d6e60028461166f565b7ff0000000000000000000000000000000000000000000000000000000000000006001600160f81b031982161015610def57610d6e60038461166f565b7ff8000000000000000000000000000000000000000000000000000000000000006001600160f81b031982161015610e2c57610d6e60048461166f565b7ffc000000000000000000000000000000000000000000000000000000000000006001600160f81b031982161015610e6957610d6e60058461166f565b610e7460068461166f565b92505b5082610e8281611682565b935050610d0e565b50909392505050565b6000610ea26276a7008461166f565b925042831115610eb457506000610ef8565b6000610ec08442611500565b90506000610ed06002548361035d565b90506003548110610ef157600354610ee89082611500565b92505050610ef8565b6000925050505b9392505050565b60006001831615610f3257670de0b6b3a7640000610f25670de0ad151d094180846114c7565b610f2f91906114de565b91505b6002831615610f6357670de0b6b3a7640000610f56670de0a37699596800846114c7565b610f6091906114de565b91505b6004831615610f9457670de0b6b3a7640000610f87670de09039a5fa5100846114c7565b610f9191906114de565b91505b6008831615610fc557670de0b6b3a7640000610fb8670de069c00f3e1200846114c7565b610fc291906114de565b91505b6010831615610ff657670de0b6b3a7640000610fe9670de01cce21c94400846114c7565b610ff391906114de565b91505b602083161561102757670de0b6b3a764000061101a670ddf82ef46ce1000846114c7565b61102491906114de565b91505b604083161561105857670de0b6b3a764000061104b670dde4f458f8e8d80846114c7565b61105591906114de565b91505b608083161561108957670de0b6b3a764000061107c670ddbe84213d5f080846114c7565b61108691906114de565b91505b6101008316156110bb57670de0b6b3a76400006110ae670dd71b7aa6df5b80846114c7565b6110b891906114de565b91505b6102008316156110ed57670de0b6b3a76400006110e0670dcd86e7f28cde00846114c7565b6110ea91906114de565b91505b61040083161561111f57670de0b6b3a7640000611112670dba71a3084ad680846114c7565b61111c91906114de565b91505b61080083161561115157670de0b6b3a7640000611144670d94961b13dbde80846114c7565b61114e91906114de565b91505b61100083161561118357670de0b6b3a7640000611176670d4a171c35c98380846114c7565b61118091906114de565b91505b6120008316156111b557670de0b6b3a76400006111a8670cb9da519ccfb700846114c7565b6111b291906114de565b91505b6140008316156111e757670de0b6b3a76400006111da670bab76d59c18d680846114c7565b6111e491906114de565b91505b61800083161561121957670de0b6b3a764000061120c6709d025defee4df80846114c7565b61121691906114de565b91505b50919050565b60015b60058160ff16116112b957600082815260016020908152604080832060ff851680855290835292819020805467ffffffffffffffff191667ffffffffffffffff9081179091558151868152928301939093528101919091527f2b60dfe49050ce9c23d540477cc3f3d85857400266dd2236add884e52d4407609060600160405180910390a1806112b18161169b565b915050611222565b5050565b60008083601f8401126112cf57600080fd5b50813567ffffffffffffffff8111156112e757600080fd5b6020830191508360208285010111156112ff57600080fd5b9250929050565b60008060008060006080868803121561131e57600080fd5b853567ffffffffffffffff81111561133557600080fd5b611341888289016112bd565b9099909850602088013597604081013597506060013595509350505050565b6000806040838503121561137357600080fd5b50508035926020909101359150565b60006020828403121561139457600080fd5b5035919050565b6001600160a01b0381168114610a4557600080fd5b6000806000606084860312156113c557600080fd5b83356113d08161139b565b95602085013595506040909401359392505050565b600080600080606085870312156113fb57600080fd5b843567ffffffffffffffff81111561141257600080fd5b61141e878288016112bd565b90989097506020870135966040013595509350505050565b60006020828403121561144857600080fd5b8135610ef88161139b565b60ff81168114610a4557600080fd5b60008060006060848603121561147757600080fd5b83359250602084013561148981611453565b9150604084013567ffffffffffffffff811681146114a657600080fd5b809150509250925092565b634e487b7160e01b600052601160045260246000fd5b80820281158282048414176103f4576103f46114b1565b6000826114fb57634e487b7160e01b600052601260045260246000fd5b500490565b818103818111156103f4576103f46114b1565b60006020828403121561152557600080fd5b5051919050565b60006020828403121561153e57600080fd5b8151610ef881611453565b600181815b8085111561158457816000190482111561156a5761156a6114b1565b8085161561157757918102915b93841c939080029061154e565b509250929050565b60008261159b575060016103f4565b816115a8575060006103f4565b81600181146115be57600281146115c8576115e4565b60019150506103f4565b60ff8411156115d9576115d96114b1565b50506001821b6103f4565b5060208310610133831016604e8410600b8410161715611607575081810a6103f4565b6116118383611549565b8060001904821115611625576116256114b1565b029392505050565b6000610ef860ff84168361158c565b60006020828403121561164e57600080fd5b8151610ef88161139b565b634e487b7160e01b600052603260045260246000fd5b808201808211156103f4576103f46114b1565b600060018201611694576116946114b1565b5060010190565b600060ff821660ff81036116b1576116b16114b1565b6001019291505056fea2646970667358221220e795a973bc15fb7b39945406a6f99b0ef1463c1ea244ca06c14c4a817d68c97764736f6c63430008120033",
  "linkReferences": {},
  "deployedLinkReferences": {}
}