{
  "_format": "hh-sol-artifact-1",
  "contractName": "DummyUpgradeableRegistrar",
  "sourceName": "test/controller/mocks/DummyUpgradeableRegistrar.sol",
  "abi": [
    {
      "inputs": [
        {
          "internalType": "uint256",
          "name": "identifier",
          "type": "uint256"
        },
        {
          "internalType": "uint256",
          "name": "duration",
          "type": "uint256"
        }
      ],
      "name": "DurationTooShort",
      "type": "error"
    },
    {
      "inputs": [
        {
          "internalType": "uint256",
          "name": "identifier",
          "type": "uint256"
        },
        {
          "internalType": "string",
          "name": "name",
          "type": "string"
        }
      ],
      "name": "NameNotAvailable",
      "type": "error"
    },
    {
      "inputs": [],
      "name": "NotQualifiedRegister",
      "type": "error"
    },
    {
      "inputs": [
        {
          "internalType": "uint256",
          "name": "realPrice",
          "type": "uint256"
        }
      ],
      "name": "SimulatePrice",
      "type": "error"
    },
    {
      "anonymous": false,
      "inputs": [
        {
          "indexed": false,
          "internalType": "address",
          "name": "previousAdmin",
          "type": "address"
        },
        {
          "indexed": false,
          "internalType": "address",
          "name": "newAdmin",
          "type": "address"
        }
      ],
      "name": "AdminChanged",
      "type": "event"
    },
    {
      "anonymous": false,
      "inputs": [
        {
          "indexed": true,
          "internalType": "address",
          "name": "beacon",
          "type": "address"
        }
      ],
      "name": "BeaconUpgraded",
      "type": "event"
    },
    {
      "anonymous": false,
      "inputs": [
        {
          "indexed": false,
          "internalType": "uint8",
          "name": "version",
          "type": "uint8"
        }
      ],
      "name": "Initialized",
      "type": "event"
    },
    {
      "anonymous": false,
      "inputs": [
        {
          "indexed": false,
          "internalType": "uint256",
          "name": "identifier",
          "type": "uint256"
        },
        {
          "indexed": false,
          "internalType": "string",
          "name": "name",
          "type": "string"
        },
        {
          "indexed": true,
          "internalType": "bytes32",
          "name": "label",
          "type": "bytes32"
        },
        {
          "indexed": true,
          "internalType": "address",
          "name": "owner",
          "type": "address"
        },
        {
          "indexed": false,
          "internalType": "uint256",
          "name": "baseCost",
          "type": "uint256"
        },
        {
          "indexed": false,
          "internalType": "uint256",
          "name": "expires",
          "type": "uint256"
        }
      ],
      "name": "NameRegistered",
      "type": "event"
    },
    {
      "anonymous": false,
      "inputs": [
        {
          "indexed": false,
          "internalType": "uint256",
          "name": "identifier",
          "type": "uint256"
        },
        {
          "indexed": false,
          "internalType": "string",
          "name": "name",
          "type": "string"
        },
        {
          "indexed": true,
          "internalType": "bytes32",
          "name": "label",
          "type": "bytes32"
        },
        {
          "indexed": false,
          "internalType": "uint256",
          "name": "cost",
          "type": "uint256"
        },
        {
          "indexed": false,
          "internalType": "uint256",
          "name": "expires",
          "type": "uint256"
        }
      ],
      "name": "NameRenewed",
      "type": "event"
    },
    {
      "anonymous": false,
      "inputs": [
        {
          "indexed": false,
          "internalType": "uint256",
          "name": "identifier",
          "type": "uint256"
        },
        {
          "indexed": false,
          "internalType": "bool",
          "name": "hasMintCap",
          "type": "bool"
        }
      ],
      "name": "SetHasMintCap",
      "type": "event"
    },
    {
      "anonymous": false,
      "inputs": [
        {
          "indexed": false,
          "internalType": "uint256",
          "name": "identifier",
          "type": "uint256"
        },
        {
          "indexed": false,
          "internalType": "uint256",
          "name": "maxDomainLength",
          "type": "uint256"
        }
      ],
      "name": "SetMaxDomainLength",
      "type": "event"
    },
    {
      "anonymous": false,
      "inputs": [
        {
          "indexed": false,
          "internalType": "uint256",
          "name": "identifier",
          "type": "uint256"
        },
        {
          "indexed": false,
          "internalType": "uint256",
          "name": "minDomainLength",
          "type": "uint256"
        }
      ],
      "name": "SetMinDomainLength",
      "type": "event"
    },
    {
      "anonymous": false,
      "inputs": [
        {
          "indexed": false,
          "internalType": "uint256",
          "name": "identifier",
          "type": "uint256"
        },
        {
          "indexed": false,
          "internalType": "uint256",
          "name": "minRegistrationDuration",
          "type": "uint256"
        }
      ],
      "name": "SetMinRegistrationDuration",
      "type": "event"
    },
    {
      "anonymous": false,
      "inputs": [
        {
          "indexed": false,
          "internalType": "uint256",
          "name": "identifier",
          "type": "uint256"
        },
        {
          "indexed": false,
          "internalType": "uint256",
          "name": "minRenewDuration",
          "type": "uint256"
        }
      ],
      "name": "SetMinRenewDuration",
      "type": "event"
    },
    {
      "anonymous": false,
      "inputs": [
        {
          "indexed": false,
          "internalType": "uint256",
          "name": "identifier",
          "type": "uint256"
        },
        {
          "indexed": false,
          "internalType": "uint256",
          "name": "mintCap",
          "type": "uint256"
        }
      ],
      "name": "SetMintCap",
      "type": "event"
    },
    {
      "anonymous": false,
      "inputs": [
        {
          "indexed": false,
          "internalType": "uint256",
          "name": "identifier",
          "type": "uint256"
        },
        {
          "indexed": false,
          "internalType": "address",
          "name": "hook",
          "type": "address"
        }
      ],
      "name": "SetPointHook",
      "type": "event"
    },
    {
      "anonymous": false,
      "inputs": [
        {
          "indexed": false,
          "internalType": "uint256",
          "name": "identifier",
          "type": "uint256"
        },
        {
          "indexed": false,
          "internalType": "address",
          "name": "hook",
          "type": "address"
        }
      ],
      "name": "SetPriceHook",
      "type": "event"
    },
    {
      "anonymous": false,
      "inputs": [
        {
          "indexed": false,
          "internalType": "uint256",
          "name": "identifier",
          "type": "uint256"
        },
        {
          "indexed": false,
          "internalType": "address",
          "name": "hook",
          "type": "address"
        }
      ],
      "name": "SetQualificationHook",
      "type": "event"
    },
    {
      "anonymous": false,
      "inputs": [
        {
          "indexed": false,
          "internalType": "uint256",
          "name": "identifier",
          "type": "uint256"
        },
        {
          "indexed": false,
          "internalType": "address",
          "name": "hook",
          "type": "address"
        }
      ],
      "name": "SetRenewPointHook",
      "type": "event"
    },
    {
      "anonymous": false,
      "inputs": [
        {
          "indexed": false,
          "internalType": "uint256",
          "name": "identifier",
          "type": "uint256"
        },
        {
          "indexed": false,
          "internalType": "address",
          "name": "hook",
          "type": "address"
        }
      ],
      "name": "SetRenewPriceHook",
      "type": "event"
    },
    {
      "anonymous": false,
      "inputs": [
        {
          "indexed": false,
          "internalType": "uint256",
          "name": "identifier",
          "type": "uint256"
        },
        {
          "indexed": false,
          "internalType": "address",
          "name": "hook",
          "type": "address"
        }
      ],
      "name": "SetRenewRewardHook",
      "type": "event"
    },
    {
      "anonymous": false,
      "inputs": [
        {
          "indexed": false,
          "internalType": "uint256",
          "name": "identifier",
          "type": "uint256"
        },
        {
          "indexed": false,
          "internalType": "address",
          "name": "hook",
          "type": "address"
        }
      ],
      "name": "SetRewardHook",
      "type": "event"
    },
    {
      "anonymous": false,
      "inputs": [
        {
          "indexed": false,
          "internalType": "uint256",
          "name": "identifier",
          "type": "uint256"
        },
        {
          "indexed": false,
          "internalType": "address",
          "name": "base",
          "type": "address"
        }
      ],
      "name": "SetTldBase",
      "type": "event"
    },
    {
      "anonymous": false,
      "inputs": [
        {
          "indexed": false,
          "internalType": "uint256",
          "name": "identifier",
          "type": "uint256"
        },
        {
          "indexed": false,
          "internalType": "address",
          "name": "priceOracle",
          "type": "address"
        }
      ],
      "name": "SetTldPriceOracle",
      "type": "event"
    },
    {
      "anonymous": false,
      "inputs": [
        {
          "indexed": true,
          "internalType": "address",
          "name": "implementation",
          "type": "address"
        }
      ],
      "name": "Upgraded",
      "type": "event"
    },
    {
      "inputs": [
        {
          "internalType": "uint256",
          "name": "identifier",
          "type": "uint256"
        },
        {
          "internalType": "string",
          "name": "name",
          "type": "string"
        }
      ],
      "name": "available",
      "outputs": [
        {
          "internalType": "bool",
          "name": "",
          "type": "bool"
        }
      ],
      "stateMutability": "view",
      "type": "function"
    },
    {
      "inputs": [
        {
          "internalType": "uint256",
          "name": "identifier",
          "type": "uint256"
        },
        {
          "internalType": "string[]",
          "name": "names",
          "type": "string[]"
        },
        {
          "internalType": "address",
          "name": "owner",
          "type": "address"
        },
        {
          "internalType": "uint256",
          "name": "duration",
          "type": "uint256"
        },
        {
          "internalType": "address",
          "name": "resolver",
          "type": "address"
        },
        {
          "internalType": "bool",
          "name": "setTldName",
          "type": "bool"
        },
        {
          "internalType": "bytes[]",
          "name": "extraData",
          "type": "bytes[]"
        }
      ],
      "name": "bulkRegister",
      "outputs": [
        {
          "internalType": "uint256",
          "name": "",
          "type": "uint256"
        }
      ],
      "stateMutability": "payable",
      "type": "function"
    },
    {
      "inputs": [
        {
          "internalType": "uint256",
          "name": "identifier",
          "type": "uint256"
        },
        {
          "internalType": "string[]",
          "name": "names",
          "type": "string[]"
        },
        {
          "internalType": "address",
          "name": "owner",
          "type": "address"
        },
        {
          "internalType": "uint256",
          "name": "duration",
          "type": "uint256"
        },
        {
          "internalType": "address",
          "name": "resolver",
          "type": "address"
        },
        {
          "internalType": "bool",
          "name": "setTldName",
          "type": "bool"
        },
        {
          "internalType": "bytes[]",
          "name": "extraData",
          "type": "bytes[]"
        }
      ],
      "name": "bulkRegisterSimulate",
      "outputs": [
        {
          "internalType": "uint256",
          "name": "",
          "type": "uint256"
        }
      ],
      "stateMutability": "payable",
      "type": "function"
    },
    {
      "inputs": [
        {
          "internalType": "uint256",
          "name": "identifier",
          "type": "uint256"
        },
        {
          "internalType": "string[]",
          "name": "names",
          "type": "string[]"
        },
        {
          "internalType": "uint256",
          "name": "duration",
          "type": "uint256"
        },
        {
          "internalType": "bytes[]",
          "name": "extraData",
          "type": "bytes[]"
        }
      ],
      "name": "bulkRenew",
      "outputs": [
        {
          "internalType": "uint256",
          "name": "",
          "type": "uint256"
        }
      ],
      "stateMutability": "payable",
      "type": "function"
    },
    {
      "inputs": [
        {
          "internalType": "uint256",
          "name": "identifier",
          "type": "uint256"
        },
        {
          "internalType": "string[]",
          "name": "names",
          "type": "string[]"
        },
        {
          "internalType": "uint256",
          "name": "duration",
          "type": "uint256"
        },
        {
          "internalType": "address",
          "name": "initiatedBy",
          "type": "address"
        },
        {
          "internalType": "bytes[]",
          "name": "extraData",
          "type": "bytes[]"
        }
      ],
      "name": "bulkRenewSimulate",
      "outputs": [
        {
          "internalType": "uint256",
          "name": "",
          "type": "uint256"
        }
      ],
      "stateMutability": "payable",
      "type": "function"
    },
    {
      "inputs": [
        {
          "internalType": "uint256",
          "name": "identifier",
          "type": "uint256"
        },
        {
          "internalType": "string[]",
          "name": "names",
          "type": "string[]"
        },
        {
          "internalType": "uint256",
          "name": "duration",
          "type": "uint256"
        }
      ],
      "name": "bulkRentPrice",
      "outputs": [
        {
          "internalType": "uint256",
          "name": "total",
          "type": "uint256"
        }
      ],
      "stateMutability": "view",
      "type": "function"
    },
    {
      "inputs": [],
      "name": "defaultPriceOracle",
      "outputs": [
        {
          "internalType": "contract IPriceOracle",
          "name": "",
          "type": "address"
        }
      ],
      "stateMutability": "view",
      "type": "function"
    },
    {
      "inputs": [],
      "name": "dummyString",
      "outputs": [
        {
          "internalType": "string",
          "name": "",
          "type": "string"
        }
      ],
      "stateMutability": "pure",
      "type": "function"
    },
    {
      "inputs": [
        {
          "internalType": "uint256",
          "name": "identifier",
          "type": "uint256"
        }
      ],
      "name": "getPriceOracle",
      "outputs": [
        {
          "internalType": "contract IPriceOracle",
          "name": "",
          "type": "address"
        }
      ],
      "stateMutability": "view",
      "type": "function"
    },
    {
      "inputs": [
        {
          "internalType": "contract ISANN",
          "name": "_sann",
          "type": "address"
        },
        {
          "internalType": "contract IPlatformConfig",
          "name": "_platformConfig",
          "type": "address"
        },
        {
          "internalType": "contract IPrepaidPlatformFee",
          "name": "_prepaidPlatformFee",
          "type": "address"
        },
        {
          "internalType": "contract IPriceOracle",
          "name": "_priceOracle",
          "type": "address"
        },
        {
          "internalType": "contract IReverseRegistrar",
          "name": "_reverseRegistrar",
          "type": "address"
        }
      ],
      "name": "initialize",
      "outputs": [],
      "stateMutability": "nonpayable",
      "type": "function"
    },
    {
      "inputs": [],
      "name": "platformConfig",
      "outputs": [
        {
          "internalType": "contract IPlatformConfig",
          "name": "",
          "type": "address"
        }
      ],
      "stateMutability": "view",
      "type": "function"
    },
    {
      "inputs": [],
      "name": "platformFeeBalance",
      "outputs": [
        {
          "internalType": "uint256",
          "name": "",
          "type": "uint256"
        }
      ],
      "stateMutability": "view",
      "type": "function"
    },
    {
      "inputs": [],
      "name": "prepaidPlatformFee",
      "outputs": [
        {
          "internalType": "contract IPrepaidPlatformFee",
          "name": "",
          "type": "address"
        }
      ],
      "stateMutability": "view",
      "type": "function"
    },
    {
      "inputs": [
        {
          "internalType": "uint256",
          "name": "identifier",
          "type": "uint256"
        },
        {
          "internalType": "string",
          "name": "_name",
          "type": "string"
        },
        {
          "internalType": "address",
          "name": "_buyer",
          "type": "address"
        },
        {
          "internalType": "uint256",
          "name": "_duration",
          "type": "uint256"
        },
        {
          "internalType": "bytes",
          "name": "_extraData",
          "type": "bytes"
        }
      ],
      "name": "priceAfterDiscount",
      "outputs": [
        {
          "internalType": "uint256",
          "name": "cost",
          "type": "uint256"
        }
      ],
      "stateMutability": "view",
      "type": "function"
    },
    {
      "inputs": [],
      "name": "proxiableUUID",
      "outputs": [
        {
          "internalType": "bytes32",
          "name": "",
          "type": "bytes32"
        }
      ],
      "stateMutability": "view",
      "type": "function"
    },
    {
      "inputs": [
        {
          "internalType": "address",
          "name": "_token",
          "type": "address"
        },
        {
          "internalType": "address",
          "name": "_to",
          "type": "address"
        },
        {
          "internalType": "uint256",
          "name": "_amount",
          "type": "uint256"
        }
      ],
      "name": "recoverFunds",
      "outputs": [],
      "stateMutability": "nonpayable",
      "type": "function"
    },
    {
      "inputs": [
        {
          "internalType": "uint256",
          "name": "identifier",
          "type": "uint256"
        },
        {
          "internalType": "string",
          "name": "name",
          "type": "string"
        },
        {
          "internalType": "uint256",
          "name": "duration",
          "type": "uint256"
        }
      ],
      "name": "rentPrice",
      "outputs": [
        {
          "components": [
            {
              "internalType": "uint256",
              "name": "base",
              "type": "uint256"
            },
            {
              "internalType": "uint256",
              "name": "premium",
              "type": "uint256"
            }
          ],
          "internalType": "struct IPriceOracle.Price",
          "name": "price",
          "type": "tuple"
        }
      ],
      "stateMutability": "view",
      "type": "function"
    },
    {
      "inputs": [
        {
          "internalType": "uint256",
          "name": "identifier",
          "type": "uint256"
        },
        {
          "internalType": "string",
          "name": "name",
          "type": "string"
        },
        {
          "internalType": "uint256",
          "name": "duration",
          "type": "uint256"
        }
      ],
      "name": "rentPriceInUSD",
      "outputs": [
        {
          "components": [
            {
              "internalType": "uint256",
              "name": "base",
              "type": "uint256"
            },
            {
              "internalType": "uint256",
              "name": "premium",
              "type": "uint256"
            }
          ],
          "internalType": "struct IPriceOracle.Price",
          "name": "price",
          "type": "tuple"
        }
      ],
      "stateMutability": "view",
      "type": "function"
    },
    {
      "inputs": [],
      "name": "reverseRegistrar",
      "outputs": [
        {
          "internalType": "contract IReverseRegistrar",
          "name": "",
          "type": "address"
        }
      ],
      "stateMutability": "view",
      "type": "function"
    },
    {
      "inputs": [],
      "name": "sann",
      "outputs": [
        {
          "internalType": "contract ISANN",
          "name": "",
          "type": "address"
        }
      ],
      "stateMutability": "view",
      "type": "function"
    },
    {
      "inputs": [
        {
          "internalType": "uint256",
          "name": "identifier",
          "type": "uint256"
        },
        {
          "internalType": "uint256",
          "name": "_maxDomainLength",
          "type": "uint256"
        }
      ],
      "name": "setMaxDomainLength",
      "outputs": [],
      "stateMutability": "nonpayable",
      "type": "function"
    },
    {
      "inputs": [
        {
          "internalType": "uint256",
          "name": "identifier",
          "type": "uint256"
        },
        {
          "internalType": "uint256",
          "name": "_minDomainLength",
          "type": "uint256"
        }
      ],
      "name": "setMinDomainLength",
      "outputs": [],
      "stateMutability": "nonpayable",
      "type": "function"
    },
    {
      "inputs": [
        {
          "internalType": "uint256",
          "name": "identifier",
          "type": "uint256"
        },
        {
          "internalType": "uint256",
          "name": "_minRegistrationDuration",
          "type": "uint256"
        }
      ],
      "name": "setMinRegistrationDuration",
      "outputs": [],
      "stateMutability": "nonpayable",
      "type": "function"
    },
    {
      "inputs": [
        {
          "internalType": "uint256",
          "name": "identifier",
          "type": "uint256"
        },
        {
          "internalType": "uint256",
          "name": "_minRenewDuration",
          "type": "uint256"
        }
      ],
      "name": "setMinRenewDuration",
      "outputs": [],
      "stateMutability": "nonpayable",
      "type": "function"
    },
    {
      "inputs": [
        {
          "internalType": "uint256",
          "name": "identifier",
          "type": "uint256"
        },
        {
          "internalType": "uint256",
          "name": "_mintCap",
          "type": "uint256"
        }
      ],
      "name": "setMintCap",
      "outputs": [],
      "stateMutability": "nonpayable",
      "type": "function"
    },
    {
      "inputs": [
        {
          "internalType": "uint256",
          "name": "identifier",
          "type": "uint256"
        },
        {
          "internalType": "address",
          "name": "_hook",
          "type": "address"
        }
      ],
      "name": "setPointHook",
      "outputs": [],
      "stateMutability": "nonpayable",
      "type": "function"
    },
    {
      "inputs": [
        {
          "internalType": "uint256",
          "name": "identifier",
          "type": "uint256"
        },
        {
          "internalType": "address",
          "name": "_hook",
          "type": "address"
        }
      ],
      "name": "setPriceHook",
      "outputs": [],
      "stateMutability": "nonpayable",
      "type": "function"
    },
    {
      "inputs": [
        {
          "internalType": "uint256",
          "name": "identifier",
          "type": "uint256"
        },
        {
          "internalType": "address",
          "name": "_hook",
          "type": "address"
        }
      ],
      "name": "setQualificationHook",
      "outputs": [],
      "stateMutability": "nonpayable",
      "type": "function"
    },
    {
      "inputs": [
        {
          "internalType": "uint256",
          "name": "identifier",
          "type": "uint256"
        },
        {
          "internalType": "address",
          "name": "_hook",
          "type": "address"
        }
      ],
      "name": "setRenewPointHook",
      "outputs": [],
      "stateMutability": "nonpayable",
      "type": "function"
    },
    {
      "inputs": [
        {
          "internalType": "uint256",
          "name": "identifier",
          "type": "uint256"
        },
        {
          "internalType": "address",
          "name": "_hook",
          "type": "address"
        }
      ],
      "name": "setRenewPriceHook",
      "outputs": [],
      "stateMutability": "nonpayable",
      "type": "function"
    },
    {
      "inputs": [
        {
          "internalType": "uint256",
          "name": "identifier",
          "type": "uint256"
        },
        {
          "internalType": "address",
          "name": "_hook",
          "type": "address"
        }
      ],
      "name": "setRenewRewardHook",
      "outputs": [],
      "stateMutability": "nonpayable",
      "type": "function"
    },
    {
      "inputs": [
        {
          "internalType": "uint256",
          "name": "identifier",
          "type": "uint256"
        },
        {
          "internalType": "address",
          "name": "_hook",
          "type": "address"
        }
      ],
      "name": "setRewardHook",
      "outputs": [],
      "stateMutability": "nonpayable",
      "type": "function"
    },
    {
      "inputs": [
        {
          "internalType": "uint256",
          "name": "identifier",
          "type": "uint256"
        },
        {
          "components": [
            {
              "internalType": "uint256",
              "name": "minDomainLength",
              "type": "uint256"
            },
            {
              "internalType": "uint256",
              "name": "maxDomainLength",
              "type": "uint256"
            },
            {
              "internalType": "uint256",
              "name": "minRegistrationDuration",
              "type": "uint256"
            },
            {
              "internalType": "uint256",
              "name": "minRenewDuration",
              "type": "uint256"
            },
            {
              "internalType": "uint256",
              "name": "mintCap",
              "type": "uint256"
            }
          ],
          "internalType": "struct TldConfig",
          "name": "_config",
          "type": "tuple"
        }
      ],
      "name": "setTldConfigs",
      "outputs": [],
      "stateMutability": "nonpayable",
      "type": "function"
    },
    {
      "inputs": [
        {
          "internalType": "uint256",
          "name": "identifier",
          "type": "uint256"
        },
        {
          "internalType": "address",
          "name": "_qualificationHook",
          "type": "address"
        },
        {
          "internalType": "address",
          "name": "_priceHook",
          "type": "address"
        },
        {
          "internalType": "address",
          "name": "_rewardHook",
          "type": "address"
        },
        {
          "internalType": "address",
          "name": "_renewPriceHook",
          "type": "address"
        },
        {
          "internalType": "address",
          "name": "_renewRewardHook",
          "type": "address"
        }
      ],
      "name": "setTldHooks",
      "outputs": [],
      "stateMutability": "nonpayable",
      "type": "function"
    },
    {
      "inputs": [
        {
          "internalType": "uint256",
          "name": "identifier",
          "type": "uint256"
        },
        {
          "internalType": "address",
          "name": "priceOracle",
          "type": "address"
        }
      ],
      "name": "setTldPriceOracle",
      "outputs": [],
      "stateMutability": "nonpayable",
      "type": "function"
    },
    {
      "inputs": [
        {
          "internalType": "uint256",
          "name": "",
          "type": "uint256"
        }
      ],
      "name": "tldConfigs",
      "outputs": [
        {
          "internalType": "uint256",
          "name": "minDomainLength",
          "type": "uint256"
        },
        {
          "internalType": "uint256",
          "name": "maxDomainLength",
          "type": "uint256"
        },
        {
          "internalType": "uint256",
          "name": "minRegistrationDuration",
          "type": "uint256"
        },
        {
          "internalType": "uint256",
          "name": "minRenewDuration",
          "type": "uint256"
        },
        {
          "internalType": "uint256",
          "name": "mintCap",
          "type": "uint256"
        }
      ],
      "stateMutability": "view",
      "type": "function"
    },
    {
      "inputs": [
        {
          "internalType": "uint256",
          "name": "",
          "type": "uint256"
        }
      ],
      "name": "tldHooks",
      "outputs": [
        {
          "internalType": "contract IQualificationHook",
          "name": "qualificationHook",
          "type": "address"
        },
        {
          "internalType": "contract IPriceHook",
          "name": "priceHook",
          "type": "address"
        },
        {
          "internalType": "contract IPointHook",
          "name": "pointHook",
          "type": "address"
        },
        {
          "internalType": "contract IRewardHook",
          "name": "rewardHook",
          "type": "address"
        },
        {
          "internalType": "contract IRenewPriceHook",
          "name": "renewPriceHook",
          "type": "address"
        },
        {
          "internalType": "contract IRenewPointHook",
          "name": "renewPointHook",
          "type": "address"
        },
        {
          "internalType": "contract IRenewRewardHook",
          "name": "renewRewardHook",
          "type": "address"
        }
      ],
      "stateMutability": "view",
      "type": "function"
    },
    {
      "inputs": [
        {
          "internalType": "uint256",
          "name": "",
          "type": "uint256"
        }
      ],
      "name": "tldPriceOracles",
      "outputs": [
        {
          "internalType": "contract IPriceOracle",
          "name": "",
          "type": "address"
        }
      ],
      "stateMutability": "view",
      "type": "function"
    },
    {
      "inputs": [
        {
          "internalType": "uint256",
          "name": "",
          "type": "uint256"
        }
      ],
      "name": "tldRevenues",
      "outputs": [
        {
          "internalType": "uint256",
          "name": "",
          "type": "uint256"
        }
      ],
      "stateMutability": "view",
      "type": "function"
    },
    {
      "inputs": [
        {
          "internalType": "address",
          "name": "newImplementation",
          "type": "address"
        }
      ],
      "name": "upgradeTo",
      "outputs": [],
      "stateMutability": "nonpayable",
      "type": "function"
    },
    {
      "inputs": [
        {
          "internalType": "address",
          "name": "newImplementation",
          "type": "address"
        },
        {
          "internalType": "bytes",
          "name": "data",
          "type": "bytes"
        }
      ],
      "name": "upgradeToAndCall",
      "outputs": [],
      "stateMutability": "payable",
      "type": "function"
    },
    {
      "inputs": [
        {
          "internalType": "uint256",
          "name": "identifier",
          "type": "uint256"
        }
      ],
      "name": "withdraw",
      "outputs": [],
      "stateMutability": "nonpayable",
      "type": "function"
    },
    {
      "inputs": [],
      "name": "withdrawPlatformFee",
      "outputs": [],
      "stateMutability": "nonpayable",
      "type": "function"
    },
    {
      "stateMutability": "payable",
      "type": "receive"
    }
  ],
  "bytecode": "0x60a0604052306080523480156200001557600080fd5b506200002062000026565b620000e7565b600054610100900460ff1615620000935760405162461bcd60e51b815260206004820152602760248201527f496e697469616c697a61626c653a20636f6e747261637420697320696e697469604482015266616c697a696e6760c81b606482015260840160405180910390fd5b60005460ff90811614620000e5576000805460ff191660ff9081179091556040519081527f7f26b83ff96e1f2b6a682f133852f6798a09c465da95921460cefb38474024989060200160405180910390a15b565b608051615ff46200011f60003960008181611464015281816114e9015281816115df01528181611664015261174a0152615ff46000f3fe6080604052600436106102e05760003560e01c80638086985311610184578063d2bc8adc116100d6578063e6bc7ea21161008a578063f2f47b8411610064578063f2f47b84146108ce578063fd5bc42e14610940578063fdd32ec41461096057600080fd5b8063e6bc7ea21461086e578063e944463c1461088e578063f1af9c5e146108ae57600080fd5b8063d46da387116100bb578063d46da38714610812578063de48bbcb14610838578063e3c98ba01461085857600080fd5b8063d2bc8adc146107d2578063d45e7ed0146107f257600080fd5b8063ac7ad44311610138578063b863dcdd11610112578063b863dcdd1461077f578063c048cb201461079f578063ccb787cb146107bf57600080fd5b8063ac7ad44314610711578063b34de3e71461074c578063b442c8cf1461076c57600080fd5b80639fb27d1d116101695780639fb27d1d146106be578063a289cf84146106de578063a494e5cf146106fe57600080fd5b8063808698531461067e57806382a352e71461069e57600080fd5b806332692b891161023d57806352d1902d116101f157806363dfd0e8116101cb57806363dfd0e81461061e578063669ce5cd1461063e5780636909579b1461065e57600080fd5b806352d1902d146105c9578063576b3a64146105de5780635d3590d5146105fe57600080fd5b806343d6807b1161022257806343d6807b146105485780634d24e236146105965780634f1ef286146105b657600080fd5b806332692b89146105155780633659cfe61461052857600080fd5b80631f0389471161029457806323a7c86d1161027957806323a7c86d146104895780632cb130d4146104a95780632e1a7d4d146104f557600080fd5b80631f03894714610454578063202cefd51461047457600080fd5b806308d2396f116102c557806308d2396f1461034e5780631459457a1461037e5780631be0d2af1461039e57600080fd5b806302d8f56d146102ec578063076730c71461032c57600080fd5b366102e757005b600080fd5b3480156102f857600080fd5b5061031961030736600461533e565b60386020526000908152604090205481565b6040519081526020015b60405180910390f35b34801561033857600080fd5b5061034c61034736600461536c565b610980565b005b34801561035a57600080fd5b5061036e6103693660046153e5565b610ac0565b6040519015158152602001610323565b34801561038a57600080fd5b5061034c610399366004615431565b610bf2565b3480156103aa57600080fd5b5061040b6103b936600461533e565b60356020526000908152604090208054600182015460028301546003840154600485015460058601546006909601546001600160a01b0395861696948616959384169492841693918216928216911687565b604080516001600160a01b039889168152968816602088015294871694860194909452918516606085015284166080840152831660a083015290911660c082015260e001610323565b34801561046057600080fd5b5061034c61046f3660046154a2565b610d66565b34801561048057600080fd5b5061034c610e80565b34801561049557600080fd5b5061034c6104a43660046154a2565b611074565b3480156104b557600080fd5b50604080518082018252600d81527f4e65772052656769737472617200000000000000000000000000000000000000602082015290516103239190615514565b34801561050157600080fd5b5061034c61051036600461533e565b61118e565b61031961052336600461556c565b611359565b34801561053457600080fd5b5061034c6105433660046155ef565b61145a565b34801561055457600080fd5b5061057e61056336600461533e565b6036602052600090815260409020546001600160a01b031681565b6040516001600160a01b039091168152602001610323565b3480156105a257600080fd5b5060015461057e906001600160a01b031681565b61034c6105c436600461567b565b6115d5565b3480156105d557600080fd5b5061031961173d565b3480156105ea57600080fd5b50603a5461057e906001600160a01b031681565b34801561060a57600080fd5b5061034c61061936600461570e565b611802565b34801561062a57600080fd5b5061034c61063936600461536c565b61196c565b34801561064a57600080fd5b5061034c61065936600461536c565b611aa0565b34801561066a57600080fd5b5061057e61067936600461533e565b611bd1565b34801561068a57600080fd5b50603b5461057e906001600160a01b031681565b3480156106aa57600080fd5b5061034c6106b936600461574f565b611c07565b3480156106ca57600080fd5b5061034c6106d93660046154a2565b611e81565b3480156106ea57600080fd5b5060375461057e906001600160a01b031681565b61031961070c3660046157d6565b611fad565b34801561071d57600080fd5b5061073161072c366004615899565b612047565b60408051825181526020928301519281019290925201610323565b34801561075857600080fd5b5061034c61076736600461536c565b612100565b61031961077a3660046158ec565b612231565b34801561078b57600080fd5b5061034c61079a3660046154a2565b61231a565b3480156107ab57600080fd5b5061034c6107ba366004615984565b6124a9565b6103196107cd3660046157d6565b6125be565b3480156107de57600080fd5b5061034c6107ed36600461536c565b612627565b3480156107fe57600080fd5b5061034c61080d36600461536c565b612758565b34801561081e57600080fd5b5060005461057e906201000090046001600160a01b031681565b34801561084457600080fd5b506103196108533660046159bc565b612889565b34801561086457600080fd5b5061031960395481565b34801561087a57600080fd5b5061034c61088936600461536c565b612901565b34801561089a57600080fd5b5061034c6108a936600461536c565b612a2d565b3480156108ba57600080fd5b5061034c6108c93660046154a2565b612b5e565b3480156108da57600080fd5b506109186108e936600461533e565b603460205260009081526040902080546001820154600283015460038401546004909401549293919290919085565b604080519586526020860194909452928401919091526060830152608082015260a001610323565b34801561094c57600080fd5b5061073161095b366004615899565b612cf7565b34801561096c57600080fd5b5061031961097b3660046159fc565b612d66565b60005460405162e4decd60e31b815283913391620100009091046001600160a01b031690630726f668906109bc90859060040190815260200190565b602060405180830381865afa1580156109d9573d6000803e3d6000fd5b505050506040513d601f19601f820116820180604052508101906109fd9190615a81565b6001600160a01b031614610a525760405162461bcd60e51b815260206004820152602480820152600080516020615f788339815191526044820152633bb732b960e11b60648201526084015b60405180910390fd5b6000838152603560209081526040918290206003810180546001600160a01b0319166001600160a01b038716908117909155835187815292830152917fe204b1408cc4313756b658144b601fe723a958484dc182f37e0ded386a94ef7d91015b60405180910390a150505050565b60008054604051632c7263b560e01b81526004810186905282916201000090046001600160a01b031690632c7263b590602401602060405180830381865afa158015610b10573d6000803e3d6000fd5b505050506040513d601f19601f82011682018060405250810190610b349190615a81565b905060008484604051610b48929190615a9e565b60405180910390209050610b5d868686612ec2565b8015610be657506040517f96e494e8000000000000000000000000000000000000000000000000000000008152600481018290526001600160a01b038316906396e494e890602401602060405180830381865afa158015610bc2573d6000803e3d6000fd5b505050506040513d601f19601f82011682018060405250810190610be69190615aae565b925050505b9392505050565b600054610100900460ff1615808015610c125750600054600160ff909116105b80610c2c5750303b158015610c2c575060005460ff166001145b610c9e5760405162461bcd60e51b815260206004820152602e60248201527f496e697469616c697a61626c653a20636f6e747261637420697320616c72656160448201527f647920696e697469616c697a65640000000000000000000000000000000000006064820152608401610a49565b6000805460ff191660011790558015610cc1576000805461ff0019166101001790555b603780546001600160a01b038087166001600160a01b031992831617909255603a8054868416908316179055603b805492851692909116919091179055610d07866130c2565b610d108561316d565b610d186131fa565b8015610d5e576000805461ff0019169055604051600181527f7f26b83ff96e1f2b6a682f133852f6798a09c465da95921460cefb38474024989060200160405180910390a15b505050505050565b60005460405162e4decd60e31b815283913391620100009091046001600160a01b031690630726f66890610da290859060040190815260200190565b602060405180830381865afa158015610dbf573d6000803e3d6000fd5b505050506040513d601f19601f82011682018060405250810190610de39190615a81565b6001600160a01b031614610e335760405162461bcd60e51b815260206004820152602480820152600080516020615f788339815191526044820152633bb732b960e11b6064820152608401610a49565b600083815260346020908152604091829020600381018590558251868152918201859052917fcce38ffda70360ed2c66d1a39c523ef1d8aa472a5606b6c0a528d5ecf2fe52fe9101610ab2565b600154604080517f853a65f9000000000000000000000000000000000000000000000000000000008152905133926001600160a01b03169163853a65f99160048083019260209291908290030181865afa158015610ee2573d6000803e3d6000fd5b505050506040513d601f19601f82011682018060405250810190610f069190615a81565b6001600160a01b031614610f825760405162461bcd60e51b815260206004820152603160248201527f4f776e61626c653a2063616c6c6572206973206e6f742074686520706c61746660448201527f6f726d2066656520636f6c6c6563746f720000000000000000000000000000006064820152608401610a49565b60398054600090915580610fd85760405162461bcd60e51b815260206004820152601060248201527f696e73756666696369656e7420666565000000000000000000000000000000006044820152606401610a49565b604051600090339083908381818185875af1925050503d806000811461101a576040519150601f19603f3d011682016040523d82523d6000602084013e61101f565b606091505b50509050806110705760405162461bcd60e51b815260206004820152601460248201527f4661696c656420746f2073656e642045746865720000000000000000000000006044820152606401610a49565b5050565b60005460405162e4decd60e31b815283913391620100009091046001600160a01b031690630726f668906110b090859060040190815260200190565b602060405180830381865afa1580156110cd573d6000803e3d6000fd5b505050506040513d601f19601f820116820180604052508101906110f19190615a81565b6001600160a01b0316146111415760405162461bcd60e51b815260206004820152602480820152600080516020615f788339815191526044820152633bb732b960e11b6064820152608401610a49565b600083815260346020908152604091829020600281018590558251868152918201859052917fe8c4cdf070fb09893e85544385665a343aef60941524ba76f869c565982c4c289101610ab2565b60005460405162e4decd60e31b815282913391620100009091046001600160a01b031690630726f668906111ca90859060040190815260200190565b602060405180830381865afa1580156111e7573d6000803e3d6000fd5b505050506040513d601f19601f8201168201806040525081019061120b9190615a81565b6001600160a01b03161461125b5760405162461bcd60e51b815260206004820152602480820152600080516020615f788339815191526044820152633bb732b960e11b6064820152608401610a49565b60008281526038602052604081208054919055806112bb5760405162461bcd60e51b815260206004820152601460248201527f696e73756666696369656e7420726576656e75650000000000000000000000006044820152606401610a49565b604051600090339083908381818185875af1925050503d80600081146112fd576040519150601f19603f3d011682016040523d82523d6000602084013e611302565b606091505b50509050806113535760405162461bcd60e51b815260206004820152601460248201527f4661696c656420746f2073656e642045746865720000000000000000000000006044820152606401610a49565b50505050565b60008080805b8781101561143e576000808987036113ce576113c48c8c8c8681811061138757611387615acb565b90506020028101906113999190615ae1565b8c338d8d8a8181106113ad576113ad615acb565b90506020028101906113bf9190615ae1565b61326f565b9092509050611411565b61140b8c8c8c868181106113e4576113e4615acb565b90506020028101906113f69190615ae1565b8c338d8d60008181106113ad576113ad615acb565b90925090505b61141b8285615b3e565b93506114278186615b3e565b94505050808061143690615b51565b91505061135f565b50600061144c8a838561347b565b9a9950505050505050505050565b6001600160a01b037f00000000000000000000000000000000000000000000000000000000000000001630036114e75760405162461bcd60e51b815260206004820152602c60248201527f46756e6374696f6e206d7573742062652063616c6c6564207468726f7567682060448201526b19195b1959d85d1958d85b1b60a21b6064820152608401610a49565b7f00000000000000000000000000000000000000000000000000000000000000006001600160a01b03166115427f360894a13ba1a3210667c828492db98dca3e2076cc3735a920a3ca505d382bbc546001600160a01b031690565b6001600160a01b0316146115ad5760405162461bcd60e51b815260206004820152602c60248201527f46756e6374696f6e206d7573742062652063616c6c6564207468726f7567682060448201526b6163746976652070726f787960a01b6064820152608401610a49565b6115b681613731565b604080516000808252602082019092526115d29183919061380f565b50565b6001600160a01b037f00000000000000000000000000000000000000000000000000000000000000001630036116625760405162461bcd60e51b815260206004820152602c60248201527f46756e6374696f6e206d7573742062652063616c6c6564207468726f7567682060448201526b19195b1959d85d1958d85b1b60a21b6064820152608401610a49565b7f00000000000000000000000000000000000000000000000000000000000000006001600160a01b03166116bd7f360894a13ba1a3210667c828492db98dca3e2076cc3735a920a3ca505d382bbc546001600160a01b031690565b6001600160a01b0316146117285760405162461bcd60e51b815260206004820152602c60248201527f46756e6374696f6e206d7573742062652063616c6c6564207468726f7567682060448201526b6163746976652070726f787960a01b6064820152608401610a49565b61173182613731565b6110708282600161380f565b6000306001600160a01b037f000000000000000000000000000000000000000000000000000000000000000016146117dd5760405162461bcd60e51b815260206004820152603860248201527f555550535570677261646561626c653a206d757374206e6f742062652063616c60448201527f6c6564207468726f7567682064656c656761746563616c6c00000000000000006064820152608401610a49565b507f360894a13ba1a3210667c828492db98dca3e2076cc3735a920a3ca505d382bbc90565b6000546040805163cdcd7fb560e01b8152905133926201000090046001600160a01b03169163cdcd7fb59160048083019260209291908290030181865afa158015611851573d6000803e3d6000fd5b505050506040513d601f19601f820116820180604052508101906118759190615a81565b6001600160a01b0316146118e05760405162461bcd60e51b815260206004820152602c60248201527f41636365737369626c653a2063616c6c6572206973206e6f742074686520706c60448201526b30ba3337b9369030b236b4b760a11b6064820152608401610a49565b6040517fa9059cbb0000000000000000000000000000000000000000000000000000000081526001600160a01b0383811660048301526024820183905284169063a9059cbb906044016020604051808303816000875af1158015611948573d6000803e3d6000fd5b505050506040513d601f19601f820116820180604052508101906113539190615aae565b60005460405162e4decd60e31b815283913391620100009091046001600160a01b031690630726f668906119a890859060040190815260200190565b602060405180830381865afa1580156119c5573d6000803e3d6000fd5b505050506040513d601f19601f820116820180604052508101906119e99190615a81565b6001600160a01b031614611a395760405162461bcd60e51b815260206004820152602480820152600080516020615f788339815191526044820152633bb732b960e11b6064820152608401610a49565b60008381526036602090815260409182902080546001600160a01b0319166001600160a01b0386169081179091558251868152918201527f0e65447dcb916c8017fbe654fdd00b172fec1f0e7803018a37050e700c20a37f910160405180910390a1505050565b60005460405162e4decd60e31b815283913391620100009091046001600160a01b031690630726f66890611adc90859060040190815260200190565b602060405180830381865afa158015611af9573d6000803e3d6000fd5b505050506040513d601f19601f82011682018060405250810190611b1d9190615a81565b6001600160a01b031614611b6d5760405162461bcd60e51b815260206004820152602480820152600080516020615f788339815191526044820152633bb732b960e11b6064820152608401610a49565b6000838152603560209081526040918290206005810180546001600160a01b0319166001600160a01b038716908117909155835187815292830152917fcf1f0d17ea01938c06cba546f89b9b7dda5f259ef5b77a4733ec642bceb008eb9101610ab2565b6000818152603660205260408120546001600160a01b031680611c01575050603a546001600160a01b0316919050565b92915050565b60005460405162e4decd60e31b815287913391620100009091046001600160a01b031690630726f66890611c4390859060040190815260200190565b602060405180830381865afa158015611c60573d6000803e3d6000fd5b505050506040513d601f19601f82011682018060405250810190611c849190615a81565b6001600160a01b031614611cd45760405162461bcd60e51b815260206004820152602480820152600080516020615f788339815191526044820152633bb732b960e11b6064820152608401610a49565b60008781526035602090815260409182902080546001600160a01b03199081166001600160a01b038b8116918217845560018401805484168c831617905560038401805484168b831617905560048401805484168a83161790556006840180549093169088161790915583518b815292830152917fac577474c2505adbd93b1ddd44b3a31ec78fe871b97a97dd15f2ae2fdea45776910160405180910390a1604080518981526001600160a01b03881660208201527fc7f42afd8cbc412e62bfa6e8bc2866776a5ac1caaaf585d2faf16ccde19fbef5910160405180910390a1604080518981526001600160a01b03871660208201527fe204b1408cc4313756b658144b601fe723a958484dc182f37e0ded386a94ef7d910160405180910390a1604080518981526001600160a01b03861660208201527f34b3dc41ee7dd660208f82c4dea165b04dbc34ba2272219bc0be902798d8904b910160405180910390a1604080518981526001600160a01b03851660208201527fbce6be89b296a4efbc6a0e570267d046bcd4816102c86bfc0388b54eb0bb676a910160405180910390a15050505050505050565b60005460405162e4decd60e31b815283913391620100009091046001600160a01b031690630726f66890611ebd90859060040190815260200190565b602060405180830381865afa158015611eda573d6000803e3d6000fd5b505050506040513d601f19601f82011682018060405250810190611efe9190615a81565b6001600160a01b031614611f4e5760405162461bcd60e51b815260206004820152602480820152600080516020615f788339815191526044820152633bb732b960e11b6064820152608401610a49565b60008381526034602052604090208215611f6e5760048101839055611f77565b60001960048201555b60408051858152602081018590527fd0705bce265d909a183d44137621ac0cead8ebcd1a59e86bab7fe1da3ad566da9101610ab2565b60003315611fba57600080fd5b6040805160a0810182526001600160a01b03808a16808352602083015291810188905290861660608201528415156080820152600080611ffe8d8d8d868a8a6139af565b91509150600061200f8e848461347b565b9050806040517f35730163000000000000000000000000000000000000000000000000000000008152600401610a4991815260200190565b6040805180820190915260008082526020820152600061206686611bd1565b6040517f0502c6750000000000000000000000000000000000000000000000000000000081529091506001600160a01b03821690630502c675906120b69088908890429089908d90600401615b93565b6040805180830381865afa1580156120d2573d6000803e3d6000fd5b505050506040513d601f19601f820116820180604052508101906120f69190615bc4565b9695505050505050565b60005460405162e4decd60e31b815283913391620100009091046001600160a01b031690630726f6689061213c90859060040190815260200190565b602060405180830381865afa158015612159573d6000803e3d6000fd5b505050506040513d601f19601f8201168201806040525081019061217d9190615a81565b6001600160a01b0316146121cd5760405162461bcd60e51b815260206004820152602480820152600080516020615f788339815191526044820152633bb732b960e11b6064820152608401610a49565b6000838152603560209081526040918290206002810180546001600160a01b0319166001600160a01b038716908117909155835187815292830152917f8a1b187e18ba1cf07ac179c27384169e67be275060c3b2dc512da41492be9fee9101610ab2565b6000331561223e57600080fd5b60008060005b8881101561230c576000808a870361229c576122928d8d8d8681811061226c5761226c615acb565b905060200281019061227e9190615ae1565b8d8d8d8d8a8181106113ad576113ad615acb565b90925090506122df565b6122d98d8d8d868181106122b2576122b2615acb565b90506020028101906122c49190615ae1565b8d8d8d8d60008181106113ad576113ad615acb565b90925090505b6122e98285615b3e565b93506122f58186615b3e565b94505050808061230490615b51565b915050612244565b50600061200f8b838561347b565b60005460405162e4decd60e31b815283913391620100009091046001600160a01b031690630726f6689061235690859060040190815260200190565b602060405180830381865afa158015612373573d6000803e3d6000fd5b505050506040513d601f19601f820116820180604052508101906123979190615a81565b6001600160a01b0316146123e75760405162461bcd60e51b815260206004820152602480820152600080516020615f788339815191526044820152633bb732b960e11b6064820152608401610a49565b6000838152603460205260409020805483101561246c5760405162461bcd60e51b815260206004820152603b60248201527f6d6178446f6d61696e4c656e677468206d75737420626520677265617465722060448201527f6f7220657175616c20746f206d696e446f6d61696e4c656e67746800000000006064820152608401610a49565b6001810183905560408051858152602081018590527f5cc178cc645fedac2530cae167f2d00984528d986ad85e645f0283deac25fcf29101610ab2565b60005460405162e4decd60e31b815283913391620100009091046001600160a01b031690630726f668906124e590859060040190815260200190565b602060405180830381865afa158015612502573d6000803e3d6000fd5b505050506040513d601f19601f820116820180604052508101906125269190615a81565b6001600160a01b0316146125765760405162461bcd60e51b815260206004820152602480820152600080516020615f788339815191526044820152633bb732b960e11b6064820152608401610a49565b61258483836020013561231a565b61258f838335612b5e565b61259d838360800135611e81565b6125ab838360400135611074565b6125b9838360600135610d66565b505050565b6040805160a0810182523381526001600160a01b0388811660208301529181018790529085166060820152831515608082015260009081806126048d8d8d868a8a6139af565b9150915060006126158e848461347b565b9e9d5050505050505050505050505050565b60005460405162e4decd60e31b815283913391620100009091046001600160a01b031690630726f6689061266390859060040190815260200190565b602060405180830381865afa158015612680573d6000803e3d6000fd5b505050506040513d601f19601f820116820180604052508101906126a49190615a81565b6001600160a01b0316146126f45760405162461bcd60e51b815260206004820152602480820152600080516020615f788339815191526044820152633bb732b960e11b6064820152608401610a49565b6000838152603560209081526040918290206004810180546001600160a01b0319166001600160a01b038716908117909155835187815292830152917f34b3dc41ee7dd660208f82c4dea165b04dbc34ba2272219bc0be902798d8904b9101610ab2565b60005460405162e4decd60e31b815283913391620100009091046001600160a01b031690630726f6689061279490859060040190815260200190565b602060405180830381865afa1580156127b1573d6000803e3d6000fd5b505050506040513d601f19601f820116820180604052508101906127d59190615a81565b6001600160a01b0316146128255760405162461bcd60e51b815260206004820152602480820152600080516020615f788339815191526044820152633bb732b960e11b6064820152608401610a49565b6000838152603560209081526040918290206006810180546001600160a01b0319166001600160a01b038716908117909155835187815292830152917fbce6be89b296a4efbc6a0e570267d046bcd4816102c86bfc0388b54eb0bb676a9101610ab2565b6000805b838110156128f85760006128c5878787858181106128ad576128ad615acb565b90506020028101906128bf9190615ae1565b87612cf7565b602081015181519192506128d891615b3e565b6128e29084615b3e565b92505080806128f090615b51565b91505061288d565b50949350505050565b60005460405162e4decd60e31b815283913391620100009091046001600160a01b031690630726f6689061293d90859060040190815260200190565b602060405180830381865afa15801561295a573d6000803e3d6000fd5b505050506040513d601f19601f8201168201806040525081019061297e9190615a81565b6001600160a01b0316146129ce5760405162461bcd60e51b815260206004820152602480820152600080516020615f788339815191526044820152633bb732b960e11b6064820152608401610a49565b60008381526035602090815260409182902080546001600160a01b0319166001600160a01b0386169081178255835187815292830152917fac577474c2505adbd93b1ddd44b3a31ec78fe871b97a97dd15f2ae2fdea457769101610ab2565b60005460405162e4decd60e31b815283913391620100009091046001600160a01b031690630726f66890612a6990859060040190815260200190565b602060405180830381865afa158015612a86573d6000803e3d6000fd5b505050506040513d601f19601f82011682018060405250810190612aaa9190615a81565b6001600160a01b031614612afa5760405162461bcd60e51b815260206004820152602480820152600080516020615f788339815191526044820152633bb732b960e11b6064820152608401610a49565b6000838152603560209081526040918290206001810180546001600160a01b0319166001600160a01b038716908117909155835187815292830152917fc7f42afd8cbc412e62bfa6e8bc2866776a5ac1caaaf585d2faf16ccde19fbef59101610ab2565b60005460405162e4decd60e31b815283913391620100009091046001600160a01b031690630726f66890612b9a90859060040190815260200190565b602060405180830381865afa158015612bb7573d6000803e3d6000fd5b505050506040513d601f19601f82011682018060405250810190612bdb9190615a81565b6001600160a01b031614612c2b5760405162461bcd60e51b815260206004820152602480820152600080516020615f788339815191526044820152633bb732b960e11b6064820152608401610a49565b60008381526034602052604090208215801590612c4c575080600101548311155b612cbe5760405162461bcd60e51b815260206004820152603860248201527f6d696e446f6d61696e4c656e677468206d757374206265206c657373206f722060448201527f657175616c20746f206d6178446f6d61696e4c656e67746800000000000000006064820152608401610a49565b82815560408051858152602081018590527f5a76e4dbb1f005eb83fcaadd13ceb68b0e0b3e0114c4c53fb8d38e3f907037919101610ab2565b60408051808201909152600080825260208201526000612d1686611bd1565b6040517fc9920ebe0000000000000000000000000000000000000000000000000000000081529091506001600160a01b0382169063c9920ebe906120b69088908890429089908d90600401615b93565b600080612d7589898988612047565b60208101518151919250612d8891615b3e565b60008a8152603560205260409020600181015491935091506001600160a01b031615612e4b5760018101546040517f93ba731b0000000000000000000000000000000000000000000000000000000081526001600160a01b03909116906393ba731b90612e07908c908c908c908c908c908a908d908d90600401615c13565b602060405180830381865afa158015612e24573d6000803e3d6000fd5b505050506040513d601f19601f82011682018060405250810190612e489190615c6a565b91505b6000612e568a611bd1565b6040516368a33fc360e11b8152600481018590529091506001600160a01b0382169063d1467f8690602401602060405180830381865afa158015612e9e573d6000803e3d6000fd5b505050506040513d601f19601f8201168201806040525081019061144c9190615c6a565b60008381526034602052604080822082549151632c7263b560e01b81526004810187905290918391620100009091046001600160a01b031690632c7263b590602401602060405180830381865afa158015612f21573d6000803e3d6000fd5b505050506040513d601f19601f82011682018060405250810190612f459190615a81565b90508160000154612f8b86868080601f016020809104026020016040519081016040528093929190818152602001838380828437600092019190915250613a9e92505050565b1015612f9c57600092505050610beb565b8160010154612fe086868080601f016020809104026020016040519081016040528093929190818152602001838380828437600092019190915250613a9e92505050565b1115612ff157600092505050610beb565b61303085858080601f016020809104026020016040519081016040528093929190818152602001838380828437600092019190915250613c1192505050565b61303f57600092505050610beb565b806001600160a01b0316636f3d8fe86040518163ffffffff1660e01b8152600401602060405180830381865afa15801561307d573d6000803e3d6000fd5b505050506040513d601f19601f820116820180604052508101906130a19190615c6a565b8260040154116130b657600092505050610beb565b50600195945050505050565b600054610100900460ff1661312d5760405162461bcd60e51b815260206004820152602b60248201527f496e697469616c697a61626c653a20636f6e7472616374206973206e6f74206960448201526a6e697469616c697a696e6760a81b6064820152608401610a49565b600080546001600160a01b0390921662010000027fffffffffffffffffffff0000000000000000000000000000000000000000ffff909216919091179055565b600054610100900460ff166131d85760405162461bcd60e51b815260206004820152602b60248201527f496e697469616c697a61626c653a20636f6e7472616374206973206e6f74206960448201526a6e697469616c697a696e6760a81b6064820152608401610a49565b600180546001600160a01b0319166001600160a01b0392909216919091179055565b600054610100900460ff166132655760405162461bcd60e51b815260206004820152602b60248201527f496e697469616c697a61626c653a20636f6e7472616374206973206e6f74206960448201526a6e697469616c697a696e6760a81b6064820152608401610a49565b61326d613ee7565b565b60008061327a613f59565b600089815260346020526040902060038101548710156132b757604051634086703360e11b8152600481018b905260248101889052604401610a49565b506000806132c78b8b8b8b612047565b602081015181519192506132da91615b3e565b60008c8152603560205260409020600481015491935091506001600160a01b03161561332257600481015461331f906001600160a01b03168c8c8c8b8d888d8d613fb0565b91505b6001546040517f38ad9159000000000000000000000000000000000000000000000000000000008152600481018d9052602481018490526001600160a01b03909116906338ad915990604401602060405180830381865afa15801561338b573d6000803e3d6000fd5b505050506040513d601f19601f820116820180604052508101906133af9190615c6a565b92508183106133c157600093506133ce565b6133cb8383615c83565b93505b60058101546001600160a01b031615613422576005810154613401906001600160a01b03168c8c8c8b8d888a8e8e614025565b9350915082821061341d576134168383615c83565b9350613422565b600093505b60068101546001600160a01b031615613456576006810154613456906001600160a01b03168c8c8c8b8d888b8b8f8f61417d565b6134638b8b8b8b86614286565b505061346f6001600255565b97509795505050505050565b60008061348785611bd1565b905060006001600160a01b03821663d1467f866134a48688615b3e565b6040518263ffffffff1660e01b81526004016134c291815260200190565b602060405180830381865afa1580156134df573d6000803e3d6000fd5b505050506040513d601f19601f820116820180604052508101906135039190615c6a565b9050803410156135555760405162461bcd60e51b815260206004820152601260248201527f496e73756666696369656e742066756e647300000000000000000000000000006044820152606401610a49565b60006135618234615c83565b9050801561360357604051600090339083908381818185875af1925050503d80600081146135ab576040519150601f19603f3d011682016040523d82523d6000602084013e6135b0565b606091505b50509050806136015760405162461bcd60e51b815260206004820152601460248201527f4661696c656420746f2073656e642045746865720000000000000000000000006044820152606401610a49565b505b6000851561368e576040516368a33fc360e11b8152600481018790526001600160a01b0385169063d1467f8690602401602060405180830381865afa158015613650573d6000803e3d6000fd5b505050506040513d601f19601f820116820180604052508101906136749190615c6a565b905080603960008282546136889190615b3e565b90915550505b828615613701576040516368a33fc360e11b8152600481018990526001600160a01b0386169063d1467f8690602401602060405180830381865afa1580156136da573d6000803e3d6000fd5b505050506040513d601f19601f820116820180604052508101906136fe9190615c6a565b90505b6000898152603860205260408120805483929061371f908490615b3e565b90915550939998505050505050505050565b6000546040805163cdcd7fb560e01b8152905133926201000090046001600160a01b03169163cdcd7fb59160048083019260209291908290030181865afa158015613780573d6000803e3d6000fd5b505050506040513d601f19601f820116820180604052508101906137a49190615a81565b6001600160a01b0316146115d25760405162461bcd60e51b815260206004820152602c60248201527f41636365737369626c653a2063616c6c6572206973206e6f742074686520706c60448201526b30ba3337b9369030b236b4b760a11b6064820152608401610a49565b7f4910fdfa16fed3260ed0e7147f7cc6da11a60208b5b9406d12a635614ffd91435460ff1615613842576125b9836143ef565b826001600160a01b03166352d1902d6040518163ffffffff1660e01b8152600401602060405180830381865afa92505050801561389c575060408051601f3d908101601f1916820190925261389991810190615c6a565b60015b61390e5760405162461bcd60e51b815260206004820152602e60248201527f45524331393637557067726164653a206e657720696d706c656d656e7461746960448201527f6f6e206973206e6f7420555550530000000000000000000000000000000000006064820152608401610a49565b7f360894a13ba1a3210667c828492db98dca3e2076cc3735a920a3ca505d382bbc81146139a35760405162461bcd60e51b815260206004820152602960248201527f45524331393637557067726164653a20756e737570706f727465642070726f7860448201527f6961626c655555494400000000000000000000000000000000000000000000006064820152608401610a49565b506125b98383836144ad565b60008060005b86811015613a9257600080888603613a2357613a198b8b8b868181106139dd576139dd615acb565b90506020028101906139ef9190615ae1565b8b8b8b89818110613a0257613a02615acb565b9050602002810190613a149190615ae1565b6144d2565b9092509050613a65565b613a5f8b8b8b86818110613a3957613a39615acb565b9050602002810190613a4b9190615ae1565b8b8b8b6000818110613a0257613a02615acb565b90925090505b613a6f8286615b3e565b9450613a7b8185615b3e565b935050508080613a8a90615b51565b9150506139b5565b50965096945050505050565b8051600090819081905b80821015613c08576000858381518110613ac457613ac4615acb565b01602001516001600160f81b0319169050600160ff1b811015613af357613aec600184615b3e565b9250613bf5565b7fe0000000000000000000000000000000000000000000000000000000000000006001600160f81b031982161015613b3057613aec600284615b3e565b7ff0000000000000000000000000000000000000000000000000000000000000006001600160f81b031982161015613b6d57613aec600384615b3e565b7ff8000000000000000000000000000000000000000000000000000000000000006001600160f81b031982161015613baa57613aec600484615b3e565b7ffc000000000000000000000000000000000000000000000000000000000000006001600160f81b031982161015613be757613aec600584615b3e565b613bf2600684615b3e565b92505b5082613c0081615b51565b935050613aa8565b50909392505050565b600080829050600381511015613c2a5750600192915050565b60005b60028251613c3b9190615c83565b811015613edd57818181518110613c5457613c54615acb565b6020910101516001600160f81b0319167fe200000000000000000000000000000000000000000000000000000000000000148015613cc0575081613c99826001615b3e565b81518110613ca957613ca9615acb565b6020910101516001600160f81b031916600160ff1b145b15613dd15781613cd1826002615b3e565b81518110613ce157613ce1615acb565b6020910101516001600160f81b0319167f8b000000000000000000000000000000000000000000000000000000000000001480613d68575081613d25826002615b3e565b81518110613d3557613d35615acb565b6020910101516001600160f81b0319167f8c00000000000000000000000000000000000000000000000000000000000000145b80613dbd575081613d7a826002615b3e565b81518110613d8a57613d8a615acb565b6020910101516001600160f81b0319167f8d00000000000000000000000000000000000000000000000000000000000000145b15613dcc575060009392505050565b613ecb565b818181518110613de357613de3615acb565b01602001516001600160f81b0319167fef0000000000000000000000000000000000000000000000000000000000000003613ecb5781613e24826001615b3e565b81518110613e3457613e34615acb565b6020910101516001600160f81b0319167fbb00000000000000000000000000000000000000000000000000000000000000148015613ebc575081613e79826002615b3e565b81518110613e8957613e89615acb565b6020910101516001600160f81b0319167fbf00000000000000000000000000000000000000000000000000000000000000145b15613ecb575060009392505050565b80613ed581615b51565b915050613c2d565b5060019392505050565b600054610100900460ff16613f525760405162461bcd60e51b815260206004820152602b60248201527f496e697469616c697a61626c653a20636f6e7472616374206973206e6f74206960448201526a6e697469616c697a696e6760a81b6064820152608401610a49565b6001600255565b6002805403613faa5760405162461bcd60e51b815260206004820152601f60248201527f5265656e7472616e637947756172643a207265656e7472616e742063616c6c006044820152606401610a49565b60028055565b6040517f0b6ca8970000000000000000000000000000000000000000000000000000000081526000906001600160a01b038b1690630b6ca89790614006908c908c908c908c908c908c908c908c90600401615c13565b6020604051808303816000875af1158015612e9e573d6000803e3d6000fd5b6000806000808d6001600160a01b031663392130da8e8e8e8e8e8e8e8e8e6040518a63ffffffff1660e01b815260040161406799989796959493929190615c96565b60408051808303816000875af1158015614085573d6000803e3d6000fd5b505050506040513d601f19601f820116820180604052508101906140a99190615cf4565b91509150818810156140ba57600080fd5b6140c48289615c83565b9750868111156140d757506000956140e4565b6140e18188615c83565b96505b8015614169576037546040517f95d4be7f000000000000000000000000000000000000000000000000000000008152600481018f9052602481018390526001600160a01b03909116906395d4be7f90604401600060405180830381600087803b15801561415057600080fd5b505af1158015614164573d6000803e3d6000fd5b505050505b50959c949b50939950505050505050505050565b60006141888b611bd1565b6040516368a33fc360e11b8152600481018790529091506000906001600160a01b0383169063d1467f8690602401602060405180830381865afa1580156141d3573d6000803e3d6000fd5b505050506040513d601f19601f820116820180604052508101906141f79190615c6a565b90503481111561420657600080fd5b8c6001600160a01b03166376b0bb7d828e8e8e8e8e8e8e8e8e8e6040518c63ffffffff1660e01b81526004016142459a99989796959493929190615d18565b6000604051808303818588803b15801561425e57600080fd5b505af1158015614272573d6000803e3d6000fd5b505050505050505050505050505050505050565b60008054604051632c7263b560e01b815260048101889052620100009091046001600160a01b031690632c7263b590602401602060405180830381865afa1580156142d5573d6000803e3d6000fd5b505050506040513d601f19601f820116820180604052508101906142f99190615a81565b90506000858560405161430d929190615a9e565b6040519081900381207fc475abff000000000000000000000000000000000000000000000000000000008252600482018190526024820186905291506000906001600160a01b0384169063c475abff906044016020604051808303816000875af115801561437f573d6000803e3d6000fd5b505050506040513d601f19601f820116820180604052508101906143a39190615c6a565b9050817f784220c4d2cf9a5d0361368e22f52f257be5f1e4819cf161d06f62dcec97211689898988866040516143dd959493929190615d80565b60405180910390a25050505050505050565b6001600160a01b0381163b61446c5760405162461bcd60e51b815260206004820152602d60248201527f455243313936373a206e657720696d706c656d656e746174696f6e206973206e60448201527f6f74206120636f6e7472616374000000000000000000000000000000000000006064820152608401610a49565b7f360894a13ba1a3210667c828492db98dca3e2076cc3735a920a3ca505d382bbc80546001600160a01b0319166001600160a01b0392909216919091179055565b6144b6836147d7565b6000825111806144c35750805b156125b9576113538383614817565b6000806144dd613f59565b6144e8888888610ac0565b614524578787876040517fc8e58ae8000000000000000000000000000000000000000000000000000000008152600401610a4993929190615dae565b600088815260346020526040908190206002810154918701519091111561456f57888660400151604051634086703360e11b8152600401610a49929190918252602082015260400190565b50600088815260356020526040902080546001600160a01b0316156145b2578054865160408801516145b2926001600160a01b0316918c918c918c918b8b61483c565b6000806145c58b8b8b8b60400151612047565b602081015181519192506145d891615b3e565b60018401549092506001600160a01b031615905061461b57600182015487516040890151614618926001600160a01b0316918d918d918d91878d8d614917565b90505b6001546040517f9972d944000000000000000000000000000000000000000000000000000000008152600481018c9052602481018390526001600160a01b0390911690639972d94490604401602060405180830381865afa158015614684573d6000803e3d6000fd5b505050506040513d601f19601f820116820180604052508101906146a89190615c6a565b92508083106146ba57600093506146c7565b6146c48382615c83565b93505b60028201546001600160a01b03161561472457600282015487516040890151614703926001600160a01b0316918d918d918d91878a8e8e61496d565b9350905082811061471f576147188382615c83565b9350614724565b600093505b60038201546001600160a01b03161561476157600382015487516040890151614761926001600160a01b0316918d918d918d91878b8b8f8f6149af565b61477c8a8a8a8a602001518b604001518c6060015187614a77565b866080015180156147a6575086602001516001600160a01b031687600001516001600160a01b0316145b156147c0576147c08a8a8a8a606001518b60200151614eed565b50506147cc6001600255565b965096945050505050565b6147e0816143ef565b6040516001600160a01b038216907fbc7cd75a20ee27fd9adebab32041f755214dbc6bffa90cc0225b39da2e5c2d3b90600090a250565b6060610beb8383604051806060016040528060278152602001615f9860279139615220565b6040517f36625cc30000000000000000000000000000000000000000000000000000000081526000906001600160a01b038a16906336625cc390614890908b908b908b908b908b908b908b90600401615dd1565b6020604051808303816000875af11580156148af573d6000803e3d6000fd5b505050506040513d601f19601f820116820180604052508101906148d39190615aae565b90508061490c576040517f3c166a5400000000000000000000000000000000000000000000000000000000815260040160405180910390fd5b505050505050505050565b6040517f80fd9d8d0000000000000000000000000000000000000000000000000000000081526000906001600160a01b038b16906380fd9d8d90614006908c908c908c908c908c908c908c908c90600401615c13565b6000806000808d6001600160a01b031663347652e38e8e8e8e8e8e8e8e8e6040518a63ffffffff1660e01b815260040161406799989796959493929190615c96565b60006149ba8b611bd1565b6040516368a33fc360e11b8152600481018790529091506000906001600160a01b0383169063d1467f8690602401602060405180830381865afa158015614a05573d6000803e3d6000fd5b505050506040513d601f19601f82011682018060405250810190614a299190615c6a565b905034811115614a3857600080fd5b8c6001600160a01b03166322a6f8db828e8e8e8e8e8e8e8e8e8e6040518c63ffffffff1660e01b81526004016142459a99989796959493929190615d18565b6000808787604051614a8a929190615a9e565b60405190819003812060008054632c7263b560e01b8452600484018d9052919350839290916201000090046001600160a01b031690632c7263b590602401602060405180830381865afa158015614ae5573d6000803e3d6000fd5b505050506040513d601f19601f82011682018060405250810190614b099190615a81565b6040517ffca247ac00000000000000000000000000000000000000000000000000000000815260048101849052306024820152604481018990529091506001600160a01b0382169063fca247ac906064016020604051808303816000875af1158015614b79573d6000803e3d6000fd5b505050506040513d601f19601f82011682018060405250810190614b9d9190615c6a565b9350876001600160a01b0316837ffff5126f1caa0828f41366705e553eafc996d02fffa924bf2c463a00a17600dc8d8d8d8a8a604051614be1959493929190615d80565b60405180910390a36000816001600160a01b031663ddf7fcb06040518163ffffffff1660e01b8152600401602060405180830381865afa158015614c29573d6000803e3d6000fd5b505050506040513d601f19601f82011682018060405250810190614c4d9190615c6a565b6040805160208101929092528101859052606001604051602081830303815290604052805190602001209050816001600160a01b031663f9482e1a6040518163ffffffff1660e01b8152600401602060405180830381865afa158015614cb7573d6000803e3d6000fd5b505050506040513d601f19601f82011682018060405250810190614cdb9190615a81565b6040517f1896f70a000000000000000000000000000000000000000000000000000000008152600481018390526001600160a01b0389811660248301529190911690631896f70a90604401600060405180830381600087803b158015614d4057600080fd5b505af1158015614d54573d6000803e3d6000fd5b505050506001600160a01b03891615614de3576040517fd5fa2b00000000000000000000000000000000000000000000000000000000008152600481018290526001600160a01b038a8116602483015288169063d5fa2b0090604401600060405180830381600087803b158015614dca57600080fd5b505af1158015614dde573d6000803e3d6000fd5b505050505b6040517f28ed4f6c000000000000000000000000000000000000000000000000000000008152600481018490526001600160a01b038a811660248301528316906328ed4f6c90604401600060405180830381600087803b158015614e4657600080fd5b505af1158015614e5a573d6000803e3d6000fd5b50506040517f23b872dd0000000000000000000000000000000000000000000000000000000081523060048201526001600160a01b038c8116602483015260448201879052851692506323b872dd9150606401600060405180830381600087803b158015614ec757600080fd5b505af1158015614edb573d6000803e3d6000fd5b50505050505050505050505050505050565b600080546040517f9424bff800000000000000000000000000000000000000000000000000000000815260048101889052620100009091046001600160a01b031690639424bff890602401600060405180830381865afa158015614f55573d6000803e3d6000fd5b505050506040513d6000823e601f3d908101601f19168201604052614f7d9190810190615e13565b603b546040517fbffbe61c0000000000000000000000000000000000000000000000000000000081523360048201529192506000916001600160a01b039091169063bffbe61c90602401602060405180830381865afa158015614fe4573d6000803e3d6000fd5b505050506040513d601f19601f820116820180604052508101906150089190615c6a565b6040517f691f3431000000000000000000000000000000000000000000000000000000008152600481018290529091506000906001600160a01b0386169063691f343190602401600060405180830381865afa15801561506c573d6000803e3d6000fd5b505050506040513d6000823e601f3d908101601f191682016040526150949190810190615e13565b9050805160000361515f57603b546040516001600160a01b0390911690637a806d6b903390879089906150cd908d908d90602001615e81565b60408051601f19818403018152908290526150ec918a90602001615eb3565b6040516020818303038152906040526040518563ffffffff1660e01b815260040161511a9493929190615ee2565b6020604051808303816000875af1158015615139573d6000803e3d6000fd5b505050506040513d601f19601f8201168201806040525081019061515d9190615c6a565b505b603b546040516001600160a01b03909116906397c3a355903390879089908d9061518f908e908e90602001615e81565b60408051601f19818403018152908290526151ae918b90602001615eb3565b6040516020818303038152906040526040518663ffffffff1660e01b81526004016151dd959493929190615f16565b6020604051808303816000875af11580156151fc573d6000803e3d6000fd5b505050506040513d601f19601f8201168201806040525081019061490c9190615c6a565b60606001600160a01b0384163b61529f5760405162461bcd60e51b815260206004820152602660248201527f416464726573733a2064656c65676174652063616c6c20746f206e6f6e2d636f60448201527f6e747261637400000000000000000000000000000000000000000000000000006064820152608401610a49565b600080856001600160a01b0316856040516152ba9190615f5b565b600060405180830381855af49150503d80600081146152f5576040519150601f19603f3d011682016040523d82523d6000602084013e6152fa565b606091505b5091509150610be682828660608315615314575081610beb565b8251156153245782518084602001fd5b8160405162461bcd60e51b8152600401610a499190615514565b60006020828403121561535057600080fd5b5035919050565b6001600160a01b03811681146115d257600080fd5b6000806040838503121561537f57600080fd5b82359150602083013561539181615357565b809150509250929050565b60008083601f8401126153ae57600080fd5b50813567ffffffffffffffff8111156153c657600080fd5b6020830191508360208285010111156153de57600080fd5b9250929050565b6000806000604084860312156153fa57600080fd5b83359250602084013567ffffffffffffffff81111561541857600080fd5b6154248682870161539c565b9497909650939450505050565b600080600080600060a0868803121561544957600080fd5b853561545481615357565b9450602086013561546481615357565b9350604086013561547481615357565b9250606086013561548481615357565b9150608086013561549481615357565b809150509295509295909350565b600080604083850312156154b557600080fd5b50508035926020909101359150565b60005b838110156154df5781810151838201526020016154c7565b50506000910152565b600081518084526155008160208601602086016154c4565b601f01601f19169290920160200192915050565b602081526000610beb60208301846154e8565b60008083601f84011261553957600080fd5b50813567ffffffffffffffff81111561555157600080fd5b6020830191508360208260051b85010111156153de57600080fd5b6000806000806000806080878903121561558557600080fd5b86359550602087013567ffffffffffffffff808211156155a457600080fd5b6155b08a838b01615527565b90975095506040890135945060608901359150808211156155d057600080fd5b506155dd89828a01615527565b979a9699509497509295939492505050565b60006020828403121561560157600080fd5b8135610beb81615357565b634e487b7160e01b600052604160045260246000fd5b604051601f8201601f1916810167ffffffffffffffff8111828210171561564b5761564b61560c565b604052919050565b600067ffffffffffffffff82111561566d5761566d61560c565b50601f01601f191660200190565b6000806040838503121561568e57600080fd5b823561569981615357565b9150602083013567ffffffffffffffff8111156156b557600080fd5b8301601f810185136156c657600080fd5b80356156d96156d482615653565b615622565b8181528660208385010111156156ee57600080fd5b816020840160208301376000602083830101528093505050509250929050565b60008060006060848603121561572357600080fd5b833561572e81615357565b9250602084013561573e81615357565b929592945050506040919091013590565b60008060008060008060c0878903121561576857600080fd5b86359550602087013561577a81615357565b9450604087013561578a81615357565b9350606087013561579a81615357565b925060808701356157aa81615357565b915060a08701356157ba81615357565b809150509295509295509295565b80151581146115d257600080fd5b600080600080600080600080600060e08a8c0312156157f457600080fd5b8935985060208a013567ffffffffffffffff8082111561581357600080fd5b61581f8d838e01615527565b909a50985060408c0135915061583482615357565b90965060608b0135955060808b01359061584d82615357565b90945060a08b01359061585f826157c8565b90935060c08b0135908082111561587557600080fd5b506158828c828d01615527565b915080935050809150509295985092959850929598565b600080600080606085870312156158af57600080fd5b84359350602085013567ffffffffffffffff8111156158cd57600080fd5b6158d98782880161539c565b9598909750949560400135949350505050565b600080600080600080600060a0888a03121561590757600080fd5b87359650602088013567ffffffffffffffff8082111561592657600080fd5b6159328b838c01615527565b909850965060408a0135955060608a0135915061594e82615357565b9093506080890135908082111561596457600080fd5b506159718a828b01615527565b989b979a50959850939692959293505050565b60008082840360c081121561599857600080fd5b8335925060a0601f19820112156159ae57600080fd5b506020830190509250929050565b600080600080606085870312156159d257600080fd5b84359350602085013567ffffffffffffffff8111156159f057600080fd5b6158d987828801615527565b600080600080600080600060a0888a031215615a1757600080fd5b87359650602088013567ffffffffffffffff80821115615a3657600080fd5b615a428b838c0161539c565b909850965060408a01359150615a5782615357565b9094506060890135935060808901359080821115615a7457600080fd5b506159718a828b0161539c565b600060208284031215615a9357600080fd5b8151610beb81615357565b8183823760009101908152919050565b600060208284031215615ac057600080fd5b8151610beb816157c8565b634e487b7160e01b600052603260045260246000fd5b6000808335601e19843603018112615af857600080fd5b83018035915067ffffffffffffffff821115615b1357600080fd5b6020019150368190038213156153de57600080fd5b634e487b7160e01b600052601160045260246000fd5b80820180821115611c0157611c01615b28565b600060018201615b6357615b63615b28565b5060010190565b81835281816020850137506000828201602090810191909152601f909101601f19169091010190565b608081526000615ba7608083018789615b6a565b602083019590955250604081019290925260609091015292915050565b600060408284031215615bd657600080fd5b6040516040810181811067ffffffffffffffff82111715615bf957615bf961560c565b604052825181526020928301519281019290925250919050565b88815260c060208201526000615c2d60c08301898b615b6a565b6001600160a01b038816604084015286606084015285608084015282810360a0840152615c5b818587615b6a565b9b9a5050505050505050505050565b600060208284031215615c7c57600080fd5b5051919050565b81810381811115611c0157611c01615b28565b89815260e060208201526000615cb060e083018a8c615b6a565b6001600160a01b03891660408401528760608401528660808401528560a084015282810360c0840152615ce4818587615b6a565b9c9b505050505050505050505050565b60008060408385031215615d0757600080fd5b505080516020909101519092909150565b60006101008c8352806020840152615d338184018c8e615b6a565b90506001600160a01b038a1660408401528860608401528760808401528660a08401528560c084015282810360e0840152615d6f818587615b6a565b9d9c50505050505050505050505050565b858152608060208201526000615d9a608083018688615b6a565b604083019490945250606001529392505050565b838152604060208201526000615dc8604083018486615b6a565b95945050505050565b87815260a060208201526000615deb60a08301888a615b6a565b6001600160a01b0387166040840152856060840152828103608084015261144c818587615b6a565b600060208284031215615e2557600080fd5b815167ffffffffffffffff811115615e3c57600080fd5b8201601f81018413615e4d57600080fd5b8051615e5b6156d482615653565b818152856020838501011115615e7057600080fd5b615dc88260208301602086016154c4565b818382377f2e000000000000000000000000000000000000000000000000000000000000009101908152600101919050565b60008351615ec58184602088016154c4565b835190830190615ed98183602088016154c4565b01949350505050565b60006001600160a01b0380871683528086166020840152808516604084015250608060608301526120f660808301846154e8565b60006001600160a01b038088168352808716602084015280861660408401525083606083015260a06080830152615f5060a08301846154e8565b979650505050505050565b60008251615f6d8184602087016154c4565b919091019291505056fe4f776e61626c653a2063616c6c6572206973206e6f742074686520746c64206f416464726573733a206c6f772d6c6576656c2064656c65676174652063616c6c206661696c6564a26469706673582212209ad9f907fd7a6406bae8ae1c3d75d4c06c4146b26b62cf2a327c71b93962dd5164736f6c63430008120033",
  "linkReferences": {},
  "deployedLinkReferences": {}
}