{
  "_format": "hh-sol-artifact-1",
  "contractName": "DefaultQualificationHook",
  "sourceName": "contracts/hook/DefaultQualificationHook.sol",
  "abi": [
    {
      "inputs": [
        {
          "internalType": "contract ISANN",
          "name": "_sann",
          "type": "address"
        },
        {
          "internalType": "uint256",
          "name": "_identifier",
          "type": "uint256"
        },
        {
          "internalType": "contract PreRegistrationState",
          "name": "_state",
          "type": "address"
        },
        {
          "internalType": "uint256",
          "name": "_publicRegistrationStartTime",
          "type": "uint256"
        },
        {
          "internalType": "bool",
          "name": "_publicRegistrationPaused",
          "type": "bool"
        }
      ],
      "stateMutability": "nonpayable",
      "type": "constructor"
    },
    {
      "inputs": [],
      "name": "PublicRegistrationNotStarted",
      "type": "error"
    },
    {
      "inputs": [],
      "name": "PublicRegistrationStarted",
      "type": "error"
    },
    {
      "anonymous": false,
      "inputs": [
        {
          "indexed": false,
          "internalType": "uint256",
          "name": "identifier",
          "type": "uint256"
        },
        {
          "indexed": false,
          "internalType": "bool",
          "name": "paused",
          "type": "bool"
        }
      ],
      "name": "SetPublicRegistrationPaused",
      "type": "event"
    },
    {
      "anonymous": false,
      "inputs": [
        {
          "indexed": false,
          "internalType": "uint256",
          "name": "identifier",
          "type": "uint256"
        },
        {
          "indexed": false,
          "internalType": "uint256",
          "name": "startTime",
          "type": "uint256"
        }
      ],
      "name": "SetPublicRegistrationStartTime",
      "type": "event"
    },
    {
      "inputs": [],
      "name": "identifier",
      "outputs": [
        {
          "internalType": "uint256",
          "name": "",
          "type": "uint256"
        }
      ],
      "stateMutability": "view",
      "type": "function"
    },
    {
      "inputs": [
        {
          "internalType": "uint256",
          "name": "_identifier",
          "type": "uint256"
        },
        {
          "internalType": "string",
          "name": "_name",
          "type": "string"
        },
        {
          "internalType": "address",
          "name": "_buyer",
          "type": "address"
        },
        {
          "internalType": "uint256",
          "name": "_duration",
          "type": "uint256"
        },
        {
          "internalType": "bytes",
          "name": "_extraData",
          "type": "bytes"
        }
      ],
      "name": "isQualified",
      "outputs": [
        {
          "internalType": "bool",
          "name": "",
          "type": "bool"
        }
      ],
      "stateMutability": "view",
      "type": "function"
    },
    {
      "inputs": [],
      "name": "preRegiState",
      "outputs": [
        {
          "internalType": "contract PreRegistrationState",
          "name": "",
          "type": "address"
        }
      ],
      "stateMutability": "view",
      "type": "function"
    },
    {
      "inputs": [],
      "name": "publicRegistrationPaused",
      "outputs": [
        {
          "internalType": "bool",
          "name": "",
          "type": "bool"
        }
      ],
      "stateMutability": "view",
      "type": "function"
    },
    {
      "inputs": [],
      "name": "publicRegistrationStartTime",
      "outputs": [
        {
          "internalType": "uint256",
          "name": "",
          "type": "uint256"
        }
      ],
      "stateMutability": "view",
      "type": "function"
    },
    {
      "inputs": [
        {
          "internalType": "uint256",
          "name": "_identifier",
          "type": "uint256"
        },
        {
          "internalType": "string",
          "name": "_name",
          "type": "string"
        },
        {
          "internalType": "address",
          "name": "_buyer",
          "type": "address"
        },
        {
          "internalType": "uint256",
          "name": "_duration",
          "type": "uint256"
        },
        {
          "internalType": "bytes",
          "name": "_extraData",
          "type": "bytes"
        }
      ],
      "name": "qualify",
      "outputs": [
        {
          "internalType": "bool",
          "name": "",
          "type": "bool"
        }
      ],
      "stateMutability": "nonpayable",
      "type": "function"
    },
    {
      "inputs": [],
      "name": "sann",
      "outputs": [
        {
          "internalType": "contract ISANN",
          "name": "",
          "type": "address"
        }
      ],
      "stateMutability": "view",
      "type": "function"
    },
    {
      "inputs": [
        {
          "internalType": "address",
          "name": "_state",
          "type": "address"
        }
      ],
      "name": "setPreRegistrationState",
      "outputs": [],
      "stateMutability": "nonpayable",
      "type": "function"
    },
    {
      "inputs": [
        {
          "internalType": "bool",
          "name": "_paused",
          "type": "bool"
        }
      ],
      "name": "setPublicRegistrationPaused",
      "outputs": [],
      "stateMutability": "nonpayable",
      "type": "function"
    },
    {
      "inputs": [
        {
          "internalType": "uint256",
          "name": "_publicRegistrationStartTime",
          "type": "uint256"
        }
      ],
      "name": "setPublicRegistrationStartTime",
      "outputs": [],
      "stateMutability": "nonpayable",
      "type": "function"
    }
  ],
  "bytecode": "0x60a06040523480156200001157600080fd5b50604051620015153803806200151583398101604081905262000034916200023d565b600080546001600160a01b0319166001600160a01b03878116919091178255608086905260028054610100600160a81b0319166101008784168102919091179182905590041615620000fd57600260019054906101000a90046001600160a01b03166001600160a01b03166318969e3c6040518163ffffffff1660e01b8152600401602060405180830381865afa158015620000d4573d6000803e3d6000fd5b505050506040513d601f19601f82011682018060405250810190620000fa9190620002a9565b90505b828111156200018c5760405162461bcd60e51b815260206004820152604b60248201527f6e6577207075626c6963526567697374726174696f6e537461727454696d652060448201527f6d7573742062652067726561746572207468616e20707265526567697374726160648201526a74696f6e456e6454696d6560a81b608482015260a40160405180910390fd5b60018390556002805460ff191683151517905560805160408051918252602082018590527f7209932ed961cda2151a57a4ad04f2fba1ce7dd5f0ebedc991802aa16dd97a1f910160405180910390a16080516040805191825283151560208301527f5602d41126ea699a93f4ab359d93e8701e97587ef6ecaf53ba0bfcfbc9b9443b910160405180910390a1505050505050620002c3565b6001600160a01b03811681146200023a57600080fd5b50565b600080600080600060a086880312156200025657600080fd5b8551620002638162000224565b6020870151604088015191965094506200027d8162000224565b60608701516080880151919450925080151581146200029b57600080fd5b809150509295509295909350565b600060208284031215620002bc57600080fd5b5051919050565b60805161120c6200030960003960008181610133015281816103a8015281816104dc01528181610545015281816106770152818161092901526109ad015261120c6000f3fe608060405234801561001057600080fd5b50600436106100be5760003560e01c8063a81e3af211610076578063d023c79c1161005b578063d023c79c14610194578063d46da387146101a7578063eea8fe0a146101ba57600080fd5b8063a81e3af214610178578063bd03fbb81461018b57600080fd5b80635b299fb5116100a75780635b299fb51461011b5780637998a1c41461012e5780637b242c781461016357600080fd5b8063273310e3146100c357806336625cc3146100f8575b600080fd5b6002546100db9061010090046001600160a01b031681565b6040516001600160a01b0390911681526020015b60405180910390f35b61010b610106366004611050565b6101c7565b60405190151581526020016100ef565b61010b610129366004611050565b610377565b6101557f000000000000000000000000000000000000000000000000000000000000000081565b6040519081526020016100ef565b6101766101713660046110f6565b610397565b005b61017661018636600461111a565b610534565b61015560015481565b6101766101a2366004611137565b610666565b6000546100db906001600160a01b031681565b60025461010b9060ff1681565b60008054604080517ff3400419000000000000000000000000000000000000000000000000000000008152905133926001600160a01b03169163f34004199160048083019260209291908290030181865afa15801561022a573d6000803e3d6000fd5b505050506040513d601f19601f8201168201806040525081019061024e9190611150565b6001600160a01b0316146102cf5760405162461bcd60e51b815260206004820152602c60248201527f41636365737369626c653a2063616c6c6572206973206e6f742074686520746c60448201527f6420636f6e74726f6c6c6572000000000000000000000000000000000000000060648201526084015b60405180910390fd5b6000806102e18a8a8a8a8a8a8a610981565b91509150801561036a576002546040517f8cbec9320000000000000000000000000000000000000000000000000000000081526001600160a01b03898116600483015261010090920490911690638cbec93290602401600060405180830381600087803b15801561035157600080fd5b505af1158015610365573d6000803e3d6000fd5b505050505b5098975050505050505050565b60008061038989898989898989610981565b509998505050505050505050565b60005460405162e4decd60e31b81527f0000000000000000000000000000000000000000000000000000000000000000600482018190529133916001600160a01b0390911690630726f66890602401602060405180830381865afa158015610403573d6000803e3d6000fd5b505050506040513d601f19601f820116820180604052508101906104279190611150565b6001600160a01b0316146104895760405162461bcd60e51b8152602060048201526024808201527f4f776e61626c653a2063616c6c6572206973206e6f742074686520746c64206f6044820152633bb732b960e11b60648201526084016102c6565b6001544210156104c5576040517f4dbc9bc000000000000000000000000000000000000000000000000000000000815260040160405180910390fd5b6002805460ff1916831515908117909155604080517f0000000000000000000000000000000000000000000000000000000000000000815260208101929092527f5602d41126ea699a93f4ab359d93e8701e97587ef6ecaf53ba0bfcfbc9b9443b910160405180910390a15050565b60005460405162e4decd60e31b81527f0000000000000000000000000000000000000000000000000000000000000000600482018190529133916001600160a01b0390911690630726f66890602401602060405180830381865afa1580156105a0573d6000803e3d6000fd5b505050506040513d601f19601f820116820180604052508101906105c49190611150565b6001600160a01b0316146106265760405162461bcd60e51b8152602060048201526024808201527f4f776e61626c653a2063616c6c6572206973206e6f742074686520746c64206f6044820152633bb732b960e11b60648201526084016102c6565b50600280546001600160a01b03909216610100027fffffffffffffffffffffff0000000000000000000000000000000000000000ff909216919091179055565b60005460405162e4decd60e31b81527f0000000000000000000000000000000000000000000000000000000000000000600482018190529133916001600160a01b0390911690630726f66890602401602060405180830381865afa1580156106d2573d6000803e3d6000fd5b505050506040513d601f19601f820116820180604052508101906106f69190611150565b6001600160a01b0316146107585760405162461bcd60e51b8152602060048201526024808201527f4f776e61626c653a2063616c6c6572206973206e6f742074686520746c64206f6044820152633bb732b960e11b60648201526084016102c6565b6001544210610793576040517f397a82ac00000000000000000000000000000000000000000000000000000000815260040160405180910390fd5b8142106108085760405162461bcd60e51b815260206004820152603860248201527f6e6577207075626c6963526567697374726174696f6e537461727454696d652060448201527f6d7573742062652067726561746572207468616e206e6f77000000000000000060648201526084016102c6565b6000600260019054906101000a90046001600160a01b03166001600160a01b03166318969e3c6040518163ffffffff1660e01b8152600401602060405180830381865afa15801561085d573d6000803e3d6000fd5b505050506040513d601f19601f82011682018060405250810190610881919061116d565b905082811061091e5760405162461bcd60e51b815260206004820152604b60248201527f6e6577207075626c6963526567697374726174696f6e537461727454696d652060448201527f6d7573742062652067726561746572207468616e20707265526567697374726160648201527f74696f6e456e6454696d65000000000000000000000000000000000000000000608482015260a4016102c6565b6001839055604080517f00000000000000000000000000000000000000000000000000000000000000008152602081018590527f7209932ed961cda2151a57a4ad04f2fba1ce7dd5f0ebedc991802aa16dd97a1f910160405180910390a1505050565b60008060008888604051610996929190611186565b60405190819003812060005462e4decd60e31b83527f000000000000000000000000000000000000000000000000000000000000000060048401529092506001600160a01b0389811692911690630726f66890602401602060405180830381865afa158015610a09573d6000803e3d6000fd5b505050506040513d601f19601f82011682018060405250810190610a2d9190611150565b6001600160a01b031603610b0a57600154421015610b0a5760025461010090046001600160a01b031615610afc576000600260019054906101000a90046001600160a01b03166001600160a01b031663ffeaf35f6040518163ffffffff1660e01b8152600401602060405180830381865afa158015610ab0573d6000803e3d6000fd5b505050506040513d601f19601f82011682018060405250810190610ad4919061116d565b9050801580610ae257508042105b15610af65760016000935093505050610fe3565b50610b0a565b600160009250925050610fe3565b60025461010090046001600160a01b031615610faa57600260019054906101000a90046001600160a01b03166001600160a01b031663b6fc138f6040518163ffffffff1660e01b8152600401602060405180830381865afa158015610b73573d6000803e3d6000fd5b505050506040513d601f19601f82011682018060405250810190610b979190611196565b15610d7757600260019054906101000a90046001600160a01b03166001600160a01b031663045535b76040518163ffffffff1660e01b8152600401602060405180830381865afa158015610bef573d6000803e3d6000fd5b505050506040513d601f19601f82011682018060405250810190610c13919061116d565b4211610c26576000809250925050610fe3565b600260019054906101000a90046001600160a01b03166001600160a01b0316639efdb7cf6040518163ffffffff1660e01b8152600401602060405180830381865afa158015610c79573d6000803e3d6000fd5b505050506040513d601f19601f82011682018060405250810190610c9d9190611196565b15610d77576002546040517f8cb5d7000000000000000000000000000000000000000000000000000000000081526004810183905260009161010090046001600160a01b031690638cb5d70090602401602060405180830381865afa158015610d0a573d6000803e3d6000fd5b505050506040513d601f19601f82011682018060405250810190610d2e9190611150565b9050876001600160a01b0316816001600160a01b031603610d585760016000935093505050610fe3565b6001600160a01b03811615610d7557600080935093505050610fe3565b505b600260019054906101000a90046001600160a01b03166001600160a01b031663dd3cb4a96040518163ffffffff1660e01b8152600401602060405180830381865afa158015610dca573d6000803e3d6000fd5b505050506040513d601f19601f82011682018060405250810190610dee9190611196565b15610faa57600260019054906101000a90046001600160a01b03166001600160a01b031663c989d0756040518163ffffffff1660e01b8152600401602060405180830381865afa158015610e46573d6000803e3d6000fd5b505050506040513d601f19601f82011682018060405250810190610e6a919061116d565b421015610e7e576000809250925050610fe3565b600260019054906101000a90046001600160a01b03166001600160a01b031663c39887f56040518163ffffffff1660e01b8152600401602060405180830381865afa158015610ed1573d6000803e3d6000fd5b505050506040513d601f19601f82011682018060405250810190610ef5919061116d565b4211610faa576002546040517f403451c80000000000000000000000000000000000000000000000000000000081526001600160a01b0389811660048301526000926101009004169063403451c890602401602060405180830381865afa158015610f64573d6000803e3d6000fd5b505050506040513d601f19601f82011682018060405250810190610f8891906111b3565b60ff1611610f9d576000809250925050610fe3565b6001809250925050610fe3565b600154421015610fc1576000809250925050610fe3565b60025460ff1615610fd9576000809250925050610fe3565b6001600092509250505b97509795505050505050565b60008083601f84011261100157600080fd5b50813567ffffffffffffffff81111561101957600080fd5b60208301915083602082850101111561103157600080fd5b9250929050565b6001600160a01b038116811461104d57600080fd5b50565b600080600080600080600060a0888a03121561106b57600080fd5b87359650602088013567ffffffffffffffff8082111561108a57600080fd5b6110968b838c01610fef565b909850965060408a013591506110ab82611038565b90945060608901359350608089013590808211156110c857600080fd5b506110d58a828b01610fef565b989b979a50959850939692959293505050565b801515811461104d57600080fd5b60006020828403121561110857600080fd5b8135611113816110e8565b9392505050565b60006020828403121561112c57600080fd5b813561111381611038565b60006020828403121561114957600080fd5b5035919050565b60006020828403121561116257600080fd5b815161111381611038565b60006020828403121561117f57600080fd5b5051919050565b8183823760009101908152919050565b6000602082840312156111a857600080fd5b8151611113816110e8565b6000602082840312156111c557600080fd5b815160ff8116811461111357600080fdfea2646970667358221220789fc8ede254d33044e73c14915a7e4b1e758534c6120e5150201aab527c446764736f6c63430008120033",
  "linkReferences": {},
  "deployedLinkReferences": {}
}