{
  "_format": "hh-sol-artifact-1",
  "contractName": "PublicResolver",
  "sourceName": "contracts/resolvers/PublicResolver.sol",
  "abi": [
    {
      "inputs": [
        {
          "internalType": "address",
          "name": "owner",
          "type": "address"
        }
      ],
      "stateMutability": "nonpayable",
      "type": "constructor"
    },
    {
      "anonymous": false,
      "inputs": [
        {
          "indexed": true,
          "internalType": "bytes32",
          "name": "node",
          "type": "bytes32"
        },
        {
          "indexed": true,
          "internalType": "uint256",
          "name": "contentType",
          "type": "uint256"
        }
      ],
      "name": "ABIChanged",
      "type": "event"
    },
    {
      "anonymous": false,
      "inputs": [
        {
          "indexed": true,
          "internalType": "bytes32",
          "name": "node",
          "type": "bytes32"
        },
        {
          "indexed": false,
          "internalType": "address",
          "name": "a",
          "type": "address"
        }
      ],
      "name": "AddrChanged",
      "type": "event"
    },
    {
      "anonymous": false,
      "inputs": [
        {
          "indexed": true,
          "internalType": "bytes32",
          "name": "node",
          "type": "bytes32"
        },
        {
          "indexed": false,
          "internalType": "uint256",
          "name": "coinType",
          "type": "uint256"
        },
        {
          "indexed": false,
          "internalType": "bytes",
          "name": "newAddress",
          "type": "bytes"
        }
      ],
      "name": "AddressChanged",
      "type": "event"
    },
    {
      "anonymous": false,
      "inputs": [
        {
          "indexed": true,
          "internalType": "address",
          "name": "owner",
          "type": "address"
        },
        {
          "indexed": true,
          "internalType": "address",
          "name": "operator",
          "type": "address"
        },
        {
          "indexed": false,
          "internalType": "bool",
          "name": "approved",
          "type": "bool"
        }
      ],
      "name": "ApprovalForAll",
      "type": "event"
    },
    {
      "anonymous": false,
      "inputs": [
        {
          "indexed": true,
          "internalType": "bytes32",
          "name": "node",
          "type": "bytes32"
        },
        {
          "indexed": false,
          "internalType": "bytes",
          "name": "hash",
          "type": "bytes"
        }
      ],
      "name": "ContenthashChanged",
      "type": "event"
    },
    {
      "anonymous": false,
      "inputs": [
        {
          "indexed": false,
          "internalType": "uint8",
          "name": "version",
          "type": "uint8"
        }
      ],
      "name": "Initialized",
      "type": "event"
    },
    {
      "anonymous": false,
      "inputs": [
        {
          "indexed": true,
          "internalType": "bytes32",
          "name": "node",
          "type": "bytes32"
        },
        {
          "indexed": true,
          "internalType": "bytes4",
          "name": "interfaceID",
          "type": "bytes4"
        },
        {
          "indexed": false,
          "internalType": "address",
          "name": "implementer",
          "type": "address"
        }
      ],
      "name": "InterfaceChanged",
      "type": "event"
    },
    {
      "anonymous": false,
      "inputs": [
        {
          "indexed": true,
          "internalType": "bytes32",
          "name": "node",
          "type": "bytes32"
        },
        {
          "indexed": false,
          "internalType": "string",
          "name": "name",
          "type": "string"
        }
      ],
      "name": "NameChanged",
      "type": "event"
    },
    {
      "anonymous": false,
      "inputs": [
        {
          "indexed": true,
          "internalType": "address",
          "name": "previousOwner",
          "type": "address"
        },
        {
          "indexed": true,
          "internalType": "address",
          "name": "newOwner",
          "type": "address"
        }
      ],
      "name": "OwnershipTransferred",
      "type": "event"
    },
    {
      "anonymous": false,
      "inputs": [
        {
          "indexed": true,
          "internalType": "bytes32",
          "name": "node",
          "type": "bytes32"
        },
        {
          "indexed": false,
          "internalType": "bytes32",
          "name": "x",
          "type": "bytes32"
        },
        {
          "indexed": false,
          "internalType": "bytes32",
          "name": "y",
          "type": "bytes32"
        }
      ],
      "name": "PubkeyChanged",
      "type": "event"
    },
    {
      "anonymous": false,
      "inputs": [
        {
          "indexed": true,
          "internalType": "bytes32",
          "name": "node",
          "type": "bytes32"
        },
        {
          "indexed": true,
          "internalType": "string",
          "name": "indexedKey",
          "type": "string"
        },
        {
          "indexed": false,
          "internalType": "string",
          "name": "key",
          "type": "string"
        },
        {
          "indexed": false,
          "internalType": "string",
          "name": "value",
          "type": "string"
        }
      ],
      "name": "TextChanged",
      "type": "event"
    },
    {
      "anonymous": false,
      "inputs": [
        {
          "indexed": true,
          "internalType": "bytes32",
          "name": "node",
          "type": "bytes32"
        },
        {
          "indexed": false,
          "internalType": "uint256",
          "name": "identifier",
          "type": "uint256"
        },
        {
          "indexed": false,
          "internalType": "string",
          "name": "name",
          "type": "string"
        }
      ],
      "name": "TldNameChanged",
      "type": "event"
    },
    {
      "anonymous": false,
      "inputs": [
        {
          "indexed": true,
          "internalType": "bytes32",
          "name": "node",
          "type": "bytes32"
        },
        {
          "indexed": false,
          "internalType": "uint64",
          "name": "newVersion",
          "type": "uint64"
        }
      ],
      "name": "VersionChanged",
      "type": "event"
    },
    {
      "inputs": [
        {
          "internalType": "bytes32",
          "name": "node",
          "type": "bytes32"
        },
        {
          "internalType": "uint256",
          "name": "contentTypes",
          "type": "uint256"
        }
      ],
      "name": "ABI",
      "outputs": [
        {
          "internalType": "uint256",
          "name": "",
          "type": "uint256"
        },
        {
          "internalType": "bytes",
          "name": "",
          "type": "bytes"
        }
      ],
      "stateMutability": "view",
      "type": "function"
    },
    {
      "inputs": [
        {
          "internalType": "bytes32",
          "name": "node",
          "type": "bytes32"
        }
      ],
      "name": "addr",
      "outputs": [
        {
          "internalType": "address payable",
          "name": "",
          "type": "address"
        }
      ],
      "stateMutability": "view",
      "type": "function"
    },
    {
      "inputs": [
        {
          "internalType": "bytes32",
          "name": "node",
          "type": "bytes32"
        },
        {
          "internalType": "uint256",
          "name": "coinType",
          "type": "uint256"
        }
      ],
      "name": "addr",
      "outputs": [
        {
          "internalType": "bytes",
          "name": "",
          "type": "bytes"
        }
      ],
      "stateMutability": "view",
      "type": "function"
    },
    {
      "inputs": [
        {
          "internalType": "bytes32",
          "name": "node",
          "type": "bytes32"
        }
      ],
      "name": "clearRecords",
      "outputs": [],
      "stateMutability": "nonpayable",
      "type": "function"
    },
    {
      "inputs": [
        {
          "internalType": "bytes32",
          "name": "node",
          "type": "bytes32"
        }
      ],
      "name": "contenthash",
      "outputs": [
        {
          "internalType": "bytes",
          "name": "",
          "type": "bytes"
        }
      ],
      "stateMutability": "view",
      "type": "function"
    },
    {
      "inputs": [],
      "name": "defaultCoinType",
      "outputs": [
        {
          "internalType": "uint256",
          "name": "",
          "type": "uint256"
        }
      ],
      "stateMutability": "view",
      "type": "function"
    },
    {
      "inputs": [
        {
          "internalType": "contract ISidRegistry",
          "name": "_sidRegistry",
          "type": "address"
        },
        {
          "internalType": "address",
          "name": "_trustedController",
          "type": "address"
        },
        {
          "internalType": "uint256",
          "name": "_defaultCoinType",
          "type": "uint256"
        }
      ],
      "name": "initialize",
      "outputs": [],
      "stateMutability": "nonpayable",
      "type": "function"
    },
    {
      "inputs": [
        {
          "internalType": "bytes32",
          "name": "node",
          "type": "bytes32"
        },
        {
          "internalType": "bytes4",
          "name": "interfaceID",
          "type": "bytes4"
        }
      ],
      "name": "interfaceImplementer",
      "outputs": [
        {
          "internalType": "address",
          "name": "",
          "type": "address"
        }
      ],
      "stateMutability": "view",
      "type": "function"
    },
    {
      "inputs": [
        {
          "internalType": "address",
          "name": "account",
          "type": "address"
        },
        {
          "internalType": "address",
          "name": "operator",
          "type": "address"
        }
      ],
      "name": "isApprovedForAll",
      "outputs": [
        {
          "internalType": "bool",
          "name": "",
          "type": "bool"
        }
      ],
      "stateMutability": "view",
      "type": "function"
    },
    {
      "inputs": [
        {
          "internalType": "bytes[]",
          "name": "data",
          "type": "bytes[]"
        }
      ],
      "name": "multicall",
      "outputs": [
        {
          "internalType": "bytes[]",
          "name": "results",
          "type": "bytes[]"
        }
      ],
      "stateMutability": "nonpayable",
      "type": "function"
    },
    {
      "inputs": [
        {
          "internalType": "bytes32",
          "name": "node",
          "type": "bytes32"
        }
      ],
      "name": "name",
      "outputs": [
        {
          "internalType": "string",
          "name": "",
          "type": "string"
        }
      ],
      "stateMutability": "view",
      "type": "function"
    },
    {
      "inputs": [],
      "name": "owner",
      "outputs": [
        {
          "internalType": "address",
          "name": "",
          "type": "address"
        }
      ],
      "stateMutability": "view",
      "type": "function"
    },
    {
      "inputs": [
        {
          "internalType": "bytes32",
          "name": "node",
          "type": "bytes32"
        }
      ],
      "name": "pubkey",
      "outputs": [
        {
          "internalType": "bytes32",
          "name": "x",
          "type": "bytes32"
        },
        {
          "internalType": "bytes32",
          "name": "y",
          "type": "bytes32"
        }
      ],
      "stateMutability": "view",
      "type": "function"
    },
    {
      "inputs": [
        {
          "internalType": "bytes32",
          "name": "",
          "type": "bytes32"
        }
      ],
      "name": "recordVersions",
      "outputs": [
        {
          "internalType": "uint64",
          "name": "",
          "type": "uint64"
        }
      ],
      "stateMutability": "view",
      "type": "function"
    },
    {
      "inputs": [
        {
          "internalType": "address",
          "name": "controller",
          "type": "address"
        }
      ],
      "name": "removeTrustedController",
      "outputs": [],
      "stateMutability": "nonpayable",
      "type": "function"
    },
    {
      "inputs": [],
      "name": "renounceOwnership",
      "outputs": [],
      "stateMutability": "nonpayable",
      "type": "function"
    },
    {
      "inputs": [
        {
          "internalType": "bytes32",
          "name": "node",
          "type": "bytes32"
        },
        {
          "internalType": "uint256",
          "name": "contentType",
          "type": "uint256"
        },
        {
          "internalType": "bytes",
          "name": "data",
          "type": "bytes"
        }
      ],
      "name": "setABI",
      "outputs": [],
      "stateMutability": "nonpayable",
      "type": "function"
    },
    {
      "inputs": [
        {
          "internalType": "bytes32",
          "name": "node",
          "type": "bytes32"
        },
        {
          "internalType": "uint256",
          "name": "coinType",
          "type": "uint256"
        },
        {
          "internalType": "bytes",
          "name": "a",
          "type": "bytes"
        }
      ],
      "name": "setAddr",
      "outputs": [],
      "stateMutability": "nonpayable",
      "type": "function"
    },
    {
      "inputs": [
        {
          "internalType": "bytes32",
          "name": "node",
          "type": "bytes32"
        },
        {
          "internalType": "address",
          "name": "a",
          "type": "address"
        }
      ],
      "name": "setAddr",
      "outputs": [],
      "stateMutability": "nonpayable",
      "type": "function"
    },
    {
      "inputs": [
        {
          "internalType": "address",
          "name": "operator",
          "type": "address"
        },
        {
          "internalType": "bool",
          "name": "approved",
          "type": "bool"
        }
      ],
      "name": "setApprovalForAll",
      "outputs": [],
      "stateMutability": "nonpayable",
      "type": "function"
    },
    {
      "inputs": [
        {
          "internalType": "bytes32",
          "name": "node",
          "type": "bytes32"
        },
        {
          "internalType": "bytes",
          "name": "hash",
          "type": "bytes"
        }
      ],
      "name": "setContenthash",
      "outputs": [],
      "stateMutability": "nonpayable",
      "type": "function"
    },
    {
      "inputs": [
        {
          "internalType": "bytes32",
          "name": "node",
          "type": "bytes32"
        },
        {
          "internalType": "bytes4",
          "name": "interfaceID",
          "type": "bytes4"
        },
        {
          "internalType": "address",
          "name": "implementer",
          "type": "address"
        }
      ],
      "name": "setInterface",
      "outputs": [],
      "stateMutability": "nonpayable",
      "type": "function"
    },
    {
      "inputs": [
        {
          "internalType": "bytes32",
          "name": "node",
          "type": "bytes32"
        },
        {
          "internalType": "string",
          "name": "newName",
          "type": "string"
        }
      ],
      "name": "setName",
      "outputs": [],
      "stateMutability": "nonpayable",
      "type": "function"
    },
    {
      "inputs": [
        {
          "internalType": "address",
          "name": "newController",
          "type": "address"
        }
      ],
      "name": "setNewTrustedController",
      "outputs": [],
      "stateMutability": "nonpayable",
      "type": "function"
    },
    {
      "inputs": [
        {
          "internalType": "bytes32",
          "name": "node",
          "type": "bytes32"
        },
        {
          "internalType": "bytes32",
          "name": "x",
          "type": "bytes32"
        },
        {
          "internalType": "bytes32",
          "name": "y",
          "type": "bytes32"
        }
      ],
      "name": "setPubkey",
      "outputs": [],
      "stateMutability": "nonpayable",
      "type": "function"
    },
    {
      "inputs": [
        {
          "internalType": "bytes32",
          "name": "node",
          "type": "bytes32"
        },
        {
          "internalType": "string",
          "name": "key",
          "type": "string"
        },
        {
          "internalType": "string",
          "name": "value",
          "type": "string"
        }
      ],
      "name": "setText",
      "outputs": [],
      "stateMutability": "nonpayable",
      "type": "function"
    },
    {
      "inputs": [
        {
          "internalType": "bytes32",
          "name": "node",
          "type": "bytes32"
        },
        {
          "internalType": "uint256",
          "name": "identifier",
          "type": "uint256"
        },
        {
          "internalType": "string",
          "name": "newName",
          "type": "string"
        }
      ],
      "name": "setTldName",
      "outputs": [],
      "stateMutability": "nonpayable",
      "type": "function"
    },
    {
      "inputs": [],
      "name": "sidRegistry",
      "outputs": [
        {
          "internalType": "contract ISidRegistry",
          "name": "",
          "type": "address"
        }
      ],
      "stateMutability": "view",
      "type": "function"
    },
    {
      "inputs": [
        {
          "internalType": "bytes4",
          "name": "interfaceID",
          "type": "bytes4"
        }
      ],
      "name": "supportsInterface",
      "outputs": [
        {
          "internalType": "bool",
          "name": "",
          "type": "bool"
        }
      ],
      "stateMutability": "pure",
      "type": "function"
    },
    {
      "inputs": [
        {
          "internalType": "bytes32",
          "name": "node",
          "type": "bytes32"
        },
        {
          "internalType": "string",
          "name": "key",
          "type": "string"
        }
      ],
      "name": "text",
      "outputs": [
        {
          "internalType": "string",
          "name": "",
          "type": "string"
        }
      ],
      "stateMutability": "view",
      "type": "function"
    },
    {
      "inputs": [
        {
          "internalType": "bytes32",
          "name": "node",
          "type": "bytes32"
        },
        {
          "internalType": "uint256",
          "name": "identifier",
          "type": "uint256"
        }
      ],
      "name": "tldName",
      "outputs": [
        {
          "internalType": "string",
          "name": "",
          "type": "string"
        }
      ],
      "stateMutability": "view",
      "type": "function"
    },
    {
      "inputs": [
        {
          "internalType": "bytes32",
          "name": "",
          "type": "bytes32"
        },
        {
          "internalType": "uint256",
          "name": "",
          "type": "uint256"
        }
      ],
      "name": "tldNames",
      "outputs": [
        {
          "internalType": "string",
          "name": "",
          "type": "string"
        }
      ],
      "stateMutability": "view",
      "type": "function"
    },
    {
      "inputs": [
        {
          "internalType": "address",
          "name": "newOwner",
          "type": "address"
        }
      ],
      "name": "transferOwnership",
      "outputs": [],
      "stateMutability": "nonpayable",
      "type": "function"
    }
  ],
  "bytecode": "0x60806040523480156200001157600080fd5b506040516200270338038062002703833981016040819052620000349162000184565b6200003f3362000051565b6200004a81620000a3565b50620001b6565b600a80546001600160a01b038381166001600160a01b0319831681179093556040519116919082907f8be0079c531659141344cd1fd0a4f28419497f9722a3daafe3b4186f6b6457e090600090a35050565b620000ad62000126565b6001600160a01b038116620001185760405162461bcd60e51b815260206004820152602660248201527f4f776e61626c653a206e6577206f776e657220697320746865207a65726f206160448201526564647265737360d01b60648201526084015b60405180910390fd5b620001238162000051565b50565b600a546001600160a01b03163314620001825760405162461bcd60e51b815260206004820181905260248201527f4f776e61626c653a2063616c6c6572206973206e6f7420746865206f776e657260448201526064016200010f565b565b6000602082840312156200019757600080fd5b81516001600160a01b0381168114620001af57600080fd5b9392505050565b61253d80620001c66000396000f3fe608060405234801561001057600080fd5b506004361061020b5760003560e01c8063773722131161012a578063c46d4366116100bd578063e59d895d1161008c578063f1cb7e0611610071578063f1cb7e0614610537578063f2fde38b1461054a578063f9482e1a1461055d57600080fd5b8063e59d895d146104e8578063e985e9c5146104fb57600080fd5b8063c46d436614610426578063c869023314610439578063d5fa2b0014610492578063d700ff33146104a557600080fd5b8063ac9650d8116100f9578063ac9650d8146103cd578063bc1c58d1146103ed578063bd38ab8814610400578063bf2b07c71461041357600080fd5b806377372213146103835780638b95dd71146103965780638da5cb5b146103a9578063a22cb465146103ba57600080fd5b80633603d758116101a2578063623195b011610171578063623195b01461033e578063691f343114610351578063715018a61461036457806375e44f1f1461036c57600080fd5b80633603d758146102e55780633b3b57de146102f857806344cba1861461030b57806359d1d43c1461031e57600080fd5b80631794bb3c116101de5780631794bb3c1461028b5780632203ab561461029e57806329cd62ea146102bf578063304e6ade146102d257600080fd5b806301ffc9a7146102105780630ac3f0021461023857806310f13a8c1461024d578063124a319c14610260575b600080fd5b61022361021e366004611bdc565b610570565b60405190151581526020015b60405180910390f35b61024b610246366004611c0c565b610581565b005b61024b61025b366004611c6b565b6105ad565b61027361026e366004611ce5565b61067a565b6040516001600160a01b03909116815260200161022f565b61024b610299366004611d11565b610926565b6102b16102ac366004611d52565b610ad1565b60405161022f929190611dc4565b61024b6102cd366004611de5565b610c08565b61024b6102e0366004611e11565b610ca3565b61024b6102f3366004611e5d565b610d1f565b610273610306366004611e5d565b610dc2565b61024b610319366004611c0c565b610df5565b61033161032c366004611e11565b610e1e565b60405161022f9190611e76565b61024b61034c366004611e89565b610efe565b61033161035f366004611e5d565b610f9b565b61024b61105a565b61037560035481565b60405190815260200161022f565b61024b610391366004611e11565b61106e565b61024b6103a4366004611ef2565b6110ea565b600a546001600160a01b0316610273565b61024b6103c8366004611fb6565b61117b565b6103e06103db366004611ff4565b611265565b60405161022f9190612069565b6103316103fb366004611e5d565b611380565b61033161040e366004611d52565b6113ba565b610331610421366004611d52565b61145f565b61024b610434366004611e89565b61150d565b61047d610447366004611e5d565b6000818152602081815260408083205467ffffffffffffffff168352600782528083209383529290522080546001909101549091565b6040805192835260208301919091520161022f565b61024b6104a03660046120cb565b611588565b6104cf6104b3366004611e5d565b60006020819052908152604090205467ffffffffffffffff1681565b60405167ffffffffffffffff909116815260200161022f565b61024b6104f63660046120f0565b6115b0565b610223610509366004612130565b6001600160a01b039182166000908152600d6020908152604080832093909416825291909152205460ff1690565b610331610545366004611d52565b611664565b61024b610558366004611c0c565b6116a6565b600b54610273906001600160a01b031681565b600061057b82611736565b92915050565b610589611774565b6001600160a01b03166000908152600c60205260409020805460ff19166001179055565b846105b7816117ce565b6105c057600080fd5b6000868152602081815260408083205467ffffffffffffffff1683526008825280832089845290915290819020905184918491610600908990899061215e565b9081526020016040518091039020918261061b9291906121f6565b50848460405161062c92919061215e565b6040518091039020867f448bc014f1536726cf8d54ff3d6481ed3cbc683c2591ca204274009afa09b1a18787878760405161066a94939291906122df565b60405180910390a3505050505050565b6000828152602081815260408083205467ffffffffffffffff1683526005825280832085845282528083206001600160e01b0319851684529091528120546001600160a01b031680156106ce57905061057b565b60006106d985610dc2565b90506001600160a01b0381166106f45760009250505061057b565b6040516301ffc9a760e01b602482015260009081906001600160a01b0384169060440160408051601f198184030181529181526020820180517bffffffffffffffffffffffffffffffffffffffffffffffffffffffff166301ffc9a760e01b179052516107619190612311565b600060405180830381855afa9150503d806000811461079c576040519150601f19603f3d011682016040523d82523d6000602084013e6107a1565b606091505b50915091508115806107b4575060208151105b806107f6575080601f815181106107cd576107cd61232d565b01602001517fff0000000000000000000000000000000000000000000000000000000000000016155b1561080857600094505050505061057b565b6040516001600160e01b0319871660248201526001600160a01b0384169060440160408051601f198184030181529181526020820180517bffffffffffffffffffffffffffffffffffffffffffffffffffffffff166301ffc9a760e01b179052516108739190612311565b600060405180830381855afa9150503d80600081146108ae576040519150601f19603f3d011682016040523d82523d6000602084013e6108b3565b606091505b5090925090508115806108c7575060208151105b80610909575080601f815181106108e0576108e061232d565b01602001517fff0000000000000000000000000000000000000000000000000000000000000016155b1561091b57600094505050505061057b565b509095945050505050565b600a54600160a81b900460ff161580801561094e5750600a546001600160a01b90910460ff16105b8061096f5750303b15801561096f5750600a54600160a01b900460ff166001145b6109e65760405162461bcd60e51b815260206004820152602e60248201527f496e697469616c697a61626c653a20636f6e747261637420697320616c72656160448201527f647920696e697469616c697a656400000000000000000000000000000000000060648201526084015b60405180910390fd5b600a80547fffffffffffffffffffffff00ffffffffffffffffffffffffffffffffffffffff16600160a01b1790558015610a2e57600a805460ff60a81b1916600160a81b1790555b610a36611774565b600b805473ffffffffffffffffffffffffffffffffffffffff19166001600160a01b038681169190911790915583166000908152600c60205260409020805460ff1916600117905560038290558015610acb57600a805460ff60a81b19169055604051600181527f7f26b83ff96e1f2b6a682f133852f6798a09c465da95921460cefb38474024989060200160405180910390a15b50505050565b6000828152602081815260408083205467ffffffffffffffff168352600180835281842086855290925282206060915b848111610be85780851615801590610b31575060008181526020839052604081208054610b2d9061216e565b9050115b15610be05780826000838152602001908152602001600020808054610b559061216e565b80601f0160208091040260200160405190810160405280929190818152602001828054610b819061216e565b8015610bce5780601f10610ba357610100808354040283529160200191610bce565b820191906000526020600020905b815481529060010190602001808311610bb157829003601f168201915b50505050509050935093505050610c01565b60011b610b01565b5060006040518060200160405280600081525092509250505b9250929050565b82610c12816117ce565b610c1b57600080fd5b604080518082018252848152602080820185815260008881528083528481205467ffffffffffffffff1681526007835284812089825283528490209251835551600190920191909155815185815290810184905285917f1d6f5e03d3f63eb58751986629a5439baee5079ff04f345becb66e23eb154e4691015b60405180910390a250505050565b82610cad816117ce565b610cb657600080fd5b6000848152602081815260408083205467ffffffffffffffff168352600482528083208784529091529020610cec8385836121f6565b50837fe379c1624ed7e714cc0937528a32359d69d5281337765313dba4e081b72d75788484604051610c95929190612343565b80610d29816117ce565b610d3257600080fd5b6000828152602081905260408120805467ffffffffffffffff1691610d568361236d565b82546101009290920a67ffffffffffffffff818102199093169183160217909155600084815260208181526040918290205491519190921681528492507fc6621ccb8f3f5a04bb6502154b2caf6adf5983fe76dfef1cfc9c42e3579db444910160405180910390a25050565b600080610dd183600354611664565b90508051600003610de55750600092915050565b610dee816118b5565b9392505050565b610dfd611774565b6001600160a01b03166000908152600c60205260409020805460ff19169055565b6000838152602081815260408083205467ffffffffffffffff1683526008825280832086845290915290819020905160609190610e5e908590859061215e565b90815260200160405180910390208054610e779061216e565b80601f0160208091040260200160405190810160405280929190818152602001828054610ea39061216e565b8015610ef05780601f10610ec557610100808354040283529160200191610ef0565b820191906000526020600020905b815481529060010190602001808311610ed357829003601f168201915b505050505090509392505050565b83610f08816117ce565b610f1157600080fd5b83610f1d600182612394565b1615610f2857600080fd5b6000858152602081815260408083205467ffffffffffffffff1683526001825280832088845282528083208784529091529020610f668385836121f6565b50604051849086907faa121bbeef5f32f5961a2a28966e769023910fc9479059ee3495d4c1a696efe390600090a35050505050565b6000818152602081815260408083205467ffffffffffffffff168352600682528083208484529091529020805460609190610fd59061216e565b80601f01602080910402602001604051908101604052809291908181526020018280546110019061216e565b801561104e5780601f106110235761010080835404028352916020019161104e565b820191906000526020600020905b81548152906001019060200180831161103157829003601f168201915b50505050509050919050565b611062611774565b61106c60006118dd565b565b82611078816117ce565b61108157600080fd5b6000848152602081815260408083205467ffffffffffffffff1683526006825280832087845290915290206110b78385836121f6565b50837fb7d29e911041e8d9b843369e890bcb72c9388692ba48b65ac54e7214c4c348f78484604051610c95929190612343565b826110f4816117ce565b6110fd57600080fd5b837f65412581168e88a1e60c6459d7f44ae83ad0832e670826c05a4e2476b57af752848460405161112f929190611dc4565b60405180910390a26000848152602081815260408083205467ffffffffffffffff168352600282528083208784528252808320868452909152902061117483826123a7565b5050505050565b6001600160a01b03821633036111f95760405162461bcd60e51b815260206004820152602960248201527f455243313135353a2073657474696e6720617070726f76616c2073746174757360448201527f20666f722073656c66000000000000000000000000000000000000000000000060648201526084016109dd565b336000818152600d602090815260408083206001600160a01b03871680855290835292819020805460ff191686151590811790915590519081529192917f17307eab39ab6107e8899845ad3d59bd9653f200f220920489ca2b5937696c31910160405180910390a35050565b60608167ffffffffffffffff81111561128057611280611edc565b6040519080825280602002602001820160405280156112b357816020015b606081526020019060019003908161129e5790505b50905060005b8281101561137957600080308686858181106112d7576112d761232d565b90506020028101906112e99190612467565b6040516112f792919061215e565b600060405180830381855af49150503d8060008114611332576040519150601f19603f3d011682016040523d82523d6000602084013e611337565b606091505b50915091508161134657600080fd5b808484815181106113595761135961232d565b602002602001018190525050508080611371906124ae565b9150506112b9565b5092915050565b6000818152602081815260408083205467ffffffffffffffff168352600482528083208484529091529020805460609190610fd59061216e565b6009602090815260009283526040808420909152908252902080546113de9061216e565b80601f016020809104026020016040519081016040528092919081815260200182805461140a9061216e565b80156114575780601f1061142c57610100808354040283529160200191611457565b820191906000526020600020905b81548152906001019060200180831161143a57829003601f168201915b505050505081565b600082815260096020908152604080832084845290915290208054606091906114879061216e565b80601f01602080910402602001604051908101604052809291908181526020018280546114b39061216e565b80156115005780601f106114d557610100808354040283529160200191611500565b820191906000526020600020905b8154815290600101906020018083116114e357829003601f168201915b5050505050905092915050565b83611517816117ce565b61152057600080fd5b600085815260096020908152604080832087845290915290206115448385836121f6565b50847f5d09f22c5b27f567555451c92d940f671f5937d0d20f43da05db420401668c80858585604051611579939291906124c7565b60405180910390a25050505050565b81611592816117ce565b61159b57600080fd5b6115ab836003546103a48561193c565b505050565b826115ba816117ce565b6115c357600080fd5b6000848152602081815260408083205467ffffffffffffffff1683526005825280832087845282528083206001600160e01b0319871680855290835292819020805473ffffffffffffffffffffffffffffffffffffffff19166001600160a01b038716908117909155905190815286917f7c69f06bea0bdef565b709e93a147836b0063ba2dd89f02d0b7e8d931e6a6daa910160405180910390a350505050565b6000828152602081815260408083205467ffffffffffffffff16835260028252808320858452825280832084845290915290208054606091906114879061216e565b6116ae611774565b6001600160a01b03811661172a5760405162461bcd60e51b815260206004820152602660248201527f4f776e61626c653a206e6577206f776e657220697320746865207a65726f206160448201527f646472657373000000000000000000000000000000000000000000000000000060648201526084016109dd565b611733816118dd565b50565b60006001600160e01b031982167fbf2b07c700000000000000000000000000000000000000000000000000000000148061057b575061057b82611975565b600a546001600160a01b0316331461106c5760405162461bcd60e51b815260206004820181905260248201527f4f776e61626c653a2063616c6c6572206973206e6f7420746865206f776e657260448201526064016109dd565b336000908152600c602052604081205460ff16156117ee57506001919050565b600b546040517f02571be3000000000000000000000000000000000000000000000000000000008152600481018490526000916001600160a01b0316906302571be390602401602060405180830381865afa158015611851573d6000803e3d6000fd5b505050506040513d601f19601f8201168201806040525081019061187591906124ea565b90506001600160a01b038116331480610dee57506001600160a01b0381166000908152600d6020908152604080832033845290915290205460ff16610dee565b600081516014146118c557600080fd5b50602001516c01000000000000000000000000900490565b600a80546001600160a01b0383811673ffffffffffffffffffffffffffffffffffffffff19831681179093556040519116919082907f8be0079c531659141344cd1fd0a4f28419497f9722a3daafe3b4186f6b6457e090600090a35050565b6040805160148082528183019092526060916020820181803683375050506c010000000000000000000000009290920260208301525090565b60006001600160e01b031982167f59d1d43c00000000000000000000000000000000000000000000000000000000148061057b575061057b8260006001600160e01b031982167fc869023300000000000000000000000000000000000000000000000000000000148061057b575061057b8260006001600160e01b031982167f691f343100000000000000000000000000000000000000000000000000000000148061057b575061057b8260006001600160e01b031982167f124a319c00000000000000000000000000000000000000000000000000000000148061057b575061057b8260006001600160e01b031982167fbc1c58d100000000000000000000000000000000000000000000000000000000148061057b575061057b8260006001600160e01b031982167f3b3b57de000000000000000000000000000000000000000000000000000000001480611af557506001600160e01b031982167ff1cb7e0600000000000000000000000000000000000000000000000000000000145b8061057b575061057b8260006001600160e01b031982167f2203ab5600000000000000000000000000000000000000000000000000000000148061057b575061057b8260006001600160e01b031982167fd700ff3300000000000000000000000000000000000000000000000000000000148061057b575061057b8260006001600160e01b031982167fac9650d800000000000000000000000000000000000000000000000000000000148061057b57506301ffc9a760e01b6001600160e01b031983161461057b565b80356001600160e01b031981168114611bd757600080fd5b919050565b600060208284031215611bee57600080fd5b610dee82611bbf565b6001600160a01b038116811461173357600080fd5b600060208284031215611c1e57600080fd5b8135610dee81611bf7565b60008083601f840112611c3b57600080fd5b50813567ffffffffffffffff811115611c5357600080fd5b602083019150836020828501011115610c0157600080fd5b600080600080600060608688031215611c8357600080fd5b85359450602086013567ffffffffffffffff80821115611ca257600080fd5b611cae89838a01611c29565b90965094506040880135915080821115611cc757600080fd5b50611cd488828901611c29565b969995985093965092949392505050565b60008060408385031215611cf857600080fd5b82359150611d0860208401611bbf565b90509250929050565b600080600060608486031215611d2657600080fd5b8335611d3181611bf7565b92506020840135611d4181611bf7565b929592945050506040919091013590565b60008060408385031215611d6557600080fd5b50508035926020909101359150565b60005b83811015611d8f578181015183820152602001611d77565b50506000910152565b60008151808452611db0816020860160208601611d74565b601f01601f19169290920160200192915050565b828152604060208201526000611ddd6040830184611d98565b949350505050565b600080600060608486031215611dfa57600080fd5b505081359360208301359350604090920135919050565b600080600060408486031215611e2657600080fd5b83359250602084013567ffffffffffffffff811115611e4457600080fd5b611e5086828701611c29565b9497909650939450505050565b600060208284031215611e6f57600080fd5b5035919050565b602081526000610dee6020830184611d98565b60008060008060608587031215611e9f57600080fd5b8435935060208501359250604085013567ffffffffffffffff811115611ec457600080fd5b611ed087828801611c29565b95989497509550505050565b634e487b7160e01b600052604160045260246000fd5b600080600060608486031215611f0757600080fd5b8335925060208401359150604084013567ffffffffffffffff80821115611f2d57600080fd5b818601915086601f830112611f4157600080fd5b813581811115611f5357611f53611edc565b604051601f8201601f19908116603f01168101908382118183101715611f7b57611f7b611edc565b81604052828152896020848701011115611f9457600080fd5b8260208601602083013760006020848301015280955050505050509250925092565b60008060408385031215611fc957600080fd5b8235611fd481611bf7565b915060208301358015158114611fe957600080fd5b809150509250929050565b6000806020838503121561200757600080fd5b823567ffffffffffffffff8082111561201f57600080fd5b818501915085601f83011261203357600080fd5b81358181111561204257600080fd5b8660208260051b850101111561205757600080fd5b60209290920196919550909350505050565b6000602080830181845280855180835260408601915060408160051b870101925083870160005b828110156120be57603f198886030184526120ac858351611d98565b94509285019290850190600101612090565b5092979650505050505050565b600080604083850312156120de57600080fd5b823591506020830135611fe981611bf7565b60008060006060848603121561210557600080fd5b8335925061211560208501611bbf565b9150604084013561212581611bf7565b809150509250925092565b6000806040838503121561214357600080fd5b823561214e81611bf7565b91506020830135611fe981611bf7565b8183823760009101908152919050565b600181811c9082168061218257607f821691505b6020821081036121a257634e487b7160e01b600052602260045260246000fd5b50919050565b601f8211156115ab57600081815260208120601f850160051c810160208610156121cf5750805b601f850160051c820191505b818110156121ee578281556001016121db565b505050505050565b67ffffffffffffffff83111561220e5761220e611edc565b6122228361221c835461216e565b836121a8565b6000601f841160018114612256576000851561223e5750838201355b600019600387901b1c1916600186901b178355611174565b600083815260209020601f19861690835b828110156122875786850135825560209485019460019092019101612267565b50868210156122a45760001960f88860031b161c19848701351681555b505060018560011b0183555050505050565b81835281816020850137506000828201602090810191909152601f909101601f19169091010190565b6040815260006122f36040830186886122b6565b82810360208401526123068185876122b6565b979650505050505050565b60008251612323818460208701611d74565b9190910192915050565b634e487b7160e01b600052603260045260246000fd5b602081526000611ddd6020830184866122b6565b634e487b7160e01b600052601160045260246000fd5b600067ffffffffffffffff80831681810361238a5761238a612357565b6001019392505050565b8181038181111561057b5761057b612357565b815167ffffffffffffffff8111156123c1576123c1611edc565b6123d5816123cf845461216e565b846121a8565b602080601f83116001811461240a57600084156123f25750858301515b600019600386901b1c1916600185901b1785556121ee565b600085815260208120601f198616915b828110156124395788860151825594840194600190910190840161241a565b50858210156124575787850151600019600388901b60f8161c191681555b5050505050600190811b01905550565b6000808335601e1984360301811261247e57600080fd5b83018035915067ffffffffffffffff82111561249957600080fd5b602001915036819003821315610c0157600080fd5b6000600182016124c0576124c0612357565b5060010190565b8381526040602082015260006124e16040830184866122b6565b95945050505050565b6000602082840312156124fc57600080fd5b8151610dee81611bf756fea2646970667358221220ace1beb209c4835e1b53272542ae60cdd26913acab73add709afe9014fbdfa5e64736f6c63430008120033",
  "linkReferences": {},
  "deployedLinkReferences": {}
}