{
  "_format": "hh-sol-artifact-1",
  "contractName": "GiftCardVoucher",
  "sourceName": "contracts/giftcard/GiftCardVoucher.sol",
  "abi": [
    {
      "inputs": [
        {
          "internalType": "contract ISANN",
          "name": "_sann",
          "type": "address"
        }
      ],
      "stateMutability": "nonpayable",
      "type": "constructor"
    },
    {
      "anonymous": false,
      "inputs": [
        {
          "indexed": true,
          "internalType": "uint256",
          "name": "tokenId",
          "type": "uint256"
        },
        {
          "indexed": true,
          "internalType": "uint256",
          "name": "price",
          "type": "uint256"
        },
        {
          "indexed": true,
          "internalType": "uint256",
          "name": "identifier",
          "type": "uint256"
        }
      ],
      "name": "CustomizedVoucherAdded",
      "type": "event"
    },
    {
      "inputs": [
        {
          "internalType": "uint256",
          "name": "identifier",
          "type": "uint256"
        },
        {
          "internalType": "uint256",
          "name": "price",
          "type": "uint256"
        }
      ],
      "name": "addCustomizedVoucher",
      "outputs": [
        {
          "internalType": "uint256",
          "name": "",
          "type": "uint256"
        }
      ],
      "stateMutability": "nonpayable",
      "type": "function"
    },
    {
      "inputs": [
        {
          "internalType": "uint256",
          "name": "tokenId",
          "type": "uint256"
        }
      ],
      "name": "getTokenIdTld",
      "outputs": [
        {
          "internalType": "uint256",
          "name": "",
          "type": "uint256"
        }
      ],
      "stateMutability": "view",
      "type": "function"
    },
    {
      "inputs": [
        {
          "internalType": "uint256[]",
          "name": "ids",
          "type": "uint256[]"
        }
      ],
      "name": "isSameTld",
      "outputs": [
        {
          "internalType": "bool",
          "name": "",
          "type": "bool"
        }
      ],
      "stateMutability": "view",
      "type": "function"
    },
    {
      "inputs": [
        {
          "internalType": "uint256[]",
          "name": "ids",
          "type": "uint256[]"
        }
      ],
      "name": "isValidVoucherIds",
      "outputs": [
        {
          "internalType": "bool",
          "name": "",
          "type": "bool"
        }
      ],
      "stateMutability": "view",
      "type": "function"
    },
    {
      "inputs": [],
      "name": "sann",
      "outputs": [
        {
          "internalType": "contract ISANN",
          "name": "",
          "type": "address"
        }
      ],
      "stateMutability": "view",
      "type": "function"
    },
    {
      "inputs": [
        {
          "internalType": "uint256[]",
          "name": "ids",
          "type": "uint256[]"
        },
        {
          "internalType": "uint256[]",
          "name": "amounts",
          "type": "uint256[]"
        }
      ],
      "name": "totalValue",
      "outputs": [
        {
          "internalType": "uint256",
          "name": "",
          "type": "uint256"
        }
      ],
      "stateMutability": "view",
      "type": "function"
    },
    {
      "inputs": [
        {
          "internalType": "uint256",
          "name": "",
          "type": "uint256"
        }
      ],
      "name": "voucherTlds",
      "outputs": [
        {
          "internalType": "uint256",
          "name": "",
          "type": "uint256"
        }
      ],
      "stateMutability": "view",
      "type": "function"
    },
    {
      "inputs": [
        {
          "internalType": "uint256",
          "name": "",
          "type": "uint256"
        }
      ],
      "name": "voucherValues",
      "outputs": [
        {
          "internalType": "uint256",
          "name": "",
          "type": "uint256"
        }
      ],
      "stateMutability": "view",
      "type": "function"
    }
  ],
  "bytecode": "0x608060405234801561001057600080fd5b5060405161084238038061084283398101604081905261002f91610054565b600080546001600160a01b0319166001600160a01b0392909216919091179055610084565b60006020828403121561006657600080fd5b81516001600160a01b038116811461007d57600080fd5b9392505050565b6107af806100936000396000f3fe608060405234801561001057600080fd5b50600436106100885760003560e01c8063992ba3461161005b578063992ba34614610109578063b35f6eb61461011c578063d46da3871461012f578063dc6331af1461015a57600080fd5b80630cd7aab81461008d57806321e27342146100c057806358198158146100e35780638e210f0b146100f6575b600080fd5b6100ad61009b3660046105a5565b60016020526000908152604090205481565b6040519081526020015b60405180910390f35b6100d36100ce36600461060a565b61017a565b60405190151581526020016100b7565b6100ad6100f136600461064c565b61026c565b6100ad6101043660046105a5565b61044c565b6100ad61011736600461066e565b6104bc565b6100d361012a36600461060a565b610540565b600054610142906001600160a01b031681565b6040516001600160a01b0390911681526020016100b7565b6100ad6101683660046105a5565b60026020526000908152604090205481565b600080805b8381101561025f57600085858381811061019b5761019b6106da565b905060200201359050600260008281526020019081526020016000205460000361020c5760405162461bcd60e51b815260206004820152601860248201527f546f6b656e4964277320746c64206e6f7420657869737473000000000000000060448201526064015b60405180910390fd5b8260000361022a57600090815260026020526040902054915061024d565b600081815260026020526040902054831461024b5760009350505050610266565b505b8061025781610706565b91505061017f565b5060019150505b92915050565b600080546040517f0726f66800000000000000000000000000000000000000000000000000000000815260048101859052849133916001600160a01b0390911690630726f66890602401602060405180830381865afa1580156102d3573d6000803e3d6000fd5b505050506040513d601f19601f820116820180604052508101906102f7919061071f565b6001600160a01b0316146103725760405162461bcd60e51b8152602060048201526024808201527f4f776e61626c653a2063616c6c6572206973206e6f742074686520746c64206f60448201527f776e6572000000000000000000000000000000000000000000000000000000006064820152608401610203565b6040805160208082018790528183018690528251808303840181526060909201835281519181019190912060008181526001909252919020548190156103fa5760405162461bcd60e51b815260206004820152601660248201527f766f756368657220616c726561647920657873697473000000000000000000006044820152606401610203565b60008181526001602090815260408083208890556002909152808220889055518791879184917f79986ef28f0add827f18d537bebcdc5b9709c19fabde5d0197187740faf46b7991a495945050505050565b60008181526002602052604081205481036104a95760405162461bcd60e51b815260206004820152601860248201527f546f6b656e4964277320746c64206e6f742065786973747300000000000000006044820152606401610203565b5060009081526002602052604090205490565b600080805b85811015610536578484828181106104db576104db6106da565b90506020020135600160008989858181106104f8576104f86106da565b90506020020135815260200190815260200160002054610518919061074f565b6105229083610766565b91508061052e81610706565b9150506104c1565b5095945050505050565b6000805b8281101561059b5760016000858584818110610562576105626106da565b90506020020135815260200190815260200160002054600003610589576000915050610266565b8061059381610706565b915050610544565b5060019392505050565b6000602082840312156105b757600080fd5b5035919050565b60008083601f8401126105d057600080fd5b50813567ffffffffffffffff8111156105e857600080fd5b6020830191508360208260051b850101111561060357600080fd5b9250929050565b6000806020838503121561061d57600080fd5b823567ffffffffffffffff81111561063457600080fd5b610640858286016105be565b90969095509350505050565b6000806040838503121561065f57600080fd5b50508035926020909101359150565b6000806000806040858703121561068457600080fd5b843567ffffffffffffffff8082111561069c57600080fd5b6106a8888389016105be565b909650945060208701359150808211156106c157600080fd5b506106ce878288016105be565b95989497509550505050565b634e487b7160e01b600052603260045260246000fd5b634e487b7160e01b600052601160045260246000fd5b600060018201610718576107186106f0565b5060010190565b60006020828403121561073157600080fd5b81516001600160a01b038116811461074857600080fd5b9392505050565b8082028115828204841417610266576102666106f0565b80820180821115610266576102666106f056fea2646970667358221220de1497fa63f2b9142fd4211dd525c0cf60973f63597c46eae00b267df2b88cc864736f6c63430008120033",
  "linkReferences": {},
  "deployedLinkReferences": {}
}