{
  "_format": "hh-sol-artifact-1",
  "contractName": "GiftCardController",
  "sourceName": "contracts/giftcard/GiftCardController.sol",
  "abi": [
    {
      "inputs": [
        {
          "internalType": "contract ISANN",
          "name": "_sann",
          "type": "address"
        },
        {
          "internalType": "contract GiftCardBase",
          "name": "_base",
          "type": "address"
        },
        {
          "internalType": "contract GiftCardVoucher",
          "name": "_voucher",
          "type": "address"
        },
        {
          "internalType": "contract GiftCardLedger",
          "name": "_ledger",
          "type": "address"
        },
        {
          "internalType": "contract IPriceOracle",
          "name": "_priceOracle",
          "type": "address"
        },
        {
          "internalType": "contract IPlatformConfig",
          "name": "_platformConfig",
          "type": "address"
        },
        {
          "internalType": "contract PrepaidPlatformFee",
          "name": "_prepaidPlatformFee",
          "type": "address"
        }
      ],
      "stateMutability": "nonpayable",
      "type": "constructor"
    },
    {
      "anonymous": false,
      "inputs": [
        {
          "indexed": false,
          "internalType": "address",
          "name": "priceOracle",
          "type": "address"
        }
      ],
      "name": "SetPriceOracle",
      "type": "event"
    },
    {
      "inputs": [],
      "name": "base",
      "outputs": [
        {
          "internalType": "contract GiftCardBase",
          "name": "",
          "type": "address"
        }
      ],
      "stateMutability": "view",
      "type": "function"
    },
    {
      "inputs": [
        {
          "internalType": "uint256",
          "name": "identifier",
          "type": "uint256"
        },
        {
          "internalType": "uint256[]",
          "name": "ids",
          "type": "uint256[]"
        },
        {
          "internalType": "uint256[]",
          "name": "amounts",
          "type": "uint256[]"
        }
      ],
      "name": "batchRedeem",
      "outputs": [],
      "stateMutability": "nonpayable",
      "type": "function"
    },
    {
      "inputs": [
        {
          "internalType": "uint256[]",
          "name": "ids",
          "type": "uint256[]"
        },
        {
          "internalType": "uint256[]",
          "name": "amounts",
          "type": "uint256[]"
        }
      ],
      "name": "batchRegister",
      "outputs": [],
      "stateMutability": "payable",
      "type": "function"
    },
    {
      "inputs": [],
      "name": "ledger",
      "outputs": [
        {
          "internalType": "contract GiftCardLedger",
          "name": "",
          "type": "address"
        }
      ],
      "stateMutability": "view",
      "type": "function"
    },
    {
      "inputs": [],
      "name": "platformConfig",
      "outputs": [
        {
          "internalType": "contract IPlatformConfig",
          "name": "",
          "type": "address"
        }
      ],
      "stateMutability": "view",
      "type": "function"
    },
    {
      "inputs": [],
      "name": "prepaidPlatformFee",
      "outputs": [
        {
          "internalType": "contract PrepaidPlatformFee",
          "name": "",
          "type": "address"
        }
      ],
      "stateMutability": "view",
      "type": "function"
    },
    {
      "inputs": [
        {
          "internalType": "uint256[]",
          "name": "ids",
          "type": "uint256[]"
        },
        {
          "internalType": "uint256[]",
          "name": "amounts",
          "type": "uint256[]"
        }
      ],
      "name": "price",
      "outputs": [
        {
          "internalType": "uint256",
          "name": "",
          "type": "uint256"
        }
      ],
      "stateMutability": "view",
      "type": "function"
    },
    {
      "inputs": [],
      "name": "priceOracle",
      "outputs": [
        {
          "internalType": "contract IPriceOracle",
          "name": "",
          "type": "address"
        }
      ],
      "stateMutability": "view",
      "type": "function"
    },
    {
      "inputs": [],
      "name": "sann",
      "outputs": [
        {
          "internalType": "contract ISANN",
          "name": "",
          "type": "address"
        }
      ],
      "stateMutability": "view",
      "type": "function"
    },
    {
      "inputs": [
        {
          "internalType": "address",
          "name": "_priceOracle",
          "type": "address"
        }
      ],
      "name": "setPriceOracle",
      "outputs": [],
      "stateMutability": "nonpayable",
      "type": "function"
    },
    {
      "inputs": [
        {
          "internalType": "uint256",
          "name": "",
          "type": "uint256"
        }
      ],
      "name": "tldGiftCardRevenues",
      "outputs": [
        {
          "internalType": "uint256",
          "name": "",
          "type": "uint256"
        }
      ],
      "stateMutability": "view",
      "type": "function"
    },
    {
      "inputs": [],
      "name": "voucher",
      "outputs": [
        {
          "internalType": "contract GiftCardVoucher",
          "name": "",
          "type": "address"
        }
      ],
      "stateMutability": "view",
      "type": "function"
    },
    {
      "inputs": [
        {
          "internalType": "uint256",
          "name": "identifier",
          "type": "uint256"
        }
      ],
      "name": "withdraw",
      "outputs": [],
      "stateMutability": "nonpayable",
      "type": "function"
    }
  ],
  "bytecode": "0x60806040523480156200001157600080fd5b50604051620016fa380380620016fa833981016040819052620000349162000216565b600080546001600160a01b0319166001600160a01b03898116919091179091558616620000a85760405162461bcd60e51b815260206004820152601460248201527f496e76616c69642062617365206164647265737300000000000000000000000060448201526064015b60405180910390fd5b6001600160a01b038516620001005760405162461bcd60e51b815260206004820152601760248201527f496e76616c696420766f7563686572206164647265737300000000000000000060448201526064016200009f565b6001600160a01b038316620001585760405162461bcd60e51b815260206004820152601c60248201527f496e76616c6964207072696365206f7261636c6520616464726573730000000060448201526064016200009f565b600180546001600160a01b03199081166001600160a01b0389811691909117909255600280548216888416179055600380548216878416179055600680548216868416908117909155600480548316868516179055600580549092169284169290921790556040519081527f88a686e0e341d9099f2f990c3aa759a86822142a67579064b43ded9354a256629060200160405180910390a150505050505050620002c1565b6001600160a01b03811681146200021357600080fd5b50565b600080600080600080600060e0888a0312156200023257600080fd5b87516200023f81620001fd565b60208901519097506200025281620001fd565b60408901519096506200026581620001fd565b60608901519095506200027881620001fd565b60808901519094506200028b81620001fd565b60a08901519093506200029e81620001fd565b60c0890151909250620002b181620001fd565b8091505092959891949750929550565b61142980620002d16000396000f3fe6080604052600436106100d25760003560e01c806356397c351161007f578063acb8e01411610059578063acb8e01414610217578063acfc0e2e14610244578063cdda418c14610264578063d46da3871461028457600080fd5b806356397c35146101c457806383a2e281146101e4578063a289cf84146101f757600080fd5b80634d24e236116100b05780634d24e236146101645780635001f3b514610184578063530e784f146101a457600080fd5b80630579d25d146100d75780632630c12f1461010a5780632e1a7d4d14610142575b600080fd5b3480156100e357600080fd5b506100f76100f236600461112d565b6102a4565b6040519081526020015b60405180910390f35b34801561011657600080fd5b5060065461012a906001600160a01b031681565b6040516001600160a01b039091168152602001610101565b34801561014e57600080fd5b5061016261015d366004611199565b6103b1565b005b34801561017057600080fd5b5060045461012a906001600160a01b031681565b34801561019057600080fd5b5060015461012a906001600160a01b031681565b3480156101b057600080fd5b506101626101bf3660046111ca565b6105b9565b3480156101d057600080fd5b5060035461012a906001600160a01b031681565b6101626101f236600461112d565b61077d565b34801561020357600080fd5b5060055461012a906001600160a01b031681565b34801561022357600080fd5b506100f7610232366004611199565b60076020526000908152604090205481565b34801561025057600080fd5b5061016261025f3660046111ee565b610d4e565b34801561027057600080fd5b5060025461012a906001600160a01b031681565b34801561029057600080fd5b5060005461012a906001600160a01b031681565b600254604051634c95d1a360e11b815260009182916001600160a01b039091169063992ba346906102df9089908990899089906004016112b3565b602060405180830381865afa1580156102fc573d6000803e3d6000fd5b505050506040513d601f19601f8201168201806040525081019061032091906112e5565b6006546040517fd1467f86000000000000000000000000000000000000000000000000000000008152600481018390529192506001600160a01b03169063d1467f8690602401602060405180830381865afa158015610383573d6000803e3d6000fd5b505050506040513d601f19601f820116820180604052508101906103a791906112e5565b9695505050505050565b6000546040517f0726f66800000000000000000000000000000000000000000000000000000000815260048101839052829133916001600160a01b0390911690630726f66890602401602060405180830381865afa158015610417573d6000803e3d6000fd5b505050506040513d601f19601f8201168201806040525081019061043b91906112fe565b6001600160a01b0316146104bb5760405162461bcd60e51b8152602060048201526024808201527f4f776e61626c653a2063616c6c6572206973206e6f742074686520746c64206f60448201527f776e65720000000000000000000000000000000000000000000000000000000060648201526084015b60405180910390fd5b600082815260076020526040812080549190558061051b5760405162461bcd60e51b815260206004820152601260248201527f696e73756666696369656e742076616c7565000000000000000000000000000060448201526064016104b2565b604051600090339083908381818185875af1925050503d806000811461055d576040519150601f19603f3d011682016040523d82523d6000602084013e610562565b606091505b50509050806105b35760405162461bcd60e51b815260206004820152601460248201527f4661696c656420746f2073656e6420457468657200000000000000000000000060448201526064016104b2565b50505050565b600054604080517fcdcd7fb5000000000000000000000000000000000000000000000000000000008152905133926001600160a01b03169163cdcd7fb59160048083019260209291908290030181865afa15801561061b573d6000803e3d6000fd5b505050506040513d601f19601f8201168201806040525081019061063f91906112fe565b6001600160a01b0316146106bb5760405162461bcd60e51b815260206004820152602c60248201527f41636365737369626c653a2063616c6c6572206973206e6f742074686520706c60448201527f6174666f726d2061646d696e000000000000000000000000000000000000000060648201526084016104b2565b6001600160a01b0381166107115760405162461bcd60e51b815260206004820152601c60248201527f496e76616c6964207072696365206f7261636c6520616464726573730000000060448201526064016104b2565b600680547fffffffffffffffffffffffff0000000000000000000000000000000000000000166001600160a01b0383169081179091556040519081527f88a686e0e341d9099f2f990c3aa759a86822142a67579064b43ded9354a256629060200160405180910390a150565b6002546040517fb35f6eb60000000000000000000000000000000000000000000000000000000081526001600160a01b039091169063b35f6eb6906107c8908790879060040161131b565b602060405180830381865afa1580156107e5573d6000803e3d6000fd5b505050506040513d601f19601f820116820180604052508101906108099190611337565b6108555760405162461bcd60e51b815260206004820152601260248201527f496e76616c696420766f7563686572206964000000000000000000000000000060448201526064016104b2565b6002546040516310f139a160e11b81526001600160a01b03909116906321e2734290610887908790879060040161131b565b602060405180830381865afa1580156108a4573d6000803e3d6000fd5b505050506040513d601f19601f820116820180604052508101906108c89190611337565b6109145760405162461bcd60e51b815260206004820152601060248201527f4d7573742062652073616d6520746c640000000000000000000000000000000060448201526064016104b2565b6002546000906001600160a01b0316638e210f0b8686848161093857610938611359565b905060200201356040518263ffffffff1660e01b815260040161095d91815260200190565b602060405180830381865afa15801561097a573d6000803e3d6000fd5b505050506040513d601f19601f8201168201806040525081019061099e91906112e5565b905060006109ae868686866102a4565b905080341015610a005760405162461bcd60e51b815260206004820152601260248201527f496e73756666696369656e742066756e6473000000000000000000000000000060448201526064016104b2565b6001546040517f8cbdd3610000000000000000000000000000000000000000000000000000000081526001600160a01b0390911690638cbdd36190610a519033908a908a908a908a9060040161136f565b600060405180830381600087803b158015610a6b57600080fd5b505af1158015610a7f573d6000803e3d6000fd5b5050505060008060009054906101000a90046001600160a01b03166001600160a01b031663f34004196040518163ffffffff1660e01b8152600401602060405180830381865afa158015610ad7573d6000803e3d6000fd5b505050506040513d601f19601f82011682018060405250810190610afb91906112fe565b90506001600160a01b038116610b535760405162461bcd60e51b815260206004820152601660248201527f496e76616c696420746c6420636f6e74726f6c6c65720000000000000000000060448201526064016104b2565b600480546040517f38ad9159000000000000000000000000000000000000000000000000000000008152918201859052602482018490526000916001600160a01b03909116906338ad915990604401602060405180830381865afa158015610bbf573d6000803e3d6000fd5b505050506040513d601f19601f82011682018060405250810190610be391906112e5565b90508015610c65576005546040517fb6b55f25000000000000000000000000000000000000000000000000000000008152600481018690526001600160a01b039091169063b6b55f259083906024016000604051808303818588803b158015610c4b57600080fd5b505af1158015610c5f573d6000803e3d6000fd5b50505050505b80831115610c9b57610c7781846113c7565b60008581526007602052604081208054909190610c959084906113e0565b90915550505b82341115610d4457600033610cb085346113c7565b604051600081818185875af1925050503d8060008114610cec576040519150601f19603f3d011682016040523d82523d6000602084013e610cf1565b606091505b5050905080610d425760405162461bcd60e51b815260206004820152601460248201527f4661696c656420746f2073656e6420457468657200000000000000000000000060448201526064016104b2565b505b5050505050505050565b6002546040516310f139a160e11b81526001600160a01b03909116906321e2734290610d80908790879060040161131b565b602060405180830381865afa158015610d9d573d6000803e3d6000fd5b505050506040513d601f19601f82011682018060405250810190610dc19190611337565b610e0d5760405162461bcd60e51b815260206004820152601060248201527f4d7573742062652073616d6520746c640000000000000000000000000000000060448201526064016104b2565b82610e5a5760405162461bcd60e51b815260206004820152600e60248201527f456d70747920746f6b656e49647300000000000000000000000000000000000060448201526064016104b2565b60025485906001600160a01b0316638e210f0b8686600081610e7e57610e7e611359565b905060200201356040518263ffffffff1660e01b8152600401610ea391815260200190565b602060405180830381865afa158015610ec0573d6000803e3d6000fd5b505050506040513d601f19601f82011682018060405250810190610ee491906112e5565b14610f575760405162461bcd60e51b815260206004820152602160248201527f4964656e74696669657220646f73656e2774206d6174636820746f6b656e496460448201527f730000000000000000000000000000000000000000000000000000000000000060648201526084016104b2565b6001546040517ff6eb127a0000000000000000000000000000000000000000000000000000000081526001600160a01b039091169063f6eb127a90610fa8903390889088908890889060040161136f565b600060405180830381600087803b158015610fc257600080fd5b505af1158015610fd6573d6000803e3d6000fd5b5050600254604051634c95d1a360e11b8152600093506001600160a01b03909116915063992ba346906110139088908890889088906004016112b3565b602060405180830381865afa158015611030573d6000803e3d6000fd5b505050506040513d601f19601f8201168201806040525081019061105491906112e5565b6003546040517fd878016100000000000000000000000000000000000000000000000000000000815260048101899052336024820152604481018390529192506001600160a01b03169063d878016190606401600060405180830381600087803b1580156110c157600080fd5b505af11580156110d5573d6000803e3d6000fd5b50505050505050505050565b60008083601f8401126110f357600080fd5b50813567ffffffffffffffff81111561110b57600080fd5b6020830191508360208260051b850101111561112657600080fd5b9250929050565b6000806000806040858703121561114357600080fd5b843567ffffffffffffffff8082111561115b57600080fd5b611167888389016110e1565b9096509450602087013591508082111561118057600080fd5b5061118d878288016110e1565b95989497509550505050565b6000602082840312156111ab57600080fd5b5035919050565b6001600160a01b03811681146111c757600080fd5b50565b6000602082840312156111dc57600080fd5b81356111e7816111b2565b9392505050565b60008060008060006060868803121561120657600080fd5b85359450602086013567ffffffffffffffff8082111561122557600080fd5b61123189838a016110e1565b9096509450604088013591508082111561124a57600080fd5b50611257888289016110e1565b969995985093965092949392505050565b81835260007f07ffffffffffffffffffffffffffffffffffffffffffffffffffffffffffffff83111561129a57600080fd5b8260051b80836020870137939093016020019392505050565b6040815260006112c7604083018688611268565b82810360208401526112da818587611268565b979650505050505050565b6000602082840312156112f757600080fd5b5051919050565b60006020828403121561131057600080fd5b81516111e7816111b2565b60208152600061132f602083018486611268565b949350505050565b60006020828403121561134957600080fd5b815180151581146111e757600080fd5b634e487b7160e01b600052603260045260246000fd5b6001600160a01b0386168152606060208201526000611392606083018688611268565b82810360408401526113a5818587611268565b98975050505050505050565b634e487b7160e01b600052601160045260246000fd5b818103818111156113da576113da6113b1565b92915050565b808201808211156113da576113da6113b156fea2646970667358221220b7f3043387683c7567d18a30c5c29b286e8b1fa097f7e97b903a371c94bcc9e464736f6c63430008120033",
  "linkReferences": {},
  "deployedLinkReferences": {}
}