{
  "_format": "hh-sol-artifact-1",
  "contractName": "Create2Factory",
  "sourceName": "contracts/create2factory/Create2Factory.sol",
  "abi": [
    {
      "anonymous": false,
      "inputs": [
        {
          "indexed": true,
          "internalType": "address",
          "name": "deploymentAddress",
          "type": "address"
        }
      ],
      "name": "ContractDeployed",
      "type": "event"
    },
    {
      "inputs": [
        {
          "internalType": "address",
          "name": "",
          "type": "address"
        }
      ],
      "name": "_deployed",
      "outputs": [
        {
          "internalType": "bool",
          "name": "",
          "type": "bool"
        }
      ],
      "stateMutability": "view",
      "type": "function"
    },
    {
      "inputs": [
        {
          "internalType": "bytes32",
          "name": "salt",
          "type": "bytes32"
        },
        {
          "internalType": "bytes",
          "name": "initCode",
          "type": "bytes"
        }
      ],
      "name": "findCreate2Address",
      "outputs": [
        {
          "internalType": "address",
          "name": "deploymentAddress",
          "type": "address"
        }
      ],
      "stateMutability": "view",
      "type": "function"
    },
    {
      "inputs": [
        {
          "internalType": "bytes32",
          "name": "salt",
          "type": "bytes32"
        },
        {
          "internalType": "bytes32",
          "name": "initCodeHash",
          "type": "bytes32"
        }
      ],
      "name": "findCreate2AddressViaHash",
      "outputs": [
        {
          "internalType": "address",
          "name": "deploymentAddress",
          "type": "address"
        }
      ],
      "stateMutability": "view",
      "type": "function"
    },
    {
      "inputs": [
        {
          "internalType": "address",
          "name": "deploymentAddress",
          "type": "address"
        }
      ],
      "name": "hasBeenDeployed",
      "outputs": [
        {
          "internalType": "bool",
          "name": "",
          "type": "bool"
        }
      ],
      "stateMutability": "view",
      "type": "function"
    },
    {
      "inputs": [
        {
          "internalType": "bytes32",
          "name": "salt",
          "type": "bytes32"
        },
        {
          "internalType": "bytes",
          "name": "initializationCode",
          "type": "bytes"
        }
      ],
      "name": "safeCreate2",
      "outputs": [
        {
          "internalType": "address",
          "name": "deploymentAddress",
          "type": "address"
        }
      ],
      "stateMutability": "payable",
      "type": "function"
    }
  ],
  "bytecode": "0x608060405234801561001057600080fd5b50610668806100206000396000f3fe60806040526004361061005a5760003560e01c806364e030871161004357806364e03087146100dd57806385cf97ab14610108578063a49a7c901461012857600080fd5b806308508b8f1461005f5780633b67d809146100ad575b600080fd5b34801561006b57600080fd5b5061009861007a36600461052c565b6001600160a01b031660009081526020819052604090205460ff1690565b60405190151581526020015b60405180910390f35b3480156100b957600080fd5b506100986100c836600461052c565b60006020819052908152604090205460ff1681565b6100f06100eb366004610555565b610148565b6040516001600160a01b0390911681526020016100a4565b34801561011457600080fd5b506100f0610123366004610555565b6103c6565b34801561013457600080fd5b506100f06101433660046105d1565b610494565b60008083838080601f016020809104026020016040519081016040528093929190818152602001838380828437600092018290525060405194955093309350899250610199915085906020016105f3565b6040516020818303038152906040528051906020012060405160200161020c939291907fff00000000000000000000000000000000000000000000000000000000000000815260609390931b6bffffffffffffffffffffffff191660018401526015830191909152603582015260550190565b60408051601f1981840301815291815281516020928301206001600160a01b03811660009081529283905291205490915060ff16156102b85760405162461bcd60e51b815260206004820152603f60248201527f496e76616c696420636f6e7472616374206372656174696f6e202d20636f6e7460448201527f726163742068617320616c7265616479206265656e206465706c6f7965642e0060648201526084015b60405180910390fd5b81602001825187818334f594505050806001600160a01b0316836001600160a01b0316146103745760405162461bcd60e51b815260206004820152604660248201527f4661696c656420746f206465706c6f7920636f6e7472616374207573696e672060448201527f70726f76696465642073616c7420616e6420696e697469616c697a6174696f6e60648201527f20636f64652e0000000000000000000000000000000000000000000000000000608482015260a4016102af565b6001600160a01b038316600081815260208190526040808220805460ff19166001179055517f8ffcdc15a283d706d38281f500270d8b5a656918f555de0913d7455e3e6bc1bf9190a250509392505050565b6000308484846040516020016103dd929190610622565b60405160208183030381529060405280519060200120604051602001610450939291907fff00000000000000000000000000000000000000000000000000000000000000815260609390931b6bffffffffffffffffffffffff191660018401526015830191909152603582015260550190565b60408051601f1981840301815291815281516020928301206001600160a01b03811660009081529283905291205490915060ff161561048d575060005b9392505050565b6040517fff0000000000000000000000000000000000000000000000000000000000000060208201526bffffffffffffffffffffffff193060601b166021820152603581018390526055810182905260009060750160408051601f1981840301815291815281516020928301206001600160a01b03811660009081529283905291205490915060ff1615610526575060005b92915050565b60006020828403121561053e57600080fd5b81356001600160a01b038116811461048d57600080fd5b60008060006040848603121561056a57600080fd5b83359250602084013567ffffffffffffffff8082111561058957600080fd5b818601915086601f83011261059d57600080fd5b8135818111156105ac57600080fd5b8760208285010111156105be57600080fd5b6020830194508093505050509250925092565b600080604083850312156105e457600080fd5b50508035926020909101359150565b6000825160005b8181101561061457602081860181015185830152016105fa565b506000920191825250919050565b818382376000910190815291905056fea2646970667358221220bc1949d9606b9f8ceed429605e2ae4b827a7560707ba064911d91ea4aa5a89ac64736f6c63430008120033",
  "linkReferences": {},
  "deployedLinkReferences": {}
}