{
  "_format": "hh-sol-artifact-1",
  "contractName": "GiftCardBase",
  "sourceName": "contracts/giftcard/GiftCardBase.sol",
  "abi": [
    {
      "inputs": [
        {
          "internalType": "contract ISANN",
          "name": "_sann",
          "type": "address"
        }
      ],
      "stateMutability": "nonpayable",
      "type": "constructor"
    },
    {
      "anonymous": false,
      "inputs": [
        {
          "indexed": true,
          "internalType": "address",
          "name": "account",
          "type": "address"
        },
        {
          "indexed": true,
          "internalType": "address",
          "name": "operator",
          "type": "address"
        },
        {
          "indexed": false,
          "internalType": "bool",
          "name": "approved",
          "type": "bool"
        }
      ],
      "name": "ApprovalForAll",
      "type": "event"
    },
    {
      "anonymous": false,
      "inputs": [
        {
          "indexed": true,
          "internalType": "address",
          "name": "controller",
          "type": "address"
        }
      ],
      "name": "ControllerAdded",
      "type": "event"
    },
    {
      "anonymous": false,
      "inputs": [
        {
          "indexed": true,
          "internalType": "address",
          "name": "controller",
          "type": "address"
        }
      ],
      "name": "ControllerRemoved",
      "type": "event"
    },
    {
      "anonymous": false,
      "inputs": [
        {
          "indexed": false,
          "internalType": "address",
          "name": "account",
          "type": "address"
        }
      ],
      "name": "Paused",
      "type": "event"
    },
    {
      "anonymous": false,
      "inputs": [
        {
          "indexed": true,
          "internalType": "address",
          "name": "operator",
          "type": "address"
        },
        {
          "indexed": true,
          "internalType": "address",
          "name": "from",
          "type": "address"
        },
        {
          "indexed": true,
          "internalType": "address",
          "name": "to",
          "type": "address"
        },
        {
          "indexed": false,
          "internalType": "uint256[]",
          "name": "ids",
          "type": "uint256[]"
        },
        {
          "indexed": false,
          "internalType": "uint256[]",
          "name": "values",
          "type": "uint256[]"
        }
      ],
      "name": "TransferBatch",
      "type": "event"
    },
    {
      "anonymous": false,
      "inputs": [
        {
          "indexed": true,
          "internalType": "address",
          "name": "operator",
          "type": "address"
        },
        {
          "indexed": true,
          "internalType": "address",
          "name": "from",
          "type": "address"
        },
        {
          "indexed": true,
          "internalType": "address",
          "name": "to",
          "type": "address"
        },
        {
          "indexed": false,
          "internalType": "uint256",
          "name": "id",
          "type": "uint256"
        },
        {
          "indexed": false,
          "internalType": "uint256",
          "name": "value",
          "type": "uint256"
        }
      ],
      "name": "TransferSingle",
      "type": "event"
    },
    {
      "anonymous": false,
      "inputs": [
        {
          "indexed": false,
          "internalType": "string",
          "name": "value",
          "type": "string"
        },
        {
          "indexed": true,
          "internalType": "uint256",
          "name": "id",
          "type": "uint256"
        }
      ],
      "name": "URI",
      "type": "event"
    },
    {
      "anonymous": false,
      "inputs": [
        {
          "indexed": false,
          "internalType": "address",
          "name": "account",
          "type": "address"
        }
      ],
      "name": "Unpaused",
      "type": "event"
    },
    {
      "inputs": [
        {
          "internalType": "address",
          "name": "controller",
          "type": "address"
        }
      ],
      "name": "addController",
      "outputs": [],
      "stateMutability": "nonpayable",
      "type": "function"
    },
    {
      "inputs": [
        {
          "internalType": "address",
          "name": "account",
          "type": "address"
        },
        {
          "internalType": "uint256",
          "name": "id",
          "type": "uint256"
        }
      ],
      "name": "balanceOf",
      "outputs": [
        {
          "internalType": "uint256",
          "name": "",
          "type": "uint256"
        }
      ],
      "stateMutability": "view",
      "type": "function"
    },
    {
      "inputs": [
        {
          "internalType": "address[]",
          "name": "accounts",
          "type": "address[]"
        },
        {
          "internalType": "uint256[]",
          "name": "ids",
          "type": "uint256[]"
        }
      ],
      "name": "balanceOfBatch",
      "outputs": [
        {
          "internalType": "uint256[]",
          "name": "",
          "type": "uint256[]"
        }
      ],
      "stateMutability": "view",
      "type": "function"
    },
    {
      "inputs": [
        {
          "internalType": "address",
          "name": "account",
          "type": "address"
        },
        {
          "internalType": "uint256[]",
          "name": "ids",
          "type": "uint256[]"
        },
        {
          "internalType": "uint256[]",
          "name": "amounts",
          "type": "uint256[]"
        }
      ],
      "name": "batchBurn",
      "outputs": [],
      "stateMutability": "nonpayable",
      "type": "function"
    },
    {
      "inputs": [
        {
          "internalType": "address",
          "name": "to",
          "type": "address"
        },
        {
          "internalType": "uint256[]",
          "name": "ids",
          "type": "uint256[]"
        },
        {
          "internalType": "uint256[]",
          "name": "amounts",
          "type": "uint256[]"
        }
      ],
      "name": "batchRegister",
      "outputs": [],
      "stateMutability": "nonpayable",
      "type": "function"
    },
    {
      "inputs": [
        {
          "internalType": "address",
          "name": "",
          "type": "address"
        }
      ],
      "name": "controllers",
      "outputs": [
        {
          "internalType": "bool",
          "name": "",
          "type": "bool"
        }
      ],
      "stateMutability": "view",
      "type": "function"
    },
    {
      "inputs": [
        {
          "internalType": "address",
          "name": "account",
          "type": "address"
        },
        {
          "internalType": "address",
          "name": "operator",
          "type": "address"
        }
      ],
      "name": "isApprovedForAll",
      "outputs": [
        {
          "internalType": "bool",
          "name": "",
          "type": "bool"
        }
      ],
      "stateMutability": "view",
      "type": "function"
    },
    {
      "inputs": [],
      "name": "name",
      "outputs": [
        {
          "internalType": "string",
          "name": "",
          "type": "string"
        }
      ],
      "stateMutability": "view",
      "type": "function"
    },
    {
      "inputs": [],
      "name": "pause",
      "outputs": [],
      "stateMutability": "nonpayable",
      "type": "function"
    },
    {
      "inputs": [],
      "name": "paused",
      "outputs": [
        {
          "internalType": "bool",
          "name": "",
          "type": "bool"
        }
      ],
      "stateMutability": "view",
      "type": "function"
    },
    {
      "inputs": [
        {
          "internalType": "address",
          "name": "to",
          "type": "address"
        },
        {
          "internalType": "uint256",
          "name": "id",
          "type": "uint256"
        },
        {
          "internalType": "uint256",
          "name": "amount",
          "type": "uint256"
        }
      ],
      "name": "register",
      "outputs": [
        {
          "internalType": "uint256",
          "name": "",
          "type": "uint256"
        },
        {
          "internalType": "uint256",
          "name": "",
          "type": "uint256"
        }
      ],
      "stateMutability": "nonpayable",
      "type": "function"
    },
    {
      "inputs": [
        {
          "internalType": "address",
          "name": "controller",
          "type": "address"
        }
      ],
      "name": "removeController",
      "outputs": [],
      "stateMutability": "nonpayable",
      "type": "function"
    },
    {
      "inputs": [
        {
          "internalType": "address",
          "name": "from",
          "type": "address"
        },
        {
          "internalType": "address",
          "name": "to",
          "type": "address"
        },
        {
          "internalType": "uint256[]",
          "name": "ids",
          "type": "uint256[]"
        },
        {
          "internalType": "uint256[]",
          "name": "amounts",
          "type": "uint256[]"
        },
        {
          "internalType": "bytes",
          "name": "data",
          "type": "bytes"
        }
      ],
      "name": "safeBatchTransferFrom",
      "outputs": [],
      "stateMutability": "nonpayable",
      "type": "function"
    },
    {
      "inputs": [
        {
          "internalType": "address",
          "name": "from",
          "type": "address"
        },
        {
          "internalType": "address",
          "name": "to",
          "type": "address"
        },
        {
          "internalType": "uint256",
          "name": "id",
          "type": "uint256"
        },
        {
          "internalType": "uint256",
          "name": "amount",
          "type": "uint256"
        },
        {
          "internalType": "bytes",
          "name": "data",
          "type": "bytes"
        }
      ],
      "name": "safeTransferFrom",
      "outputs": [],
      "stateMutability": "nonpayable",
      "type": "function"
    },
    {
      "inputs": [],
      "name": "sann",
      "outputs": [
        {
          "internalType": "contract ISANN",
          "name": "",
          "type": "address"
        }
      ],
      "stateMutability": "view",
      "type": "function"
    },
    {
      "inputs": [
        {
          "internalType": "address",
          "name": "operator",
          "type": "address"
        },
        {
          "internalType": "bool",
          "name": "approved",
          "type": "bool"
        }
      ],
      "name": "setApprovalForAll",
      "outputs": [],
      "stateMutability": "nonpayable",
      "type": "function"
    },
    {
      "inputs": [
        {
          "internalType": "string",
          "name": "newURI",
          "type": "string"
        }
      ],
      "name": "setURI",
      "outputs": [],
      "stateMutability": "nonpayable",
      "type": "function"
    },
    {
      "inputs": [
        {
          "internalType": "bytes4",
          "name": "interfaceId",
          "type": "bytes4"
        }
      ],
      "name": "supportsInterface",
      "outputs": [
        {
          "internalType": "bool",
          "name": "",
          "type": "bool"
        }
      ],
      "stateMutability": "view",
      "type": "function"
    },
    {
      "inputs": [],
      "name": "symbol",
      "outputs": [
        {
          "internalType": "string",
          "name": "",
          "type": "string"
        }
      ],
      "stateMutability": "view",
      "type": "function"
    },
    {
      "inputs": [],
      "name": "unpause",
      "outputs": [],
      "stateMutability": "nonpayable",
      "type": "function"
    },
    {
      "inputs": [
        {
          "internalType": "uint256",
          "name": "_id",
          "type": "uint256"
        }
      ],
      "name": "uri",
      "outputs": [
        {
          "internalType": "string",
          "name": "",
          "type": "string"
        }
      ],
      "stateMutability": "view",
      "type": "function"
    }
  ],
  "bytecode": "0x60806040523480156200001157600080fd5b50604051620028253803806200282583398101604081905262000034916200008f565b604080516020810190915260008152819062000050816200007d565b50600380546001600160a01b03909216610100026001600160a81b03199092169190911790555062000232565b60026200008b828262000166565b5050565b600060208284031215620000a257600080fd5b81516001600160a01b0381168114620000ba57600080fd5b9392505050565b634e487b7160e01b600052604160045260246000fd5b600181811c90821680620000ec57607f821691505b6020821081036200010d57634e487b7160e01b600052602260045260246000fd5b50919050565b601f8211156200016157600081815260208120601f850160051c810160208610156200013c5750805b601f850160051c820191505b818110156200015d5782815560010162000148565b5050505b505050565b81516001600160401b03811115620001825762000182620000c1565b6200019a81620001938454620000d7565b8462000113565b602080601f831160018114620001d25760008415620001b95750858301515b600019600386901b1c1916600185901b1785556200015d565b600085815260208120601f198616915b828110156200020357888601518255948401946001909101908401620001e2565b5085821015620002225787850151600019600388901b60f8161c191681555b5050505050600190811b01905550565b6125e380620002426000396000f3fe608060405234801561001057600080fd5b50600436106101765760003560e01c80638cbdd361116100d8578063da8c229e1161008c578063f6a74ed711610066578063f6a74ed714610390578063f6eb127a146103a3578063f9454f3f146103b657600080fd5b8063da8c229e1461031e578063e985e9c514610341578063f242432a1461037d57600080fd5b8063a22cb465116100bd578063a22cb465146102c8578063a7fc7a07146102db578063d46da387146102ee57600080fd5b80638cbdd3611461027c57806395d89b411461028f57600080fd5b80632eb2c2d61161012f5780634e1273f4116101145780634e1273f4146102495780635c975abb146102695780638456cb591461027457600080fd5b80632eb2c2d61461022e5780633f4ba83a1461024157600080fd5b806302fe53051161016057806302fe5305146101c457806306fdde03146101d95780630e89341c1461021b57600080fd5b8062fdd58e1461017b57806301ffc9a7146101a1575b600080fd5b61018e610189366004611c18565b6103de565b6040519081526020015b60405180910390f35b6101b46101af366004611c5a565b61048a565b6040519015158152602001610198565b6101d76101d2366004611c7e565b610525565b005b60408051808201909152601281527f535041434520494420476966742043617264000000000000000000000000000060208201525b6040516101989190611d40565b61020e610229366004611d53565b610645565b6101d761023c366004611eb8565b610680565b6101d7610771565b61025c610257366004611f66565b610858565b6040516101989190612033565b60035460ff166101b4565b6101d7610996565b6101d761028a3660046120c3565b610a7b565b60408051808201909152600581527f5349444743000000000000000000000000000000000000000000000000000000602082015261020e565b6101d76102d6366004612146565b610bcb565b6101d76102e9366004612184565b610bd6565b6003546103069061010090046001600160a01b031681565b6040516001600160a01b039091168152602001610198565b6101b461032c366004612184565b60046020526000908152604090205460ff1681565b6101b461034f3660046121a1565b6001600160a01b03918216600090815260016020908152604080832093909416825291909152205460ff1690565b6101d761038b3660046121cf565b610d55565b6101d761039e366004612184565b610df7565b6101d76103b13660046120c3565b610f73565b6103c96103c4366004612238565b6110b3565b60408051928352602083019190915201610198565b60006001600160a01b0383166104615760405162461bcd60e51b815260206004820152602a60248201527f455243313135353a2061646472657373207a65726f206973206e6f742061207660448201527f616c6964206f776e65720000000000000000000000000000000000000000000060648201526084015b60405180910390fd5b506000818152602081815260408083206001600160a01b03861684529091529020545b92915050565b60006001600160e01b031982167fd9b67a260000000000000000000000000000000000000000000000000000000014806104ed57506001600160e01b031982167f0e89341c00000000000000000000000000000000000000000000000000000000145b8061048457507f01ffc9a7000000000000000000000000000000000000000000000000000000006001600160e01b0319831614610484565b6003546040805163cdcd7fb560e01b81529051339261010090046001600160a01b03169163cdcd7fb59160048083019260209291908290030181865afa158015610573573d6000803e3d6000fd5b505050506040513d601f19601f82011682018060405250810190610597919061226d565b6001600160a01b0316146106025760405162461bcd60e51b815260206004820152602c60248201527f41636365737369626c653a2063616c6c6572206973206e6f742074686520706c60448201526b30ba3337b9369030b236b4b760a11b6064820152608401610458565b61064182828080601f01602080910402602001604051908101604052809392919081815260200183838082843760009201919091525061114192505050565b5050565b60606106508261114d565b610659836111e1565b60405160200161066a92919061228a565b6040516020818303038152906040529050919050565b61068861131e565b81518351146106ea5760405162461bcd60e51b815260206004820152602860248201527f455243313135353a2069647320616e6420616d6f756e7473206c656e677468206044820152670dad2e6dac2e8c6d60c31b6064820152608401610458565b60005b835181101561076957600083828151811061070a5761070a6122b9565b6020026020010151111561075757610757868686848151811061072f5761072f6122b9565b6020026020010151868581518110610749576107496122b9565b602002602001015186610d55565b80610761816122e5565b9150506106ed565b505050505050565b6003546040805163cdcd7fb560e01b81529051339261010090046001600160a01b03169163cdcd7fb59160048083019260209291908290030181865afa1580156107bf573d6000803e3d6000fd5b505050506040513d601f19601f820116820180604052508101906107e3919061226d565b6001600160a01b03161461084e5760405162461bcd60e51b815260206004820152602c60248201527f41636365737369626c653a2063616c6c6572206973206e6f742074686520706c60448201526b30ba3337b9369030b236b4b760a11b6064820152608401610458565b610856611371565b565b606081518351146108d15760405162461bcd60e51b815260206004820152602960248201527f455243313135353a206163636f756e747320616e6420696473206c656e67746860448201527f206d69736d6174636800000000000000000000000000000000000000000000006064820152608401610458565b6000835167ffffffffffffffff8111156108ed576108ed611d6c565b604051908082528060200260200182016040528015610916578160200160208202803683370190505b50905060005b845181101561098e5761096185828151811061093a5761093a6122b9565b6020026020010151858381518110610954576109546122b9565b60200260200101516103de565b828281518110610973576109736122b9565b6020908102919091010152610987816122e5565b905061091c565b509392505050565b6003546040805163cdcd7fb560e01b81529051339261010090046001600160a01b03169163cdcd7fb59160048083019260209291908290030181865afa1580156109e4573d6000803e3d6000fd5b505050506040513d601f19601f82011682018060405250810190610a08919061226d565b6001600160a01b031614610a735760405162461bcd60e51b815260206004820152602c60248201527f41636365737369626c653a2063616c6c6572206973206e6f742074686520706c60448201526b30ba3337b9369030b236b4b760a11b6064820152608401610458565b6108566113c3565b3360009081526004602052604090205460ff16610ada5760405162461bcd60e51b815260206004820152601b60248201527f4e6f74206120617574686f72697a656420636f6e74726f6c6c657200000000006044820152606401610458565b610ae261131e565b828114610b425760405162461bcd60e51b815260206004820152602860248201527f455243313135353a2069647320616e6420616d6f756e7473206c656e677468206044820152670dad2e6dac2e8c6d60c31b6064820152608401610458565b60005b83811015610769576000838383818110610b6157610b616122b9565b905060200201351115610bb957610bb986868684818110610b8457610b846122b9565b90506020020135858585818110610b9d57610b9d6122b9565b9050602002013560405180602001604052806000815250611400565b80610bc3816122e5565b915050610b45565b610641338383611530565b6003546040805163cdcd7fb560e01b81529051339261010090046001600160a01b03169163cdcd7fb59160048083019260209291908290030181865afa158015610c24573d6000803e3d6000fd5b505050506040513d601f19601f82011682018060405250810190610c48919061226d565b6001600160a01b031614610cb35760405162461bcd60e51b815260206004820152602c60248201527f41636365737369626c653a2063616c6c6572206973206e6f742074686520706c60448201526b30ba3337b9369030b236b4b760a11b6064820152608401610458565b6001600160a01b038116610d095760405162461bcd60e51b815260206004820152601860248201527f616464726573732063616e206e6f74206265207a65726f2100000000000000006044820152606401610458565b6001600160a01b038116600081815260046020526040808220805460ff19166001179055517f0a8bb31534c0ed46f380cb867bd5c803a189ced9a764e30b3a4991a9901d74749190a250565b6001600160a01b038516331480610d715750610d71853361034f565b610de35760405162461bcd60e51b815260206004820152602f60248201527f455243313135353a2063616c6c6572206973206e6f7420746f6b656e206f776e60448201527f6572206e6f7220617070726f76656400000000000000000000000000000000006064820152608401610458565b610df08585858585611624565b5050505050565b6003546040805163cdcd7fb560e01b81529051339261010090046001600160a01b03169163cdcd7fb59160048083019260209291908290030181865afa158015610e45573d6000803e3d6000fd5b505050506040513d601f19601f82011682018060405250810190610e69919061226d565b6001600160a01b031614610ed45760405162461bcd60e51b815260206004820152602c60248201527f41636365737369626c653a2063616c6c6572206973206e6f742074686520706c60448201526b30ba3337b9369030b236b4b760a11b6064820152608401610458565b6001600160a01b038116610f2a5760405162461bcd60e51b815260206004820152601860248201527f616464726573732063616e206e6f74206265207a65726f2100000000000000006044820152606401610458565b6001600160a01b038116600081815260046020526040808220805460ff19169055517f33d83959be2573f5453b12eb9d43b3499bc57d96bd2f067ba44803c859e811139190a250565b3360009081526004602052604090205460ff16610fd25760405162461bcd60e51b815260206004820152601b60248201527f4e6f74206120617574686f72697a656420636f6e74726f6c6c657200000000006044820152606401610458565b610fda61131e565b82811461103a5760405162461bcd60e51b815260206004820152602860248201527f455243313135353a2069647320616e6420616d6f756e7473206c656e677468206044820152670dad2e6dac2e8c6d60c31b6064820152608401610458565b60005b83811015610769576000838383818110611059576110596122b9565b9050602002013511156110a1576110a18686868481811061107c5761107c6122b9565b90506020020135858585818110611095576110956122b9565b905060200201356117fa565b806110ab816122e5565b91505061103d565b33600090815260046020526040812054819060ff166111145760405162461bcd60e51b815260206004820152601b60248201527f4e6f74206120617574686f72697a656420636f6e74726f6c6c657200000000006044820152606401610458565b61111c61131e565b61113785858560405180602001604052806000815250611400565b5091939092509050565b60026106418282612383565b60606002805461115c906122fe565b80601f0160208091040260200160405190810160405280929190818152602001828054611188906122fe565b80156111d55780601f106111aa576101008083540402835291602001916111d5565b820191906000526020600020905b8154815290600101906020018083116111b857829003601f168201915b50505050509050919050565b60608160000361122457505060408051808201909152600181527f3000000000000000000000000000000000000000000000000000000000000000602082015290565b8160005b811561124e5780611238816122e5565b91506112479050600a83612459565b9150611228565b60008167ffffffffffffffff81111561126957611269611d6c565b6040519080825280601f01601f191660200182016040528015611293576020820181803683370190505b5090505b8415611316576112a860018361246d565b91506112b5600a86612480565b6112c0906030612494565b60f81b8183815181106112d5576112d56122b9565b60200101907effffffffffffffffffffffffffffffffffffffffffffffffffffffffffffff1916908160001a90535061130f600a86612459565b9450611297565b949350505050565b60035460ff16156108565760405162461bcd60e51b815260206004820152601060248201527f5061757361626c653a20706175736564000000000000000000000000000000006044820152606401610458565b6113796119a9565b6003805460ff191690557f5db9ee0a495bf2e6ff9c91a7834c1ba4fdd244a5e8aa4e537bd38aeae4b073aa335b6040516001600160a01b03909116815260200160405180910390a1565b6113cb61131e565b6003805460ff191660011790557f62e78cea01bee320cd4e420270b5ea74000d11b0c9f74754ebdbfc544b05a2586113a63390565b6001600160a01b03841661147c5760405162461bcd60e51b815260206004820152602160248201527f455243313135353a206d696e7420746f20746865207a65726f2061646472657360448201527f73000000000000000000000000000000000000000000000000000000000000006064820152608401610458565b336000611488856119fb565b90506000611495856119fb565b90506000868152602081815260408083206001600160a01b038b168452909152812080548792906114c7908490612494565b909155505060408051878152602081018790526001600160a01b03808a1692600092918716917fc3d58168c5ae7397731d063d5bbf3d657854427343f4c083240f7aacaa2d0f62910160405180910390a461152783600089898989611a46565b50505050505050565b816001600160a01b0316836001600160a01b0316036115b75760405162461bcd60e51b815260206004820152602960248201527f455243313135353a2073657474696e6720617070726f76616c2073746174757360448201527f20666f722073656c6600000000000000000000000000000000000000000000006064820152608401610458565b6001600160a01b03838116600081815260016020908152604080832094871680845294825291829020805460ff191686151590811790915591519182527f17307eab39ab6107e8899845ad3d59bd9653f200f220920489ca2b5937696c31910160405180910390a3505050565b6001600160a01b0384166116a05760405162461bcd60e51b815260206004820152602560248201527f455243313135353a207472616e7366657220746f20746865207a65726f20616460448201527f64726573730000000000000000000000000000000000000000000000000000006064820152608401610458565b3360006116ac856119fb565b905060006116b9856119fb565b90506000868152602081815260408083206001600160a01b038c168452909152902054858110156117525760405162461bcd60e51b815260206004820152602a60248201527f455243313135353a20696e73756666696369656e742062616c616e636520666f60448201527f72207472616e73666572000000000000000000000000000000000000000000006064820152608401610458565b6000878152602081815260408083206001600160a01b038d8116855292528083208985039055908a1682528120805488929061178f908490612494565b909155505060408051888152602081018890526001600160a01b03808b16928c821692918816917fc3d58168c5ae7397731d063d5bbf3d657854427343f4c083240f7aacaa2d0f62910160405180910390a46117ef848a8a8a8a8a611a46565b505050505050505050565b6001600160a01b0383166118765760405162461bcd60e51b815260206004820152602360248201527f455243313135353a206275726e2066726f6d20746865207a65726f206164647260448201527f65737300000000000000000000000000000000000000000000000000000000006064820152608401610458565b336000611882846119fb565b9050600061188f846119fb565b60408051602080820183526000918290528882528181528282206001600160a01b038b16835290522054909150848110156119315760405162461bcd60e51b8152602060048201526024808201527f455243313135353a206275726e20616d6f756e7420657863656564732062616c60448201527f616e6365000000000000000000000000000000000000000000000000000000006064820152608401610458565b6000868152602081815260408083206001600160a01b038b81168086529184528285208a8703905582518b81529384018a90529092908816917fc3d58168c5ae7397731d063d5bbf3d657854427343f4c083240f7aacaa2d0f62910160405180910390a4604080516020810190915260009052611527565b60035460ff166108565760405162461bcd60e51b815260206004820152601460248201527f5061757361626c653a206e6f74207061757365640000000000000000000000006044820152606401610458565b60408051600180825281830190925260609160009190602080830190803683370190505090508281600081518110611a3557611a356122b9565b602090810291909101015292915050565b6001600160a01b0384163b156107695760405163f23a6e6160e01b81526001600160a01b0385169063f23a6e6190611a8a90899089908890889088906004016124a7565b6020604051808303816000875af1925050508015611ac5575060408051601f3d908101601f19168201909252611ac2918101906124ea565b60015b611b7a57611ad1612507565b806308c379a003611b0a5750611ae5612523565b80611af05750611b0c565b8060405162461bcd60e51b81526004016104589190611d40565b505b60405162461bcd60e51b815260206004820152603460248201527f455243313135353a207472616e7366657220746f206e6f6e204552433131353560448201527f526563656976657220696d706c656d656e7465720000000000000000000000006064820152608401610458565b6001600160e01b0319811663f23a6e6160e01b146115275760405162461bcd60e51b815260206004820152602860248201527f455243313135353a204552433131353552656365697665722072656a6563746560448201527f6420746f6b656e730000000000000000000000000000000000000000000000006064820152608401610458565b6001600160a01b0381168114611c1557600080fd5b50565b60008060408385031215611c2b57600080fd5b8235611c3681611c00565b946020939093013593505050565b6001600160e01b031981168114611c1557600080fd5b600060208284031215611c6c57600080fd5b8135611c7781611c44565b9392505050565b60008060208385031215611c9157600080fd5b823567ffffffffffffffff80821115611ca957600080fd5b818501915085601f830112611cbd57600080fd5b813581811115611ccc57600080fd5b866020828501011115611cde57600080fd5b60209290920196919550909350505050565b60005b83811015611d0b578181015183820152602001611cf3565b50506000910152565b60008151808452611d2c816020860160208601611cf0565b601f01601f19169290920160200192915050565b602081526000611c776020830184611d14565b600060208284031215611d6557600080fd5b5035919050565b634e487b7160e01b600052604160045260246000fd5b601f8201601f1916810167ffffffffffffffff81118282101715611da857611da8611d6c565b6040525050565b600067ffffffffffffffff821115611dc957611dc9611d6c565b5060051b60200190565b600082601f830112611de457600080fd5b81356020611df182611daf565b604051611dfe8282611d82565b83815260059390931b8501820192828101915086841115611e1e57600080fd5b8286015b84811015611e395780358352918301918301611e22565b509695505050505050565b600082601f830112611e5557600080fd5b813567ffffffffffffffff811115611e6f57611e6f611d6c565b604051611e86601f8301601f191660200182611d82565b818152846020838601011115611e9b57600080fd5b816020850160208301376000918101602001919091529392505050565b600080600080600060a08688031215611ed057600080fd5b8535611edb81611c00565b94506020860135611eeb81611c00565b9350604086013567ffffffffffffffff80821115611f0857600080fd5b611f1489838a01611dd3565b94506060880135915080821115611f2a57600080fd5b611f3689838a01611dd3565b93506080880135915080821115611f4c57600080fd5b50611f5988828901611e44565b9150509295509295909350565b60008060408385031215611f7957600080fd5b823567ffffffffffffffff80821115611f9157600080fd5b818501915085601f830112611fa557600080fd5b81356020611fb282611daf565b604051611fbf8282611d82565b83815260059390931b8501820192828101915089841115611fdf57600080fd5b948201945b83861015612006578535611ff781611c00565b82529482019490820190611fe4565b9650508601359250508082111561201c57600080fd5b5061202985828601611dd3565b9150509250929050565b6020808252825182820181905260009190848201906040850190845b8181101561206b5783518352928401929184019160010161204f565b50909695505050505050565b60008083601f84011261208957600080fd5b50813567ffffffffffffffff8111156120a157600080fd5b6020830191508360208260051b85010111156120bc57600080fd5b9250929050565b6000806000806000606086880312156120db57600080fd5b85356120e681611c00565b9450602086013567ffffffffffffffff8082111561210357600080fd5b61210f89838a01612077565b9096509450604088013591508082111561212857600080fd5b5061213588828901612077565b969995985093965092949392505050565b6000806040838503121561215957600080fd5b823561216481611c00565b91506020830135801515811461217957600080fd5b809150509250929050565b60006020828403121561219657600080fd5b8135611c7781611c00565b600080604083850312156121b457600080fd5b82356121bf81611c00565b9150602083013561217981611c00565b600080600080600060a086880312156121e757600080fd5b85356121f281611c00565b9450602086013561220281611c00565b93506040860135925060608601359150608086013567ffffffffffffffff81111561222c57600080fd5b611f5988828901611e44565b60008060006060848603121561224d57600080fd5b833561225881611c00565b95602085013595506040909401359392505050565b60006020828403121561227f57600080fd5b8151611c7781611c00565b6000835161229c818460208801611cf0565b8351908301906122b0818360208801611cf0565b01949350505050565b634e487b7160e01b600052603260045260246000fd5b634e487b7160e01b600052601160045260246000fd5b6000600182016122f7576122f76122cf565b5060010190565b600181811c9082168061231257607f821691505b60208210810361233257634e487b7160e01b600052602260045260246000fd5b50919050565b601f82111561237e57600081815260208120601f850160051c8101602086101561235f5750805b601f850160051c820191505b818110156107695782815560010161236b565b505050565b815167ffffffffffffffff81111561239d5761239d611d6c565b6123b1816123ab84546122fe565b84612338565b602080601f8311600181146123e657600084156123ce5750858301515b600019600386901b1c1916600185901b178555610769565b600085815260208120601f198616915b82811015612415578886015182559484019460019091019084016123f6565b50858210156124335787850151600019600388901b60f8161c191681555b5050505050600190811b01905550565b634e487b7160e01b600052601260045260246000fd5b60008261246857612468612443565b500490565b81810381811115610484576104846122cf565b60008261248f5761248f612443565b500690565b80820180821115610484576104846122cf565b60006001600160a01b03808816835280871660208401525084604083015283606083015260a060808301526124df60a0830184611d14565b979650505050505050565b6000602082840312156124fc57600080fd5b8151611c7781611c44565b600060033d11156125205760046000803e5060005160e01c5b90565b600060443d10156125315790565b6040516003193d81016004833e81513d67ffffffffffffffff816024840111818411171561256157505050505090565b82850191508151818111156125795750505050505090565b843d87010160208285010111156125935750505050505090565b6125a260208286010187611d82565b50909594505050505056fea26469706673582212202e151fa5edd9b4dcabc820bf3aa7824a2138b0b569ce3075f4c8d3214d4b9fc964736f6c63430008120033",
  "linkReferences": {},
  "deployedLinkReferences": {}
}