{
  "_format": "hh-sol-artifact-1",
  "contractName": "PreRegistrationCreator",
  "sourceName": "contracts/proxy/PreRegistrationCreator.sol",
  "abi": [
    {
      "inputs": [
        {
          "internalType": "contract ISANN",
          "name": "_sann",
          "type": "address"
        }
      ],
      "stateMutability": "nonpayable",
      "type": "constructor"
    },
    {
      "anonymous": false,
      "inputs": [
        {
          "indexed": false,
          "internalType": "address",
          "name": "addr",
          "type": "address"
        },
        {
          "indexed": false,
          "internalType": "address",
          "name": "owner",
          "type": "address"
        },
        {
          "indexed": false,
          "internalType": "uint256",
          "name": "identifier",
          "type": "uint256"
        }
      ],
      "name": "AuctionCreated",
      "type": "event"
    },
    {
      "anonymous": false,
      "inputs": [
        {
          "indexed": false,
          "internalType": "address",
          "name": "addr",
          "type": "address"
        },
        {
          "indexed": false,
          "internalType": "address",
          "name": "owner",
          "type": "address"
        },
        {
          "indexed": false,
          "internalType": "uint256",
          "name": "identifier",
          "type": "uint256"
        }
      ],
      "name": "PreRegistrationStateCreated",
      "type": "event"
    },
    {
      "inputs": [
        {
          "internalType": "address",
          "name": "sann",
          "type": "address"
        },
        {
          "internalType": "uint256",
          "name": "identifier",
          "type": "uint256"
        },
        {
          "internalType": "address",
          "name": "tldOwner",
          "type": "address"
        },
        {
          "internalType": "address",
          "name": "controller",
          "type": "address"
        },
        {
          "internalType": "address",
          "name": "platformConfig",
          "type": "address"
        },
        {
          "internalType": "address",
          "name": "prepaidPlatformFee",
          "type": "address"
        },
        {
          "components": [
            {
              "internalType": "bool",
              "name": "enableAuction",
              "type": "bool"
            },
            {
              "internalType": "uint256",
              "name": "auctionStartTime",
              "type": "uint256"
            },
            {
              "internalType": "uint256",
              "name": "auctionInitialEndTime",
              "type": "uint256"
            },
            {
              "internalType": "uint256",
              "name": "auctionExtendDuration",
              "type": "uint256"
            },
            {
              "internalType": "uint256",
              "name": "auctionRetentionDuration",
              "type": "uint256"
            },
            {
              "internalType": "uint256",
              "name": "auctionMinRegistrationDuration",
              "type": "uint256"
            },
            {
              "internalType": "bool",
              "name": "enableFcfs",
              "type": "bool"
            },
            {
              "internalType": "uint256",
              "name": "fcfsStartTime",
              "type": "uint256"
            },
            {
              "internalType": "uint256",
              "name": "fcfsEndTime",
              "type": "uint256"
            }
          ],
          "internalType": "struct PreRegistrationUpdateConfig",
          "name": "config",
          "type": "tuple"
        }
      ],
      "name": "create",
      "outputs": [
        {
          "internalType": "address",
          "name": "",
          "type": "address"
        },
        {
          "internalType": "address",
          "name": "",
          "type": "address"
        }
      ],
      "stateMutability": "nonpayable",
      "type": "function"
    },
    {
      "inputs": [
        {
          "internalType": "address",
          "name": "sann",
          "type": "address"
        },
        {
          "internalType": "uint256",
          "name": "identifier",
          "type": "uint256"
        },
        {
          "internalType": "address",
          "name": "tldOwner",
          "type": "address"
        },
        {
          "internalType": "address",
          "name": "controller",
          "type": "address"
        },
        {
          "internalType": "address",
          "name": "platformConfig",
          "type": "address"
        },
        {
          "internalType": "address",
          "name": "preRegiState",
          "type": "address"
        },
        {
          "internalType": "address",
          "name": "prepaidPlatformFeeAddr",
          "type": "address"
        }
      ],
      "name": "createAuction",
      "outputs": [
        {
          "internalType": "address",
          "name": "",
          "type": "address"
        }
      ],
      "stateMutability": "nonpayable",
      "type": "function"
    },
    {
      "inputs": [],
      "name": "sann",
      "outputs": [
        {
          "internalType": "contract ISANN",
          "name": "",
          "type": "address"
        }
      ],
      "stateMutability": "view",
      "type": "function"
    }
  ],
  "bytecode": "0x608060405234801561001057600080fd5b50604051614c24380380614c2483398101604081905261002f91610054565b600080546001600160a01b0319166001600160a01b0392909216919091179055610084565b60006020828403121561006657600080fd5b81516001600160a01b038116811461007d57600080fd5b9392505050565b614b91806100936000396000f3fe60806040523480156200001157600080fd5b5060043610620000465760003560e01c80635053dcfd146200004b578063b938da041462000087578063d46da38714620000b7575b600080fd5b620000626200005c366004620004d0565b620000cb565b604080516001600160a01b039384168152929091166020830152015b60405180910390f35b6200009e6200009836600462000573565b620002b4565b6040516001600160a01b0390911681526020016200007e565b6000546200009e906001600160a01b031681565b600080336001600160a01b031660008054906101000a90046001600160a01b03166001600160a01b0316636a0dfac16040518163ffffffff1660e01b8152600401602060405180830381865afa1580156200012a573d6000803e3d6000fd5b505050506040513d601f19601f820116820180604052508101906200015091906200060d565b6001600160a01b031614620001ba5760405162461bcd60e51b815260206004820152602560248201527f41636365737369626c653a2063616c6c6572206973206e6f742074686520666160448201526463746f727960d81b60648201526084015b60405180910390fd5b600088604051602001620001d091815260200190565b6040516020818303038152906040528051906020012090506000818b8b87604051620001fc906200049b565b6200020a939291906200064a565b8190604051809103906000f59050801580156200022b573d6000803e3d6000fd5b50604080516001600160a01b03831681523360208201529081018c90529091507fc26be23d1433e41356f900cd107b65861dad65fa35a39a3aeb4cbab4d35603fc9060600160405180910390a16000620002896020870187620006dd565b15620002a357620002a08c8c8c8c8c878d620002b4565b90505b909b909a5098505050505050505050565b60008054604080517f6a0dfac1000000000000000000000000000000000000000000000000000000008152905133926001600160a01b031691636a0dfac19160048083019260209291908290030181865afa15801562000318573d6000803e3d6000fd5b505050506040513d601f19601f820116820180604052508101906200033e91906200060d565b6001600160a01b031614620003a45760405162461bcd60e51b815260206004820152602560248201527f41636365737369626c653a2063616c6c6572206973206e6f742074686520666160448201526463746f727960d81b6064820152608401620001b1565b600087604051602001620003ba91815260200190565b6040516020818303038152906040528051906020012090506000818a8a89888a89604051620003e990620004a9565b6001600160a01b0396871681526020810195909552928516604085015290841660608401528316608083015290911660a082015260c0018190604051809103906000f590508015801562000441573d6000803e3d6000fd5b50604080516001600160a01b03831681523360208201529081018b90529091507f261f6e6830ed857876d5aa4eca876ccf116d09b91a6675e3e1a1920d53ef585e9060600160405180910390a19998505050505050505050565b612c7a80620006fc83390190565b6117e6806200337683390190565b6001600160a01b0381168114620004cd57600080fd5b50565b60008060008060008060008789036101e0811215620004ee57600080fd5b8835620004fb81620004b7565b97506020890135965060408901356200051481620004b7565b955060608901356200052681620004b7565b945060808901356200053881620004b7565b935060a08901356200054a81620004b7565b925061012060bf19820112156200056057600080fd5b5060c08801905092959891949750929550565b600080600080600080600060e0888a0312156200058f57600080fd5b87356200059c81620004b7565b9650602088013595506040880135620005b581620004b7565b94506060880135620005c781620004b7565b93506080880135620005d981620004b7565b925060a0880135620005eb81620004b7565b915060c0880135620005fd81620004b7565b8091505092959891949750929550565b6000602082840312156200062057600080fd5b81516200062d81620004b7565b9392505050565b803580151581146200064557600080fd5b919050565b6001600160a01b03841681526020810183905261016081016200066d8362000634565b151560408301526020830135606083015260408301356080830152606083013560a0830152608083013560c083015260a083013560e0830152620006b460c0840162000634565b6101008115158185015260e0850135610120850152808501356101408501525050949350505050565b600060208284031215620006f057600080fd5b6200062d826200063456fe60a06040523480156200001157600080fd5b5060405162002c7a38038062002c7a8339810160408190526200003491620003a6565b600080546001600160a01b0319166001600160a01b038516179055608082815281516020830151604084015160608501519385015160a08601516200007b959190620000a4565b6200009b8160c001518260e001518361010001516200024360201b60201c565b5050506200049f565b8515620001a257844210620001005760405162461bcd60e51b815260206004820152601860248201527f696e76616c69642061756374696f6e537461727454696d65000000000000000060448201526064015b60405180910390fd5b834210620001515760405162461bcd60e51b815260206004820152601660248201527f696e76616c69642061756374696f6e456e6454696d65000000000000000000006044820152606401620000f7565b838510620001a25760405162461bcd60e51b815260206004820152601860248201527f696e76616c69642061756374696f6e537461727454696d6500000000000000006044820152606401620000f7565b6018805460ff19168715151790556019859055601a849055620001c9846201518062000477565b601b55601c839055601d829055601e8190556080805160408051918252881515602083015281018790526060810186905290810184905260a0810183905260c081018290527f8ca6a09af53558a5ef66e55032944a11f2e83371f4eb51fbb57d8f7508011f2d9060e00160405180910390a1505050505050565b8215620002ee57601b5482116200029d5760405162461bcd60e51b815260206004820152601560248201527f696e76616c69642066636673537461727454696d6500000000000000000000006044820152606401620000f7565b808210620002ee5760405162461bcd60e51b815260206004820152601560248201527f696e76616c69642066636673537461727454696d6500000000000000000000006044820152606401620000f7565b601f805460ff191684151590811790915560208381556021839055608080516040805191825292810193909352908201849052606082018390527f749196b9c4b2f83b6b68e47d0cab55a345b32d5f8fb9af6a988b4ef287c3641e910160405180910390a1505050565b60405161012081016001600160401b03811182821017156200038a57634e487b7160e01b600052604160045260246000fd5b60405290565b80518015158114620003a157600080fd5b919050565b6000806000838503610160811215620003be57600080fd5b84516001600160a01b0381168114620003d657600080fd5b60208601519094509250610120603f198201811315620003f557600080fd5b620003ff62000358565b91506200040f6040870162000390565b8252606086015160208301526080860151604083015260a0860151606083015260c0860151608083015260e086015160a08301526101006200045381880162000390565b60c08401529086015160e08301526101409095015194810194909452509093909250565b808201808211156200049957634e487b7160e01b600052601160045260246000fd5b92915050565b60805161276b6200050f600039600081816105040152818161092c01528181610baf01528181610cc901528181610d3301528181610e4d01528181610fd3015281816111d201528181611747015281816118de01528181611a2d01528181611cb70152611e4e015261276b6000f3fe608060405234801561001057600080fd5b50600436106102e95760003560e01c80638643337411610191578063c39887f5116100e3578063dd3cb4a911610097578063f6a74ed711610071578063f6a74ed714610693578063f88ef351146106a6578063ffeaf35f146106b957600080fd5b8063dd3cb4a914610643578063eb54f9ec14610650578063f5752f591461065957600080fd5b8063c989d075116100c8578063c989d07514610604578063d46da3871461060d578063da8c229e1461062057600080fd5b8063c39887f5146105f3578063c3f15117146105fc57600080fd5b806396da43b611610145578063ab220da01161011f578063ab220da0146105d5578063b6fc138f146105de578063b8bdcb17146105eb57600080fd5b806396da43b6146105985780639efdb7cf146105ba578063a7fc7a07146105c257600080fd5b8063888319d611610176578063888319d6146105385780638cb5d700146105415780638cbec9321461058557600080fd5b8063864333741461052657806387bbaeb61461053057600080fd5b80632cfcd4fe1161024a57806345e5770f116101fe5780635fd354ca116101d85780635fd354ca146104e357806362d0aaf7146104f65780637998a1c4146104ff57600080fd5b806345e5770f146104b457806346eba666146104bd57806358e1d968146104d057600080fd5b80633762b5a21161022f5780633762b5a2146104675780633ee4582d1461047c578063403451c81461048f57600080fd5b80632cfcd4fe1461041b5780632d3f2b051461042e57600080fd5b806318969e3c116102a15780632399bd63116102865780632399bd63146103ed5780632cd8cde7146103f55780632cfbeb041461040857600080fd5b806318969e3c1461038a578063225d29a11461039257600080fd5b80630fa1b797116102d25780630fa1b797146103325780630fe44cae1461035257806315eb68531461036757600080fd5b8063010d9813146102ee578063045535b71461031b575b600080fd5b6103016102fc366004612066565b6106c1565b604080519283526020830191909152015b60405180910390f35b610324601b5481565b604051908152602001610312565b610345610340366004612097565b6106e3565b6040516103129190612101565b6103656103603660046121b4565b61091b565b005b61037a6103753660046121e7565b610a5e565b6040519015158152602001610312565b610324610a85565b6103c96103a0366004612097565b6002602052600090815260409020805460039091015460ff918216918181169161010090041683565b6040805160ff94851681529215156020840152921691810191909152606001610312565b61037a610ac3565b610365610403366004612213565b610b16565b610365610416366004612243565b610b9e565b610365610429366004612243565b610d22565b61032461043c366004612213565b60008281526003602081815260408084206001600160a01b0386168552909201905290205492915050565b61046f610e9e565b604051610312919061225e565b61036561048a3660046122d3565b610fc2565b6104a261049d366004612097565b611123565b60405160ff9091168152602001610312565b610324601a5481565b6103656104cb366004612308565b6111c1565b6103656104de3660046121e7565b6112ec565b6103656104f1366004612352565b611426565b610324601c5481565b6103247f000000000000000000000000000000000000000000000000000000000000000081565b601b54421161037a565b61037a611553565b610324601e5481565b61056d61054f366004612066565b6000908152600360205260409020600101546001600160a01b031690565b6040516001600160a01b039091168152602001610312565b610365610593366004612097565b61157b565b6105ab6105a6366004612066565b61165c565b604051610312939291906123e9565b61037a611710565b6103656105d0366004612097565b611736565b610324601d5481565b60185461037a9060ff1681565b61037a61188b565b61032460215481565b61037a6118a5565b61032460205481565b60005461056d906001600160a01b031681565b61037a61062e366004612097565b60016020526000908152604090205460ff1681565b601f5461037a9060ff1681565b61032460195481565b610324610667366004612066565b600090815260036020818152604080842060018101546001600160a01b03168552909201905290205490565b6103656106a1366004612097565b6118cd565b6103656106b4366004612463565b611a1c565b610324611bb4565b600481600a81106106d157600080fd5b60020201805460019091015490915082565b6001600160a01b03811660009081526002602052604090206001015460609067ffffffffffffffff81111561071a5761071a6124cf565b60405190808252806020026020018201604052801561078657816020015b6107736040518060a00160405280606081526020016000815260200160006001600160a01b0316815260200160008152602001600081525090565b8152602001906001900390816107385790505b50905060005b6001600160a01b038316600090815260026020526040902060010154811015610915576001600160a01b03831660009081526002602052604081206001018054839081106107dc576107dc6124e5565b906000526020600020015490506040518060a00160405280600360008481526020019081526020016000206000018054610815906124fb565b80601f0160208091040260200160405190810160405280929190818152602001828054610841906124fb565b801561088e5780601f106108635761010080835404028352916020019161088e565b820191906000526020600020905b81548152906001019060200180831161087157829003601f168201915b5050509183525050602080820184905260008481526003808352604080832060018101546001600160a01b0390811683880181905285529201808552818420546060870152918a1683529252205460809091015283518490849081106108f6576108f66124e5565b602002602001018190525050808061090d90612545565b91505061078c565b50919050565b60005460405162e4decd60e31b81527f0000000000000000000000000000000000000000000000000000000000000000600482018190529133916001600160a01b0390911690630726f66890602401602060405180830381865afa158015610987573d6000803e3d6000fd5b505050506040513d601f19601f820116820180604052508101906109ab919061255e565b6001600160a01b031614610a125760405162461bcd60e51b8152602060048201526024808201527f4f776e61626c653a2063616c6c6572206973206e6f742074686520746c64206f6044820152633bb732b960e11b60648201526084015b60405180910390fd5b6020544210610a4d576040517fc80bd81600000000000000000000000000000000000000000000000000000000815260040160405180910390fd5b610a58848484611bf0565b50505050565b6000818152600360205260409020600101546001600160a01b038381169116145b92915050565b60185460009060ff16158015610a9e5750601f5460ff16155b15610aa95750600090565b601f5460ff16610aba5750601b5490565b6021545b905090565b60185460009060ff16158015610adc5750601f5460ff16155b15610ae75750600090565b6000610af1611bb4565b90506000610afd610a85565b9050814210158015610b0f5750804211155b9250505090565b3360009081526001602052604090205460ff16610b755760405162461bcd60e51b815260206004820152601b60248201527f4e6f74206120617574686f72697a656420636f6e74726f6c6c657200000000006044820152606401610a09565b60009182526003602081815260408085206001600160a01b039094168552929091019052812055565b60005460405162e4decd60e31b81527f0000000000000000000000000000000000000000000000000000000000000000600482018190529133916001600160a01b0390911690630726f66890602401602060405180830381865afa158015610c0a573d6000803e3d6000fd5b505050506040513d601f19601f82011682018060405250810190610c2e919061255e565b6001600160a01b031614610c905760405162461bcd60e51b8152602060048201526024808201527f4f776e61626c653a2063616c6c6572206973206e6f742074686520746c64206f6044820152633bb732b960e11b6064820152608401610a09565b6019544210610cb25760405163647ccdcd60e11b815260040160405180910390fd5b6018805460ff1916831515908117909155604080517f0000000000000000000000000000000000000000000000000000000000000000815260208101929092527f6ab0f6edfdbbc7dfd6454797971d91e94f1c40644747770049762b137a9c66e891015b60405180910390a15050565b60005460405162e4decd60e31b81527f0000000000000000000000000000000000000000000000000000000000000000600482018190529133916001600160a01b0390911690630726f66890602401602060405180830381865afa158015610d8e573d6000803e3d6000fd5b505050506040513d601f19601f82011682018060405250810190610db2919061255e565b6001600160a01b031614610e145760405162461bcd60e51b8152602060048201526024808201527f4f776e61626c653a2063616c6c6572206973206e6f742074686520746c64206f6044820152633bb732b960e11b6064820152608401610a09565b6019544210610e365760405163647ccdcd60e11b815260040160405180910390fd5b601f805460ff1916831515908117909155604080517f0000000000000000000000000000000000000000000000000000000000000000815260208101929092527f3eae33535e3ca0edde68ebda5be0611bd93b38595a3611ccfe6b78b6dd1799df9101610d16565b610ea661202b565b60005b600a811015610fbe57604051806040016040528060036000600485600a8110610ed457610ed46124e5565b6002020154815260208101919091526040016000208054610ef4906124fb565b80601f0160208091040260200160405190810160405280929190818152602001828054610f20906124fb565b8015610f6d5780601f10610f4257610100808354040283529160200191610f6d565b820191906000526020600020905b815481529060010190602001808311610f5057829003601f168201915b50505050508152602001600483600a8110610f8a57610f8a6124e5565b60020201600101548152508282600a8110610fa757610fa76124e5565b602002015280610fb681612545565b915050610ea9565b5090565b60005460405162e4decd60e31b81527f0000000000000000000000000000000000000000000000000000000000000000600482018190529133916001600160a01b0390911690630726f66890602401602060405180830381865afa15801561102e573d6000803e3d6000fd5b505050506040513d601f19601f82011682018060405250810190611052919061255e565b6001600160a01b0316146110b45760405162461bcd60e51b8152602060048201526024808201527f4f776e61626c653a2063616c6c6572206973206e6f742074686520746c64206f6044820152633bb732b960e11b6064820152608401610a09565b60006110be611bb4565b90508042106110e057604051632c965b3b60e01b815260040160405180910390fd5b6001600160a01b0384166000908152600260205260409020805460ff191660ff851690811782551561111c5760038101805460ff191660011790555b5050505050565b6001600160a01b0381166000908152600260205260408120805460ff16825b600183015460ff821610156111a15761117d85846001018360ff168154811061116d5761116d6124e5565b9060005260206000200154610a5e565b61118f578161118b8161257b565b9250505b806111998161257b565b915050611142565b5060038201546111b990610100900460ff168261259a565b949350505050565b60005460405162e4decd60e31b81527f0000000000000000000000000000000000000000000000000000000000000000600482018190529133916001600160a01b0390911690630726f66890602401602060405180830381865afa15801561122d573d6000803e3d6000fd5b505050506040513d601f19601f82011682018060405250810190611251919061255e565b6001600160a01b0316146112b35760405162461bcd60e51b8152602060048201526024808201527f4f776e61626c653a2063616c6c6572206973206e6f742074686520746c64206f6044820152633bb732b960e11b6064820152608401610a09565b60195442106112d55760405163647ccdcd60e11b815260040160405180910390fd5b6112e3878787878787611d1e565b50505050505050565b3360009081526001602052604090205460ff1661134b5760405162461bcd60e51b815260206004820152601b60248201527f4e6f74206120617574686f72697a656420636f6e74726f6c6c657200000000006044820152606401610a09565b6001600160a01b03821660009081526002602081815260408084208585529283019091529091205460ff161561138057505050565b6001600160a01b038316600090815260026020526040902054600160ff90911610156113bf57604051634f8fd3a560e01b815260040160405180910390fd5b600082815260028201602090815260408220805460ff191660019081179091558381018054808301825590845291832090910184905582549091839161140990849060ff1661259a565b92506101000a81548160ff021916908360ff160217905550505050565b3360009081526001602052604090205460ff166114855760405162461bcd60e51b815260206004820152601b60248201527f4e6f74206120617574686f72697a656420636f6e74726f6c6c657200000000006044820152606401610a09565b6000858152600360205260409020600281015415611535576001810180547fffffffffffffffffffffffff0000000000000000000000000000000000000000166001600160a01b03851690811790915560009081526003820160205260409020829055601c5460028201546114fb9042906125b3565b1161152657601c5461150d90426125c6565b60028201819055601b54101561152657601b5460028201555b6115308683611ece565b61154b565b80611541858783612624565b50601a5460028201555b505050505050565b60185460009060ff16801561156a57506019544210155b8015610abe575050601b5442111590565b3360009081526001602052604090205460ff166115da5760405162461bcd60e51b815260206004820152601b60248201527f4e6f74206120617574686f72697a656420636f6e74726f6c6c657200000000006044820152606401610a09565b6001600160a01b038116600090815260026020526040902060016115fd83611123565b60ff16101561161f57604051634f8fd3a560e01b815260040160405180910390fd5b60018160030160018282829054906101000a900460ff1661164091906126e4565b92506101000a81548160ff021916908360ff1602179055505050565b600360205260009081526040902080548190611677906124fb565b80601f01602080910402602001604051908101604052809291908181526020018280546116a3906124fb565b80156116f05780601f106116c5576101008083540402835291602001916116f0565b820191906000526020600020905b8154815290600101906020018083116116d357829003601f168201915b50505050600183015460029093015491926001600160a01b031691905083565b6000601b5442118015610abe5750601d54601b5461172e91906125c6565b421115905090565b60005460405162e4decd60e31b81527f0000000000000000000000000000000000000000000000000000000000000000600482018190529133916001600160a01b0390911690630726f66890602401602060405180830381865afa1580156117a2573d6000803e3d6000fd5b505050506040513d601f19601f820116820180604052508101906117c6919061255e565b6001600160a01b0316146118285760405162461bcd60e51b8152602060048201526024808201527f4f776e61626c653a2063616c6c6572206973206e6f742074686520746c64206f6044820152633bb732b960e11b6064820152608401610a09565b6001600160a01b03821661183b57600080fd5b6001600160a01b0382166000818152600160208190526040808320805460ff1916909217909155517f0a8bb31534c0ed46f380cb867bd5c803a189ced9a764e30b3a4991a9901d74749190a25050565b6000601b546212750061189e91906125c6565b4211905090565b601f5460009060ff1680156118bc57506020544210155b8015610abe57505060215442111590565b60005460405162e4decd60e31b81527f0000000000000000000000000000000000000000000000000000000000000000600482018190529133916001600160a01b0390911690630726f66890602401602060405180830381865afa158015611939573d6000803e3d6000fd5b505050506040513d601f19601f8201168201806040525081019061195d919061255e565b6001600160a01b0316146119bf5760405162461bcd60e51b8152602060048201526024808201527f4f776e61626c653a2063616c6c6572206973206e6f742074686520746c64206f6044820152633bb732b960e11b6064820152608401610a09565b6001600160a01b0382166119d257600080fd5b6001600160a01b038216600081815260016020526040808220805460ff19169055517f33d83959be2573f5453b12eb9d43b3499bc57d96bd2f067ba44803c859e811139190a25050565b60005460405162e4decd60e31b81527f0000000000000000000000000000000000000000000000000000000000000000600482018190529133916001600160a01b0390911690630726f66890602401602060405180830381865afa158015611a88573d6000803e3d6000fd5b505050506040513d601f19601f82011682018060405250810190611aac919061255e565b6001600160a01b031614611b0e5760405162461bcd60e51b8152602060048201526024808201527f4f776e61626c653a2063616c6c6572206973206e6f742074686520746c64206f6044820152633bb732b960e11b6064820152608401610a09565b6000611b18611bb4565b9050804210611b3a57604051632c965b3b60e01b815260040160405180910390fd5b848314611b4657600080fd5b60005b858110156112e357611ba2878783818110611b6657611b666124e5565b9050602002016020810190611b7b9190612097565b868684818110611b8d57611b8d6124e5565b905060200201602081019061048a91906126fd565b80611bac81612545565b915050611b49565b60185460009060ff16158015611bcd5750601f5460ff16155b15611bd85750600090565b60185460ff16611be9575060205490565b5060195490565b8215611c9657601b548211611c475760405162461bcd60e51b815260206004820152601560248201527f696e76616c69642066636673537461727454696d6500000000000000000000006044820152606401610a09565b808210611c965760405162461bcd60e51b815260206004820152601560248201527f696e76616c69642066636673537461727454696d6500000000000000000000006044820152606401610a09565b601f805460ff191684151590811790915560208381556021839055604080517f0000000000000000000000000000000000000000000000000000000000000000815291820192909252908101839052606081018290527f749196b9c4b2f83b6b68e47d0cab55a345b32d5f8fb9af6a988b4ef287c3641e9060800160405180910390a1505050565b8515611e1157844210611d735760405162461bcd60e51b815260206004820152601860248201527f696e76616c69642061756374696f6e537461727454696d6500000000000000006044820152606401610a09565b834210611dc25760405162461bcd60e51b815260206004820152601660248201527f696e76616c69642061756374696f6e456e6454696d65000000000000000000006044820152606401610a09565b838510611e115760405162461bcd60e51b815260206004820152601860248201527f696e76616c69642061756374696f6e537461727454696d6500000000000000006044820152606401610a09565b6018805460ff19168715151790556019859055601a849055611e3684620151806125c6565b601b55601c839055601d829055601e819055604080517f000000000000000000000000000000000000000000000000000000000000000081528715156020820152908101869052606081018590526080810184905260a0810183905260c081018290527f8ca6a09af53558a5ef66e55032944a11f2e83371f4eb51fbb57d8f7508011f2d9060e00160405180910390a1505050505050565b600a600060095b60ff831615611f65576004611eeb60018561259a565b60ff16600a8110611efe57611efe6124e5565b60020201600101548410611f655781158015611f3d5750846004611f2360018661259a565b60ff16600a8110611f3657611f366124e5565b6002020154145b15611f535760019150611f50828461259a565b90505b82611f5d81612718565b935050611ed5565b600a8360ff16101561111c57805b8360ff168160ff161115611fe5576004611f8e60018361259a565b60ff16600a8110611fa157611fa16124e5565b6002020160048260ff16600a8110611fbb57611fbb6124e5565b82546002919091029190910190815560019182015491015580611fdd81612718565b915050611f73565b508460048460ff16600a8110611ffd57611ffd6124e5565b600202015583600460ff8516600a8110612019576120196124e5565b60020201600101819055505050505050565b604051806101400160405280600a905b60408051808201909152606081526000602082015281526020019060019003908161203b5790505090565b60006020828403121561207857600080fd5b5035919050565b6001600160a01b038116811461209457600080fd5b50565b6000602082840312156120a957600080fd5b81356120b48161207f565b9392505050565b6000815180845260005b818110156120e1576020818501810151868301820152016120c5565b506000602082860101526020601f19601f83011685010191505092915050565b60006020808301818452808551808352604092508286019150828160051b87010184880160005b8381101561219157603f19898403018552815160a0815181865261214e828701826120bb565b838b0151878c0152898401516001600160a01b03168a88015260608085015190880152608093840151939096019290925250509386019390860190600101612128565b509098975050505050505050565b803580151581146121af57600080fd5b919050565b6000806000606084860312156121c957600080fd5b6121d28461219f565b95602085013595506040909401359392505050565b600080604083850312156121fa57600080fd5b82356122058161207f565b946020939093013593505050565b6000806040838503121561222657600080fd5b8235915060208301356122388161207f565b809150509250929050565b60006020828403121561225557600080fd5b6120b48261219f565b6020808252600090610160830183820185845b600a8110156122b657601f19878503018352815160408151818752612298828801826120bb565b92880151968801969096525093509184019190840190600101612271565b50919695505050505050565b803560ff811681146121af57600080fd5b600080604083850312156122e657600080fd5b82356122f18161207f565b91506122ff602084016122c2565b90509250929050565b60008060008060008060c0878903121561232157600080fd5b61232a8761219f565b9860208801359850604088013597606081013597506080810135965060a00135945092505050565b60008060008060006080868803121561236a57600080fd5b85359450602086013567ffffffffffffffff8082111561238957600080fd5b818801915088601f83011261239d57600080fd5b8135818111156123ac57600080fd5b8960208285010111156123be57600080fd5b60208301965080955050505060408601356123d88161207f565b949793965091946060013592915050565b6060815260006123fc60608301866120bb565b6001600160a01b039490941660208301525060400152919050565b60008083601f84011261242957600080fd5b50813567ffffffffffffffff81111561244157600080fd5b6020830191508360208260051b850101111561245c57600080fd5b9250929050565b6000806000806040858703121561247957600080fd5b843567ffffffffffffffff8082111561249157600080fd5b61249d88838901612417565b909650945060208701359150808211156124b657600080fd5b506124c387828801612417565b95989497509550505050565b634e487b7160e01b600052604160045260246000fd5b634e487b7160e01b600052603260045260246000fd5b600181811c9082168061250f57607f821691505b60208210810361091557634e487b7160e01b600052602260045260246000fd5b634e487b7160e01b600052601160045260246000fd5b6000600182016125575761255761252f565b5060010190565b60006020828403121561257057600080fd5b81516120b48161207f565b600060ff821660ff81036125915761259161252f565b60010192915050565b60ff8281168282160390811115610a7f57610a7f61252f565b81810381811115610a7f57610a7f61252f565b80820180821115610a7f57610a7f61252f565b601f82111561261f57600081815260208120601f850160051c810160208610156126005750805b601f850160051c820191505b8181101561154b5782815560010161260c565b505050565b67ffffffffffffffff83111561263c5761263c6124cf565b6126508361264a83546124fb565b836125d9565b6000601f841160018114612684576000851561266c5750838201355b600019600387901b1c1916600186901b17835561111c565b600083815260209020601f19861690835b828110156126b55786850135825560209485019460019092019101612695565b50868210156126d25760001960f88860031b161c19848701351681555b505060018560011b0183555050505050565b60ff8181168382160190811115610a7f57610a7f61252f565b60006020828403121561270f57600080fd5b6120b4826122c2565b600060ff82168061272b5761272b61252f565b600019019291505056fea26469706673582212205a0e96c1691fb1e161180561982b0774c9c55c934e4cb1534f8261d8b5f50b7364736f6c6343000812003360c06040523480156200001157600080fd5b50604051620017e6380380620017e68339810160408190526200003491620000ac565b600080546001600160a01b039788166001600160a01b03199182161790915560a0959095529285166080526002805492861692851692909217909155600180549185169184169190911790556003805491909316911617905562000134565b6001600160a01b0381168114620000a957600080fd5b50565b60008060008060008060c08789031215620000c657600080fd5b8651620000d38162000093565b602088015160408901519197509550620000ed8162000093565b6060880151909450620001008162000093565b6080880151909350620001138162000093565b60a0880151909250620001268162000093565b809150509295509295509295565b60805160a05161165b6200018b600039600081816101c6015281816104550152818161075701528181610ac301528181610eed0152610fa10152600081816102c3015281816104260152610a96015261165b6000f3fe6080604052600436106100dd5760003560e01c80638cb5d7001161007f578063c19d93fb11610059578063c19d93fb1461025e578063d46da3871461027e578063e967e60c1461029e578063f77c4791146102b157600080fd5b80638cb5d700146101fe578063a289cf841461021e578063aeb8ce9b1461023e57600080fd5b80634311de8f116100bb5780634311de8f146101655780634d24e2361461017c5780637998a1c4146101b457806384fdec83146101e857600080fd5b80630d654751146100e257806315eb68531461011557806331fb67c214610145575b600080fd5b3480156100ee57600080fd5b506101026100fd366004611269565b6102e5565b6040519081526020015b60405180910390f35b34801561012157600080fd5b506101356101303660046112cd565b6104eb565b604051901515815260200161010c565b34801561015157600080fd5b506101026101603660046112f9565b610513565b34801561017157600080fd5b5061017a61072c565b005b34801561018857600080fd5b5060015461019c906001600160a01b031681565b6040516001600160a01b03909116815260200161010c565b3480156101c057600080fd5b506101027f000000000000000000000000000000000000000000000000000000000000000081565b3480156101f457600080fd5b5061010260045481565b34801561020a57600080fd5b5061019c61021936600461133b565b6109dc565b34801561022a57600080fd5b5060035461019c906001600160a01b031681565b34801561024a57600080fd5b506101356102593660046112f9565b610a63565b34801561026a57600080fd5b5060025461019c906001600160a01b031681565b34801561028a57600080fd5b5060005461019c906001600160a01b031681565b6101026102ac3660046112f9565b610b30565b3480156102bd57600080fd5b5061019c7f000000000000000000000000000000000000000000000000000000000000000081565b6000806102f1856109dc565b90506001600160a01b0381161561039957600254604051632d3f2b0560e01b8152600481018790526001600160a01b0383811660248301526000921690632d3f2b0590604401602060405180830381865afa158015610354573d6000803e3d6000fd5b505050506040513d601f19601f820116820180604052508101906103789190611354565b9050610385606482611383565b6103909060696113a5565b925050506104e4565b600254604080517f888319d600000000000000000000000000000000000000000000000000000000815290516000926001600160a01b03169163888319d69160048083019260209291908290030181865afa1580156103fc573d6000803e3d6000fd5b505050506040513d601f19601f820116820180604052508101906104209190611354565b905060007f00000000000000000000000000000000000000000000000000000000000000006001600160a01b031663fdd32ec47f0000000000000000000000000000000000000000000000000000000000000000888833876040518663ffffffff1660e01b81526004016104989594939291906113e5565b602060405180830381865afa1580156104b5573d6000803e3d6000fd5b505050506040513d601f19601f820116820180604052508101906104d99190611354565b93506104e492505050565b9392505050565b6000826001600160a01b0316610500836109dc565b6001600160a01b03161490505b92915050565b6000808383604051610526929190611430565b604051908190039020905061053b33826104eb565b15610572576040517ff2d28b5b00000000000000000000000000000000000000000000000000000000815260040160405180910390fd5b600254604051632d3f2b0560e01b8152600481018390523360248201526000916001600160a01b031690632d3f2b0590604401602060405180830381865afa1580156105c2573d6000803e3d6000fd5b505050506040513d601f19601f820116820180604052508101906105e69190611354565b9050806000036106095760405163c740c32d60e01b815260040160405180910390fd5b6002546040517f2cd8cde7000000000000000000000000000000000000000000000000000000008152600481018490523360248201526001600160a01b0390911690632cd8cde790604401600060405180830381600087803b15801561066e57600080fd5b505af1158015610682573d6000803e3d6000fd5b50506040516000925033915083908381818185875af1925050503d80600081146106c8576040519150601f19603f3d011682016040523d82523d6000602084013e6106cd565b606091505b50509050806107235760405162461bcd60e51b815260206004820152601460248201527f4661696c656420746f2073656e6420457468657200000000000000000000000060448201526064015b60405180910390fd5b50949350505050565b6000546040517f0726f6680000000000000000000000000000000000000000000000000000000081527f0000000000000000000000000000000000000000000000000000000000000000600482018190529133916001600160a01b0390911690630726f66890602401602060405180830381865afa1580156107b2573d6000803e3d6000fd5b505050506040513d601f19601f820116820180604052508101906107d69190611450565b6001600160a01b0316146108515760405162461bcd60e51b8152602060048201526024808201527f4f776e61626c653a2063616c6c6572206973206e6f742074686520746c64206f60448201527f776e657200000000000000000000000000000000000000000000000000000000606482015260840161071a565b600260009054906101000a90046001600160a01b03166001600160a01b031663864333746040518163ffffffff1660e01b8152600401602060405180830381865afa1580156108a4573d6000803e3d6000fd5b505050506040513d601f19601f820116820180604052508101906108c8919061146d565b6109145760405162461bcd60e51b815260206004820152601160248201527f61756374696f6e206e6f7420656e646564000000000000000000000000000000604482015260640161071a565b600480546000918290559081900361093f5760405163c740c32d60e01b815260040160405180910390fd5b604051600090339083908381818185875af1925050503d8060008114610981576040519150601f19603f3d011682016040523d82523d6000602084013e610986565b606091505b50509050806109d75760405162461bcd60e51b815260206004820152601460248201527f4661696c656420746f2073656e64204574686572000000000000000000000000604482015260640161071a565b505050565b6002546040517f8cb5d700000000000000000000000000000000000000000000000000000000008152600481018390526000916001600160a01b031690638cb5d70090602401602060405180830381865afa158015610a3f573d6000803e3d6000fd5b505050506040513d601f19601f8201168201806040525081019061050d9190611450565b6040517f08d2396f0000000000000000000000000000000000000000000000000000000081526000906001600160a01b037f000000000000000000000000000000000000000000000000000000000000000016906308d2396f90610aef907f0000000000000000000000000000000000000000000000000000000000000000908790879060040161148f565b602060405180830381865afa158015610b0c573d6000803e3d6000fd5b505050506040513d601f19601f820116820180604052508101906104e4919061146d565b600254604080517f87bbaeb600000000000000000000000000000000000000000000000000000000815290516000926001600160a01b0316916387bbaeb69160048083019260209291908290030181865afa158015610b93573d6000803e3d6000fd5b505050506040513d601f19601f82011682018060405250810190610bb7919061146d565b610c035760405162461bcd60e51b815260206004820152600e60248201527f6e6f7420696e2061756374696f6e000000000000000000000000000000000000604482015260640161071a565b60003411610c275760405163235c188560e01b81526001600482015260240161071a565b60008383604051610c39929190611430565b6040519081900381206002547f58e1d968000000000000000000000000000000000000000000000000000000008352336004840152602483018290529092506001600160a01b0316906358e1d96890604401600060405180830381600087803b158015610ca557600080fd5b505af1158015610cb9573d6000803e3d6000fd5b50505050610cc88185856110e7565b600254604051634b6d21db60e11b81526004810183905260009182916001600160a01b03909116906396da43b690602401600060405180830381865afa158015610d16573d6000803e3d6000fd5b505050506040513d6000823e601f3d908101601f19168201604052610d3e91908101906114c8565b925092505080421115610d7d576040517fa0e9298400000000000000000000000000000000000000000000000000000000815260040160405180910390fd5b600254604051632d3f2b0560e01b81526004810185905233602482015260009134916001600160a01b0390911690632d3f2b0590604401602060405180830381865afa158015610dd1573d6000803e3d6000fd5b505050506040513d601f19601f82011682018060405250810190610df59190611354565b610dff91906115ac565b90506000610e0e8589896102e5565b905080821015610e345760405163235c188560e01b81526004810182905260240161071a565b600254604051632d3f2b0560e01b8152600481018790526001600160a01b0386811660248301526000921690632d3f2b0590604401602060405180830381865afa158015610e86573d6000803e3d6000fd5b505050506040513d601f19601f82011682018060405250810190610eaa9190611354565b90506000610eb882856115bf565b90506000811561100f576001546040517f38ad91590000000000000000000000000000000000000000000000000000000081527f00000000000000000000000000000000000000000000000000000000000000006004820152602481018490526001600160a01b03909116906338ad915990604401602060405180830381865afa158015610f4a573d6000803e3d6000fd5b505050506040513d601f19601f82011682018060405250810190610f6e9190611354565b9050801561100f576003546040517fb6b55f250000000000000000000000000000000000000000000000000000000081527f000000000000000000000000000000000000000000000000000000000000000060048201526001600160a01b039091169063b6b55f259083906024016000604051808303818588803b158015610ff557600080fd5b505af1158015611009573d6000803e3d6000fd5b50505050505b61101981836115bf565b6004600082825461102a91906115ac565b9091555050600254604051632fe9aa6560e11b81526001600160a01b0390911690635fd354ca90611067908b908f908f9033908c906004016115d2565b600060405180830381600087803b15801561108157600080fd5b505af1158015611095573d6000803e3d6000fd5b505050507fb773ce5048c68e3c2b907d5b3fbf2875976f4c973ae9494721266036d3d9af8b888c8c33896040516110d09594939291906115d2565b60405180910390a150929998505050505050505050565b6110f18282610a63565b61112b5781816040517f7772f70700000000000000000000000000000000000000000000000000000000815260040161071a929190611609565b600254604051634b6d21db60e11b8152600481018590526000916001600160a01b0316906396da43b690602401600060405180830381865afa158015611175573d6000803e3d6000fd5b505050506040513d6000823e601f3d908101601f1916820160405261119d91908101906114c8565b92505050806000146111af5750505050565b600254604051632fe9aa6560e11b81526001600160a01b0390911690635fd354ca906111e89087908790879060009081906004016115d2565b600060405180830381600087803b15801561120257600080fd5b505af1158015611216573d6000803e3d6000fd5b5050505050505050565b60008083601f84011261123257600080fd5b50813567ffffffffffffffff81111561124a57600080fd5b60208301915083602082850101111561126257600080fd5b9250929050565b60008060006040848603121561127e57600080fd5b83359250602084013567ffffffffffffffff81111561129c57600080fd5b6112a886828701611220565b9497909650939450505050565b6001600160a01b03811681146112ca57600080fd5b50565b600080604083850312156112e057600080fd5b82356112eb816112b5565b946020939093013593505050565b6000806020838503121561130c57600080fd5b823567ffffffffffffffff81111561132357600080fd5b61132f85828601611220565b90969095509350505050565b60006020828403121561134d57600080fd5b5035919050565b60006020828403121561136657600080fd5b5051919050565b634e487b7160e01b600052601160045260246000fd5b6000826113a057634e487b7160e01b600052601260045260246000fd5b500490565b808202811582820484141761050d5761050d61136d565b81835281816020850137506000828201602090810191909152601f909101601f19169091010190565b85815260a0602082015260006113ff60a0830186886113bc565b6001600160a01b03949094166040830152506060810191909152808203608090910152600081526020019392505050565b8183823760009101908152919050565b805161144b816112b5565b919050565b60006020828403121561146257600080fd5b81516104e4816112b5565b60006020828403121561147f57600080fd5b815180151581146104e457600080fd5b8381526040602082015260006114a96040830184866113bc565b95945050505050565b634e487b7160e01b600052604160045260246000fd5b6000806000606084860312156114dd57600080fd5b835167ffffffffffffffff808211156114f557600080fd5b818601915086601f83011261150957600080fd5b81518181111561151b5761151b6114b2565b604051601f8201601f19908116603f01168101908382118183101715611543576115436114b2565b8160405282815260209350898484870101111561155f57600080fd5b600091505b828210156115815784820184015181830185015290830190611564565b600084848301015280975050505061159a818701611440565b93505050604084015190509250925092565b8082018082111561050d5761050d61136d565b8181038181111561050d5761050d61136d565b8581526080602082015260006115ec6080830186886113bc565b6001600160a01b0394909416604083015250606001529392505050565b60208152600061161d6020830184866113bc565b94935050505056fea26469706673582212200b43c8ab822b20015e152a41a7e21dd9c9a018552bfdd0b5ef149ae6ca21a73964736f6c63430008120033a2646970667358221220105f158437c2aea804501f0bdee5fb006454eb7824fa07919e0e6aa2c11585ba64736f6c63430008120033",
  "linkReferences": {},
  "deployedLinkReferences": {}
}