{
  "_format": "hh-sol-artifact-1",
  "contractName": "GiftCardLedger",
  "sourceName": "contracts/giftcard/GiftCardLedger.sol",
  "abi": [
    {
      "inputs": [
        {
          "internalType": "contract ISANN",
          "name": "_sann",
          "type": "address"
        }
      ],
      "stateMutability": "nonpayable",
      "type": "constructor"
    },
    {
      "anonymous": false,
      "inputs": [
        {
          "indexed": true,
          "internalType": "address",
          "name": "controller",
          "type": "address"
        }
      ],
      "name": "ControllerAdded",
      "type": "event"
    },
    {
      "anonymous": false,
      "inputs": [
        {
          "indexed": true,
          "internalType": "address",
          "name": "controller",
          "type": "address"
        }
      ],
      "name": "ControllerRemoved",
      "type": "event"
    },
    {
      "anonymous": false,
      "inputs": [
        {
          "indexed": false,
          "internalType": "uint256",
          "name": "identifier",
          "type": "uint256"
        },
        {
          "indexed": true,
          "internalType": "address",
          "name": "controller",
          "type": "address"
        }
      ],
      "name": "TldControllerAdded",
      "type": "event"
    },
    {
      "anonymous": false,
      "inputs": [
        {
          "indexed": false,
          "internalType": "uint256",
          "name": "identifier",
          "type": "uint256"
        },
        {
          "indexed": true,
          "internalType": "address",
          "name": "controller",
          "type": "address"
        }
      ],
      "name": "TldControllerRemoved",
      "type": "event"
    },
    {
      "inputs": [
        {
          "internalType": "address",
          "name": "controller",
          "type": "address"
        }
      ],
      "name": "addController",
      "outputs": [],
      "stateMutability": "nonpayable",
      "type": "function"
    },
    {
      "inputs": [
        {
          "internalType": "uint256",
          "name": "identifier",
          "type": "uint256"
        },
        {
          "internalType": "address",
          "name": "controller",
          "type": "address"
        }
      ],
      "name": "addTldGiftCardController",
      "outputs": [],
      "stateMutability": "nonpayable",
      "type": "function"
    },
    {
      "inputs": [
        {
          "internalType": "uint256",
          "name": "identifier",
          "type": "uint256"
        },
        {
          "internalType": "address",
          "name": "account",
          "type": "address"
        }
      ],
      "name": "balanceOf",
      "outputs": [
        {
          "internalType": "uint256",
          "name": "",
          "type": "uint256"
        }
      ],
      "stateMutability": "view",
      "type": "function"
    },
    {
      "inputs": [
        {
          "internalType": "address",
          "name": "",
          "type": "address"
        },
        {
          "internalType": "uint256",
          "name": "",
          "type": "uint256"
        }
      ],
      "name": "balances",
      "outputs": [
        {
          "internalType": "uint256",
          "name": "",
          "type": "uint256"
        }
      ],
      "stateMutability": "view",
      "type": "function"
    },
    {
      "inputs": [
        {
          "internalType": "address",
          "name": "",
          "type": "address"
        }
      ],
      "name": "controllers",
      "outputs": [
        {
          "internalType": "bool",
          "name": "",
          "type": "bool"
        }
      ],
      "stateMutability": "view",
      "type": "function"
    },
    {
      "inputs": [
        {
          "internalType": "uint256",
          "name": "identifier",
          "type": "uint256"
        },
        {
          "internalType": "address",
          "name": "account",
          "type": "address"
        },
        {
          "internalType": "uint256",
          "name": "amount",
          "type": "uint256"
        }
      ],
      "name": "deduct",
      "outputs": [],
      "stateMutability": "nonpayable",
      "type": "function"
    },
    {
      "inputs": [
        {
          "internalType": "uint256",
          "name": "identifier",
          "type": "uint256"
        },
        {
          "internalType": "address",
          "name": "account",
          "type": "address"
        },
        {
          "internalType": "uint256",
          "name": "amount",
          "type": "uint256"
        }
      ],
      "name": "redeem",
      "outputs": [],
      "stateMutability": "nonpayable",
      "type": "function"
    },
    {
      "inputs": [
        {
          "internalType": "address",
          "name": "controller",
          "type": "address"
        }
      ],
      "name": "removeController",
      "outputs": [],
      "stateMutability": "nonpayable",
      "type": "function"
    },
    {
      "inputs": [
        {
          "internalType": "uint256",
          "name": "identifier",
          "type": "uint256"
        },
        {
          "internalType": "address",
          "name": "controller",
          "type": "address"
        }
      ],
      "name": "removeTldGiftCardController",
      "outputs": [],
      "stateMutability": "nonpayable",
      "type": "function"
    },
    {
      "inputs": [],
      "name": "sann",
      "outputs": [
        {
          "internalType": "contract ISANN",
          "name": "",
          "type": "address"
        }
      ],
      "stateMutability": "view",
      "type": "function"
    },
    {
      "inputs": [
        {
          "internalType": "uint256",
          "name": "",
          "type": "uint256"
        },
        {
          "internalType": "address",
          "name": "",
          "type": "address"
        }
      ],
      "name": "tldControllers",
      "outputs": [
        {
          "internalType": "bool",
          "name": "",
          "type": "bool"
        }
      ],
      "stateMutability": "view",
      "type": "function"
    }
  ],
  "bytecode": "0x608060405234801561001057600080fd5b50604051610c10380380610c1083398101604081905261002f91610054565b600080546001600160a01b0319166001600160a01b0392909216919091179055610084565b60006020828403121561006657600080fd5b81516001600160a01b038116811461007d57600080fd5b9392505050565b610b7d806100936000396000f3fe608060405234801561001057600080fd5b50600436106100c95760003560e01c8063a7fc7a0711610081578063d87801611161005b578063d8780161146101d6578063da8c229e146101e9578063f6a74ed71461020c57600080fd5b8063a7fc7a071461016d578063cbf1304d14610180578063d46da387146101ab57600080fd5b80633656eec2116100b25780633656eec214610126578063698f95851461014757806388a1625b1461015a57600080fd5b80630702e683146100ce57806321f62a1a146100e3575b600080fd5b6100e16100dc366004610a1d565b61021f565b005b6101116100f1366004610a1d565b600260209081526000928352604080842090915290825290205460ff1681565b60405190151581526020015b60405180910390f35b610139610134366004610a1d565b6103ae565b60405190815260200161011d565b6100e1610155366004610a4d565b6103d9565b6100e1610168366004610a1d565b6104f1565b6100e161017b366004610a85565b610675565b61013961018e366004610aa9565b600360209081526000928352604080842090915290825290205481565b6000546101be906001600160a01b031681565b6040516001600160a01b03909116815260200161011d565b6100e16101e4366004610a4d565b6107f2565b6101116101f7366004610a85565b60016020526000908152604090205460ff1681565b6100e161021a366004610a85565b61088e565b60005460405162e4decd60e31b815260048101849052839133916001600160a01b0390911690630726f66890602401602060405180830381865afa15801561026b573d6000803e3d6000fd5b505050506040513d601f19601f8201168201806040525081019061028f9190610ad5565b6001600160a01b0316146102f65760405162461bcd60e51b8152602060048201526024808201527f4f776e61626c653a2063616c6c6572206973206e6f742074686520746c64206f6044820152633bb732b960e11b60648201526084015b60405180910390fd5b6001600160a01b03821661034c5760405162461bcd60e51b815260206004820152601860248201527f616464726573732063616e206e6f74206265207a65726f21000000000000000060448201526064016102ed565b60008381526002602090815260408083206001600160a01b03861680855290835292819020805460ff19169055518581527f6fc028d0707e47751b03d29ee93157b5b02fc4112cd2fc8dac0840aa9c78bc1891015b60405180910390a2505050565b6001600160a01b03811660009081526003602090815260408083208584529091529020545b92915050565b6000838152600260209081526040808320338452909152902054839060ff166104445760405162461bcd60e51b815260206004820152601b60248201527f4e6f74206120617574686f72697a656420636f6e74726f6c6c6572000000000060448201526064016102ed565b6001600160a01b0383166000908152600360209081526040808320878452909152902054828110156104b85760405162461bcd60e51b815260206004820152601460248201527f496e73756666696369656e742062616c616e636500000000000000000000000060448201526064016102ed565b6104c28382610b21565b6001600160a01b0390941660009081526003602090815260408083209783529690529490942092909255505050565b60005460405162e4decd60e31b815260048101849052839133916001600160a01b0390911690630726f66890602401602060405180830381865afa15801561053d573d6000803e3d6000fd5b505050506040513d601f19601f820116820180604052508101906105619190610ad5565b6001600160a01b0316146105c35760405162461bcd60e51b8152602060048201526024808201527f4f776e61626c653a2063616c6c6572206973206e6f742074686520746c64206f6044820152633bb732b960e11b60648201526084016102ed565b6001600160a01b0382166106195760405162461bcd60e51b815260206004820152601860248201527f616464726573732063616e206e6f74206265207a65726f21000000000000000060448201526064016102ed565b60008381526002602090815260408083206001600160a01b03861680855290835292819020805460ff19166001179055518581527fbad9e32d0cb056abcca47f1c294a3ad5509e16f312e9205de0cba434a2aa005791016103a1565b6000546040805163cdcd7fb560e01b8152905133926001600160a01b03169163cdcd7fb59160048083019260209291908290030181865afa1580156106be573d6000803e3d6000fd5b505050506040513d601f19601f820116820180604052508101906106e29190610ad5565b6001600160a01b03161461074d5760405162461bcd60e51b815260206004820152602c60248201527f41636365737369626c653a2063616c6c6572206973206e6f742074686520706c60448201526b30ba3337b9369030b236b4b760a11b60648201526084016102ed565b6001600160a01b0381166107a35760405162461bcd60e51b815260206004820152601860248201527f616464726573732063616e206e6f74206265207a65726f21000000000000000060448201526064016102ed565b6001600160a01b0381166000818152600160208190526040808320805460ff1916909217909155517f0a8bb31534c0ed46f380cb867bd5c803a189ced9a764e30b3a4991a9901d74749190a250565b3360009081526001602052604090205460ff166108515760405162461bcd60e51b815260206004820152601b60248201527f4e6f74206120617574686f72697a656420636f6e74726f6c6c6572000000000060448201526064016102ed565b6001600160a01b038216600090815260036020908152604080832086845290915281208054839290610884908490610b34565b9091555050505050565b6000546040805163cdcd7fb560e01b8152905133926001600160a01b03169163cdcd7fb59160048083019260209291908290030181865afa1580156108d7573d6000803e3d6000fd5b505050506040513d601f19601f820116820180604052508101906108fb9190610ad5565b6001600160a01b0316146109665760405162461bcd60e51b815260206004820152602c60248201527f41636365737369626c653a2063616c6c6572206973206e6f742074686520706c60448201526b30ba3337b9369030b236b4b760a11b60648201526084016102ed565b6001600160a01b0381166109bc5760405162461bcd60e51b815260206004820152601860248201527f616464726573732063616e206e6f74206265207a65726f21000000000000000060448201526064016102ed565b6001600160a01b038116600081815260016020526040808220805460ff19169055517f33d83959be2573f5453b12eb9d43b3499bc57d96bd2f067ba44803c859e811139190a250565b6001600160a01b0381168114610a1a57600080fd5b50565b60008060408385031215610a3057600080fd5b823591506020830135610a4281610a05565b809150509250929050565b600080600060608486031215610a6257600080fd5b833592506020840135610a7481610a05565b929592945050506040919091013590565b600060208284031215610a9757600080fd5b8135610aa281610a05565b9392505050565b60008060408385031215610abc57600080fd5b8235610ac781610a05565b946020939093013593505050565b600060208284031215610ae757600080fd5b8151610aa281610a05565b7f4e487b7100000000000000000000000000000000000000000000000000000000600052601160045260246000fd5b818103818111156103d3576103d3610af2565b808201808211156103d3576103d3610af256fea26469706673582212203f86dce6b09b8cf7484059cfd758956865b047ac6fb04d756b86cb5b79c5163864736f6c63430008120033",
  "linkReferences": {},
  "deployedLinkReferences": {}
}