{
  "_format": "hh-sol-artifact-1",
  "contractName": "VerifiedTldHub",
  "sourceName": "contracts/domain-governer/VerifiedTldHub.sol",
  "abi": [
    {
      "inputs": [],
      "stateMutability": "nonpayable",
      "type": "constructor"
    },
    {
      "anonymous": false,
      "inputs": [
        {
          "indexed": true,
          "internalType": "address",
          "name": "previousOwner",
          "type": "address"
        },
        {
          "indexed": true,
          "internalType": "address",
          "name": "newOwner",
          "type": "address"
        }
      ],
      "name": "OwnershipTransferred",
      "type": "event"
    },
    {
      "inputs": [
        {
          "internalType": "uint256",
          "name": "chainId",
          "type": "uint256"
        }
      ],
      "name": "getChainInfo",
      "outputs": [
        {
          "components": [
            {
              "internalType": "uint256",
              "name": "chainId",
              "type": "uint256"
            },
            {
              "internalType": "string",
              "name": "defaultRpc",
              "type": "string"
            },
            {
              "internalType": "address",
              "name": "sann",
              "type": "address"
            }
          ],
          "internalType": "struct VerifiedTldHub.chainInfo",
          "name": "",
          "type": "tuple"
        }
      ],
      "stateMutability": "view",
      "type": "function"
    },
    {
      "inputs": [
        {
          "internalType": "uint256",
          "name": "chainId",
          "type": "uint256"
        }
      ],
      "name": "getChainTlds",
      "outputs": [
        {
          "internalType": "string[]",
          "name": "",
          "type": "string[]"
        }
      ],
      "stateMutability": "view",
      "type": "function"
    },
    {
      "inputs": [
        {
          "internalType": "string[]",
          "name": "tldList",
          "type": "string[]"
        }
      ],
      "name": "getTldInfo",
      "outputs": [
        {
          "components": [
            {
              "internalType": "string",
              "name": "tld",
              "type": "string"
            },
            {
              "internalType": "uint256",
              "name": "identifier",
              "type": "uint256"
            },
            {
              "internalType": "uint256",
              "name": "chainId",
              "type": "uint256"
            },
            {
              "internalType": "string",
              "name": "defaultRpc",
              "type": "string"
            },
            {
              "internalType": "address",
              "name": "registry",
              "type": "address"
            },
            {
              "internalType": "address",
              "name": "sann",
              "type": "address"
            }
          ],
          "internalType": "struct VerifiedTldHub.completeTldInfo[]",
          "name": "",
          "type": "tuple[]"
        }
      ],
      "stateMutability": "view",
      "type": "function"
    },
    {
      "inputs": [],
      "name": "getTlds",
      "outputs": [
        {
          "internalType": "string[]",
          "name": "",
          "type": "string[]"
        }
      ],
      "stateMutability": "view",
      "type": "function"
    },
    {
      "inputs": [],
      "name": "owner",
      "outputs": [
        {
          "internalType": "address",
          "name": "",
          "type": "address"
        }
      ],
      "stateMutability": "view",
      "type": "function"
    },
    {
      "inputs": [
        {
          "internalType": "uint256",
          "name": "chainId",
          "type": "uint256"
        },
        {
          "internalType": "string",
          "name": "tldName",
          "type": "string"
        }
      ],
      "name": "removeTldInfo",
      "outputs": [],
      "stateMutability": "nonpayable",
      "type": "function"
    },
    {
      "inputs": [],
      "name": "renounceOwnership",
      "outputs": [],
      "stateMutability": "nonpayable",
      "type": "function"
    },
    {
      "inputs": [
        {
          "internalType": "address",
          "name": "newOwner",
          "type": "address"
        }
      ],
      "name": "transferOwnership",
      "outputs": [],
      "stateMutability": "nonpayable",
      "type": "function"
    },
    {
      "inputs": [
        {
          "internalType": "uint256",
          "name": "chainId",
          "type": "uint256"
        },
        {
          "internalType": "string",
          "name": "defaultRpc",
          "type": "string"
        },
        {
          "internalType": "address",
          "name": "sann",
          "type": "address"
        }
      ],
      "name": "updateChainInfo",
      "outputs": [],
      "stateMutability": "nonpayable",
      "type": "function"
    },
    {
      "inputs": [
        {
          "internalType": "uint256",
          "name": "chainId",
          "type": "uint256"
        },
        {
          "internalType": "string",
          "name": "defaultRpc",
          "type": "string"
        }
      ],
      "name": "updateDefaultRpc",
      "outputs": [],
      "stateMutability": "nonpayable",
      "type": "function"
    },
    {
      "inputs": [
        {
          "internalType": "string",
          "name": "tldName",
          "type": "string"
        },
        {
          "internalType": "uint256",
          "name": "identifier",
          "type": "uint256"
        },
        {
          "internalType": "uint256",
          "name": "chainId",
          "type": "uint256"
        },
        {
          "internalType": "address",
          "name": "registry",
          "type": "address"
        }
      ],
      "name": "updateTldInfo",
      "outputs": [],
      "stateMutability": "nonpayable",
      "type": "function"
    }
  ],
  "bytecode": "0x608060405234801561001057600080fd5b5061001a3361001f565b61006f565b600080546001600160a01b038381166001600160a01b0319831681178455604051919092169283917f8be0079c531659141344cd1fd0a4f28419497f9722a3daafe3b4186f6b6457e09190a35050565b6117c38061007e6000396000f3fe608060405234801561001057600080fd5b50600436106100c95760003560e01c8063804ea33411610081578063a32cca861161005b578063a32cca861461017d578063d97f58801461019d578063f2fde38b146101b057600080fd5b8063804ea3341461012f5780638a302fbc1461014f5780638da5cb5b1461016257600080fd5b806326a0d75c116100b257806326a0d75c146100f657806357951ea814610109578063715018a61461012757600080fd5b8063063f09cb146100ce57806324682eef146100e3575b600080fd5b6100e16100dc366004610feb565b6101c3565b005b6100e16100f1366004611049565b610283565b6100e1610104366004611049565b610560565b610111610584565b60405161011e91906110db565b60405180910390f35b6100e161065d565b61014261013d36600461113d565b610671565b60405161011e9190611156565b6100e161015d36600461119b565b610773565b6000546040516001600160a01b03909116815260200161011e565b61019061018b366004611202565b610966565b60405161011e9190611277565b6101116101ab36600461113d565b610c88565b6100e16101be366004611336565b610dec565b6101cb610e81565b604051806060016040528085815260200184848080601f01602080910402602001604051908101604052809392919081815260200183838082843760009201829052509385525050506001600160a01b03841660209283015286815260038252604090208251815590820151600182019061024690826113f7565b50604091909101516002909101805473ffffffffffffffffffffffffffffffffffffffff19166001600160a01b0390921691909117905550505050565b61028b610e81565b6001828260405161029d9291906114b7565b90815260405190819003602001902060006102b88282610f38565b50600060018201819055600282018190556003909101805473ffffffffffffffffffffffffffffffffffffffff191690555b6004548110156103ff5782826040516020016103079291906114b7565b6040516020818303038152906040528051906020012060048281548110610330576103306114c7565b9060005260206000200160405160200161034a91906114dd565b60405160208183030381529060405280519060200120036103ed576004805461037590600190611569565b81548110610385576103856114c7565b90600052602060002001600482815481106103a2576103a26114c7565b9060005260206000200190816103b8919061157c565b5060048054806103ca576103ca611657565b6001900381819060005260206000200160006103e69190610f38565b90556103ff565b806103f78161166d565b9150506102ea565b5060005b60008481526002602052604090205481101561055a57828260405160200161042c9291906114b7565b60408051601f198184030181529181528151602092830120600087815260029093529120805483908110610462576104626114c7565b9060005260206000200160405160200161047c91906114dd565b604051602081830303815290604052805190602001200361054857600084815260026020526040902080546104b390600190611569565b815481106104c3576104c36114c7565b906000526020600020016002600086815260200190815260200160002082815481106104f1576104f16114c7565b906000526020600020019081610507919061157c565b50600084815260026020526040902080548061052557610525611657565b6001900381819060005260206000200160006105419190610f38565b905561055a565b806105528161166d565b915050610403565b50505050565b610568610e81565b600083815260036020526040902060010161055a828483611686565b60606004805480602002602001604051908101604052809291908181526020016000905b828210156106545783829060005260206000200180546105c79061136e565b80601f01602080910402602001604051908101604052809291908181526020018280546105f39061136e565b80156106405780601f1061061557610100808354040283529160200191610640565b820191906000526020600020905b81548152906001019060200180831161062357829003601f168201915b5050505050815260200190600101906105a8565b50505050905090565b610665610e81565b61066f6000610edb565b565b61069e6040518060600160405280600081526020016060815260200160006001600160a01b031681525090565b60036000838152602001908152602001600020604051806060016040529081600082015481526020016001820180546106d69061136e565b80601f01602080910402602001604051908101604052809291908181526020018280546107029061136e565b801561074f5780601f106107245761010080835404028352916020019161074f565b820191906000526020600020905b81548152906001019060200180831161073257829003601f168201915b5050509183525050600291909101546001600160a01b031660209091015292915050565b61077b610e81565b6001858560405161078d9291906114b7565b90815260200160405180910390206001015460001480156107d15750600185856040516107bb9291906114b7565b9081526020016040518091039020600201546000145b8015610813575060006001600160a01b0316600186866040516107f59291906114b7565b908152604051908190036020019020600301546001600160a01b0316145b1561088157600480546001810182556000919091527f8a35acfbc15ff81a39ae7d344fd709f28e8600b4aa8c65c6b64bfe7fe36bd19b01610855858783611686565b5060008281526002602090815260408220805460018101825590835291200161087f858783611686565b505b604051806080016040528086868080601f0160208091040260200160405190810160405280939291908181526020018383808284376000920191909152505050908252506020810185905260408082018590526001600160a01b038416606090920191909152516001906108f890889088906114b7565b9081526040519081900360200190208151819061091590826113f7565b5060208201516001820155604082015160028201556060909101516003909101805473ffffffffffffffffffffffffffffffffffffffff19166001600160a01b039092169190911790555050505050565b606060008267ffffffffffffffff81111561098357610983611358565b6040519080825280602002602001820160405280156109ff57816020015b6109ec6040518060c001604052806060815260200160008152602001600081526020016060815260200160006001600160a01b0316815260200160006001600160a01b031681525090565b8152602001906001900390816109a15790505b50905060005b83811015610c7e576000858583818110610a2157610a216114c7565b9050602002810190610a339190611746565b8080601f01602080910402602001604051908101604052809392919081815260200183838082843760009201829052509394506001925089915088905085818110610a8057610a806114c7565b9050602002810190610a929190611746565b604051610aa09291906114b7565b908152602001604051809103902060020154905060006001888886818110610aca57610aca6114c7565b9050602002810190610adc9190611746565b604051610aea9291906114b7565b908152602001604051809103902060010154905060006001898987818110610b1457610b146114c7565b9050602002810190610b269190611746565b604051610b349291906114b7565b908152602001604051809103902060030160009054906101000a90046001600160a01b031690506040518060c00160405280858152602001838152602001848152602001600360008681526020019081526020016000206001018054610b999061136e565b80601f0160208091040260200160405190810160405280929190818152602001828054610bc59061136e565b8015610c125780601f10610be757610100808354040283529160200191610c12565b820191906000526020600020905b815481529060010190602001808311610bf557829003601f168201915b50505091835250506001600160a01b0380841660208084019190915260008781526003909152604090819020600201549091169101528651879087908110610c5c57610c5c6114c7565b6020026020010181905250505050508080610c769061166d565b915050610a05565b5090505b92915050565b6000818152600260205260408120546060919067ffffffffffffffff811115610cb357610cb3611358565b604051908082528060200260200182016040528015610ce657816020015b6060815260200190600190039081610cd15790505b50905060005b600084815260026020526040902054811015610de5576000848152600260205260409020805482908110610d2257610d226114c7565b906000526020600020018054610d379061136e565b80601f0160208091040260200160405190810160405280929190818152602001828054610d639061136e565b8015610db05780601f10610d8557610100808354040283529160200191610db0565b820191906000526020600020905b815481529060010190602001808311610d9357829003601f168201915b5050505050828281518110610dc757610dc76114c7565b60200260200101819052508080610ddd9061166d565b915050610cec565b5092915050565b610df4610e81565b6001600160a01b038116610e755760405162461bcd60e51b815260206004820152602660248201527f4f776e61626c653a206e6577206f776e657220697320746865207a65726f206160448201527f646472657373000000000000000000000000000000000000000000000000000060648201526084015b60405180910390fd5b610e7e81610edb565b50565b6000546001600160a01b0316331461066f5760405162461bcd60e51b815260206004820181905260248201527f4f776e61626c653a2063616c6c6572206973206e6f7420746865206f776e65726044820152606401610e6c565b600080546001600160a01b0383811673ffffffffffffffffffffffffffffffffffffffff19831681178455604051919092169283917f8be0079c531659141344cd1fd0a4f28419497f9722a3daafe3b4186f6b6457e09190a35050565b508054610f449061136e565b6000825580601f10610f54575050565b601f016020900490600052602060002090810190610e7e91905b80821115610f825760008155600101610f6e565b5090565b60008083601f840112610f9857600080fd5b50813567ffffffffffffffff811115610fb057600080fd5b602083019150836020828501011115610fc857600080fd5b9250929050565b80356001600160a01b0381168114610fe657600080fd5b919050565b6000806000806060858703121561100157600080fd5b84359350602085013567ffffffffffffffff81111561101f57600080fd5b61102b87828801610f86565b909450925061103e905060408601610fcf565b905092959194509250565b60008060006040848603121561105e57600080fd5b83359250602084013567ffffffffffffffff81111561107c57600080fd5b61108886828701610f86565b9497909650939450505050565b6000815180845260005b818110156110bb5760208185018101518683018201520161109f565b506000602082860101526020601f19601f83011685010191505092915050565b6000602080830181845280855180835260408601915060408160051b870101925083870160005b8281101561113057603f1988860301845261111e858351611095565b94509285019290850190600101611102565b5092979650505050505050565b60006020828403121561114f57600080fd5b5035919050565b6020815281516020820152600060208301516060604084015261117c6080840182611095565b90506001600160a01b0360408501511660608401528091505092915050565b6000806000806000608086880312156111b357600080fd5b853567ffffffffffffffff8111156111ca57600080fd5b6111d688828901610f86565b90965094505060208601359250604086013591506111f660608701610fcf565b90509295509295909350565b6000806020838503121561121557600080fd5b823567ffffffffffffffff8082111561122d57600080fd5b818501915085601f83011261124157600080fd5b81358181111561125057600080fd5b8660208260051b850101111561126557600080fd5b60209290920196919550909350505050565b60006020808301818452808551808352604092508286019150828160051b87010184880160005b8381101561132857603f19898403018552815160c081518186526112c482870182611095565b91505088820151898601528782015188860152606080830151868303828801526112ee8382611095565b6080858101516001600160a01b03908116918a019190915260a095860151169490970193909352505050938601939086019060010161129e565b509098975050505050505050565b60006020828403121561134857600080fd5b61135182610fcf565b9392505050565b634e487b7160e01b600052604160045260246000fd5b600181811c9082168061138257607f821691505b6020821081036113a257634e487b7160e01b600052602260045260246000fd5b50919050565b601f8211156113f257600081815260208120601f850160051c810160208610156113cf5750805b601f850160051c820191505b818110156113ee578281556001016113db565b5050505b505050565b815167ffffffffffffffff81111561141157611411611358565b6114258161141f845461136e565b846113a8565b602080601f83116001811461145a57600084156114425750858301515b600019600386901b1c1916600185901b1785556113ee565b600085815260208120601f198616915b828110156114895788860151825594840194600190910190840161146a565b50858210156114a75787850151600019600388901b60f8161c191681555b5050505050600190811b01905550565b8183823760009101908152919050565b634e487b7160e01b600052603260045260246000fd5b60008083546114eb8161136e565b60018281168015611503576001811461151857611547565b60ff1984168752821515830287019450611547565b8760005260208060002060005b8581101561153e5781548a820152908401908201611525565b50505082870194505b50929695505050505050565b634e487b7160e01b600052601160045260246000fd5b81810381811115610c8257610c82611553565b818103611587575050565b611591825461136e565b67ffffffffffffffff8111156115a9576115a9611358565b6115b78161141f845461136e565b6000601f8211600181146115eb57600083156115d35750848201545b600019600385901b1c1916600184901b178455611650565b600085815260209020601f19841690600086815260209020845b838110156116255782860154825560019586019590910190602001611605565b50858310156116435781850154600019600388901b60f8161c191681555b50505060018360011b0184555b5050505050565b634e487b7160e01b600052603160045260246000fd5b60006001820161167f5761167f611553565b5060010190565b67ffffffffffffffff83111561169e5761169e611358565b6116b2836116ac835461136e565b836113a8565b6000601f8411600181146116e657600085156116ce5750838201355b600019600387901b1c1916600186901b178355611650565b600083815260209020601f19861690835b8281101561171757868501358255602094850194600190920191016116f7565b50868210156117345760001960f88860031b161c19848701351681555b505060018560011b0183555050505050565b6000808335601e1984360301811261175d57600080fd5b83018035915067ffffffffffffffff82111561177857600080fd5b602001915036819003821315610fc857600080fdfea2646970667358221220bb3cc9dae0c02625c810879a177d1d0d49e70865a5f0b30e8c326514954ea22b64736f6c63430008120033",
  "linkReferences": {},
  "deployedLinkReferences": {}
}