{
  "_format": "hh-sol-artifact-1",
  "contractName": "DummyTldAccessableImpl",
  "sourceName": "test/access/mocks/DummyTldAccessableImpl.sol",
  "abi": [
    {
      "inputs": [
        {
          "internalType": "contract ISANN",
          "name": "_sann",
          "type": "address"
        }
      ],
      "stateMutability": "nonpayable",
      "type": "constructor"
    },
    {
      "inputs": [],
      "name": "sann",
      "outputs": [
        {
          "internalType": "contract ISANN",
          "name": "",
          "type": "address"
        }
      ],
      "stateMutability": "view",
      "type": "function"
    },
    {
      "inputs": [],
      "name": "testOnlyFactory",
      "outputs": [
        {
          "internalType": "bool",
          "name": "",
          "type": "bool"
        }
      ],
      "stateMutability": "view",
      "type": "function"
    },
    {
      "inputs": [],
      "name": "testOnlyPlatformAdmin",
      "outputs": [
        {
          "internalType": "bool",
          "name": "",
          "type": "bool"
        }
      ],
      "stateMutability": "view",
      "type": "function"
    },
    {
      "inputs": [],
      "name": "testOnlyTldController",
      "outputs": [
        {
          "internalType": "bool",
          "name": "",
          "type": "bool"
        }
      ],
      "stateMutability": "view",
      "type": "function"
    },
    {
      "inputs": [
        {
          "internalType": "uint256",
          "name": "identifier",
          "type": "uint256"
        }
      ],
      "name": "testOnlyTldOwner",
      "outputs": [
        {
          "internalType": "bool",
          "name": "",
          "type": "bool"
        }
      ],
      "stateMutability": "view",
      "type": "function"
    }
  ],
  "bytecode": "0x608060405234801561001057600080fd5b5060405161060c38038061060c83398101604081905261002f91610054565b600080546001600160a01b0319166001600160a01b0392909216919091179055610084565b60006020828403121561006657600080fd5b81516001600160a01b038116811461007d57600080fd5b9392505050565b610579806100936000396000f3fe608060405234801561001057600080fd5b50600436106100675760003560e01c8063d46da38711610050578063d46da38714610091578063df9731b6146100bc578063f218d57f146100c457600080fd5b80632c8f02e21461006c5780634c24077814610089575b600080fd5b6100746100d7565b60405190151581526020015b60405180910390f35b6100746101e5565b6000546100a4906001600160a01b031681565b6040516001600160a01b039091168152602001610080565b6100746102e8565b6100746100d23660046104fa565b6103eb565b60008054604080517f6a0dfac1000000000000000000000000000000000000000000000000000000008152905133926001600160a01b031691636a0dfac19160048083019260209291908290030181865afa15801561013a573d6000803e3d6000fd5b505050506040513d601f19601f8201168201806040525081019061015e9190610513565b6001600160a01b0316146101df5760405162461bcd60e51b815260206004820152602560248201527f41636365737369626c653a2063616c6c6572206973206e6f742074686520666160448201527f63746f727900000000000000000000000000000000000000000000000000000060648201526084015b60405180910390fd5b50600190565b60008054604080517ff3400419000000000000000000000000000000000000000000000000000000008152905133926001600160a01b03169163f34004199160048083019260209291908290030181865afa158015610248573d6000803e3d6000fd5b505050506040513d601f19601f8201168201806040525081019061026c9190610513565b6001600160a01b0316146101df5760405162461bcd60e51b815260206004820152602c60248201527f41636365737369626c653a2063616c6c6572206973206e6f742074686520746c60448201527f6420636f6e74726f6c6c6572000000000000000000000000000000000000000060648201526084016101d6565b60008054604080517fcdcd7fb5000000000000000000000000000000000000000000000000000000008152905133926001600160a01b03169163cdcd7fb59160048083019260209291908290030181865afa15801561034b573d6000803e3d6000fd5b505050506040513d601f19601f8201168201806040525081019061036f9190610513565b6001600160a01b0316146101df5760405162461bcd60e51b815260206004820152602c60248201527f41636365737369626c653a2063616c6c6572206973206e6f742074686520706c60448201527f6174666f726d2061646d696e000000000000000000000000000000000000000060648201526084016101d6565b600080546040517f0726f66800000000000000000000000000000000000000000000000000000000815260048101849052839133916001600160a01b0390911690630726f66890602401602060405180830381865afa158015610452573d6000803e3d6000fd5b505050506040513d601f19601f820116820180604052508101906104769190610513565b6001600160a01b0316146104f15760405162461bcd60e51b8152602060048201526024808201527f4f776e61626c653a2063616c6c6572206973206e6f742074686520746c64206f60448201527f776e65720000000000000000000000000000000000000000000000000000000060648201526084016101d6565b50600192915050565b60006020828403121561050c57600080fd5b5035919050565b60006020828403121561052557600080fd5b81516001600160a01b038116811461053c57600080fd5b939250505056fea2646970667358221220555f6168ee1ee40c745acfbb09bf9b97618144a12ccc302ba24c7b2b5b40ad3464736f6c63430008120033",
  "linkReferences": {},
  "deployedLinkReferences": {}
}