{
  "_format": "hh-sol-artifact-1",
  "contractName": "DefaultDiscountHook",
  "sourceName": "contracts/hook/DefaultDiscountHook.sol",
  "abi": [
    {
      "inputs": [
        {
          "internalType": "contract ISANN",
          "name": "_sann",
          "type": "address"
        },
        {
          "internalType": "uint256",
          "name": "_identifier",
          "type": "uint256"
        },
        {
          "internalType": "contract PreRegistrationState",
          "name": "_state",
          "type": "address"
        },
        {
          "internalType": "contract IPlatformConfig",
          "name": "_config",
          "type": "address"
        },
        {
          "internalType": "contract GiftCardLedger",
          "name": "_ledger",
          "type": "address"
        },
        {
          "internalType": "contract IPriceOracle",
          "name": "_priceOracle",
          "type": "address"
        },
        {
          "internalType": "uint16[]",
          "name": "_preRegiDiscountRateBps",
          "type": "uint16[]"
        },
        {
          "internalType": "uint256",
          "name": "_publicRegistrationStartTime",
          "type": "uint256"
        }
      ],
      "stateMutability": "nonpayable",
      "type": "constructor"
    },
    {
      "inputs": [],
      "name": "PublicRegistrationStarted",
      "type": "error"
    },
    {
      "anonymous": false,
      "inputs": [
        {
          "indexed": false,
          "internalType": "uint256",
          "name": "identifier",
          "type": "uint256"
        },
        {
          "indexed": false,
          "internalType": "uint8",
          "name": "letter",
          "type": "uint8"
        },
        {
          "indexed": false,
          "internalType": "uint16",
          "name": "discountRateBps",
          "type": "uint16"
        }
      ],
      "name": "SetPreRegiDiscountRateBps",
      "type": "event"
    },
    {
      "anonymous": false,
      "inputs": [
        {
          "indexed": false,
          "internalType": "uint256",
          "name": "identifier",
          "type": "uint256"
        },
        {
          "indexed": false,
          "internalType": "uint256",
          "name": "startTime",
          "type": "uint256"
        }
      ],
      "name": "SetPublicRegistrationStartTime",
      "type": "event"
    },
    {
      "inputs": [],
      "name": "MAX_RATE_BPS",
      "outputs": [
        {
          "internalType": "uint256",
          "name": "",
          "type": "uint256"
        }
      ],
      "stateMutability": "view",
      "type": "function"
    },
    {
      "inputs": [
        {
          "internalType": "uint256",
          "name": "_identifier",
          "type": "uint256"
        },
        {
          "internalType": "string",
          "name": "_name",
          "type": "string"
        },
        {
          "internalType": "address",
          "name": "_buyer",
          "type": "address"
        },
        {
          "internalType": "uint256",
          "name": "_duration",
          "type": "uint256"
        },
        {
          "internalType": "uint256",
          "name": "_cost",
          "type": "uint256"
        },
        {
          "internalType": "uint256",
          "name": "_platformFee",
          "type": "uint256"
        },
        {
          "internalType": "bytes",
          "name": "_extraData",
          "type": "bytes"
        }
      ],
      "name": "calcDeduction",
      "outputs": [
        {
          "internalType": "uint256",
          "name": "_discount",
          "type": "uint256"
        },
        {
          "internalType": "uint256",
          "name": "_deductible",
          "type": "uint256"
        }
      ],
      "stateMutability": "view",
      "type": "function"
    },
    {
      "inputs": [
        {
          "internalType": "uint256",
          "name": "_identifier",
          "type": "uint256"
        },
        {
          "internalType": "string",
          "name": "_name",
          "type": "string"
        },
        {
          "internalType": "address",
          "name": "_buyer",
          "type": "address"
        },
        {
          "internalType": "uint256",
          "name": "_duration",
          "type": "uint256"
        },
        {
          "internalType": "uint256",
          "name": "_cost",
          "type": "uint256"
        },
        {
          "internalType": "bytes",
          "name": "_extraData",
          "type": "bytes"
        }
      ],
      "name": "calcNewPrice",
      "outputs": [
        {
          "internalType": "uint256",
          "name": "",
          "type": "uint256"
        }
      ],
      "stateMutability": "view",
      "type": "function"
    },
    {
      "inputs": [
        {
          "internalType": "uint256",
          "name": "_identifier",
          "type": "uint256"
        },
        {
          "internalType": "string",
          "name": "_name",
          "type": "string"
        },
        {
          "internalType": "address",
          "name": "_buyer",
          "type": "address"
        },
        {
          "internalType": "uint256",
          "name": "_duration",
          "type": "uint256"
        },
        {
          "internalType": "uint256",
          "name": "_cost",
          "type": "uint256"
        },
        {
          "internalType": "uint256",
          "name": "_platformFee",
          "type": "uint256"
        },
        {
          "internalType": "bytes",
          "name": "_extraData",
          "type": "bytes"
        }
      ],
      "name": "calcRenewDeduction",
      "outputs": [
        {
          "internalType": "uint256",
          "name": "_discount",
          "type": "uint256"
        },
        {
          "internalType": "uint256",
          "name": "_deductible",
          "type": "uint256"
        }
      ],
      "stateMutability": "view",
      "type": "function"
    },
    {
      "inputs": [
        {
          "internalType": "uint256",
          "name": "_identifier",
          "type": "uint256"
        },
        {
          "internalType": "string",
          "name": "_name",
          "type": "string"
        },
        {
          "internalType": "address",
          "name": "_buyer",
          "type": "address"
        },
        {
          "internalType": "uint256",
          "name": "_duration",
          "type": "uint256"
        },
        {
          "internalType": "uint256",
          "name": "_cost",
          "type": "uint256"
        },
        {
          "internalType": "bytes",
          "name": "_extraData",
          "type": "bytes"
        }
      ],
      "name": "calcRenewNewPrice",
      "outputs": [
        {
          "internalType": "uint256",
          "name": "",
          "type": "uint256"
        }
      ],
      "stateMutability": "view",
      "type": "function"
    },
    {
      "inputs": [
        {
          "internalType": "uint256",
          "name": "_identifier",
          "type": "uint256"
        },
        {
          "internalType": "string",
          "name": "_name",
          "type": "string"
        },
        {
          "internalType": "address",
          "name": "_buyer",
          "type": "address"
        },
        {
          "internalType": "uint256",
          "name": "_duration",
          "type": "uint256"
        },
        {
          "internalType": "uint256",
          "name": "_cost",
          "type": "uint256"
        },
        {
          "internalType": "uint256",
          "name": "_platformFee",
          "type": "uint256"
        },
        {
          "internalType": "bytes",
          "name": "_extraData",
          "type": "bytes"
        }
      ],
      "name": "deduct",
      "outputs": [
        {
          "internalType": "uint256",
          "name": "_discount",
          "type": "uint256"
        },
        {
          "internalType": "uint256",
          "name": "_deductible",
          "type": "uint256"
        }
      ],
      "stateMutability": "nonpayable",
      "type": "function"
    },
    {
      "inputs": [
        {
          "internalType": "uint256",
          "name": "_identifier",
          "type": "uint256"
        },
        {
          "internalType": "string",
          "name": "_name",
          "type": "string"
        },
        {
          "internalType": "address",
          "name": "_buyer",
          "type": "address"
        },
        {
          "internalType": "uint256",
          "name": "_duration",
          "type": "uint256"
        },
        {
          "internalType": "uint256",
          "name": "_cost",
          "type": "uint256"
        },
        {
          "internalType": "uint256",
          "name": "_platformFee",
          "type": "uint256"
        },
        {
          "internalType": "bytes",
          "name": "_extraData",
          "type": "bytes"
        }
      ],
      "name": "deductRenew",
      "outputs": [
        {
          "internalType": "uint256",
          "name": "_discount",
          "type": "uint256"
        },
        {
          "internalType": "uint256",
          "name": "_deductible",
          "type": "uint256"
        }
      ],
      "stateMutability": "nonpayable",
      "type": "function"
    },
    {
      "inputs": [],
      "name": "identifier",
      "outputs": [
        {
          "internalType": "uint256",
          "name": "",
          "type": "uint256"
        }
      ],
      "stateMutability": "view",
      "type": "function"
    },
    {
      "inputs": [],
      "name": "ledger",
      "outputs": [
        {
          "internalType": "contract GiftCardLedger",
          "name": "",
          "type": "address"
        }
      ],
      "stateMutability": "view",
      "type": "function"
    },
    {
      "inputs": [
        {
          "internalType": "uint256",
          "name": "_identifier",
          "type": "uint256"
        },
        {
          "internalType": "string",
          "name": "_name",
          "type": "string"
        },
        {
          "internalType": "address",
          "name": "_buyer",
          "type": "address"
        },
        {
          "internalType": "uint256",
          "name": "_duration",
          "type": "uint256"
        },
        {
          "internalType": "uint256",
          "name": "_cost",
          "type": "uint256"
        },
        {
          "internalType": "bytes",
          "name": "_extraData",
          "type": "bytes"
        }
      ],
      "name": "newPrice",
      "outputs": [
        {
          "internalType": "uint256",
          "name": "",
          "type": "uint256"
        }
      ],
      "stateMutability": "nonpayable",
      "type": "function"
    },
    {
      "inputs": [
        {
          "internalType": "uint256",
          "name": "_identifier",
          "type": "uint256"
        },
        {
          "internalType": "string",
          "name": "_name",
          "type": "string"
        },
        {
          "internalType": "address",
          "name": "_buyer",
          "type": "address"
        },
        {
          "internalType": "uint256",
          "name": "_duration",
          "type": "uint256"
        },
        {
          "internalType": "uint256",
          "name": "_cost",
          "type": "uint256"
        },
        {
          "internalType": "bytes",
          "name": "_extraData",
          "type": "bytes"
        }
      ],
      "name": "newRenewPrice",
      "outputs": [
        {
          "internalType": "uint256",
          "name": "",
          "type": "uint256"
        }
      ],
      "stateMutability": "nonpayable",
      "type": "function"
    },
    {
      "inputs": [],
      "name": "platformConfig",
      "outputs": [
        {
          "internalType": "contract IPlatformConfig",
          "name": "",
          "type": "address"
        }
      ],
      "stateMutability": "view",
      "type": "function"
    },
    {
      "inputs": [
        {
          "internalType": "uint8",
          "name": "",
          "type": "uint8"
        }
      ],
      "name": "preRegiDiscountRateBps",
      "outputs": [
        {
          "internalType": "uint16",
          "name": "",
          "type": "uint16"
        }
      ],
      "stateMutability": "view",
      "type": "function"
    },
    {
      "inputs": [],
      "name": "preRegiState",
      "outputs": [
        {
          "internalType": "contract PreRegistrationState",
          "name": "",
          "type": "address"
        }
      ],
      "stateMutability": "view",
      "type": "function"
    },
    {
      "inputs": [],
      "name": "priceOracle",
      "outputs": [
        {
          "internalType": "contract IPriceOracle",
          "name": "",
          "type": "address"
        }
      ],
      "stateMutability": "view",
      "type": "function"
    },
    {
      "inputs": [],
      "name": "publicRegistrationStartTime",
      "outputs": [
        {
          "internalType": "uint256",
          "name": "",
          "type": "uint256"
        }
      ],
      "stateMutability": "view",
      "type": "function"
    },
    {
      "inputs": [],
      "name": "sann",
      "outputs": [
        {
          "internalType": "contract ISANN",
          "name": "",
          "type": "address"
        }
      ],
      "stateMutability": "view",
      "type": "function"
    },
    {
      "inputs": [
        {
          "internalType": "uint8",
          "name": "letter",
          "type": "uint8"
        },
        {
          "internalType": "uint16",
          "name": "rateBps",
          "type": "uint16"
        }
      ],
      "name": "setPreRegiDiscountRateBps",
      "outputs": [],
      "stateMutability": "nonpayable",
      "type": "function"
    },
    {
      "inputs": [
        {
          "internalType": "uint256",
          "name": "_publicRegistrationStartTime",
          "type": "uint256"
        }
      ],
      "name": "setPublicRegistrationStartTime",
      "outputs": [],
      "stateMutability": "nonpayable",
      "type": "function"
    }
  ],
  "bytecode": "0x60a06040523480156200001157600080fd5b50604051620021a8380380620021a883398101604081905262000034916200022d565b600080546001600160a01b03199081166001600160a01b038b811691909117835560808a90526001805483168a8316179055600280548316898316179055600380548316888316179055600480549092169086161790555b82518160ff16101562000196576000838260ff1681518110620000b357620000b362000382565b602002602001015190506127108161ffff161115620001185760405162461bcd60e51b815260206004820152601e60248201527f696e76616c69642070726552656769446973636f756e74526174654270730000604482015260640160405180910390fd5b60ff8216600081815260056020908152604091829020805461ffff191661ffff861690811790915582518d815291820193909352908101919091527fe3d1f707b794bd5924e6453b500039ba267587f55f8945a88def871cad84c6cb9060600160405180910390a150806200018d8162000398565b9150506200008c565b50600681905560805160408051918252602082018390527f7209932ed961cda2151a57a4ad04f2fba1ce7dd5f0ebedc991802aa16dd97a1f910160405180910390a15050505050505050620003c6565b6001600160a01b0381168114620001fc57600080fd5b50565b634e487b7160e01b600052604160045260246000fd5b805161ffff811681146200022857600080fd5b919050565b600080600080600080600080610100898b0312156200024b57600080fd5b88516200025881620001e6565b809850506020808a0151975060408a01516200027481620001e6565b60608b01519097506200028781620001e6565b60808b01519096506200029a81620001e6565b60a08b0151909550620002ad81620001e6565b60c08b01519094506001600160401b0380821115620002cb57600080fd5b818c0191508c601f830112620002e057600080fd5b815181811115620002f557620002f5620001ff565b8060051b604051601f19603f830116810181811085821117156200031d576200031d620001ff565b60405291825284820192508381018501918f8311156200033c57600080fd5b938501935b828510156200036557620003558562000215565b8452938501939285019262000341565b80975050505050505060e089015190509295985092959890939650565b634e487b7160e01b600052603260045260246000fd5b600060ff821660ff8103620003bd57634e487b7160e01b600052601160045260246000fd5b60010192915050565b608051611da3620004056000396000818161022001528181610795015281816108f80152818161096b01528181610c2b0152610cf60152611da36000f3fe608060405234801561001057600080fd5b50600436106101515760003560e01c806380fd9d8d116100cd578063bd03fbb811610081578063d023c79c11610066578063d023c79c146102c6578063d46da387146102d9578063e9c95034146102ec57600080fd5b8063bd03fbb8146102a8578063bda8265f146102b157600080fd5b8063a833bb07116100b2578063a833bb0714610255578063b013c3bf14610268578063b0c0c2641461029f57600080fd5b806380fd9d8d1461015657806393ba731b1461024257600080fd5b8063392130da1161012457806356397c351161010957806356397c35146102085780637998a1c41461021b5780637a989b651461024257600080fd5b8063392130da146101e25780634d24e236146101f557600080fd5b80630b6ca897146101565780632630c12f1461017c578063273310e3146101a7578063347652e3146101ba575b600080fd5b6101696101643660046117af565b6102ff565b6040519081526020015b60405180910390f35b60045461018f906001600160a01b031681565b6040516001600160a01b039091168152602001610173565b60015461018f906001600160a01b031681565b6101cd6101c8366004611850565b610411565b60408051928352602083019190915201610173565b6101cd6101f0366004611850565b61057c565b60025461018f906001600160a01b031681565b60035461018f906001600160a01b031681565b6101697f000000000000000000000000000000000000000000000000000000000000000081565b6101696102503660046117af565b6106f7565b6101cd610263366004611850565b610707565b61028c610276366004611913565b60056020526000908152604090205461ffff1681565b60405161ffff9091168152602001610173565b61016961271081565b61016960065481565b6102c46102bf366004611935565b610784565b005b6102c46102d4366004611973565b61095a565b60005461018f906001600160a01b031681565b6101cd6102fa366004611850565b610c7b565b60008054604080517ff3400419000000000000000000000000000000000000000000000000000000008152905133926001600160a01b03169163f34004199160048083019260209291908290030181865afa158015610362573d6000803e3d6000fd5b505050506040513d601f19601f820116820180604052508101906103869190611997565b6001600160a01b0316146103f65760405162461bcd60e51b815260206004820152602c60248201527f41636365737369626c653a2063616c6c6572206973206e6f742074686520746c60448201526b321031b7b73a3937b63632b960a11b60648201526084015b60405180910390fd5b610404898989898989610ce5565b9998505050505050505050565b600080336001600160a01b031660008054906101000a90046001600160a01b03166001600160a01b031663f34004196040518163ffffffff1660e01b8152600401602060405180830381865afa15801561046f573d6000803e3d6000fd5b505050506040513d601f19601f820116820180604052508101906104939190611997565b6001600160a01b0316146104fe5760405162461bcd60e51b815260206004820152602c60248201527f41636365737369626c653a2063616c6c6572206973206e6f742074686520746c60448201526b321031b7b73a3937b63632b960a11b60648201526084016103ed565b6000831561054357600061051485870187611aa2565b60408101515190915015610541576000816040015180602001905181019061053c9190611b8b565b519250505b505b60006105548d8d8d8d8d8d88610fc7565b91955093509050801561056c5761056c8a828f611040565b5050995099975050505050505050565b600080336001600160a01b031660008054906101000a90046001600160a01b03166001600160a01b031663f34004196040518163ffffffff1660e01b8152600401602060405180830381865afa1580156105da573d6000803e3d6000fd5b505050506040513d601f19601f820116820180604052508101906105fe9190611997565b6001600160a01b0316146106695760405162461bcd60e51b815260206004820152602c60248201527f41636365737369626c653a2063616c6c6572206973206e6f742074686520746c60448201526b321031b7b73a3937b63632b960a11b60648201526084016103ed565b600083156106ae57600061067f85870187611aa2565b604081015151909150156106ac57600081604001518060200190518101906106a79190611b8b565b519250505b505b806106c05760008092509250506106e9565b60006106d08d8d8d8d8d8d6110cb565b9094509250839050801561056c5761056c8a828f611040565b995099975050505050505050565b6000610404898989898989610ce5565b60008080831561074e57600061071f85870187611aa2565b6040810151519091501561074c57600081604001518060200190518101906107479190611b8b565b519250505b505b806107605760008092509250506106e9565b60006107708d8d8d8d8d8d6110cb565b909e909d509b505050505050505050505050565b60005460405162e4decd60e31b81527f0000000000000000000000000000000000000000000000000000000000000000600482018190529133916001600160a01b0390911690630726f66890602401602060405180830381865afa1580156107f0573d6000803e3d6000fd5b505050506040513d601f19601f820116820180604052508101906108149190611997565b6001600160a01b0316146108765760405162461bcd60e51b8152602060048201526024808201527f4f776e61626c653a2063616c6c6572206973206e6f742074686520746c64206f6044820152633bb732b960e11b60648201526084016103ed565b6127108261ffff1611156108cc5760405162461bcd60e51b815260206004820152601e60248201527f696e76616c69642070726552656769446973636f756e7452617465427073000060448201526064016103ed565b60ff8316600081815260056020908152604091829020805461ffff191661ffff871690811790915582517f0000000000000000000000000000000000000000000000000000000000000000815291820193909352908101919091527fe3d1f707b794bd5924e6453b500039ba267587f55f8945a88def871cad84c6cb906060015b60405180910390a1505050565b60005460405162e4decd60e31b81527f0000000000000000000000000000000000000000000000000000000000000000600482018190529133916001600160a01b0390911690630726f66890602401602060405180830381865afa1580156109c6573d6000803e3d6000fd5b505050506040513d601f19601f820116820180604052508101906109ea9190611997565b6001600160a01b031614610a4c5760405162461bcd60e51b8152602060048201526024808201527f4f776e61626c653a2063616c6c6572206973206e6f742074686520746c64206f6044820152633bb732b960e11b60648201526084016103ed565b6006544210610a87576040517f397a82ac00000000000000000000000000000000000000000000000000000000815260040160405180910390fd5b814210610afc5760405162461bcd60e51b815260206004820152603860248201527f6e6577207075626c6963526567697374726174696f6e537461727454696d652060448201527f6d7573742062652067726561746572207468616e206e6f77000000000000000060648201526084016103ed565b600154604080517f18969e3c00000000000000000000000000000000000000000000000000000000815290516000926001600160a01b0316916318969e3c9160048083019260209291908290030181865afa158015610b5f573d6000803e3d6000fd5b505050506040513d601f19601f82011682018060405250810190610b839190611bd5565b9050828110610c205760405162461bcd60e51b815260206004820152604b60248201527f6e6577207075626c6963526567697374726174696f6e537461727454696d652060448201527f6d7573742062652067726561746572207468616e20707265526567697374726160648201527f74696f6e456e6454696d65000000000000000000000000000000000000000000608482015260a4016103ed565b6006839055604080517f00000000000000000000000000000000000000000000000000000000000000008152602081018590527f7209932ed961cda2151a57a4ad04f2fba1ce7dd5f0ebedc991802aa16dd97a1f910161094d565b600080808315610cc2576000610c9385870187611aa2565b60408101515190915015610cc05760008160400151806020019051810190610cbb9190611b8b565b519250505b505b610cd18c8c8c8c8c8c87610fc7565b50909d909c509a5050505050505050505050565b60005460405162e4decd60e31b81527f0000000000000000000000000000000000000000000000000000000000000000600482015282916001600160a01b0386811692911690630726f66890602401602060405180830381865afa158015610d51573d6000803e3d6000fd5b505050506040513d601f19601f82011682018060405250810190610d759190611997565b6001600160a01b031603610e5057600654421015610e50576001546001600160a01b031615610e4857600154604080517fffeaf35f00000000000000000000000000000000000000000000000000000000815290516000926001600160a01b03169163ffeaf35f9160048083019260209291908290030181865afa158015610e01573d6000803e3d6000fd5b505050506040513d601f19601f82011682018060405250810190610e259190611bd5565b9050801580610e3357508042105b15610e42576000915050610fbd565b50610e50565b506000610fbd565b6001546001600160a01b031615610fbd57600160009054906101000a90046001600160a01b03166001600160a01b0316632399bd636040518163ffffffff1660e01b8152600401602060405180830381865afa158015610eb4573d6000803e3d6000fd5b505050506040513d601f19601f82011682018060405250810190610ed89190611bee565b15610fbd576000610f1e87878080601f01602080910402602001604051908101604052809392919081815260200183838082843760009201919091525061120192505050565b905060058160ff161115610f30575060055b60ff811660009081526005602052604081205461ffff1690612710610f558387611c1f565b610f5f9190611c3c565b905063096601808610158015610f845750600654610f8090621baf80611c5e565b4211155b15610fad576064610f96866014611c1f565b610fa09190611c3c565b610faa9082611c5e565b90505b610fb78185611c71565b93505050505b9695505050505050565b6000806000610fda8a8a8a8a8a8a611390565b9093509150828511610ff157508391506000611033565b610ffb8386611c71565b945060008415611019576110138b8b8b8b8b8b6110cb565b90925090505b6110238285611c5e565b935061102f8184611c5e565b9250505b9750975097945050505050565b6003546040517f698f9585000000000000000000000000000000000000000000000000000000008152600481018390526001600160a01b038581166024830152604482018590529091169063698f958590606401600060405180830381600087803b1580156110ae57600080fd5b505af11580156110c2573d6000803e3d6000fd5b50505050505050565b6003546040517f3656eec2000000000000000000000000000000000000000000000000000000008152600481018890526001600160a01b0385811660248301526000928392839290911690633656eec290604401602060405180830381865afa15801561113c573d6000803e3d6000fd5b505050506040513d601f19601f820116820180604052508101906111609190611bd5565b90508381111561117257839250611176565b8092505b82156111f5576002546040516338ad915960e01b8152600481018b9052602481018590526000916001600160a01b0316906338ad915990604401602060405180830381865afa1580156111cd573d6000803e3d6000fd5b505050506040513d601f19601f820116820180604052508101906111f19190611bd5565b9250505b50965096945050505050565b8051600090819081905b8082101561138757600085838151811061122757611227611c84565b01602001516001600160f81b03191690507f80000000000000000000000000000000000000000000000000000000000000008110156112725761126b600184611c5e565b9250611374565b7fe0000000000000000000000000000000000000000000000000000000000000006001600160f81b0319821610156112af5761126b600284611c5e565b7ff0000000000000000000000000000000000000000000000000000000000000006001600160f81b0319821610156112ec5761126b600384611c5e565b7ff8000000000000000000000000000000000000000000000000000000000000006001600160f81b0319821610156113295761126b600484611c5e565b7ffc000000000000000000000000000000000000000000000000000000000000006001600160f81b0319821610156113665761126b600584611c5e565b611371600684611c5e565b92505b508261137f81611c9a565b93505061120b565b50909392505050565b60015460009081906001600160a01b03161561174357600160009054906101000a90046001600160a01b03166001600160a01b0316639efdb7cf6040518163ffffffff1660e01b8152600401602060405180830381865afa1580156113f9573d6000803e3d6000fd5b505050506040513d601f19601f8201168201806040525081019061141d9190611bee565b156117435760008787604051611434929190611cb3565b6040519081900381206001547f96da43b6000000000000000000000000000000000000000000000000000000008352600483018290529092506000916001600160a01b03909116906396da43b690602401600060405180830381865afa1580156114a2573d6000803e3d6000fd5b505050506040513d6000823e601f3d908101601f191682016040526114ca9190810190611cc3565b50915050866001600160a01b0316816001600160a01b031603611740576001546040517f2d3f2b05000000000000000000000000000000000000000000000000000000008152600481018490526001600160a01b0389811660248301526000921690632d3f2b0590604401602060405180830381865afa158015611552573d6000803e3d6000fd5b505050506040513d601f19601f820116820180604052508101906115769190611bd5565b600480546040517f6c01c8740000000000000000000000000000000000000000000000000000000081529182018390529192506000916001600160a01b031690636c01c87490602401602060405180830381865afa1580156115dc573d6000803e3d6000fd5b505050506040513d601f19601f820116820180604052508101906116009190611bd5565b6002546040516338ad915960e01b8152600481018f9052602481018390529192506000916001600160a01b03909116906338ad915990604401602060405180830381865afa158015611656573d6000803e3d6000fd5b505050506040513d601f19601f8201168201806040525081019061167a9190611bd5565b90506116868187611c5e565b95505050506000600160009054906101000a90046001600160a01b03166001600160a01b031663888319d66040518163ffffffff1660e01b8152600401602060405180830381865afa1580156116e0573d6000803e3d6000fd5b505050506040513d601f19601f820116820180604052508101906117049190611bd5565b905080871161171857859450505050611743565b6000876117258884611c1f565b61172f9190611c3c565b905061173b8187611c5e565b955050505b50505b965096945050505050565b60008083601f84011261176057600080fd5b50813567ffffffffffffffff81111561177857600080fd5b60208301915083602082850101111561179057600080fd5b9250929050565b6001600160a01b03811681146117ac57600080fd5b50565b60008060008060008060008060c0898b0312156117cb57600080fd5b88359750602089013567ffffffffffffffff808211156117ea57600080fd5b6117f68c838d0161174e565b909950975060408b0135915061180b82611797565b90955060608a0135945060808a0135935060a08a0135908082111561182f57600080fd5b5061183c8b828c0161174e565b999c989b5096995094979396929594505050565b600080600080600080600080600060e08a8c03121561186e57600080fd5b8935985060208a013567ffffffffffffffff8082111561188d57600080fd5b6118998d838e0161174e565b909a50985060408c013591506118ae82611797565b90965060608b0135955060808b0135945060a08b0135935060c08b013590808211156118d957600080fd5b506118e68c828d0161174e565b915080935050809150509295985092959850929598565b803560ff8116811461190e57600080fd5b919050565b60006020828403121561192557600080fd5b61192e826118fd565b9392505050565b6000806040838503121561194857600080fd5b611951836118fd565b9150602083013561ffff8116811461196857600080fd5b809150509250929050565b60006020828403121561198557600080fd5b5035919050565b805161190e81611797565b6000602082840312156119a957600080fd5b815161192e81611797565b634e487b7160e01b600052604160045260246000fd5b6040516080810167ffffffffffffffff811182821017156119ed576119ed6119b4565b60405290565b604051601f8201601f1916810167ffffffffffffffff81118282101715611a1c57611a1c6119b4565b604052919050565b600067ffffffffffffffff821115611a3e57611a3e6119b4565b50601f01601f191660200190565b600082601f830112611a5d57600080fd5b8135611a70611a6b82611a24565b6119f3565b818152846020838601011115611a8557600080fd5b816020850160208301376000918101602001919091529392505050565b600060208284031215611ab457600080fd5b813567ffffffffffffffff80821115611acc57600080fd5b9083019060808286031215611ae057600080fd5b611ae86119ca565b823582811115611af757600080fd5b611b0387828601611a4c565b825250602083013582811115611b1857600080fd5b611b2487828601611a4c565b602083015250604083013582811115611b3c57600080fd5b611b4887828601611a4c565b604083015250606083013582811115611b6057600080fd5b611b6c87828601611a4c565b60608301525095945050505050565b8051801515811461190e57600080fd5b600060208284031215611b9d57600080fd5b6040516020810181811067ffffffffffffffff82111715611bc057611bc06119b4565b604052611bcc83611b7b565b81529392505050565b600060208284031215611be757600080fd5b5051919050565b600060208284031215611c0057600080fd5b61192e82611b7b565b634e487b7160e01b600052601160045260246000fd5b8082028115828204841417611c3657611c36611c09565b92915050565b600082611c5957634e487b7160e01b600052601260045260246000fd5b500490565b80820180821115611c3657611c36611c09565b81810381811115611c3657611c36611c09565b634e487b7160e01b600052603260045260246000fd5b600060018201611cac57611cac611c09565b5060010190565b8183823760009101908152919050565b600080600060608486031215611cd857600080fd5b835167ffffffffffffffff811115611cef57600080fd5b8401601f81018613611d0057600080fd5b8051611d0e611a6b82611a24565b81815260208881848601011115611d2457600080fd5b60005b83811015611d42578481018201518382018301528101611d27565b506000818484010152819650611d5981890161198c565b95505050505060408401519050925092509256fea26469706673582212202f59c052dc3336343c2286a086274605e1899a16c52d6a78a592d9c1b8d5884c64736f6c63430008120033",
  "linkReferences": {},
  "deployedLinkReferences": {}
}