{
  "_format": "hh-sol-artifact-1",
  "contractName": "TldFactory",
  "sourceName": "contracts/admin/TldFactory.sol",
  "abi": [
    {
      "inputs": [
        {
          "internalType": "contract ISANN",
          "name": "_sann",
          "type": "address"
        }
      ],
      "stateMutability": "nonpayable",
      "type": "constructor"
    },
    {
      "anonymous": false,
      "inputs": [
        {
          "indexed": false,
          "internalType": "uint8",
          "name": "version",
          "type": "uint8"
        }
      ],
      "name": "Initialized",
      "type": "event"
    },
    {
      "anonymous": false,
      "inputs": [
        {
          "indexed": false,
          "internalType": "address",
          "name": "creator",
          "type": "address"
        },
        {
          "indexed": false,
          "internalType": "uint256",
          "name": "chainId",
          "type": "uint256"
        },
        {
          "indexed": false,
          "internalType": "uint256",
          "name": "identifier",
          "type": "uint256"
        },
        {
          "indexed": false,
          "internalType": "string",
          "name": "tld",
          "type": "string"
        },
        {
          "indexed": false,
          "internalType": "address",
          "name": "controller",
          "type": "address"
        },
        {
          "indexed": false,
          "internalType": "address",
          "name": "base",
          "type": "address"
        }
      ],
      "name": "NewDomainService",
      "type": "event"
    },
    {
      "anonymous": false,
      "inputs": [
        {
          "indexed": false,
          "internalType": "address",
          "name": "stateAddr",
          "type": "address"
        },
        {
          "indexed": false,
          "internalType": "address",
          "name": "auctionAddr",
          "type": "address"
        },
        {
          "indexed": false,
          "internalType": "address",
          "name": "owner",
          "type": "address"
        },
        {
          "indexed": false,
          "internalType": "uint256",
          "name": "identifier",
          "type": "uint256"
        }
      ],
      "name": "PreRegistrationCreated",
      "type": "event"
    },
    {
      "anonymous": false,
      "inputs": [
        {
          "indexed": false,
          "internalType": "address",
          "name": "defaultPriceOracle",
          "type": "address"
        }
      ],
      "name": "SetDefaultPriceOracle",
      "type": "event"
    },
    {
      "inputs": [],
      "name": "baseCreator",
      "outputs": [
        {
          "internalType": "contract IBaseCreator",
          "name": "",
          "type": "address"
        }
      ],
      "stateMutability": "view",
      "type": "function"
    },
    {
      "inputs": [
        {
          "internalType": "string",
          "name": "tld",
          "type": "string"
        },
        {
          "internalType": "address",
          "name": "tldOwner",
          "type": "address"
        },
        {
          "components": [
            {
              "components": [
                {
                  "internalType": "uint256",
                  "name": "minDomainLength",
                  "type": "uint256"
                },
                {
                  "internalType": "uint256",
                  "name": "maxDomainLength",
                  "type": "uint256"
                },
                {
                  "internalType": "uint256",
                  "name": "minRegistrationDuration",
                  "type": "uint256"
                },
                {
                  "internalType": "uint256",
                  "name": "minRenewDuration",
                  "type": "uint256"
                },
                {
                  "internalType": "uint256",
                  "name": "mintCap",
                  "type": "uint256"
                }
              ],
              "internalType": "struct TldConfig",
              "name": "config",
              "type": "tuple"
            },
            {
              "internalType": "uint8[]",
              "name": "letters",
              "type": "uint8[]"
            },
            {
              "internalType": "uint64[]",
              "name": "prices",
              "type": "uint64[]"
            },
            {
              "internalType": "bool",
              "name": "enableGiftCard",
              "type": "bool"
            },
            {
              "internalType": "uint256[]",
              "name": "giftCardPrices",
              "type": "uint256[]"
            },
            {
              "internalType": "bool",
              "name": "enableReferral",
              "type": "bool"
            },
            {
              "internalType": "uint256[]",
              "name": "referralLevels",
              "type": "uint256[]"
            },
            {
              "components": [
                {
                  "internalType": "uint256",
                  "name": "minimumReferralCount",
                  "type": "uint256"
                },
                {
                  "internalType": "uint256",
                  "name": "referrerRate",
                  "type": "uint256"
                },
                {
                  "internalType": "uint256",
                  "name": "refereeRate",
                  "type": "uint256"
                },
                {
                  "internalType": "bool",
                  "name": "isValid",
                  "type": "bool"
                }
              ],
              "internalType": "struct ReferralHub.Comission[]",
              "name": "referralComissions",
              "type": "tuple[]"
            },
            {
              "internalType": "bool",
              "name": "enablePreRegistration",
              "type": "bool"
            },
            {
              "components": [
                {
                  "internalType": "bool",
                  "name": "enableAuction",
                  "type": "bool"
                },
                {
                  "internalType": "uint256",
                  "name": "auctionStartTime",
                  "type": "uint256"
                },
                {
                  "internalType": "uint256",
                  "name": "auctionInitialEndTime",
                  "type": "uint256"
                },
                {
                  "internalType": "uint256",
                  "name": "auctionExtendDuration",
                  "type": "uint256"
                },
                {
                  "internalType": "uint256",
                  "name": "auctionRetentionDuration",
                  "type": "uint256"
                },
                {
                  "internalType": "uint256",
                  "name": "auctionMinRegistrationDuration",
                  "type": "uint256"
                },
                {
                  "internalType": "bool",
                  "name": "enableFcfs",
                  "type": "bool"
                },
                {
                  "internalType": "uint256",
                  "name": "fcfsStartTime",
                  "type": "uint256"
                },
                {
                  "internalType": "uint256",
                  "name": "fcfsEndTime",
                  "type": "uint256"
                }
              ],
              "internalType": "struct PreRegistrationUpdateConfig",
              "name": "preRegiConfig",
              "type": "tuple"
            },
            {
              "internalType": "uint16[]",
              "name": "preRegiDiscountRateBps",
              "type": "uint16[]"
            },
            {
              "internalType": "uint256",
              "name": "publicRegistrationStartTime",
              "type": "uint256"
            },
            {
              "internalType": "bool",
              "name": "publicRegistrationPaused",
              "type": "bool"
            },
            {
              "internalType": "string",
              "name": "baseUri",
              "type": "string"
            }
          ],
          "internalType": "struct TldInitData",
          "name": "initData",
          "type": "tuple"
        }
      ],
      "name": "createDomainService",
      "outputs": [
        {
          "internalType": "uint256",
          "name": "identifier",
          "type": "uint256"
        }
      ],
      "stateMutability": "nonpayable",
      "type": "function"
    },
    {
      "inputs": [],
      "name": "defaultPriceOracle",
      "outputs": [
        {
          "internalType": "address",
          "name": "",
          "type": "address"
        }
      ],
      "stateMutability": "view",
      "type": "function"
    },
    {
      "inputs": [],
      "name": "giftCardLedger",
      "outputs": [
        {
          "internalType": "contract GiftCardLedger",
          "name": "",
          "type": "address"
        }
      ],
      "stateMutability": "view",
      "type": "function"
    },
    {
      "inputs": [],
      "name": "giftCardVoucher",
      "outputs": [
        {
          "internalType": "contract GiftCardVoucher",
          "name": "",
          "type": "address"
        }
      ],
      "stateMutability": "view",
      "type": "function"
    },
    {
      "inputs": [
        {
          "internalType": "contract IBaseCreator",
          "name": "_baseCreator",
          "type": "address"
        },
        {
          "internalType": "contract IRegistrarController",
          "name": "_controller",
          "type": "address"
        },
        {
          "internalType": "address",
          "name": "_platformConfig",
          "type": "address"
        },
        {
          "internalType": "address",
          "name": "_priceOracle",
          "type": "address"
        },
        {
          "internalType": "contract GiftCardVoucher",
          "name": "_giftCardVoucher",
          "type": "address"
        },
        {
          "internalType": "contract GiftCardLedger",
          "name": "_giftCardLedger",
          "type": "address"
        },
        {
          "internalType": "contract ReferralHub",
          "name": "_referralHub",
          "type": "address"
        },
        {
          "internalType": "contract IPreRegistrationCreator",
          "name": "_preRegiCreator",
          "type": "address"
        },
        {
          "internalType": "contract PrepaidPlatformFee",
          "name": "_prepaidPlatformFee",
          "type": "address"
        }
      ],
      "name": "initialize",
      "outputs": [],
      "stateMutability": "nonpayable",
      "type": "function"
    },
    {
      "inputs": [],
      "name": "platformConfig",
      "outputs": [
        {
          "internalType": "address",
          "name": "",
          "type": "address"
        }
      ],
      "stateMutability": "view",
      "type": "function"
    },
    {
      "inputs": [],
      "name": "preRegiCreator",
      "outputs": [
        {
          "internalType": "contract IPreRegistrationCreator",
          "name": "",
          "type": "address"
        }
      ],
      "stateMutability": "view",
      "type": "function"
    },
    {
      "inputs": [],
      "name": "prepaidPlatformFee",
      "outputs": [
        {
          "internalType": "contract PrepaidPlatformFee",
          "name": "",
          "type": "address"
        }
      ],
      "stateMutability": "view",
      "type": "function"
    },
    {
      "inputs": [],
      "name": "referralHub",
      "outputs": [
        {
          "internalType": "contract ReferralHub",
          "name": "",
          "type": "address"
        }
      ],
      "stateMutability": "view",
      "type": "function"
    },
    {
      "inputs": [],
      "name": "registrar",
      "outputs": [
        {
          "internalType": "contract IRegistrarController",
          "name": "",
          "type": "address"
        }
      ],
      "stateMutability": "view",
      "type": "function"
    },
    {
      "inputs": [],
      "name": "sann",
      "outputs": [
        {
          "internalType": "contract ISANN",
          "name": "",
          "type": "address"
        }
      ],
      "stateMutability": "view",
      "type": "function"
    },
    {
      "inputs": [
        {
          "internalType": "address",
          "name": "_defaultPriceOracle",
          "type": "address"
        }
      ],
      "name": "setDefaultPriceOracle",
      "outputs": [],
      "stateMutability": "nonpayable",
      "type": "function"
    }
  ],
  "bytecode": "0x608060405234801561001057600080fd5b50604051620057433803806200574383398101604081905261003191610056565b600080546001600160a01b0319166001600160a01b0392909216919091179055610086565b60006020828403121561006857600080fd5b81516001600160a01b038116811461007f57600080fd5b9392505050565b6156ad80620000966000396000f3fe60806040523480156200001157600080fd5b5060043610620000f15760003560e01c8063807e5d471162000097578063a289cf84116200006e578063a289cf8414620001de578063d46da38714620001f2578063e16f84361462000206578063f5e95acb146200021a57600080fd5b8063807e5d4714620001a257806380b6853e14620001b657806381e991cc14620001ca57600080fd5b8063576b3a6411620000cc578063576b3a641462000154578063656bb89614620001685780636dc805e8146200017c57600080fd5b8063116fb34414620000f65780632b20e397146200010f5780634d24e2361462000140575b600080fd5b6200010d6200010736600462001960565b62000231565b005b60045462000123906001600160a01b031681565b6040516001600160a01b0390911681526020015b60405180910390f35b60015462000123906001600160a01b031681565b60035462000123906001600160a01b031681565b60085462000123906001600160a01b031681565b620001936200018d36600462001987565b620003cb565b60405190815260200162000137565b60025462000123906001600160a01b031681565b60065462000123906001600160a01b031681565b60075462000123906001600160a01b031681565b60095462000123906001600160a01b031681565b60005462000123906001600160a01b031681565b60055462000123906001600160a01b031681565b6200010d6200022b36600462001a3f565b62000a84565b6000546040805163cdcd7fb560e01b8152905133926001600160a01b03169163cdcd7fb59160048083019260209291908290030181865afa1580156200027b573d6000803e3d6000fd5b505050506040513d601f19601f82011682018060405250810190620002a1919062001b0e565b6001600160a01b031614620003125760405162461bcd60e51b815260206004820152602c60248201527f41636365737369626c653a2063616c6c6572206973206e6f742074686520706c60448201526b30ba3337b9369030b236b4b760a11b60648201526084015b60405180910390fd5b6001600160a01b0381166200036a5760405162461bcd60e51b815260206004820152601460248201527f696e76616c6964207072696365206f7261636c65000000000000000000000000604482015260640162000309565b6003805473ffffffffffffffffffffffffffffffffffffffff19166001600160a01b0383169081179091556040519081527f3e44d8338b9402ad16cf357c6ff64e5ec68c5c0fd3e5d9ee3beb921e620e5c449060200160405180910390a150565b600080546040805163cdcd7fb560e01b8152905133926001600160a01b03169163cdcd7fb59160048083019260209291908290030181865afa15801562000416573d6000803e3d6000fd5b505050506040513d601f19601f820116820180604052508101906200043c919062001b0e565b6001600160a01b031614620004a95760405162461bcd60e51b815260206004820152602c60248201527f41636365737369626c653a2063616c6c6572206973206e6f742074686520706c60448201526b30ba3337b9369030b236b4b760a11b606482015260840162000309565b6000546040517f1e038cc80000000000000000000000000000000000000000000000000000000081526001600160a01b0390911690631e038cc890620004f89088908890889060040162001b57565b602060405180830381865afa15801562000516573d6000803e3d6000fd5b505050506040513d601f19601f820116820180604052508101906200053c919062001b86565b60025460008054604080517f7b103999000000000000000000000000000000000000000000000000000000008152905194955091936001600160a01b039384169363c0985c3293921691637b1039999160048083019260209291908290030181865afa158015620005b1573d6000803e3d6000fd5b505050506040513d601f19601f82011682018060405250810190620005d7919062001b0e565b848989620005ea6103208a018a62001ba0565b6040518763ffffffff1660e01b81526004016200060d9695949392919062001bf1565b6020604051808303816000875af11580156200062d573d6000803e3d6000fd5b505050506040513d601f19601f8201168201806040525081019062000653919062001b0e565b6000546040517fa334815a0000000000000000000000000000000000000000000000000000000081529192506001600160a01b03169063a334815a90620006a7908990899087903090889060040162001c3e565b600060405180830381600087803b158015620006c257600080fd5b505af1158015620006d7573d6000803e3d6000fd5b505060048054604080517fc048cb200000000000000000000000000000000000000000000000000000000081529283018790528735602484015260208801356044840152870135606483015260608701356084830152608087013560a48301526001600160a01b0316925063c048cb20915060c401600060405180830381600087803b1580156200076757600080fd5b505af11580156200077c573d6000803e3d6000fd5b50505050620007ac82848060a0019062000797919062001c7b565b620007a660c088018862001c7b565b62000de0565b6000620007c26101a08501610180860162001cde565b15620007eb57600954620007e890849087906001600160a01b03166101a0880162001046565b90505b60006001600160a01b0382161515806200081657506000620008126102c087018762001c7b565b9050115b806200082757506000856102e00135115b1562000852576200084f8483620008436102c089018962001c7b565b896102e0013562001175565b90505b6000856102e001351180620008765750620008766103208601610300870162001cde565b806200088a57506001600160a01b03821615155b15620008b657620008b684620008a96103208801610300890162001cde565b876102e0013585620014b5565b620008c9610100860160e0870162001cde565b15620008ea57620008ea84620008e461010088018862001c7b565b62001647565b620008fe6101408601610120870162001cde565b156200092f576200092f846200091961014088018862001c7b565b620009296101608a018a62001cfc565b6200170a565b6000546040517f4376c801000000000000000000000000000000000000000000000000000000008152600481018690526001600160a01b03888116602483015290911690634376c80190604401600060405180830381600087803b1580156200099757600080fd5b505af1158015620009ac573d6000803e3d6000fd5b505050507f6ddbb1a3a3d0722a5299698ddc6574ba92e317460539cde58adbf3b63c511c3d8660008054906101000a90046001600160a01b03166001600160a01b0316639a8a05926040518163ffffffff1660e01b8152600401602060405180830381865afa15801562000a24573d6000803e3d6000fd5b505050506040513d601f19601f8201168201806040525081019062000a4a919062001b86565b60045460405162000a7193929189918e918e916001600160a01b03909116908b9062001d49565b60405180910390a1505050949350505050565b600054600160a81b900460ff161580801562000aad57506000546001600160a01b90910460ff16105b8062000ad05750303b15801562000ad05750600054600160a01b900460ff166001145b62000b445760405162461bcd60e51b815260206004820152602e60248201527f496e697469616c697a61626c653a20636f6e747261637420697320616c72656160448201527f647920696e697469616c697a6564000000000000000000000000000000000000606482015260840162000309565b600080547fffffffffffffffffffffff00ffffffffffffffffffffffffffffffffffffffff16600160a01b179055801562000b8d576000805460ff60a81b1916600160a81b1790555b6000546040805163cdcd7fb560e01b8152905133926001600160a01b03169163cdcd7fb59160048083019260209291908290030181865afa15801562000bd7573d6000803e3d6000fd5b505050506040513d601f19601f8201168201806040525081019062000bfd919062001b0e565b6001600160a01b03161462000c6a5760405162461bcd60e51b815260206004820152602c60248201527f41636365737369626c653a2063616c6c6572206973206e6f742074686520706c60448201526b30ba3337b9369030b236b4b760a11b606482015260840162000309565b6001600160a01b03871662000cc25760405162461bcd60e51b815260206004820152601460248201527f696e76616c6964207072696365206f7261636c65000000000000000000000000604482015260640162000309565b6001805473ffffffffffffffffffffffffffffffffffffffff199081166001600160a01b038b8116919091179092556002805482168d84161790556003805482168a84169081179091556004805483168d85161790556005805483168785161790556006805483168a8516179055600780548316898516179055600880548316888516179055600980549092169285169290921790556040519081527f3e44d8338b9402ad16cf357c6ff64e5ec68c5c0fd3e5d9ee3beb921e620e5c449060200160405180910390a1801562000dd4576000805460ff60a81b19169055604051600181527f7f26b83ff96e1f2b6a682f133852f6798a09c465da95921460cefb38474024989060200160405180910390a15b50505050505050505050565b82811462000e575760405162461bcd60e51b815260206004820152602860248201527f6c656e677468206f66206c65747465727320616e6420707269636573206e6f7460448201527f206d617463686564000000000000000000000000000000000000000000000000606482015260840162000309565b600583111562000eaa5760405162461bcd60e51b815260206004820152601460248201527f746f6f206d616e792070726963652072756c6573000000000000000000000000604482015260640162000309565b600583101562000f2e576003546040517fcd1e520f000000000000000000000000000000000000000000000000000000008152600481018790526001600160a01b039091169063cd1e520f90602401600060405180830381600087803b15801562000f1457600080fd5b505af115801562000f29573d6000803e3d6000fd5b505050505b60005b838110156200103e576003546001600160a01b031663d1d0ee108787878581811062000f615762000f6162001d97565b905060200201602081019062000f78919062001dad565b86868681811062000f8d5762000f8d62001d97565b905060200201602081019062000fa4919062001dd2565b6040517fffffffff0000000000000000000000000000000000000000000000000000000060e086901b168152600481019390935260ff909116602483015267ffffffffffffffff166044820152606401600060405180830381600087803b1580156200100f57600080fd5b505af115801562001024573d6000803e3d6000fd5b505050508080620010359062001dfe565b91505062000f31565b505050505050565b60055460008054600480546001546040517f5053dcfd0000000000000000000000000000000000000000000000000000000081529495869586956001600160a01b0392831695635053dcfd95620010b395928516948f948f949282169392909116918e918e910162001e26565b60408051808303816000875af1158015620010d2573d6000803e3d6000fd5b505050506040513d601f19601f82011682018060405250810190620010f8919062001edd565b90925090506001600160a01b038116156200116b5760405163a7fc7a0760e01b81526001600160a01b03828116600483015283169063a7fc7a0790602401600060405180830381600087803b1580156200115157600080fd5b505af115801562001166573d6000803e3d6000fd5b505050505b5095945050505050565b600080866040516020016200118c91815260200190565b60408051601f1981840301815290829052805160209091012060008054600154600754600354949650929486946001600160a01b03938416948e948e948116939181169216908d908d908d90620011e3906200192b565b620011f79998979695949392919062001f1c565b8190604051809103906000f590508015801562001218573d6000803e3d6000fd5b50600480546040517fe944463c0000000000000000000000000000000000000000000000000000000081529293506001600160a01b03169163e944463c9162001277918c918691019182526001600160a01b0316602082015260400190565b600060405180830381600087803b1580156200129257600080fd5b505af1158015620012a7573d6000803e3d6000fd5b5050600480546040517fd2bc8adc0000000000000000000000000000000000000000000000000000000081529182018c90526001600160a01b03858116602484015216925063d2bc8adc9150604401600060405180830381600087803b1580156200131157600080fd5b505af115801562001326573d6000803e3d6000fd5b5050600480546040517fb34de3e70000000000000000000000000000000000000000000000000000000081529182018c90526001600160a01b03858116602484015216925063b34de3e79150604401600060405180830381600087803b1580156200139057600080fd5b505af1158015620013a5573d6000803e3d6000fd5b5050600480546040517f669ce5cd0000000000000000000000000000000000000000000000000000000081529182018c90526001600160a01b03858116602484015216925063669ce5cd9150604401600060405180830381600087803b1580156200140f57600080fd5b505af115801562001424573d6000803e3d6000fd5b50506007546040517f88a1625b000000000000000000000000000000000000000000000000000000008152600481018c90526001600160a01b03858116602483015290911692506388a1625b9150604401600060405180830381600087803b1580156200149057600080fd5b505af1158015620014a5573d6000803e3d6000fd5b50929a9950505050505050505050565b600084604051602001620014cb91815260200190565b60405160208183030381529060405280519060200120905060008160008054906101000a90046001600160a01b0316878587896040516200150c9062001939565b6001600160a01b03958616815260208101949094529390911660408301526060820152901515608082015260a0018190604051809103906000f59050801580156200155b573d6000803e3d6000fd5b5090506001600160a01b03831615620015cc5760405163a7fc7a0760e01b81526001600160a01b03828116600483015284169063a7fc7a0790602401600060405180830381600087803b158015620015b257600080fd5b505af1158015620015c7573d6000803e3d6000fd5b505050505b600480546040517fe6bc7ea20000000000000000000000000000000000000000000000000000000081529182018890526001600160a01b038381166024840152169063e6bc7ea290604401600060405180830381600087803b1580156200163257600080fd5b505af115801562000dd4573d6000803e3d6000fd5b60005b8181101562001704576006546001600160a01b03166358198158858585858181106200167a576200167a62001d97565b905060200201356040518363ffffffff1660e01b8152600401620016a8929190918252602082015260400190565b6020604051808303816000875af1158015620016c8573d6000803e3d6000fd5b505050506040513d601f19601f82011682018060405250810190620016ee919062001b86565b5080620016fb8162001dfe565b9150506200164a565b50505050565b828114620017815760405162461bcd60e51b815260206004820152602b60248201527f6c656e677468206f66206c6576656c7320616e6420636f6d697373696f6e732060448201527f6e6f74206d617463686564000000000000000000000000000000000000000000606482015260840162000309565b60005b83811015620018a1576008546001600160a01b0316636b2d538e87878785818110620017b457620017b462001d97565b90506020020135868686818110620017d057620017d062001d97565b90506080020160000135878787818110620017ef57620017ef62001d97565b905060800201602001358888888181106200180e576200180e62001d97565b905060800201604001356040518663ffffffff1660e01b815260040162001857959493929190948552602085019390935260408401919091526060830152608082015260a00190565b600060405180830381600087803b1580156200187257600080fd5b505af115801562001887573d6000803e3d6000fd5b505050508080620018989062001dfe565b91505062001784565b50600480546008546040517f076730c70000000000000000000000000000000000000000000000000000000081529283018890526001600160a01b039081166024840152169063076730c790604401600060405180830381600087803b1580156200190b57600080fd5b505af115801562001920573d6000803e3d6000fd5b505050505050505050565b6121a88062001fbb83390190565b611515806200416383390190565b6001600160a01b03811681146200195d57600080fd5b50565b6000602082840312156200197357600080fd5b8135620019808162001947565b9392505050565b600080600080606085870312156200199e57600080fd5b843567ffffffffffffffff80821115620019b757600080fd5b818701915087601f830112620019cc57600080fd5b813581811115620019dc57600080fd5b886020828501011115620019ef57600080fd5b602092830196509450908601359062001a088262001947565b9092506040860135908082111562001a1f57600080fd5b508501610340818803121562001a3457600080fd5b939692955090935050565b60008060008060008060008060006101208a8c03121562001a5f57600080fd5b893562001a6c8162001947565b985060208a013562001a7e8162001947565b975060408a013562001a908162001947565b965060608a013562001aa28162001947565b955060808a013562001ab48162001947565b945060a08a013562001ac68162001947565b935060c08a013562001ad88162001947565b925060e08a013562001aea8162001947565b91506101008a013562001afd8162001947565b809150509295985092959850929598565b60006020828403121562001b2157600080fd5b8151620019808162001947565b81835281816020850137506000828201602090810191909152601f909101601f19169091010190565b60408152600062001b6d60408301858762001b2e565b90506001600160a01b0383166020830152949350505050565b60006020828403121562001b9957600080fd5b5051919050565b6000808335601e1984360301811262001bb857600080fd5b83018035915067ffffffffffffffff82111562001bd457600080fd5b60200191503681900382131562001bea57600080fd5b9250929050565b6001600160a01b038716815285602082015260806040820152600062001c1c60808301868862001b2e565b828103606084015262001c3181858762001b2e565b9998505050505050505050565b60808152600062001c5460808301878962001b2e565b6020830195909552506001600160a01b039283166040820152911660609091015292915050565b6000808335601e1984360301811262001c9357600080fd5b83018035915067ffffffffffffffff82111562001caf57600080fd5b6020019150600581901b360382131562001bea57600080fd5b8035801515811462001cd957600080fd5b919050565b60006020828403121562001cf157600080fd5b620019808262001cc8565b6000808335601e1984360301811262001d1457600080fd5b83018035915067ffffffffffffffff82111562001d3057600080fd5b6020019150600781901b360382131562001bea57600080fd5b60006001600160a01b03808a16835288602084015287604084015260c0606084015262001d7b60c08401878962001b2e565b94811660808401529290921660a0909101525095945050505050565b634e487b7160e01b600052603260045260246000fd5b60006020828403121562001dc057600080fd5b813560ff811681146200198057600080fd5b60006020828403121562001de557600080fd5b813567ffffffffffffffff811681146200198057600080fd5b60006001820162001e1f57634e487b7160e01b600052601160045260246000fd5b5060010190565b6001600160a01b03888116825260208201889052868116604083015285811660608301528481166080830152831660a08201526101e0810162001e698362001cc8565b151560c0830152602083013560e08301526101006040840135818401526060840135610120840152608084013561014084015260a084013561016084015262001eb560c0850162001cc8565b151561018084015260e08401356101a0840152909201356101c0909101529695505050505050565b6000806040838503121562001ef157600080fd5b825162001efe8162001947565b602084015190925062001f118162001947565b809150509250929050565b6001600160a01b038a8116825260208083018b905289821660408401528882166060840152878216608084015290861660a083015261010060c08301819052820184905260009061012083019086908390815b8881101562001f9f57833561ffff811680821462001f8b578485fd5b865250938101939281019260010162001f6f565b5050505060e09290920192909252999850505050505050505056fe60a06040523480156200001157600080fd5b50604051620021a8380380620021a883398101604081905262000034916200022d565b600080546001600160a01b03199081166001600160a01b038b811691909117835560808a90526001805483168a8316179055600280548316898316179055600380548316888316179055600480549092169086161790555b82518160ff16101562000196576000838260ff1681518110620000b357620000b362000382565b602002602001015190506127108161ffff161115620001185760405162461bcd60e51b815260206004820152601e60248201527f696e76616c69642070726552656769446973636f756e74526174654270730000604482015260640160405180910390fd5b60ff8216600081815260056020908152604091829020805461ffff191661ffff861690811790915582518d815291820193909352908101919091527fe3d1f707b794bd5924e6453b500039ba267587f55f8945a88def871cad84c6cb9060600160405180910390a150806200018d8162000398565b9150506200008c565b50600681905560805160408051918252602082018390527f7209932ed961cda2151a57a4ad04f2fba1ce7dd5f0ebedc991802aa16dd97a1f910160405180910390a15050505050505050620003c6565b6001600160a01b0381168114620001fc57600080fd5b50565b634e487b7160e01b600052604160045260246000fd5b805161ffff811681146200022857600080fd5b919050565b600080600080600080600080610100898b0312156200024b57600080fd5b88516200025881620001e6565b809850506020808a0151975060408a01516200027481620001e6565b60608b01519097506200028781620001e6565b60808b01519096506200029a81620001e6565b60a08b0151909550620002ad81620001e6565b60c08b01519094506001600160401b0380821115620002cb57600080fd5b818c0191508c601f830112620002e057600080fd5b815181811115620002f557620002f5620001ff565b8060051b604051601f19603f830116810181811085821117156200031d576200031d620001ff565b60405291825284820192508381018501918f8311156200033c57600080fd5b938501935b828510156200036557620003558562000215565b8452938501939285019262000341565b80975050505050505060e089015190509295985092959890939650565b634e487b7160e01b600052603260045260246000fd5b600060ff821660ff8103620003bd57634e487b7160e01b600052601160045260246000fd5b60010192915050565b608051611da3620004056000396000818161022001528181610795015281816108f80152818161096b01528181610c2b0152610cf60152611da36000f3fe608060405234801561001057600080fd5b50600436106101515760003560e01c806380fd9d8d116100cd578063bd03fbb811610081578063d023c79c11610066578063d023c79c146102c6578063d46da387146102d9578063e9c95034146102ec57600080fd5b8063bd03fbb8146102a8578063bda8265f146102b157600080fd5b8063a833bb07116100b2578063a833bb0714610255578063b013c3bf14610268578063b0c0c2641461029f57600080fd5b806380fd9d8d1461015657806393ba731b1461024257600080fd5b8063392130da1161012457806356397c351161010957806356397c35146102085780637998a1c41461021b5780637a989b651461024257600080fd5b8063392130da146101e25780634d24e236146101f557600080fd5b80630b6ca897146101565780632630c12f1461017c578063273310e3146101a7578063347652e3146101ba575b600080fd5b6101696101643660046117af565b6102ff565b6040519081526020015b60405180910390f35b60045461018f906001600160a01b031681565b6040516001600160a01b039091168152602001610173565b60015461018f906001600160a01b031681565b6101cd6101c8366004611850565b610411565b60408051928352602083019190915201610173565b6101cd6101f0366004611850565b61057c565b60025461018f906001600160a01b031681565b60035461018f906001600160a01b031681565b6101697f000000000000000000000000000000000000000000000000000000000000000081565b6101696102503660046117af565b6106f7565b6101cd610263366004611850565b610707565b61028c610276366004611913565b60056020526000908152604090205461ffff1681565b60405161ffff9091168152602001610173565b61016961271081565b61016960065481565b6102c46102bf366004611935565b610784565b005b6102c46102d4366004611973565b61095a565b60005461018f906001600160a01b031681565b6101cd6102fa366004611850565b610c7b565b60008054604080517ff3400419000000000000000000000000000000000000000000000000000000008152905133926001600160a01b03169163f34004199160048083019260209291908290030181865afa158015610362573d6000803e3d6000fd5b505050506040513d601f19601f820116820180604052508101906103869190611997565b6001600160a01b0316146103f65760405162461bcd60e51b815260206004820152602c60248201527f41636365737369626c653a2063616c6c6572206973206e6f742074686520746c60448201526b321031b7b73a3937b63632b960a11b60648201526084015b60405180910390fd5b610404898989898989610ce5565b9998505050505050505050565b600080336001600160a01b031660008054906101000a90046001600160a01b03166001600160a01b031663f34004196040518163ffffffff1660e01b8152600401602060405180830381865afa15801561046f573d6000803e3d6000fd5b505050506040513d601f19601f820116820180604052508101906104939190611997565b6001600160a01b0316146104fe5760405162461bcd60e51b815260206004820152602c60248201527f41636365737369626c653a2063616c6c6572206973206e6f742074686520746c60448201526b321031b7b73a3937b63632b960a11b60648201526084016103ed565b6000831561054357600061051485870187611aa2565b60408101515190915015610541576000816040015180602001905181019061053c9190611b8b565b519250505b505b60006105548d8d8d8d8d8d88610fc7565b91955093509050801561056c5761056c8a828f611040565b5050995099975050505050505050565b600080336001600160a01b031660008054906101000a90046001600160a01b03166001600160a01b031663f34004196040518163ffffffff1660e01b8152600401602060405180830381865afa1580156105da573d6000803e3d6000fd5b505050506040513d601f19601f820116820180604052508101906105fe9190611997565b6001600160a01b0316146106695760405162461bcd60e51b815260206004820152602c60248201527f41636365737369626c653a2063616c6c6572206973206e6f742074686520746c60448201526b321031b7b73a3937b63632b960a11b60648201526084016103ed565b600083156106ae57600061067f85870187611aa2565b604081015151909150156106ac57600081604001518060200190518101906106a79190611b8b565b519250505b505b806106c05760008092509250506106e9565b60006106d08d8d8d8d8d8d6110cb565b9094509250839050801561056c5761056c8a828f611040565b995099975050505050505050565b6000610404898989898989610ce5565b60008080831561074e57600061071f85870187611aa2565b6040810151519091501561074c57600081604001518060200190518101906107479190611b8b565b519250505b505b806107605760008092509250506106e9565b60006107708d8d8d8d8d8d6110cb565b909e909d509b505050505050505050505050565b60005460405162e4decd60e31b81527f0000000000000000000000000000000000000000000000000000000000000000600482018190529133916001600160a01b0390911690630726f66890602401602060405180830381865afa1580156107f0573d6000803e3d6000fd5b505050506040513d601f19601f820116820180604052508101906108149190611997565b6001600160a01b0316146108765760405162461bcd60e51b8152602060048201526024808201527f4f776e61626c653a2063616c6c6572206973206e6f742074686520746c64206f6044820152633bb732b960e11b60648201526084016103ed565b6127108261ffff1611156108cc5760405162461bcd60e51b815260206004820152601e60248201527f696e76616c69642070726552656769446973636f756e7452617465427073000060448201526064016103ed565b60ff8316600081815260056020908152604091829020805461ffff191661ffff871690811790915582517f0000000000000000000000000000000000000000000000000000000000000000815291820193909352908101919091527fe3d1f707b794bd5924e6453b500039ba267587f55f8945a88def871cad84c6cb906060015b60405180910390a1505050565b60005460405162e4decd60e31b81527f0000000000000000000000000000000000000000000000000000000000000000600482018190529133916001600160a01b0390911690630726f66890602401602060405180830381865afa1580156109c6573d6000803e3d6000fd5b505050506040513d601f19601f820116820180604052508101906109ea9190611997565b6001600160a01b031614610a4c5760405162461bcd60e51b8152602060048201526024808201527f4f776e61626c653a2063616c6c6572206973206e6f742074686520746c64206f6044820152633bb732b960e11b60648201526084016103ed565b6006544210610a87576040517f397a82ac00000000000000000000000000000000000000000000000000000000815260040160405180910390fd5b814210610afc5760405162461bcd60e51b815260206004820152603860248201527f6e6577207075626c6963526567697374726174696f6e537461727454696d652060448201527f6d7573742062652067726561746572207468616e206e6f77000000000000000060648201526084016103ed565b600154604080517f18969e3c00000000000000000000000000000000000000000000000000000000815290516000926001600160a01b0316916318969e3c9160048083019260209291908290030181865afa158015610b5f573d6000803e3d6000fd5b505050506040513d601f19601f82011682018060405250810190610b839190611bd5565b9050828110610c205760405162461bcd60e51b815260206004820152604b60248201527f6e6577207075626c6963526567697374726174696f6e537461727454696d652060448201527f6d7573742062652067726561746572207468616e20707265526567697374726160648201527f74696f6e456e6454696d65000000000000000000000000000000000000000000608482015260a4016103ed565b6006839055604080517f00000000000000000000000000000000000000000000000000000000000000008152602081018590527f7209932ed961cda2151a57a4ad04f2fba1ce7dd5f0ebedc991802aa16dd97a1f910161094d565b600080808315610cc2576000610c9385870187611aa2565b60408101515190915015610cc05760008160400151806020019051810190610cbb9190611b8b565b519250505b505b610cd18c8c8c8c8c8c87610fc7565b50909d909c509a5050505050505050505050565b60005460405162e4decd60e31b81527f0000000000000000000000000000000000000000000000000000000000000000600482015282916001600160a01b0386811692911690630726f66890602401602060405180830381865afa158015610d51573d6000803e3d6000fd5b505050506040513d601f19601f82011682018060405250810190610d759190611997565b6001600160a01b031603610e5057600654421015610e50576001546001600160a01b031615610e4857600154604080517fffeaf35f00000000000000000000000000000000000000000000000000000000815290516000926001600160a01b03169163ffeaf35f9160048083019260209291908290030181865afa158015610e01573d6000803e3d6000fd5b505050506040513d601f19601f82011682018060405250810190610e259190611bd5565b9050801580610e3357508042105b15610e42576000915050610fbd565b50610e50565b506000610fbd565b6001546001600160a01b031615610fbd57600160009054906101000a90046001600160a01b03166001600160a01b0316632399bd636040518163ffffffff1660e01b8152600401602060405180830381865afa158015610eb4573d6000803e3d6000fd5b505050506040513d601f19601f82011682018060405250810190610ed89190611bee565b15610fbd576000610f1e87878080601f01602080910402602001604051908101604052809392919081815260200183838082843760009201919091525061120192505050565b905060058160ff161115610f30575060055b60ff811660009081526005602052604081205461ffff1690612710610f558387611c1f565b610f5f9190611c3c565b905063096601808610158015610f845750600654610f8090621baf80611c5e565b4211155b15610fad576064610f96866014611c1f565b610fa09190611c3c565b610faa9082611c5e565b90505b610fb78185611c71565b93505050505b9695505050505050565b6000806000610fda8a8a8a8a8a8a611390565b9093509150828511610ff157508391506000611033565b610ffb8386611c71565b945060008415611019576110138b8b8b8b8b8b6110cb565b90925090505b6110238285611c5e565b935061102f8184611c5e565b9250505b9750975097945050505050565b6003546040517f698f9585000000000000000000000000000000000000000000000000000000008152600481018390526001600160a01b038581166024830152604482018590529091169063698f958590606401600060405180830381600087803b1580156110ae57600080fd5b505af11580156110c2573d6000803e3d6000fd5b50505050505050565b6003546040517f3656eec2000000000000000000000000000000000000000000000000000000008152600481018890526001600160a01b0385811660248301526000928392839290911690633656eec290604401602060405180830381865afa15801561113c573d6000803e3d6000fd5b505050506040513d601f19601f820116820180604052508101906111609190611bd5565b90508381111561117257839250611176565b8092505b82156111f5576002546040516338ad915960e01b8152600481018b9052602481018590526000916001600160a01b0316906338ad915990604401602060405180830381865afa1580156111cd573d6000803e3d6000fd5b505050506040513d601f19601f820116820180604052508101906111f19190611bd5565b9250505b50965096945050505050565b8051600090819081905b8082101561138757600085838151811061122757611227611c84565b01602001516001600160f81b03191690507f80000000000000000000000000000000000000000000000000000000000000008110156112725761126b600184611c5e565b9250611374565b7fe0000000000000000000000000000000000000000000000000000000000000006001600160f81b0319821610156112af5761126b600284611c5e565b7ff0000000000000000000000000000000000000000000000000000000000000006001600160f81b0319821610156112ec5761126b600384611c5e565b7ff8000000000000000000000000000000000000000000000000000000000000006001600160f81b0319821610156113295761126b600484611c5e565b7ffc000000000000000000000000000000000000000000000000000000000000006001600160f81b0319821610156113665761126b600584611c5e565b611371600684611c5e565b92505b508261137f81611c9a565b93505061120b565b50909392505050565b60015460009081906001600160a01b03161561174357600160009054906101000a90046001600160a01b03166001600160a01b0316639efdb7cf6040518163ffffffff1660e01b8152600401602060405180830381865afa1580156113f9573d6000803e3d6000fd5b505050506040513d601f19601f8201168201806040525081019061141d9190611bee565b156117435760008787604051611434929190611cb3565b6040519081900381206001547f96da43b6000000000000000000000000000000000000000000000000000000008352600483018290529092506000916001600160a01b03909116906396da43b690602401600060405180830381865afa1580156114a2573d6000803e3d6000fd5b505050506040513d6000823e601f3d908101601f191682016040526114ca9190810190611cc3565b50915050866001600160a01b0316816001600160a01b031603611740576001546040517f2d3f2b05000000000000000000000000000000000000000000000000000000008152600481018490526001600160a01b0389811660248301526000921690632d3f2b0590604401602060405180830381865afa158015611552573d6000803e3d6000fd5b505050506040513d601f19601f820116820180604052508101906115769190611bd5565b600480546040517f6c01c8740000000000000000000000000000000000000000000000000000000081529182018390529192506000916001600160a01b031690636c01c87490602401602060405180830381865afa1580156115dc573d6000803e3d6000fd5b505050506040513d601f19601f820116820180604052508101906116009190611bd5565b6002546040516338ad915960e01b8152600481018f9052602481018390529192506000916001600160a01b03909116906338ad915990604401602060405180830381865afa158015611656573d6000803e3d6000fd5b505050506040513d601f19601f8201168201806040525081019061167a9190611bd5565b90506116868187611c5e565b95505050506000600160009054906101000a90046001600160a01b03166001600160a01b031663888319d66040518163ffffffff1660e01b8152600401602060405180830381865afa1580156116e0573d6000803e3d6000fd5b505050506040513d601f19601f820116820180604052508101906117049190611bd5565b905080871161171857859450505050611743565b6000876117258884611c1f565b61172f9190611c3c565b905061173b8187611c5e565b955050505b50505b965096945050505050565b60008083601f84011261176057600080fd5b50813567ffffffffffffffff81111561177857600080fd5b60208301915083602082850101111561179057600080fd5b9250929050565b6001600160a01b03811681146117ac57600080fd5b50565b60008060008060008060008060c0898b0312156117cb57600080fd5b88359750602089013567ffffffffffffffff808211156117ea57600080fd5b6117f68c838d0161174e565b909950975060408b0135915061180b82611797565b90955060608a0135945060808a0135935060a08a0135908082111561182f57600080fd5b5061183c8b828c0161174e565b999c989b5096995094979396929594505050565b600080600080600080600080600060e08a8c03121561186e57600080fd5b8935985060208a013567ffffffffffffffff8082111561188d57600080fd5b6118998d838e0161174e565b909a50985060408c013591506118ae82611797565b90965060608b0135955060808b0135945060a08b0135935060c08b013590808211156118d957600080fd5b506118e68c828d0161174e565b915080935050809150509295985092959850929598565b803560ff8116811461190e57600080fd5b919050565b60006020828403121561192557600080fd5b61192e826118fd565b9392505050565b6000806040838503121561194857600080fd5b611951836118fd565b9150602083013561ffff8116811461196857600080fd5b809150509250929050565b60006020828403121561198557600080fd5b5035919050565b805161190e81611797565b6000602082840312156119a957600080fd5b815161192e81611797565b634e487b7160e01b600052604160045260246000fd5b6040516080810167ffffffffffffffff811182821017156119ed576119ed6119b4565b60405290565b604051601f8201601f1916810167ffffffffffffffff81118282101715611a1c57611a1c6119b4565b604052919050565b600067ffffffffffffffff821115611a3e57611a3e6119b4565b50601f01601f191660200190565b600082601f830112611a5d57600080fd5b8135611a70611a6b82611a24565b6119f3565b818152846020838601011115611a8557600080fd5b816020850160208301376000918101602001919091529392505050565b600060208284031215611ab457600080fd5b813567ffffffffffffffff80821115611acc57600080fd5b9083019060808286031215611ae057600080fd5b611ae86119ca565b823582811115611af757600080fd5b611b0387828601611a4c565b825250602083013582811115611b1857600080fd5b611b2487828601611a4c565b602083015250604083013582811115611b3c57600080fd5b611b4887828601611a4c565b604083015250606083013582811115611b6057600080fd5b611b6c87828601611a4c565b60608301525095945050505050565b8051801515811461190e57600080fd5b600060208284031215611b9d57600080fd5b6040516020810181811067ffffffffffffffff82111715611bc057611bc06119b4565b604052611bcc83611b7b565b81529392505050565b600060208284031215611be757600080fd5b5051919050565b600060208284031215611c0057600080fd5b61192e82611b7b565b634e487b7160e01b600052601160045260246000fd5b8082028115828204841417611c3657611c36611c09565b92915050565b600082611c5957634e487b7160e01b600052601260045260246000fd5b500490565b80820180821115611c3657611c36611c09565b81810381811115611c3657611c36611c09565b634e487b7160e01b600052603260045260246000fd5b600060018201611cac57611cac611c09565b5060010190565b8183823760009101908152919050565b600080600060608486031215611cd857600080fd5b835167ffffffffffffffff811115611cef57600080fd5b8401601f81018613611d0057600080fd5b8051611d0e611a6b82611a24565b81815260208881848601011115611d2457600080fd5b60005b83811015611d42578481018201518382018301528101611d27565b506000818484010152819650611d5981890161198c565b95505050505060408401519050925092509256fea26469706673582212202f59c052dc3336343c2286a086274605e1899a16c52d6a78a592d9c1b8d5884c64736f6c6343000812003360a06040523480156200001157600080fd5b50604051620015153803806200151583398101604081905262000034916200023d565b600080546001600160a01b0319166001600160a01b03878116919091178255608086905260028054610100600160a81b0319166101008784168102919091179182905590041615620000fd57600260019054906101000a90046001600160a01b03166001600160a01b03166318969e3c6040518163ffffffff1660e01b8152600401602060405180830381865afa158015620000d4573d6000803e3d6000fd5b505050506040513d601f19601f82011682018060405250810190620000fa9190620002a9565b90505b828111156200018c5760405162461bcd60e51b815260206004820152604b60248201527f6e6577207075626c6963526567697374726174696f6e537461727454696d652060448201527f6d7573742062652067726561746572207468616e20707265526567697374726160648201526a74696f6e456e6454696d6560a81b608482015260a40160405180910390fd5b60018390556002805460ff191683151517905560805160408051918252602082018590527f7209932ed961cda2151a57a4ad04f2fba1ce7dd5f0ebedc991802aa16dd97a1f910160405180910390a16080516040805191825283151560208301527f5602d41126ea699a93f4ab359d93e8701e97587ef6ecaf53ba0bfcfbc9b9443b910160405180910390a1505050505050620002c3565b6001600160a01b03811681146200023a57600080fd5b50565b600080600080600060a086880312156200025657600080fd5b8551620002638162000224565b6020870151604088015191965094506200027d8162000224565b60608701516080880151919450925080151581146200029b57600080fd5b809150509295509295909350565b600060208284031215620002bc57600080fd5b5051919050565b60805161120c6200030960003960008181610133015281816103a8015281816104dc01528181610545015281816106770152818161092901526109ad015261120c6000f3fe608060405234801561001057600080fd5b50600436106100be5760003560e01c8063a81e3af211610076578063d023c79c1161005b578063d023c79c14610194578063d46da387146101a7578063eea8fe0a146101ba57600080fd5b8063a81e3af214610178578063bd03fbb81461018b57600080fd5b80635b299fb5116100a75780635b299fb51461011b5780637998a1c41461012e5780637b242c781461016357600080fd5b8063273310e3146100c357806336625cc3146100f8575b600080fd5b6002546100db9061010090046001600160a01b031681565b6040516001600160a01b0390911681526020015b60405180910390f35b61010b610106366004611050565b6101c7565b60405190151581526020016100ef565b61010b610129366004611050565b610377565b6101557f000000000000000000000000000000000000000000000000000000000000000081565b6040519081526020016100ef565b6101766101713660046110f6565b610397565b005b61017661018636600461111a565b610534565b61015560015481565b6101766101a2366004611137565b610666565b6000546100db906001600160a01b031681565b60025461010b9060ff1681565b60008054604080517ff3400419000000000000000000000000000000000000000000000000000000008152905133926001600160a01b03169163f34004199160048083019260209291908290030181865afa15801561022a573d6000803e3d6000fd5b505050506040513d601f19601f8201168201806040525081019061024e9190611150565b6001600160a01b0316146102cf5760405162461bcd60e51b815260206004820152602c60248201527f41636365737369626c653a2063616c6c6572206973206e6f742074686520746c60448201527f6420636f6e74726f6c6c6572000000000000000000000000000000000000000060648201526084015b60405180910390fd5b6000806102e18a8a8a8a8a8a8a610981565b91509150801561036a576002546040517f8cbec9320000000000000000000000000000000000000000000000000000000081526001600160a01b03898116600483015261010090920490911690638cbec93290602401600060405180830381600087803b15801561035157600080fd5b505af1158015610365573d6000803e3d6000fd5b505050505b5098975050505050505050565b60008061038989898989898989610981565b509998505050505050505050565b60005460405162e4decd60e31b81527f0000000000000000000000000000000000000000000000000000000000000000600482018190529133916001600160a01b0390911690630726f66890602401602060405180830381865afa158015610403573d6000803e3d6000fd5b505050506040513d601f19601f820116820180604052508101906104279190611150565b6001600160a01b0316146104895760405162461bcd60e51b8152602060048201526024808201527f4f776e61626c653a2063616c6c6572206973206e6f742074686520746c64206f6044820152633bb732b960e11b60648201526084016102c6565b6001544210156104c5576040517f4dbc9bc000000000000000000000000000000000000000000000000000000000815260040160405180910390fd5b6002805460ff1916831515908117909155604080517f0000000000000000000000000000000000000000000000000000000000000000815260208101929092527f5602d41126ea699a93f4ab359d93e8701e97587ef6ecaf53ba0bfcfbc9b9443b910160405180910390a15050565b60005460405162e4decd60e31b81527f0000000000000000000000000000000000000000000000000000000000000000600482018190529133916001600160a01b0390911690630726f66890602401602060405180830381865afa1580156105a0573d6000803e3d6000fd5b505050506040513d601f19601f820116820180604052508101906105c49190611150565b6001600160a01b0316146106265760405162461bcd60e51b8152602060048201526024808201527f4f776e61626c653a2063616c6c6572206973206e6f742074686520746c64206f6044820152633bb732b960e11b60648201526084016102c6565b50600280546001600160a01b03909216610100027fffffffffffffffffffffff0000000000000000000000000000000000000000ff909216919091179055565b60005460405162e4decd60e31b81527f0000000000000000000000000000000000000000000000000000000000000000600482018190529133916001600160a01b0390911690630726f66890602401602060405180830381865afa1580156106d2573d6000803e3d6000fd5b505050506040513d601f19601f820116820180604052508101906106f69190611150565b6001600160a01b0316146107585760405162461bcd60e51b8152602060048201526024808201527f4f776e61626c653a2063616c6c6572206973206e6f742074686520746c64206f6044820152633bb732b960e11b60648201526084016102c6565b6001544210610793576040517f397a82ac00000000000000000000000000000000000000000000000000000000815260040160405180910390fd5b8142106108085760405162461bcd60e51b815260206004820152603860248201527f6e6577207075626c6963526567697374726174696f6e537461727454696d652060448201527f6d7573742062652067726561746572207468616e206e6f77000000000000000060648201526084016102c6565b6000600260019054906101000a90046001600160a01b03166001600160a01b03166318969e3c6040518163ffffffff1660e01b8152600401602060405180830381865afa15801561085d573d6000803e3d6000fd5b505050506040513d601f19601f82011682018060405250810190610881919061116d565b905082811061091e5760405162461bcd60e51b815260206004820152604b60248201527f6e6577207075626c6963526567697374726174696f6e537461727454696d652060448201527f6d7573742062652067726561746572207468616e20707265526567697374726160648201527f74696f6e456e6454696d65000000000000000000000000000000000000000000608482015260a4016102c6565b6001839055604080517f00000000000000000000000000000000000000000000000000000000000000008152602081018590527f7209932ed961cda2151a57a4ad04f2fba1ce7dd5f0ebedc991802aa16dd97a1f910160405180910390a1505050565b60008060008888604051610996929190611186565b60405190819003812060005462e4decd60e31b83527f000000000000000000000000000000000000000000000000000000000000000060048401529092506001600160a01b0389811692911690630726f66890602401602060405180830381865afa158015610a09573d6000803e3d6000fd5b505050506040513d601f19601f82011682018060405250810190610a2d9190611150565b6001600160a01b031603610b0a57600154421015610b0a5760025461010090046001600160a01b031615610afc576000600260019054906101000a90046001600160a01b03166001600160a01b031663ffeaf35f6040518163ffffffff1660e01b8152600401602060405180830381865afa158015610ab0573d6000803e3d6000fd5b505050506040513d601f19601f82011682018060405250810190610ad4919061116d565b9050801580610ae257508042105b15610af65760016000935093505050610fe3565b50610b0a565b600160009250925050610fe3565b60025461010090046001600160a01b031615610faa57600260019054906101000a90046001600160a01b03166001600160a01b031663b6fc138f6040518163ffffffff1660e01b8152600401602060405180830381865afa158015610b73573d6000803e3d6000fd5b505050506040513d601f19601f82011682018060405250810190610b979190611196565b15610d7757600260019054906101000a90046001600160a01b03166001600160a01b031663045535b76040518163ffffffff1660e01b8152600401602060405180830381865afa158015610bef573d6000803e3d6000fd5b505050506040513d601f19601f82011682018060405250810190610c13919061116d565b4211610c26576000809250925050610fe3565b600260019054906101000a90046001600160a01b03166001600160a01b0316639efdb7cf6040518163ffffffff1660e01b8152600401602060405180830381865afa158015610c79573d6000803e3d6000fd5b505050506040513d601f19601f82011682018060405250810190610c9d9190611196565b15610d77576002546040517f8cb5d7000000000000000000000000000000000000000000000000000000000081526004810183905260009161010090046001600160a01b031690638cb5d70090602401602060405180830381865afa158015610d0a573d6000803e3d6000fd5b505050506040513d601f19601f82011682018060405250810190610d2e9190611150565b9050876001600160a01b0316816001600160a01b031603610d585760016000935093505050610fe3565b6001600160a01b03811615610d7557600080935093505050610fe3565b505b600260019054906101000a90046001600160a01b03166001600160a01b031663dd3cb4a96040518163ffffffff1660e01b8152600401602060405180830381865afa158015610dca573d6000803e3d6000fd5b505050506040513d601f19601f82011682018060405250810190610dee9190611196565b15610faa57600260019054906101000a90046001600160a01b03166001600160a01b031663c989d0756040518163ffffffff1660e01b8152600401602060405180830381865afa158015610e46573d6000803e3d6000fd5b505050506040513d601f19601f82011682018060405250810190610e6a919061116d565b421015610e7e576000809250925050610fe3565b600260019054906101000a90046001600160a01b03166001600160a01b031663c39887f56040518163ffffffff1660e01b8152600401602060405180830381865afa158015610ed1573d6000803e3d6000fd5b505050506040513d601f19601f82011682018060405250810190610ef5919061116d565b4211610faa576002546040517f403451c80000000000000000000000000000000000000000000000000000000081526001600160a01b0389811660048301526000926101009004169063403451c890602401602060405180830381865afa158015610f64573d6000803e3d6000fd5b505050506040513d601f19601f82011682018060405250810190610f8891906111b3565b60ff1611610f9d576000809250925050610fe3565b6001809250925050610fe3565b600154421015610fc1576000809250925050610fe3565b60025460ff1615610fd9576000809250925050610fe3565b6001600092509250505b97509795505050505050565b60008083601f84011261100157600080fd5b50813567ffffffffffffffff81111561101957600080fd5b60208301915083602082850101111561103157600080fd5b9250929050565b6001600160a01b038116811461104d57600080fd5b50565b600080600080600080600060a0888a03121561106b57600080fd5b87359650602088013567ffffffffffffffff8082111561108a57600080fd5b6110968b838c01610fef565b909850965060408a013591506110ab82611038565b90945060608901359350608089013590808211156110c857600080fd5b506110d58a828b01610fef565b989b979a50959850939692959293505050565b801515811461104d57600080fd5b60006020828403121561110857600080fd5b8135611113816110e8565b9392505050565b60006020828403121561112c57600080fd5b813561111381611038565b60006020828403121561114957600080fd5b5035919050565b60006020828403121561116257600080fd5b815161111381611038565b60006020828403121561117f57600080fd5b5051919050565b8183823760009101908152919050565b6000602082840312156111a857600080fd5b8151611113816110e8565b6000602082840312156111c557600080fd5b815160ff8116811461111357600080fdfea2646970667358221220789fc8ede254d33044e73c14915a7e4b1e758534c6120e5150201aab527c446764736f6c63430008120033a26469706673582212208f37da3a759d1e51ec1a8d43e7a5b010e9498d76029f860a0b728bc83da0e13964736f6c63430008120033",
  "linkReferences": {},
  "deployedLinkReferences": {}
}