{
  "_format": "hh-sol-artifact-1",
  "contractName": "Dummy",
  "sourceName": "test/common/mocks/Dummy.sol",
  "abi": [
    {
      "inputs": [],
      "stateMutability": "nonpayable",
      "type": "constructor"
    },
    {
      "inputs": [
        {
          "internalType": "string",
          "name": "name",
          "type": "string"
        }
      ],
      "name": "containsZeroWidthChar",
      "outputs": [
        {
          "internalType": "bool",
          "name": "",
          "type": "bool"
        }
      ],
      "stateMutability": "pure",
      "type": "function"
    }
  ],
  "bytecode": "0x608060405234801561001057600080fd5b506104a7806100206000396000f3fe608060405234801561001057600080fd5b506004361061002b5760003560e01c8063841e87f614610030575b600080fd5b61004361003e366004610394565b610057565b604051901515815260200160405180910390f35b600061009883838080601f0160208091040260200160405190810160405280939291908181526020018383808284376000920191909152506100a292505050565b1590505b92915050565b6000808290506003815110156100bb5750600192915050565b60005b600282516100cc919061041c565b81101561038a578181815181106100e5576100e561042f565b6020910101516001600160f81b0319167fe20000000000000000000000000000000000000000000000000000000000000014801561016d57508161012a826001610445565b8151811061013a5761013a61042f565b6020910101516001600160f81b0319167f8000000000000000000000000000000000000000000000000000000000000000145b1561027e578161017e826002610445565b8151811061018e5761018e61042f565b6020910101516001600160f81b0319167f8b0000000000000000000000000000000000000000000000000000000000000014806102155750816101d2826002610445565b815181106101e2576101e261042f565b6020910101516001600160f81b0319167f8c00000000000000000000000000000000000000000000000000000000000000145b8061026a575081610227826002610445565b815181106102375761023761042f565b6020910101516001600160f81b0319167f8d00000000000000000000000000000000000000000000000000000000000000145b15610279575060009392505050565b610378565b8181815181106102905761029061042f565b01602001516001600160f81b0319167fef000000000000000000000000000000000000000000000000000000000000000361037857816102d1826001610445565b815181106102e1576102e161042f565b6020910101516001600160f81b0319167fbb00000000000000000000000000000000000000000000000000000000000000148015610369575081610326826002610445565b815181106103365761033661042f565b6020910101516001600160f81b0319167fbf00000000000000000000000000000000000000000000000000000000000000145b15610378575060009392505050565b8061038281610458565b9150506100be565b5060019392505050565b600080602083850312156103a757600080fd5b823567ffffffffffffffff808211156103bf57600080fd5b818501915085601f8301126103d357600080fd5b8135818111156103e257600080fd5b8660208285010111156103f457600080fd5b60209290920196919550909350505050565b634e487b7160e01b600052601160045260246000fd5b8181038181111561009c5761009c610406565b634e487b7160e01b600052603260045260246000fd5b8082018082111561009c5761009c610406565b60006001820161046a5761046a610406565b506001019056fea2646970667358221220e404deb38b24b67d557942af70b57d37f4ad92d84703cf298018ef2c63eed31864736f6c63430008120033",
  "linkReferences": {},
  "deployedLinkReferences": {}
}