{
  "_format": "hh-sol-artifact-1",
  "contractName": "Base",
  "sourceName": "contracts/base/Base.sol",
  "abi": [
    {
      "inputs": [
        {
          "internalType": "contract ISANN",
          "name": "_sann",
          "type": "address"
        },
        {
          "internalType": "contract ISidRegistry",
          "name": "_sidRegistry",
          "type": "address"
        },
        {
          "internalType": "uint256",
          "name": "_identifier",
          "type": "uint256"
        },
        {
          "internalType": "string",
          "name": "_tld",
          "type": "string"
        },
        {
          "internalType": "string",
          "name": "_baseUri",
          "type": "string"
        }
      ],
      "stateMutability": "nonpayable",
      "type": "constructor"
    },
    {
      "anonymous": false,
      "inputs": [
        {
          "indexed": true,
          "internalType": "address",
          "name": "owner",
          "type": "address"
        },
        {
          "indexed": true,
          "internalType": "address",
          "name": "approved",
          "type": "address"
        },
        {
          "indexed": true,
          "internalType": "uint256",
          "name": "tokenId",
          "type": "uint256"
        }
      ],
      "name": "Approval",
      "type": "event"
    },
    {
      "anonymous": false,
      "inputs": [
        {
          "indexed": true,
          "internalType": "address",
          "name": "owner",
          "type": "address"
        },
        {
          "indexed": true,
          "internalType": "address",
          "name": "operator",
          "type": "address"
        },
        {
          "indexed": false,
          "internalType": "bool",
          "name": "approved",
          "type": "bool"
        }
      ],
      "name": "ApprovalForAll",
      "type": "event"
    },
    {
      "anonymous": false,
      "inputs": [
        {
          "indexed": true,
          "internalType": "address",
          "name": "controller",
          "type": "address"
        }
      ],
      "name": "ControllerAdded",
      "type": "event"
    },
    {
      "anonymous": false,
      "inputs": [
        {
          "indexed": true,
          "internalType": "address",
          "name": "controller",
          "type": "address"
        }
      ],
      "name": "ControllerRemoved",
      "type": "event"
    },
    {
      "anonymous": false,
      "inputs": [
        {
          "indexed": true,
          "internalType": "uint256",
          "name": "id",
          "type": "uint256"
        },
        {
          "indexed": true,
          "internalType": "address",
          "name": "owner",
          "type": "address"
        },
        {
          "indexed": false,
          "internalType": "uint256",
          "name": "expires",
          "type": "uint256"
        }
      ],
      "name": "NameMigrated",
      "type": "event"
    },
    {
      "anonymous": false,
      "inputs": [
        {
          "indexed": true,
          "internalType": "uint256",
          "name": "id",
          "type": "uint256"
        },
        {
          "indexed": true,
          "internalType": "address",
          "name": "owner",
          "type": "address"
        },
        {
          "indexed": false,
          "internalType": "uint256",
          "name": "expires",
          "type": "uint256"
        }
      ],
      "name": "NameRegistered",
      "type": "event"
    },
    {
      "anonymous": false,
      "inputs": [
        {
          "indexed": true,
          "internalType": "uint256",
          "name": "id",
          "type": "uint256"
        },
        {
          "indexed": false,
          "internalType": "uint256",
          "name": "expires",
          "type": "uint256"
        }
      ],
      "name": "NameRenewed",
      "type": "event"
    },
    {
      "anonymous": false,
      "inputs": [
        {
          "indexed": true,
          "internalType": "address",
          "name": "from",
          "type": "address"
        },
        {
          "indexed": true,
          "internalType": "address",
          "name": "to",
          "type": "address"
        },
        {
          "indexed": true,
          "internalType": "uint256",
          "name": "tokenId",
          "type": "uint256"
        }
      ],
      "name": "Transfer",
      "type": "event"
    },
    {
      "inputs": [],
      "name": "GRACE_PERIOD",
      "outputs": [
        {
          "internalType": "uint256",
          "name": "",
          "type": "uint256"
        }
      ],
      "stateMutability": "view",
      "type": "function"
    },
    {
      "inputs": [
        {
          "internalType": "address",
          "name": "to",
          "type": "address"
        },
        {
          "internalType": "uint256",
          "name": "tokenId",
          "type": "uint256"
        }
      ],
      "name": "approve",
      "outputs": [],
      "stateMutability": "nonpayable",
      "type": "function"
    },
    {
      "inputs": [
        {
          "internalType": "uint256",
          "name": "id",
          "type": "uint256"
        }
      ],
      "name": "available",
      "outputs": [
        {
          "internalType": "bool",
          "name": "",
          "type": "bool"
        }
      ],
      "stateMutability": "view",
      "type": "function"
    },
    {
      "inputs": [
        {
          "internalType": "address",
          "name": "owner",
          "type": "address"
        }
      ],
      "name": "balanceOf",
      "outputs": [
        {
          "internalType": "uint256",
          "name": "",
          "type": "uint256"
        }
      ],
      "stateMutability": "view",
      "type": "function"
    },
    {
      "inputs": [],
      "name": "baseNode",
      "outputs": [
        {
          "internalType": "bytes32",
          "name": "",
          "type": "bytes32"
        }
      ],
      "stateMutability": "view",
      "type": "function"
    },
    {
      "inputs": [],
      "name": "baseUri",
      "outputs": [
        {
          "internalType": "string",
          "name": "",
          "type": "string"
        }
      ],
      "stateMutability": "view",
      "type": "function"
    },
    {
      "inputs": [],
      "name": "deleteDefaultRoyalty",
      "outputs": [],
      "stateMutability": "nonpayable",
      "type": "function"
    },
    {
      "inputs": [
        {
          "internalType": "uint256",
          "name": "tokenId",
          "type": "uint256"
        }
      ],
      "name": "getApproved",
      "outputs": [
        {
          "internalType": "address",
          "name": "",
          "type": "address"
        }
      ],
      "stateMutability": "view",
      "type": "function"
    },
    {
      "inputs": [],
      "name": "identifier",
      "outputs": [
        {
          "internalType": "uint256",
          "name": "",
          "type": "uint256"
        }
      ],
      "stateMutability": "view",
      "type": "function"
    },
    {
      "inputs": [
        {
          "internalType": "address",
          "name": "owner",
          "type": "address"
        },
        {
          "internalType": "address",
          "name": "operator",
          "type": "address"
        }
      ],
      "name": "isApprovedForAll",
      "outputs": [
        {
          "internalType": "bool",
          "name": "",
          "type": "bool"
        }
      ],
      "stateMutability": "view",
      "type": "function"
    },
    {
      "inputs": [],
      "name": "name",
      "outputs": [
        {
          "internalType": "string",
          "name": "",
          "type": "string"
        }
      ],
      "stateMutability": "view",
      "type": "function"
    },
    {
      "inputs": [
        {
          "internalType": "uint256",
          "name": "id",
          "type": "uint256"
        }
      ],
      "name": "nameExpires",
      "outputs": [
        {
          "internalType": "uint256",
          "name": "",
          "type": "uint256"
        }
      ],
      "stateMutability": "view",
      "type": "function"
    },
    {
      "inputs": [
        {
          "internalType": "uint256",
          "name": "tokenId",
          "type": "uint256"
        }
      ],
      "name": "ownerOf",
      "outputs": [
        {
          "internalType": "address",
          "name": "",
          "type": "address"
        }
      ],
      "stateMutability": "view",
      "type": "function"
    },
    {
      "inputs": [
        {
          "internalType": "uint256",
          "name": "id",
          "type": "uint256"
        },
        {
          "internalType": "address",
          "name": "owner",
          "type": "address"
        }
      ],
      "name": "reclaim",
      "outputs": [],
      "stateMutability": "nonpayable",
      "type": "function"
    },
    {
      "inputs": [
        {
          "internalType": "uint256",
          "name": "id",
          "type": "uint256"
        },
        {
          "internalType": "address",
          "name": "owner",
          "type": "address"
        },
        {
          "internalType": "uint256",
          "name": "duration",
          "type": "uint256"
        }
      ],
      "name": "register",
      "outputs": [
        {
          "internalType": "uint256",
          "name": "",
          "type": "uint256"
        }
      ],
      "stateMutability": "nonpayable",
      "type": "function"
    },
    {
      "inputs": [
        {
          "internalType": "uint256",
          "name": "id",
          "type": "uint256"
        },
        {
          "internalType": "address",
          "name": "owner",
          "type": "address"
        },
        {
          "internalType": "uint256",
          "name": "duration",
          "type": "uint256"
        }
      ],
      "name": "registerOnly",
      "outputs": [
        {
          "internalType": "uint256",
          "name": "",
          "type": "uint256"
        }
      ],
      "stateMutability": "nonpayable",
      "type": "function"
    },
    {
      "inputs": [
        {
          "internalType": "uint256",
          "name": "id",
          "type": "uint256"
        },
        {
          "internalType": "uint256",
          "name": "duration",
          "type": "uint256"
        }
      ],
      "name": "renew",
      "outputs": [
        {
          "internalType": "uint256",
          "name": "",
          "type": "uint256"
        }
      ],
      "stateMutability": "nonpayable",
      "type": "function"
    },
    {
      "inputs": [
        {
          "internalType": "uint256",
          "name": "_tokenId",
          "type": "uint256"
        }
      ],
      "name": "resetTokenRoyalty",
      "outputs": [],
      "stateMutability": "nonpayable",
      "type": "function"
    },
    {
      "inputs": [
        {
          "internalType": "uint256",
          "name": "_tokenId",
          "type": "uint256"
        },
        {
          "internalType": "uint256",
          "name": "_salePrice",
          "type": "uint256"
        }
      ],
      "name": "royaltyInfo",
      "outputs": [
        {
          "internalType": "address",
          "name": "",
          "type": "address"
        },
        {
          "internalType": "uint256",
          "name": "",
          "type": "uint256"
        }
      ],
      "stateMutability": "view",
      "type": "function"
    },
    {
      "inputs": [
        {
          "internalType": "address",
          "name": "from",
          "type": "address"
        },
        {
          "internalType": "address",
          "name": "to",
          "type": "address"
        },
        {
          "internalType": "uint256",
          "name": "tokenId",
          "type": "uint256"
        }
      ],
      "name": "safeTransferFrom",
      "outputs": [],
      "stateMutability": "nonpayable",
      "type": "function"
    },
    {
      "inputs": [
        {
          "internalType": "address",
          "name": "from",
          "type": "address"
        },
        {
          "internalType": "address",
          "name": "to",
          "type": "address"
        },
        {
          "internalType": "uint256",
          "name": "tokenId",
          "type": "uint256"
        },
        {
          "internalType": "bytes",
          "name": "_data",
          "type": "bytes"
        }
      ],
      "name": "safeTransferFrom",
      "outputs": [],
      "stateMutability": "nonpayable",
      "type": "function"
    },
    {
      "inputs": [],
      "name": "sann",
      "outputs": [
        {
          "internalType": "contract ISANN",
          "name": "",
          "type": "address"
        }
      ],
      "stateMutability": "view",
      "type": "function"
    },
    {
      "inputs": [
        {
          "internalType": "address",
          "name": "operator",
          "type": "address"
        },
        {
          "internalType": "bool",
          "name": "approved",
          "type": "bool"
        }
      ],
      "name": "setApprovalForAll",
      "outputs": [],
      "stateMutability": "nonpayable",
      "type": "function"
    },
    {
      "inputs": [
        {
          "internalType": "address",
          "name": "_receiver",
          "type": "address"
        },
        {
          "internalType": "uint96",
          "name": "_feeNumerator",
          "type": "uint96"
        }
      ],
      "name": "setDefaultRoyalty",
      "outputs": [],
      "stateMutability": "nonpayable",
      "type": "function"
    },
    {
      "inputs": [
        {
          "internalType": "address",
          "name": "resolver",
          "type": "address"
        }
      ],
      "name": "setResolver",
      "outputs": [],
      "stateMutability": "nonpayable",
      "type": "function"
    },
    {
      "inputs": [
        {
          "internalType": "uint256",
          "name": "_tokenId",
          "type": "uint256"
        },
        {
          "internalType": "address",
          "name": "_receiver",
          "type": "address"
        },
        {
          "internalType": "uint96",
          "name": "_feeNumerator",
          "type": "uint96"
        }
      ],
      "name": "setTokenRoyalty",
      "outputs": [],
      "stateMutability": "nonpayable",
      "type": "function"
    },
    {
      "inputs": [
        {
          "internalType": "string",
          "name": "newURI",
          "type": "string"
        }
      ],
      "name": "setURI",
      "outputs": [],
      "stateMutability": "nonpayable",
      "type": "function"
    },
    {
      "inputs": [],
      "name": "sidRegistry",
      "outputs": [
        {
          "internalType": "contract ISidRegistry",
          "name": "",
          "type": "address"
        }
      ],
      "stateMutability": "view",
      "type": "function"
    },
    {
      "inputs": [],
      "name": "supplyAmount",
      "outputs": [
        {
          "internalType": "uint256",
          "name": "",
          "type": "uint256"
        }
      ],
      "stateMutability": "view",
      "type": "function"
    },
    {
      "inputs": [
        {
          "internalType": "bytes4",
          "name": "interfaceID",
          "type": "bytes4"
        }
      ],
      "name": "supportsInterface",
      "outputs": [
        {
          "internalType": "bool",
          "name": "",
          "type": "bool"
        }
      ],
      "stateMutability": "pure",
      "type": "function"
    },
    {
      "inputs": [],
      "name": "symbol",
      "outputs": [
        {
          "internalType": "string",
          "name": "",
          "type": "string"
        }
      ],
      "stateMutability": "view",
      "type": "function"
    },
    {
      "inputs": [],
      "name": "tld",
      "outputs": [
        {
          "internalType": "string",
          "name": "",
          "type": "string"
        }
      ],
      "stateMutability": "view",
      "type": "function"
    },
    {
      "inputs": [
        {
          "internalType": "uint256",
          "name": "tokenId",
          "type": "uint256"
        }
      ],
      "name": "tokenURI",
      "outputs": [
        {
          "internalType": "string",
          "name": "",
          "type": "string"
        }
      ],
      "stateMutability": "view",
      "type": "function"
    },
    {
      "inputs": [],
      "name": "totalSupply",
      "outputs": [
        {
          "internalType": "uint256",
          "name": "",
          "type": "uint256"
        }
      ],
      "stateMutability": "view",
      "type": "function"
    },
    {
      "inputs": [
        {
          "internalType": "address",
          "name": "from",
          "type": "address"
        },
        {
          "internalType": "address",
          "name": "to",
          "type": "address"
        },
        {
          "internalType": "uint256",
          "name": "tokenId",
          "type": "uint256"
        }
      ],
      "name": "transferFrom",
      "outputs": [],
      "stateMutability": "nonpayable",
      "type": "function"
    }
  ],
  "bytecode": "0x60806040526000600f553480156200001657600080fd5b50604051620030c4380380620030c483398101604081905262000039916200022f565b60408051808201909152601581527f5350414345204944204e616d6520536572766963650000000000000000000000602082015285908360006200007e83826200035d565b5060016200008d82826200035d565b5050600880546001600160a01b03199081166001600160a01b0394851617909155600a80549091169287169290921790915550600c839055600d620000d383826200035d565b50600c54604051620000f391600091602001918252602082015260400190565b60408051601f198184030181528282528051602091820120855186830120918401529082015260600160408051601f198184030181529190528051602090910120600b55600e6200014582826200035d565b50505050505062000429565b6001600160a01b03811681146200016757600080fd5b50565b634e487b7160e01b600052604160045260246000fd5b600082601f8301126200019257600080fd5b81516001600160401b0380821115620001af57620001af6200016a565b604051601f8301601f19908116603f01168101908282118183101715620001da57620001da6200016a565b81604052838152602092508683858801011115620001f757600080fd5b600091505b838210156200021b5785820183015181830184015290820190620001fc565b600093810190920192909252949350505050565b600080600080600060a086880312156200024857600080fd5b8551620002558162000151565b6020870151909550620002688162000151565b6040870151606088015191955093506001600160401b03808211156200028d57600080fd5b6200029b89838a0162000180565b93506080880151915080821115620002b257600080fd5b50620002c18882890162000180565b9150509295509295909350565b600181811c90821680620002e357607f821691505b6020821081036200030457634e487b7160e01b600052602260045260246000fd5b50919050565b601f8211156200035857600081815260208120601f850160051c81016020861015620003335750805b601f850160051c820191505b8181101562000354578281556001016200033f565b5050505b505050565b81516001600160401b038111156200037957620003796200016a565b62000391816200038a8454620002ce565b846200030a565b602080601f831160018114620003c95760008415620003b05750858301515b600019600386901b1c1916600185901b17855562000354565b600085815260208120601f198616915b82811015620003fa57888601518255948401946001909101908401620003d9565b5085821015620004195787850151600019600388901b60f8161c191681555b5050505050600190811b01905550565b612c8b80620004396000396000f3fe608060405234801561001057600080fd5b50600436106102415760003560e01c806370a0823111610145578063c1a287e2116100bd578063d6e4fa861161008c578063e985e9c511610071578063e985e9c5146104b3578063f9482e1a146104ef578063fca247ac1461050257600080fd5b8063d6e4fa861461048a578063ddf7fcb0146104aa57600080fd5b8063c1a287e214610447578063c475abff14610451578063c87b56dd14610464578063d46da3871461047757600080fd5b806396e494e811610114578063a22cb465116100f9578063a22cb46514610419578063aa1b103f1461042c578063b88d4fde1461043457600080fd5b806396e494e8146103fe5780639abc83201461041157600080fd5b806370a08231146103c75780637998a1c4146103da5780638a616bc0146103e357806395d89b41146103f657600080fd5b806323b872dd116101d857806342842e0e116101a75780635944c7531161018c5780635944c753146103985780636352211e146103ab5780636f3d8fe8146103be57600080fd5b806342842e0e146103725780634e543b261461038557600080fd5b806323b872dd1461031257806328ed4f6c146103255780632a55205a146103385780632d5514321461036a57600080fd5b8063081812fc11610214578063081812fc146102ab578063095ea7b3146102d65780630e297b45146102e957806318160ddd1461030a57600080fd5b806301ffc9a71461024657806302fe53051461026e57806304634d8d1461028357806306fdde0314610296575b600080fd5b610259610254366004612594565b610515565b60405190151581526020015b60405180910390f35b61028161027c36600461263d565b6105e6565b005b6102816102913660046126bc565b6106d3565b61029e6107b3565b6040516102659190612741565b6102be6102b9366004612754565b610845565b6040516001600160a01b039091168152602001610265565b6102816102e436600461276d565b61086c565b6102fc6102f7366004612799565b610998565b604051908152602001610265565b600f546102fc565b6102816103203660046127d1565b6109af565b610281610333366004612801565b610aa8565b61034b610346366004612831565b610bc1565b604080516001600160a01b039093168352602083019190915201610265565b61029e610c7c565b6102816103803660046127d1565b610d0a565b610281610393366004612853565b610d25565b6102816103a6366004612870565b610e83565b6102be6103b9366004612754565b610f5f565b6102fc600f5481565b6102fc6103d5366004612853565b610f82565b6102fc600c5481565b6102816103f1366004612754565b61101c565b61029e6110ff565b61025961040c366004612754565b61110e565b61029e611134565b6102816104273660046128ae565b611141565b61028161114c565b6102816104423660046128e1565b61122a565b6102fc6276a70081565b6102fc61045f366004612831565b61131e565b61029e610472366004612754565b61156b565b6008546102be906001600160a01b031681565b6102fc610498366004612754565b60009081526009602052604090205490565b6102fc600b5481565b6102596104c1366004612961565b6001600160a01b03918216600090815260056020908152604080832093909416825291909152205460ff1690565b600a546102be906001600160a01b031681565b6102fc610510366004612799565b6116d7565b60006001600160e01b031982167f01ffc9a700000000000000000000000000000000000000000000000000000000148061057857506001600160e01b031982167f80ac58cd00000000000000000000000000000000000000000000000000000000145b806105ac57506001600160e01b031982167f28ed4f6c00000000000000000000000000000000000000000000000000000000145b806105e057506001600160e01b031982167f2a55205a00000000000000000000000000000000000000000000000000000000145b92915050565b6008546040805163cdcd7fb560e01b8152905133926001600160a01b03169163cdcd7fb59160048083019260209291908290030181865afa15801561062f573d6000803e3d6000fd5b505050506040513d601f19601f82011682018060405250810190610653919061298f565b6001600160a01b0316146106c35760405162461bcd60e51b815260206004820152602c60248201527f41636365737369626c653a2063616c6c6572206973206e6f742074686520706c60448201526b30ba3337b9369030b236b4b760a11b60648201526084015b60405180910390fd5b600e6106cf8282612a34565b5050565b600c5460085460405162e4decd60e31b81526004810183905233916001600160a01b031690630726f66890602401602060405180830381865afa15801561071e573d6000803e3d6000fd5b505050506040513d601f19601f82011682018060405250810190610742919061298f565b6001600160a01b0316146107a45760405162461bcd60e51b8152602060048201526024808201527f4f776e61626c653a2063616c6c6572206973206e6f742074686520746c64206f6044820152633bb732b960e11b60648201526084016106ba565b6107ae83836116e6565b505050565b6060600080546107c2906129ac565b80601f01602080910402602001604051908101604052809291908181526020018280546107ee906129ac565b801561083b5780601f106108105761010080835404028352916020019161083b565b820191906000526020600020905b81548152906001019060200180831161081e57829003601f168201915b5050505050905090565b6000610850826117ed565b506000908152600460205260409020546001600160a01b031690565b600061087782611851565b9050806001600160a01b0316836001600160a01b0316036109005760405162461bcd60e51b815260206004820152602160248201527f4552433732313a20617070726f76616c20746f2063757272656e74206f776e6560448201527f720000000000000000000000000000000000000000000000000000000000000060648201526084016106ba565b336001600160a01b038216148061091c575061091c81336104c1565b61098e5760405162461bcd60e51b815260206004820152603e60248201527f4552433732313a20617070726f76652063616c6c6572206973206e6f7420746f60448201527f6b656e206f776e6572206e6f7220617070726f76656420666f7220616c6c000060648201526084016106ba565b6107ae83836118b6565b60006109a78484846000611931565b949350505050565b6109b93382611bfd565b610a155760405162461bcd60e51b815260206004820152602760248201527f4552433732313a2063616c6c6572206973206e6f7420617070726f766564206f604482015266391037bbb732b960c91b60648201526084016106ba565b610a20838383611c78565b600a54600b546040516306ab592360e01b81526004810191909152602481018390526001600160a01b038481166044830152909116906306ab5923906064016020604051808303816000875af1158015610a7e573d6000803e3d6000fd5b505050506040513d601f19601f82011682018060405250810190610aa29190612af4565b50505050565b600a54600b546040516302571be360e01b8152600481019190915230916001600160a01b0316906302571be390602401602060405180830381865afa158015610af5573d6000803e3d6000fd5b505050506040513d601f19601f82011682018060405250810190610b19919061298f565b6001600160a01b031614610b2c57600080fd5b610b363383611bfd565b610b3f57600080fd5b600a54600b546040516306ab592360e01b81526004810191909152602481018490526001600160a01b038381166044830152909116906306ab5923906064016020604051808303816000875af1158015610b9d573d6000803e3d6000fd5b505050506040513d601f19601f820116820180604052508101906107ae9190612af4565b60008281526007602090815260408083208151808301909252546001600160a01b038116808352600160a01b9091046bffffffffffffffffffffffff16928201929092528291610c405750604080518082019091526006546001600160a01b0381168252600160a01b90046bffffffffffffffffffffffff1660208201525b602081015160009061271090610c64906bffffffffffffffffffffffff1687612b23565b610c6e9190612b50565b915196919550909350505050565b600d8054610c89906129ac565b80601f0160208091040260200160405190810160405280929190818152602001828054610cb5906129ac565b8015610d025780601f10610cd757610100808354040283529160200191610d02565b820191906000526020600020905b815481529060010190602001808311610ce557829003601f168201915b505050505081565b6107ae8383836040518060200160405280600081525061122a565b6008546040805163cdcd7fb560e01b8152905133926001600160a01b03169163cdcd7fb59160048083019260209291908290030181865afa158015610d6e573d6000803e3d6000fd5b505050506040513d601f19601f82011682018060405250810190610d92919061298f565b6001600160a01b031614610dfd5760405162461bcd60e51b815260206004820152602c60248201527f41636365737369626c653a2063616c6c6572206973206e6f742074686520706c60448201526b30ba3337b9369030b236b4b760a11b60648201526084016106ba565b600a54600b546040517f1896f70a00000000000000000000000000000000000000000000000000000000815260048101919091526001600160a01b03838116602483015290911690631896f70a90604401600060405180830381600087803b158015610e6857600080fd5b505af1158015610e7c573d6000803e3d6000fd5b5050505050565b600c5460085460405162e4decd60e31b81526004810183905233916001600160a01b031690630726f66890602401602060405180830381865afa158015610ece573d6000803e3d6000fd5b505050506040513d601f19601f82011682018060405250810190610ef2919061298f565b6001600160a01b031614610f545760405162461bcd60e51b8152602060048201526024808201527f4f776e61626c653a2063616c6c6572206973206e6f742074686520746c64206f6044820152633bb732b960e11b60648201526084016106ba565b610aa2848484611e52565b6000818152600960205260408120544210610f7957600080fd5b6105e082611851565b60006001600160a01b0382166110005760405162461bcd60e51b815260206004820152602960248201527f4552433732313a2061646472657373207a65726f206973206e6f74206120766160448201527f6c6964206f776e6572000000000000000000000000000000000000000000000060648201526084016106ba565b506001600160a01b031660009081526003602052604090205490565b600c5460085460405162e4decd60e31b81526004810183905233916001600160a01b031690630726f66890602401602060405180830381865afa158015611067573d6000803e3d6000fd5b505050506040513d601f19601f8201168201806040525081019061108b919061298f565b6001600160a01b0316146110ed5760405162461bcd60e51b8152602060048201526024808201527f4f776e61626c653a2063616c6c6572206973206e6f742074686520746c64206f6044820152633bb732b960e11b60648201526084016106ba565b50600090815260076020526040812055565b6060600180546107c2906129ac565b600081815260096020526040812054429061112d906276a70090612b64565b1092915050565b600e8054610c89906129ac565b6106cf338383611f6a565b600c5460085460405162e4decd60e31b81526004810183905233916001600160a01b031690630726f66890602401602060405180830381865afa158015611197573d6000803e3d6000fd5b505050506040513d601f19601f820116820180604052508101906111bb919061298f565b6001600160a01b03161461121d5760405162461bcd60e51b8152602060048201526024808201527f4f776e61626c653a2063616c6c6572206973206e6f742074686520746c64206f6044820152633bb732b960e11b60648201526084016106ba565b6112276000600655565b50565b6112343383611bfd565b6112905760405162461bcd60e51b815260206004820152602760248201527f4552433732313a2063616c6c6572206973206e6f7420617070726f766564206f604482015266391037bbb732b960c91b60648201526084016106ba565b61129c84848484612038565b600a54600b546040516306ab592360e01b81526004810191909152602481018490526001600160a01b038581166044830152909116906306ab5923906064016020604051808303816000875af11580156112fa573d6000803e3d6000fd5b505050506040513d601f19601f82011682018060405250810190610e7c9190612af4565b600a54600b546040516302571be360e01b8152600481019190915260009130916001600160a01b03909116906302571be390602401602060405180830381865afa158015611370573d6000803e3d6000fd5b505050506040513d601f19601f82011682018060405250810190611394919061298f565b6001600160a01b0316146113a757600080fd5b6008546040805163f340041960e01b8152905133926001600160a01b03169163f34004199160048083019260209291908290030181865afa1580156113f0573d6000803e3d6000fd5b505050506040513d601f19601f82011682018060405250810190611414919061298f565b6001600160a01b03161461147f5760405162461bcd60e51b815260206004820152602c60248201527f41636365737369626c653a2063616c6c6572206973206e6f742074686520746c60448201526b321031b7b73a3937b63632b960a11b60648201526084016106ba565b600083815260096020526040902054429061149e906276a70090612b64565b10156114a957600080fd5b6114b66276a70083612b64565b6000848152600960205260409020546276a700906114d5908590612b64565b6114df9190612b64565b116114e957600080fd5b60008381526009602052604081208054849290611507908490612b64565b90915550506000838152600960205260409081902054905184917f9b87a00e30f1ac65d898f070f8a3488fe60517182d0a2098e1b4b93a54aa9bd69161154f91815260200190565b60405180910390a2505060009081526009602052604090205490565b6000818152600260205260409020546060906001600160a01b03166115f85760405162461bcd60e51b815260206004820152602f60248201527f4552433732314d657461646174613a2055524920717565727920666f72206e6f60448201527f6e6578697374656e7420746f6b656e000000000000000000000000000000000060648201526084016106ba565b6000600e8054611607906129ac565b80601f0160208091040260200160405190810160405280929190818152602001828054611633906129ac565b80156116805780601f1061165557610100808354040283529160200191611680565b820191906000526020600020905b81548152906001019060200180831161166357829003601f168201915b5050505050905060008151116116a557604051806020016040528060008152506116d0565b806116af846120c1565b6040516020016116c0929190612b77565b6040516020818303038152906040525b9392505050565b60006109a78484846001611931565b6127106bffffffffffffffffffffffff821611156117595760405162461bcd60e51b815260206004820152602a60248201527f455243323938313a20726f79616c7479206665652077696c6c206578636565646044820152692073616c65507269636560b01b60648201526084016106ba565b6001600160a01b0382166117af5760405162461bcd60e51b815260206004820152601960248201527f455243323938313a20696e76616c69642072656365697665720000000000000060448201526064016106ba565b604080518082019091526001600160a01b039092168083526bffffffffffffffffffffffff9091166020909201829052600160a01b90910217600655565b6000818152600260205260409020546001600160a01b03166112275760405162461bcd60e51b815260206004820152601860248201527f4552433732313a20696e76616c696420746f6b656e204944000000000000000060448201526064016106ba565b6000818152600260205260408120546001600160a01b0316806105e05760405162461bcd60e51b815260206004820152601860248201527f4552433732313a20696e76616c696420746f6b656e204944000000000000000060448201526064016106ba565b6000818152600460205260409020805473ffffffffffffffffffffffffffffffffffffffff19166001600160a01b03841690811790915581906118f882611851565b6001600160a01b03167f8c5be1e5ebec7d5bd14f71427d1e84f3dd0314c0f7b2291e5b200ac8c7c3b92560405160405180910390a45050565b600a54600b546040516302571be360e01b8152600481019190915260009130916001600160a01b03909116906302571be390602401602060405180830381865afa158015611983573d6000803e3d6000fd5b505050506040513d601f19601f820116820180604052508101906119a7919061298f565b6001600160a01b0316146119ba57600080fd5b6008546040805163f340041960e01b8152905133926001600160a01b03169163f34004199160048083019260209291908290030181865afa158015611a03573d6000803e3d6000fd5b505050506040513d601f19601f82011682018060405250810190611a27919061298f565b6001600160a01b031614611a925760405162461bcd60e51b815260206004820152602c60248201527f41636365737369626c653a2063616c6c6572206973206e6f742074686520746c60448201526b321031b7b73a3937b63632b960a11b60648201526084016106ba565b611a9b8561110e565b611aa457600080fd5b611ab16276a70042612b64565b6276a700611abf8542612b64565b611ac99190612b64565b11611ad357600080fd5b611add8342612b64565b6000868152600960209081526040808320939093556002905220546001600160a01b031615611b0f57611b0f856121f6565b611b198486612214565b8115611ba357600a54600b546040516306ab592360e01b81526004810191909152602481018790526001600160a01b038681166044830152909116906306ab5923906064016020604051808303816000875af1158015611b7d573d6000803e3d6000fd5b505050506040513d601f19601f82011682018060405250810190611ba19190612af4565b505b6001600160a01b038416857fb3d987963d01b2f68493b4bdb130988f157ea43070d4ad840fee0466ed9370d9611bd98642612b64565b60405190815260200160405180910390a3611bf48342612b64565b95945050505050565b600080611c0983610f5f565b9050806001600160a01b0316846001600160a01b03161480611c445750836001600160a01b0316611c3984610845565b6001600160a01b0316145b806109a757506001600160a01b0380821660009081526005602090815260408083209388168352929052205460ff166109a7565b826001600160a01b0316611c8b82611851565b6001600160a01b031614611d075760405162461bcd60e51b815260206004820152602560248201527f4552433732313a207472616e736665722066726f6d20696e636f72726563742060448201527f6f776e657200000000000000000000000000000000000000000000000000000060648201526084016106ba565b6001600160a01b038216611d825760405162461bcd60e51b8152602060048201526024808201527f4552433732313a207472616e7366657220746f20746865207a65726f2061646460448201527f726573730000000000000000000000000000000000000000000000000000000060648201526084016106ba565b611d8d6000826118b6565b6001600160a01b0383166000908152600360205260408120805460019290611db6908490612ba6565b90915550506001600160a01b0382166000908152600360205260408120805460019290611de4908490612b64565b9091555050600081815260026020526040808220805473ffffffffffffffffffffffffffffffffffffffff19166001600160a01b0386811691821790925591518493918716917fddf252ad1be2c89b69c2b068fc378daa952ba7f163c4a11628f55a4df523b3ef91a4505050565b6127106bffffffffffffffffffffffff82161115611ec55760405162461bcd60e51b815260206004820152602a60248201527f455243323938313a20726f79616c7479206665652077696c6c206578636565646044820152692073616c65507269636560b01b60648201526084016106ba565b6001600160a01b038216611f1b5760405162461bcd60e51b815260206004820152601b60248201527f455243323938313a20496e76616c696420706172616d6574657273000000000060448201526064016106ba565b6040805180820182526001600160a01b0393841681526bffffffffffffffffffffffff92831660208083019182526000968752600790529190942093519051909116600160a01b029116179055565b816001600160a01b0316836001600160a01b031603611fcb5760405162461bcd60e51b815260206004820152601960248201527f4552433732313a20617070726f766520746f2063616c6c65720000000000000060448201526064016106ba565b6001600160a01b03838116600081815260056020908152604080832094871680845294825291829020805460ff191686151590811790915591519182527f17307eab39ab6107e8899845ad3d59bd9653f200f220920489ca2b5937696c31910160405180910390a3505050565b612043848484611c78565b61204f84848484612233565b610aa25760405162461bcd60e51b815260206004820152603260248201527f4552433732313a207472616e7366657220746f206e6f6e20455243373231526560448201527f63656976657220696d706c656d656e746572000000000000000000000000000060648201526084016106ba565b60608160000361210457505060408051808201909152600181527f3000000000000000000000000000000000000000000000000000000000000000602082015290565b8160005b811561212e578061211881612bb9565b91506121279050600a83612b50565b9150612108565b60008167ffffffffffffffff811115612149576121496125b1565b6040519080825280601f01601f191660200182016040528015612173576020820181803683370190505b5090505b84156109a757612188600183612ba6565b9150612195600a86612bd2565b6121a0906030612b64565b60f81b8183815181106121b5576121b5612be6565b60200101907effffffffffffffffffffffffffffffffffffffffffffffffffffffffffffff1916908160001a9053506121ef600a86612b50565b9450612177565b6121ff81612387565b6001600f5461220e9190612ba6565b600f5550565b61221e828261242f565b600f5461222c906001612b64565b600f555050565b60006001600160a01b0384163b1561237f57604051630a85bd0160e11b81526001600160a01b0385169063150b7a0290612277903390899088908890600401612bfc565b6020604051808303816000875af19250505080156122b2575060408051601f3d908101601f191682019092526122af91810190612c38565b60015b612365573d8080156122e0576040519150601f19603f3d011682016040523d82523d6000602084013e6122e5565b606091505b50805160000361235d5760405162461bcd60e51b815260206004820152603260248201527f4552433732313a207472616e7366657220746f206e6f6e20455243373231526560448201527f63656976657220696d706c656d656e746572000000000000000000000000000060648201526084016106ba565b805181602001fd5b6001600160e01b031916630a85bd0160e11b1490506109a7565b5060016109a7565b600061239282611851565b905061239f6000836118b6565b6001600160a01b03811660009081526003602052604081208054600192906123c8908490612ba6565b9091555050600082815260026020526040808220805473ffffffffffffffffffffffffffffffffffffffff19169055518391906001600160a01b038416907fddf252ad1be2c89b69c2b068fc378daa952ba7f163c4a11628f55a4df523b3ef908390a45050565b6001600160a01b0382166124855760405162461bcd60e51b815260206004820181905260248201527f4552433732313a206d696e7420746f20746865207a65726f206164647265737360448201526064016106ba565b6000818152600260205260409020546001600160a01b0316156124ea5760405162461bcd60e51b815260206004820152601c60248201527f4552433732313a20746f6b656e20616c7265616479206d696e7465640000000060448201526064016106ba565b6001600160a01b0382166000908152600360205260408120805460019290612513908490612b64565b9091555050600081815260026020526040808220805473ffffffffffffffffffffffffffffffffffffffff19166001600160a01b03861690811790915590518392907fddf252ad1be2c89b69c2b068fc378daa952ba7f163c4a11628f55a4df523b3ef908290a45050565b6001600160e01b03198116811461122757600080fd5b6000602082840312156125a657600080fd5b81356116d08161257e565b634e487b7160e01b600052604160045260246000fd5b600067ffffffffffffffff808411156125e2576125e26125b1565b604051601f8501601f19908116603f0116810190828211818310171561260a5761260a6125b1565b8160405280935085815286868601111561262357600080fd5b858560208301376000602087830101525050509392505050565b60006020828403121561264f57600080fd5b813567ffffffffffffffff81111561266657600080fd5b8201601f8101841361267757600080fd5b6109a7848235602084016125c7565b6001600160a01b038116811461122757600080fd5b80356bffffffffffffffffffffffff811681146126b757600080fd5b919050565b600080604083850312156126cf57600080fd5b82356126da81612686565b91506126e86020840161269b565b90509250929050565b60005b8381101561270c5781810151838201526020016126f4565b50506000910152565b6000815180845261272d8160208601602086016126f1565b601f01601f19169290920160200192915050565b6020815260006116d06020830184612715565b60006020828403121561276657600080fd5b5035919050565b6000806040838503121561278057600080fd5b823561278b81612686565b946020939093013593505050565b6000806000606084860312156127ae57600080fd5b8335925060208401356127c081612686565b929592945050506040919091013590565b6000806000606084860312156127e657600080fd5b83356127f181612686565b925060208401356127c081612686565b6000806040838503121561281457600080fd5b82359150602083013561282681612686565b809150509250929050565b6000806040838503121561284457600080fd5b50508035926020909101359150565b60006020828403121561286557600080fd5b81356116d081612686565b60008060006060848603121561288557600080fd5b83359250602084013561289781612686565b91506128a56040850161269b565b90509250925092565b600080604083850312156128c157600080fd5b82356128cc81612686565b91506020830135801515811461282657600080fd5b600080600080608085870312156128f757600080fd5b843561290281612686565b9350602085013561291281612686565b925060408501359150606085013567ffffffffffffffff81111561293557600080fd5b8501601f8101871361294657600080fd5b612955878235602084016125c7565b91505092959194509250565b6000806040838503121561297457600080fd5b823561297f81612686565b9150602083013561282681612686565b6000602082840312156129a157600080fd5b81516116d081612686565b600181811c908216806129c057607f821691505b6020821081036129e057634e487b7160e01b600052602260045260246000fd5b50919050565b601f8211156107ae57600081815260208120601f850160051c81016020861015612a0d5750805b601f850160051c820191505b81811015612a2c57828155600101612a19565b505050505050565b815167ffffffffffffffff811115612a4e57612a4e6125b1565b612a6281612a5c84546129ac565b846129e6565b602080601f831160018114612a975760008415612a7f5750858301515b600019600386901b1c1916600185901b178555612a2c565b600085815260208120601f198616915b82811015612ac657888601518255948401946001909101908401612aa7565b5085821015612ae45787850151600019600388901b60f8161c191681555b5050505050600190811b01905550565b600060208284031215612b0657600080fd5b5051919050565b634e487b7160e01b600052601160045260246000fd5b80820281158282048414176105e0576105e0612b0d565b634e487b7160e01b600052601260045260246000fd5b600082612b5f57612b5f612b3a565b500490565b808201808211156105e0576105e0612b0d565b60008351612b898184602088016126f1565b835190830190612b9d8183602088016126f1565b01949350505050565b818103818111156105e0576105e0612b0d565b600060018201612bcb57612bcb612b0d565b5060010190565b600082612be157612be1612b3a565b500690565b634e487b7160e01b600052603260045260246000fd5b60006001600160a01b03808716835280861660208401525083604083015260806060830152612c2e6080830184612715565b9695505050505050565b600060208284031215612c4a57600080fd5b81516116d08161257e56fea2646970667358221220709df80bcee2911643c35725f0e912c53eabb55902a8a312e2ba91423a4b512e64736f6c63430008120033",
  "linkReferences": {},
  "deployedLinkReferences": {}
}