{
  "_format": "hh-sol-artifact-1",
  "contractName": "Auction",
  "sourceName": "contracts/preregistration/Auction.sol",
  "abi": [
    {
      "inputs": [
        {
          "internalType": "contract ISANN",
          "name": "_sann",
          "type": "address"
        },
        {
          "internalType": "uint256",
          "name": "_identifier",
          "type": "uint256"
        },
        {
          "internalType": "contract IRegistrarController",
          "name": "_controller",
          "type": "address"
        },
        {
          "internalType": "contract PreRegistrationState",
          "name": "_state",
          "type": "address"
        },
        {
          "internalType": "contract IPlatformConfig",
          "name": "_platformConfig",
          "type": "address"
        },
        {
          "internalType": "contract PrepaidPlatformFee",
          "name": "_prepaidPlatformFee",
          "type": "address"
        }
      ],
      "stateMutability": "nonpayable",
      "type": "constructor"
    },
    {
      "inputs": [],
      "name": "AuctionEnded",
      "type": "error"
    },
    {
      "inputs": [],
      "name": "AuctionWinnerCannotWithdraw",
      "type": "error"
    },
    {
      "inputs": [
        {
          "internalType": "uint256",
          "name": "minBidAmount",
          "type": "uint256"
        }
      ],
      "name": "BidAmountTooLow",
      "type": "error"
    },
    {
      "inputs": [],
      "name": "CannotWithdrawZeroAmount",
      "type": "error"
    },
    {
      "inputs": [
        {
          "internalType": "string",
          "name": "label",
          "type": "string"
        }
      ],
      "name": "DomainNotAvailable",
      "type": "error"
    },
    {
      "anonymous": false,
      "inputs": [
        {
          "indexed": false,
          "internalType": "uint256",
          "name": "tokenID",
          "type": "uint256"
        },
        {
          "indexed": false,
          "internalType": "string",
          "name": "label",
          "type": "string"
        },
        {
          "indexed": false,
          "internalType": "address",
          "name": "bidder",
          "type": "address"
        },
        {
          "indexed": false,
          "internalType": "uint256",
          "name": "bid",
          "type": "uint256"
        }
      ],
      "name": "Bid",
      "type": "event"
    },
    {
      "inputs": [
        {
          "internalType": "string",
          "name": "name",
          "type": "string"
        }
      ],
      "name": "available",
      "outputs": [
        {
          "internalType": "bool",
          "name": "",
          "type": "bool"
        }
      ],
      "stateMutability": "view",
      "type": "function"
    },
    {
      "inputs": [],
      "name": "controller",
      "outputs": [
        {
          "internalType": "contract IRegistrarController",
          "name": "",
          "type": "address"
        }
      ],
      "stateMutability": "view",
      "type": "function"
    },
    {
      "inputs": [],
      "name": "identifier",
      "outputs": [
        {
          "internalType": "uint256",
          "name": "",
          "type": "uint256"
        }
      ],
      "stateMutability": "view",
      "type": "function"
    },
    {
      "inputs": [
        {
          "internalType": "address",
          "name": "user",
          "type": "address"
        },
        {
          "internalType": "uint256",
          "name": "tokenID",
          "type": "uint256"
        }
      ],
      "name": "isWinner",
      "outputs": [
        {
          "internalType": "bool",
          "name": "",
          "type": "bool"
        }
      ],
      "stateMutability": "view",
      "type": "function"
    },
    {
      "inputs": [
        {
          "internalType": "uint256",
          "name": "tokenID",
          "type": "uint256"
        },
        {
          "internalType": "string",
          "name": "name",
          "type": "string"
        }
      ],
      "name": "nextBidFloorPrice",
      "outputs": [
        {
          "internalType": "uint256",
          "name": "",
          "type": "uint256"
        }
      ],
      "stateMutability": "view",
      "type": "function"
    },
    {
      "inputs": [],
      "name": "ownerCanWithdraw",
      "outputs": [
        {
          "internalType": "uint256",
          "name": "",
          "type": "uint256"
        }
      ],
      "stateMutability": "view",
      "type": "function"
    },
    {
      "inputs": [],
      "name": "ownerWithdraw",
      "outputs": [],
      "stateMutability": "nonpayable",
      "type": "function"
    },
    {
      "inputs": [
        {
          "internalType": "string",
          "name": "label",
          "type": "string"
        }
      ],
      "name": "placeBid",
      "outputs": [
        {
          "internalType": "uint256",
          "name": "",
          "type": "uint256"
        }
      ],
      "stateMutability": "payable",
      "type": "function"
    },
    {
      "inputs": [],
      "name": "platformConfig",
      "outputs": [
        {
          "internalType": "contract IPlatformConfig",
          "name": "",
          "type": "address"
        }
      ],
      "stateMutability": "view",
      "type": "function"
    },
    {
      "inputs": [],
      "name": "prepaidPlatformFee",
      "outputs": [
        {
          "internalType": "contract PrepaidPlatformFee",
          "name": "",
          "type": "address"
        }
      ],
      "stateMutability": "view",
      "type": "function"
    },
    {
      "inputs": [],
      "name": "sann",
      "outputs": [
        {
          "internalType": "contract ISANN",
          "name": "",
          "type": "address"
        }
      ],
      "stateMutability": "view",
      "type": "function"
    },
    {
      "inputs": [],
      "name": "state",
      "outputs": [
        {
          "internalType": "contract PreRegistrationState",
          "name": "",
          "type": "address"
        }
      ],
      "stateMutability": "view",
      "type": "function"
    },
    {
      "inputs": [
        {
          "internalType": "uint256",
          "name": "tokenID",
          "type": "uint256"
        }
      ],
      "name": "winnerOf",
      "outputs": [
        {
          "internalType": "address",
          "name": "",
          "type": "address"
        }
      ],
      "stateMutability": "view",
      "type": "function"
    },
    {
      "inputs": [
        {
          "internalType": "string",
          "name": "label",
          "type": "string"
        }
      ],
      "name": "withdraw",
      "outputs": [
        {
          "internalType": "uint256",
          "name": "",
          "type": "uint256"
        }
      ],
      "stateMutability": "nonpayable",
      "type": "function"
    }
  ],
  "bytecode": "0x60c06040523480156200001157600080fd5b50604051620017e6380380620017e68339810160408190526200003491620000ac565b600080546001600160a01b039788166001600160a01b03199182161790915560a0959095529285166080526002805492861692851692909217909155600180549185169184169190911790556003805491909316911617905562000134565b6001600160a01b0381168114620000a957600080fd5b50565b60008060008060008060c08789031215620000c657600080fd5b8651620000d38162000093565b602088015160408901519197509550620000ed8162000093565b6060880151909450620001008162000093565b6080880151909350620001138162000093565b60a0880151909250620001268162000093565b809150509295509295509295565b60805160a05161165b6200018b600039600081816101c6015281816104550152818161075701528181610ac301528181610eed0152610fa10152600081816102c3015281816104260152610a96015261165b6000f3fe6080604052600436106100dd5760003560e01c80638cb5d7001161007f578063c19d93fb11610059578063c19d93fb1461025e578063d46da3871461027e578063e967e60c1461029e578063f77c4791146102b157600080fd5b80638cb5d700146101fe578063a289cf841461021e578063aeb8ce9b1461023e57600080fd5b80634311de8f116100bb5780634311de8f146101655780634d24e2361461017c5780637998a1c4146101b457806384fdec83146101e857600080fd5b80630d654751146100e257806315eb68531461011557806331fb67c214610145575b600080fd5b3480156100ee57600080fd5b506101026100fd366004611269565b6102e5565b6040519081526020015b60405180910390f35b34801561012157600080fd5b506101356101303660046112cd565b6104eb565b604051901515815260200161010c565b34801561015157600080fd5b506101026101603660046112f9565b610513565b34801561017157600080fd5b5061017a61072c565b005b34801561018857600080fd5b5060015461019c906001600160a01b031681565b6040516001600160a01b03909116815260200161010c565b3480156101c057600080fd5b506101027f000000000000000000000000000000000000000000000000000000000000000081565b3480156101f457600080fd5b5061010260045481565b34801561020a57600080fd5b5061019c61021936600461133b565b6109dc565b34801561022a57600080fd5b5060035461019c906001600160a01b031681565b34801561024a57600080fd5b506101356102593660046112f9565b610a63565b34801561026a57600080fd5b5060025461019c906001600160a01b031681565b34801561028a57600080fd5b5060005461019c906001600160a01b031681565b6101026102ac3660046112f9565b610b30565b3480156102bd57600080fd5b5061019c7f000000000000000000000000000000000000000000000000000000000000000081565b6000806102f1856109dc565b90506001600160a01b0381161561039957600254604051632d3f2b0560e01b8152600481018790526001600160a01b0383811660248301526000921690632d3f2b0590604401602060405180830381865afa158015610354573d6000803e3d6000fd5b505050506040513d601f19601f820116820180604052508101906103789190611354565b9050610385606482611383565b6103909060696113a5565b925050506104e4565b600254604080517f888319d600000000000000000000000000000000000000000000000000000000815290516000926001600160a01b03169163888319d69160048083019260209291908290030181865afa1580156103fc573d6000803e3d6000fd5b505050506040513d601f19601f820116820180604052508101906104209190611354565b905060007f00000000000000000000000000000000000000000000000000000000000000006001600160a01b031663fdd32ec47f0000000000000000000000000000000000000000000000000000000000000000888833876040518663ffffffff1660e01b81526004016104989594939291906113e5565b602060405180830381865afa1580156104b5573d6000803e3d6000fd5b505050506040513d601f19601f820116820180604052508101906104d99190611354565b93506104e492505050565b9392505050565b6000826001600160a01b0316610500836109dc565b6001600160a01b03161490505b92915050565b6000808383604051610526929190611430565b604051908190039020905061053b33826104eb565b15610572576040517ff2d28b5b00000000000000000000000000000000000000000000000000000000815260040160405180910390fd5b600254604051632d3f2b0560e01b8152600481018390523360248201526000916001600160a01b031690632d3f2b0590604401602060405180830381865afa1580156105c2573d6000803e3d6000fd5b505050506040513d601f19601f820116820180604052508101906105e69190611354565b9050806000036106095760405163c740c32d60e01b815260040160405180910390fd5b6002546040517f2cd8cde7000000000000000000000000000000000000000000000000000000008152600481018490523360248201526001600160a01b0390911690632cd8cde790604401600060405180830381600087803b15801561066e57600080fd5b505af1158015610682573d6000803e3d6000fd5b50506040516000925033915083908381818185875af1925050503d80600081146106c8576040519150601f19603f3d011682016040523d82523d6000602084013e6106cd565b606091505b50509050806107235760405162461bcd60e51b815260206004820152601460248201527f4661696c656420746f2073656e6420457468657200000000000000000000000060448201526064015b60405180910390fd5b50949350505050565b6000546040517f0726f6680000000000000000000000000000000000000000000000000000000081527f0000000000000000000000000000000000000000000000000000000000000000600482018190529133916001600160a01b0390911690630726f66890602401602060405180830381865afa1580156107b2573d6000803e3d6000fd5b505050506040513d601f19601f820116820180604052508101906107d69190611450565b6001600160a01b0316146108515760405162461bcd60e51b8152602060048201526024808201527f4f776e61626c653a2063616c6c6572206973206e6f742074686520746c64206f60448201527f776e657200000000000000000000000000000000000000000000000000000000606482015260840161071a565b600260009054906101000a90046001600160a01b03166001600160a01b031663864333746040518163ffffffff1660e01b8152600401602060405180830381865afa1580156108a4573d6000803e3d6000fd5b505050506040513d601f19601f820116820180604052508101906108c8919061146d565b6109145760405162461bcd60e51b815260206004820152601160248201527f61756374696f6e206e6f7420656e646564000000000000000000000000000000604482015260640161071a565b600480546000918290559081900361093f5760405163c740c32d60e01b815260040160405180910390fd5b604051600090339083908381818185875af1925050503d8060008114610981576040519150601f19603f3d011682016040523d82523d6000602084013e610986565b606091505b50509050806109d75760405162461bcd60e51b815260206004820152601460248201527f4661696c656420746f2073656e64204574686572000000000000000000000000604482015260640161071a565b505050565b6002546040517f8cb5d700000000000000000000000000000000000000000000000000000000008152600481018390526000916001600160a01b031690638cb5d70090602401602060405180830381865afa158015610a3f573d6000803e3d6000fd5b505050506040513d601f19601f8201168201806040525081019061050d9190611450565b6040517f08d2396f0000000000000000000000000000000000000000000000000000000081526000906001600160a01b037f000000000000000000000000000000000000000000000000000000000000000016906308d2396f90610aef907f0000000000000000000000000000000000000000000000000000000000000000908790879060040161148f565b602060405180830381865afa158015610b0c573d6000803e3d6000fd5b505050506040513d601f19601f820116820180604052508101906104e4919061146d565b600254604080517f87bbaeb600000000000000000000000000000000000000000000000000000000815290516000926001600160a01b0316916387bbaeb69160048083019260209291908290030181865afa158015610b93573d6000803e3d6000fd5b505050506040513d601f19601f82011682018060405250810190610bb7919061146d565b610c035760405162461bcd60e51b815260206004820152600e60248201527f6e6f7420696e2061756374696f6e000000000000000000000000000000000000604482015260640161071a565b60003411610c275760405163235c188560e01b81526001600482015260240161071a565b60008383604051610c39929190611430565b6040519081900381206002547f58e1d968000000000000000000000000000000000000000000000000000000008352336004840152602483018290529092506001600160a01b0316906358e1d96890604401600060405180830381600087803b158015610ca557600080fd5b505af1158015610cb9573d6000803e3d6000fd5b50505050610cc88185856110e7565b600254604051634b6d21db60e11b81526004810183905260009182916001600160a01b03909116906396da43b690602401600060405180830381865afa158015610d16573d6000803e3d6000fd5b505050506040513d6000823e601f3d908101601f19168201604052610d3e91908101906114c8565b925092505080421115610d7d576040517fa0e9298400000000000000000000000000000000000000000000000000000000815260040160405180910390fd5b600254604051632d3f2b0560e01b81526004810185905233602482015260009134916001600160a01b0390911690632d3f2b0590604401602060405180830381865afa158015610dd1573d6000803e3d6000fd5b505050506040513d601f19601f82011682018060405250810190610df59190611354565b610dff91906115ac565b90506000610e0e8589896102e5565b905080821015610e345760405163235c188560e01b81526004810182905260240161071a565b600254604051632d3f2b0560e01b8152600481018790526001600160a01b0386811660248301526000921690632d3f2b0590604401602060405180830381865afa158015610e86573d6000803e3d6000fd5b505050506040513d601f19601f82011682018060405250810190610eaa9190611354565b90506000610eb882856115bf565b90506000811561100f576001546040517f38ad91590000000000000000000000000000000000000000000000000000000081527f00000000000000000000000000000000000000000000000000000000000000006004820152602481018490526001600160a01b03909116906338ad915990604401602060405180830381865afa158015610f4a573d6000803e3d6000fd5b505050506040513d601f19601f82011682018060405250810190610f6e9190611354565b9050801561100f576003546040517fb6b55f250000000000000000000000000000000000000000000000000000000081527f000000000000000000000000000000000000000000000000000000000000000060048201526001600160a01b039091169063b6b55f259083906024016000604051808303818588803b158015610ff557600080fd5b505af1158015611009573d6000803e3d6000fd5b50505050505b61101981836115bf565b6004600082825461102a91906115ac565b9091555050600254604051632fe9aa6560e11b81526001600160a01b0390911690635fd354ca90611067908b908f908f9033908c906004016115d2565b600060405180830381600087803b15801561108157600080fd5b505af1158015611095573d6000803e3d6000fd5b505050507fb773ce5048c68e3c2b907d5b3fbf2875976f4c973ae9494721266036d3d9af8b888c8c33896040516110d09594939291906115d2565b60405180910390a150929998505050505050505050565b6110f18282610a63565b61112b5781816040517f7772f70700000000000000000000000000000000000000000000000000000000815260040161071a929190611609565b600254604051634b6d21db60e11b8152600481018590526000916001600160a01b0316906396da43b690602401600060405180830381865afa158015611175573d6000803e3d6000fd5b505050506040513d6000823e601f3d908101601f1916820160405261119d91908101906114c8565b92505050806000146111af5750505050565b600254604051632fe9aa6560e11b81526001600160a01b0390911690635fd354ca906111e89087908790879060009081906004016115d2565b600060405180830381600087803b15801561120257600080fd5b505af1158015611216573d6000803e3d6000fd5b5050505050505050565b60008083601f84011261123257600080fd5b50813567ffffffffffffffff81111561124a57600080fd5b60208301915083602082850101111561126257600080fd5b9250929050565b60008060006040848603121561127e57600080fd5b83359250602084013567ffffffffffffffff81111561129c57600080fd5b6112a886828701611220565b9497909650939450505050565b6001600160a01b03811681146112ca57600080fd5b50565b600080604083850312156112e057600080fd5b82356112eb816112b5565b946020939093013593505050565b6000806020838503121561130c57600080fd5b823567ffffffffffffffff81111561132357600080fd5b61132f85828601611220565b90969095509350505050565b60006020828403121561134d57600080fd5b5035919050565b60006020828403121561136657600080fd5b5051919050565b634e487b7160e01b600052601160045260246000fd5b6000826113a057634e487b7160e01b600052601260045260246000fd5b500490565b808202811582820484141761050d5761050d61136d565b81835281816020850137506000828201602090810191909152601f909101601f19169091010190565b85815260a0602082015260006113ff60a0830186886113bc565b6001600160a01b03949094166040830152506060810191909152808203608090910152600081526020019392505050565b8183823760009101908152919050565b805161144b816112b5565b919050565b60006020828403121561146257600080fd5b81516104e4816112b5565b60006020828403121561147f57600080fd5b815180151581146104e457600080fd5b8381526040602082015260006114a96040830184866113bc565b95945050505050565b634e487b7160e01b600052604160045260246000fd5b6000806000606084860312156114dd57600080fd5b835167ffffffffffffffff808211156114f557600080fd5b818601915086601f83011261150957600080fd5b81518181111561151b5761151b6114b2565b604051601f8201601f19908116603f01168101908382118183101715611543576115436114b2565b8160405282815260209350898484870101111561155f57600080fd5b600091505b828210156115815784820184015181830185015290830190611564565b600084848301015280975050505061159a818701611440565b93505050604084015190509250925092565b8082018082111561050d5761050d61136d565b8181038181111561050d5761050d61136d565b8581526080602082015260006115ec6080830186886113bc565b6001600160a01b0394909416604083015250606001529392505050565b60208152600061161d6020830184866113bc565b94935050505056fea26469706673582212200b43c8ab822b20015e152a41a7e21dd9c9a018552bfdd0b5ef149ae6ca21a73964736f6c63430008120033",
  "linkReferences": {},
  "deployedLinkReferences": {}
}