{
  "_format": "hh-sol-artifact-1",
  "contractName": "RegistrarController",
  "sourceName": "contracts/controller/RegistrarController.sol",
  "abi": [
    {
      "inputs": [],
      "stateMutability": "nonpayable",
      "type": "constructor"
    },
    {
      "inputs": [
        {
          "internalType": "uint256",
          "name": "identifier",
          "type": "uint256"
        },
        {
          "internalType": "uint256",
          "name": "duration",
          "type": "uint256"
        }
      ],
      "name": "DurationTooShort",
      "type": "error"
    },
    {
      "inputs": [
        {
          "internalType": "uint256",
          "name": "identifier",
          "type": "uint256"
        },
        {
          "internalType": "string",
          "name": "name",
          "type": "string"
        }
      ],
      "name": "NameNotAvailable",
      "type": "error"
    },
    {
      "inputs": [],
      "name": "NotQualifiedRegister",
      "type": "error"
    },
    {
      "inputs": [
        {
          "internalType": "uint256",
          "name": "realPrice",
          "type": "uint256"
        }
      ],
      "name": "SimulatePrice",
      "type": "error"
    },
    {
      "anonymous": false,
      "inputs": [
        {
          "indexed": false,
          "internalType": "address",
          "name": "previousAdmin",
          "type": "address"
        },
        {
          "indexed": false,
          "internalType": "address",
          "name": "newAdmin",
          "type": "address"
        }
      ],
      "name": "AdminChanged",
      "type": "event"
    },
    {
      "anonymous": false,
      "inputs": [
        {
          "indexed": true,
          "internalType": "address",
          "name": "beacon",
          "type": "address"
        }
      ],
      "name": "BeaconUpgraded",
      "type": "event"
    },
    {
      "anonymous": false,
      "inputs": [
        {
          "indexed": false,
          "internalType": "uint8",
          "name": "version",
          "type": "uint8"
        }
      ],
      "name": "Initialized",
      "type": "event"
    },
    {
      "anonymous": false,
      "inputs": [
        {
          "indexed": false,
          "internalType": "uint256",
          "name": "identifier",
          "type": "uint256"
        },
        {
          "indexed": false,
          "internalType": "string",
          "name": "name",
          "type": "string"
        },
        {
          "indexed": true,
          "internalType": "bytes32",
          "name": "label",
          "type": "bytes32"
        },
        {
          "indexed": true,
          "internalType": "address",
          "name": "owner",
          "type": "address"
        },
        {
          "indexed": false,
          "internalType": "uint256",
          "name": "baseCost",
          "type": "uint256"
        },
        {
          "indexed": false,
          "internalType": "uint256",
          "name": "expires",
          "type": "uint256"
        }
      ],
      "name": "NameRegistered",
      "type": "event"
    },
    {
      "anonymous": false,
      "inputs": [
        {
          "indexed": false,
          "internalType": "uint256",
          "name": "identifier",
          "type": "uint256"
        },
        {
          "indexed": false,
          "internalType": "string",
          "name": "name",
          "type": "string"
        },
        {
          "indexed": true,
          "internalType": "bytes32",
          "name": "label",
          "type": "bytes32"
        },
        {
          "indexed": false,
          "internalType": "uint256",
          "name": "cost",
          "type": "uint256"
        },
        {
          "indexed": false,
          "internalType": "uint256",
          "name": "expires",
          "type": "uint256"
        }
      ],
      "name": "NameRenewed",
      "type": "event"
    },
    {
      "anonymous": false,
      "inputs": [
        {
          "indexed": false,
          "internalType": "uint256",
          "name": "identifier",
          "type": "uint256"
        },
        {
          "indexed": false,
          "internalType": "bool",
          "name": "hasMintCap",
          "type": "bool"
        }
      ],
      "name": "SetHasMintCap",
      "type": "event"
    },
    {
      "anonymous": false,
      "inputs": [
        {
          "indexed": false,
          "internalType": "uint256",
          "name": "identifier",
          "type": "uint256"
        },
        {
          "indexed": false,
          "internalType": "uint256",
          "name": "maxDomainLength",
          "type": "uint256"
        }
      ],
      "name": "SetMaxDomainLength",
      "type": "event"
    },
    {
      "anonymous": false,
      "inputs": [
        {
          "indexed": false,
          "internalType": "uint256",
          "name": "identifier",
          "type": "uint256"
        },
        {
          "indexed": false,
          "internalType": "uint256",
          "name": "minDomainLength",
          "type": "uint256"
        }
      ],
      "name": "SetMinDomainLength",
      "type": "event"
    },
    {
      "anonymous": false,
      "inputs": [
        {
          "indexed": false,
          "internalType": "uint256",
          "name": "identifier",
          "type": "uint256"
        },
        {
          "indexed": false,
          "internalType": "uint256",
          "name": "minRegistrationDuration",
          "type": "uint256"
        }
      ],
      "name": "SetMinRegistrationDuration",
      "type": "event"
    },
    {
      "anonymous": false,
      "inputs": [
        {
          "indexed": false,
          "internalType": "uint256",
          "name": "identifier",
          "type": "uint256"
        },
        {
          "indexed": false,
          "internalType": "uint256",
          "name": "minRenewDuration",
          "type": "uint256"
        }
      ],
      "name": "SetMinRenewDuration",
      "type": "event"
    },
    {
      "anonymous": false,
      "inputs": [
        {
          "indexed": false,
          "internalType": "uint256",
          "name": "identifier",
          "type": "uint256"
        },
        {
          "indexed": false,
          "internalType": "uint256",
          "name": "mintCap",
          "type": "uint256"
        }
      ],
      "name": "SetMintCap",
      "type": "event"
    },
    {
      "anonymous": false,
      "inputs": [
        {
          "indexed": false,
          "internalType": "uint256",
          "name": "identifier",
          "type": "uint256"
        },
        {
          "indexed": false,
          "internalType": "address",
          "name": "hook",
          "type": "address"
        }
      ],
      "name": "SetPointHook",
      "type": "event"
    },
    {
      "anonymous": false,
      "inputs": [
        {
          "indexed": false,
          "internalType": "uint256",
          "name": "identifier",
          "type": "uint256"
        },
        {
          "indexed": false,
          "internalType": "address",
          "name": "hook",
          "type": "address"
        }
      ],
      "name": "SetPriceHook",
      "type": "event"
    },
    {
      "anonymous": false,
      "inputs": [
        {
          "indexed": false,
          "internalType": "uint256",
          "name": "identifier",
          "type": "uint256"
        },
        {
          "indexed": false,
          "internalType": "address",
          "name": "hook",
          "type": "address"
        }
      ],
      "name": "SetQualificationHook",
      "type": "event"
    },
    {
      "anonymous": false,
      "inputs": [
        {
          "indexed": false,
          "internalType": "uint256",
          "name": "identifier",
          "type": "uint256"
        },
        {
          "indexed": false,
          "internalType": "address",
          "name": "hook",
          "type": "address"
        }
      ],
      "name": "SetRenewPointHook",
      "type": "event"
    },
    {
      "anonymous": false,
      "inputs": [
        {
          "indexed": false,
          "internalType": "uint256",
          "name": "identifier",
          "type": "uint256"
        },
        {
          "indexed": false,
          "internalType": "address",
          "name": "hook",
          "type": "address"
        }
      ],
      "name": "SetRenewPriceHook",
      "type": "event"
    },
    {
      "anonymous": false,
      "inputs": [
        {
          "indexed": false,
          "internalType": "uint256",
          "name": "identifier",
          "type": "uint256"
        },
        {
          "indexed": false,
          "internalType": "address",
          "name": "hook",
          "type": "address"
        }
      ],
      "name": "SetRenewRewardHook",
      "type": "event"
    },
    {
      "anonymous": false,
      "inputs": [
        {
          "indexed": false,
          "internalType": "uint256",
          "name": "identifier",
          "type": "uint256"
        },
        {
          "indexed": false,
          "internalType": "address",
          "name": "hook",
          "type": "address"
        }
      ],
      "name": "SetRewardHook",
      "type": "event"
    },
    {
      "anonymous": false,
      "inputs": [
        {
          "indexed": false,
          "internalType": "uint256",
          "name": "identifier",
          "type": "uint256"
        },
        {
          "indexed": false,
          "internalType": "address",
          "name": "base",
          "type": "address"
        }
      ],
      "name": "SetTldBase",
      "type": "event"
    },
    {
      "anonymous": false,
      "inputs": [
        {
          "indexed": false,
          "internalType": "uint256",
          "name": "identifier",
          "type": "uint256"
        },
        {
          "indexed": false,
          "internalType": "address",
          "name": "priceOracle",
          "type": "address"
        }
      ],
      "name": "SetTldPriceOracle",
      "type": "event"
    },
    {
      "anonymous": false,
      "inputs": [
        {
          "indexed": true,
          "internalType": "address",
          "name": "implementation",
          "type": "address"
        }
      ],
      "name": "Upgraded",
      "type": "event"
    },
    {
      "inputs": [
        {
          "internalType": "uint256",
          "name": "identifier",
          "type": "uint256"
        },
        {
          "internalType": "string",
          "name": "name",
          "type": "string"
        }
      ],
      "name": "available",
      "outputs": [
        {
          "internalType": "bool",
          "name": "",
          "type": "bool"
        }
      ],
      "stateMutability": "view",
      "type": "function"
    },
    {
      "inputs": [
        {
          "internalType": "uint256",
          "name": "identifier",
          "type": "uint256"
        },
        {
          "internalType": "string[]",
          "name": "names",
          "type": "string[]"
        },
        {
          "internalType": "address",
          "name": "owner",
          "type": "address"
        },
        {
          "internalType": "uint256",
          "name": "duration",
          "type": "uint256"
        },
        {
          "internalType": "address",
          "name": "resolver",
          "type": "address"
        },
        {
          "internalType": "bool",
          "name": "setTldName",
          "type": "bool"
        },
        {
          "internalType": "bytes[]",
          "name": "extraData",
          "type": "bytes[]"
        }
      ],
      "name": "bulkRegister",
      "outputs": [
        {
          "internalType": "uint256",
          "name": "",
          "type": "uint256"
        }
      ],
      "stateMutability": "payable",
      "type": "function"
    },
    {
      "inputs": [
        {
          "internalType": "uint256",
          "name": "identifier",
          "type": "uint256"
        },
        {
          "internalType": "string[]",
          "name": "names",
          "type": "string[]"
        },
        {
          "internalType": "address",
          "name": "owner",
          "type": "address"
        },
        {
          "internalType": "uint256",
          "name": "duration",
          "type": "uint256"
        },
        {
          "internalType": "address",
          "name": "resolver",
          "type": "address"
        },
        {
          "internalType": "bool",
          "name": "setTldName",
          "type": "bool"
        },
        {
          "internalType": "bytes[]",
          "name": "extraData",
          "type": "bytes[]"
        }
      ],
      "name": "bulkRegisterSimulate",
      "outputs": [
        {
          "internalType": "uint256",
          "name": "",
          "type": "uint256"
        }
      ],
      "stateMutability": "payable",
      "type": "function"
    },
    {
      "inputs": [
        {
          "internalType": "uint256",
          "name": "identifier",
          "type": "uint256"
        },
        {
          "internalType": "string[]",
          "name": "names",
          "type": "string[]"
        },
        {
          "internalType": "uint256",
          "name": "duration",
          "type": "uint256"
        },
        {
          "internalType": "bytes[]",
          "name": "extraData",
          "type": "bytes[]"
        }
      ],
      "name": "bulkRenew",
      "outputs": [
        {
          "internalType": "uint256",
          "name": "",
          "type": "uint256"
        }
      ],
      "stateMutability": "payable",
      "type": "function"
    },
    {
      "inputs": [
        {
          "internalType": "uint256",
          "name": "identifier",
          "type": "uint256"
        },
        {
          "internalType": "string[]",
          "name": "names",
          "type": "string[]"
        },
        {
          "internalType": "uint256",
          "name": "duration",
          "type": "uint256"
        },
        {
          "internalType": "address",
          "name": "initiatedBy",
          "type": "address"
        },
        {
          "internalType": "bytes[]",
          "name": "extraData",
          "type": "bytes[]"
        }
      ],
      "name": "bulkRenewSimulate",
      "outputs": [
        {
          "internalType": "uint256",
          "name": "",
          "type": "uint256"
        }
      ],
      "stateMutability": "payable",
      "type": "function"
    },
    {
      "inputs": [
        {
          "internalType": "uint256",
          "name": "identifier",
          "type": "uint256"
        },
        {
          "internalType": "string[]",
          "name": "names",
          "type": "string[]"
        },
        {
          "internalType": "uint256",
          "name": "duration",
          "type": "uint256"
        }
      ],
      "name": "bulkRentPrice",
      "outputs": [
        {
          "internalType": "uint256",
          "name": "total",
          "type": "uint256"
        }
      ],
      "stateMutability": "view",
      "type": "function"
    },
    {
      "inputs": [],
      "name": "defaultPriceOracle",
      "outputs": [
        {
          "internalType": "contract IPriceOracle",
          "name": "",
          "type": "address"
        }
      ],
      "stateMutability": "view",
      "type": "function"
    },
    {
      "inputs": [
        {
          "internalType": "uint256",
          "name": "identifier",
          "type": "uint256"
        }
      ],
      "name": "getPriceOracle",
      "outputs": [
        {
          "internalType": "contract IPriceOracle",
          "name": "",
          "type": "address"
        }
      ],
      "stateMutability": "view",
      "type": "function"
    },
    {
      "inputs": [
        {
          "internalType": "contract ISANN",
          "name": "_sann",
          "type": "address"
        },
        {
          "internalType": "contract IPlatformConfig",
          "name": "_platformConfig",
          "type": "address"
        },
        {
          "internalType": "contract IPrepaidPlatformFee",
          "name": "_prepaidPlatformFee",
          "type": "address"
        },
        {
          "internalType": "contract IPriceOracle",
          "name": "_priceOracle",
          "type": "address"
        },
        {
          "internalType": "contract IReverseRegistrar",
          "name": "_reverseRegistrar",
          "type": "address"
        }
      ],
      "name": "initialize",
      "outputs": [],
      "stateMutability": "nonpayable",
      "type": "function"
    },
    {
      "inputs": [],
      "name": "platformConfig",
      "outputs": [
        {
          "internalType": "contract IPlatformConfig",
          "name": "",
          "type": "address"
        }
      ],
      "stateMutability": "view",
      "type": "function"
    },
    {
      "inputs": [],
      "name": "platformFeeBalance",
      "outputs": [
        {
          "internalType": "uint256",
          "name": "",
          "type": "uint256"
        }
      ],
      "stateMutability": "view",
      "type": "function"
    },
    {
      "inputs": [],
      "name": "prepaidPlatformFee",
      "outputs": [
        {
          "internalType": "contract IPrepaidPlatformFee",
          "name": "",
          "type": "address"
        }
      ],
      "stateMutability": "view",
      "type": "function"
    },
    {
      "inputs": [
        {
          "internalType": "uint256",
          "name": "identifier",
          "type": "uint256"
        },
        {
          "internalType": "string",
          "name": "_name",
          "type": "string"
        },
        {
          "internalType": "address",
          "name": "_buyer",
          "type": "address"
        },
        {
          "internalType": "uint256",
          "name": "_duration",
          "type": "uint256"
        },
        {
          "internalType": "bytes",
          "name": "_extraData",
          "type": "bytes"
        }
      ],
      "name": "priceAfterDiscount",
      "outputs": [
        {
          "internalType": "uint256",
          "name": "cost",
          "type": "uint256"
        }
      ],
      "stateMutability": "view",
      "type": "function"
    },
    {
      "inputs": [],
      "name": "proxiableUUID",
      "outputs": [
        {
          "internalType": "bytes32",
          "name": "",
          "type": "bytes32"
        }
      ],
      "stateMutability": "view",
      "type": "function"
    },
    {
      "inputs": [
        {
          "internalType": "address",
          "name": "_token",
          "type": "address"
        },
        {
          "internalType": "address",
          "name": "_to",
          "type": "address"
        },
        {
          "internalType": "uint256",
          "name": "_amount",
          "type": "uint256"
        }
      ],
      "name": "recoverFunds",
      "outputs": [],
      "stateMutability": "nonpayable",
      "type": "function"
    },
    {
      "inputs": [
        {
          "internalType": "uint256",
          "name": "identifier",
          "type": "uint256"
        },
        {
          "internalType": "string",
          "name": "name",
          "type": "string"
        },
        {
          "internalType": "uint256",
          "name": "duration",
          "type": "uint256"
        }
      ],
      "name": "rentPrice",
      "outputs": [
        {
          "components": [
            {
              "internalType": "uint256",
              "name": "base",
              "type": "uint256"
            },
            {
              "internalType": "uint256",
              "name": "premium",
              "type": "uint256"
            }
          ],
          "internalType": "struct IPriceOracle.Price",
          "name": "price",
          "type": "tuple"
        }
      ],
      "stateMutability": "view",
      "type": "function"
    },
    {
      "inputs": [
        {
          "internalType": "uint256",
          "name": "identifier",
          "type": "uint256"
        },
        {
          "internalType": "string",
          "name": "name",
          "type": "string"
        },
        {
          "internalType": "uint256",
          "name": "duration",
          "type": "uint256"
        }
      ],
      "name": "rentPriceInUSD",
      "outputs": [
        {
          "components": [
            {
              "internalType": "uint256",
              "name": "base",
              "type": "uint256"
            },
            {
              "internalType": "uint256",
              "name": "premium",
              "type": "uint256"
            }
          ],
          "internalType": "struct IPriceOracle.Price",
          "name": "price",
          "type": "tuple"
        }
      ],
      "stateMutability": "view",
      "type": "function"
    },
    {
      "inputs": [],
      "name": "reverseRegistrar",
      "outputs": [
        {
          "internalType": "contract IReverseRegistrar",
          "name": "",
          "type": "address"
        }
      ],
      "stateMutability": "view",
      "type": "function"
    },
    {
      "inputs": [],
      "name": "sann",
      "outputs": [
        {
          "internalType": "contract ISANN",
          "name": "",
          "type": "address"
        }
      ],
      "stateMutability": "view",
      "type": "function"
    },
    {
      "inputs": [
        {
          "internalType": "uint256",
          "name": "identifier",
          "type": "uint256"
        },
        {
          "internalType": "uint256",
          "name": "_maxDomainLength",
          "type": "uint256"
        }
      ],
      "name": "setMaxDomainLength",
      "outputs": [],
      "stateMutability": "nonpayable",
      "type": "function"
    },
    {
      "inputs": [
        {
          "internalType": "uint256",
          "name": "identifier",
          "type": "uint256"
        },
        {
          "internalType": "uint256",
          "name": "_minDomainLength",
          "type": "uint256"
        }
      ],
      "name": "setMinDomainLength",
      "outputs": [],
      "stateMutability": "nonpayable",
      "type": "function"
    },
    {
      "inputs": [
        {
          "internalType": "uint256",
          "name": "identifier",
          "type": "uint256"
        },
        {
          "internalType": "uint256",
          "name": "_minRegistrationDuration",
          "type": "uint256"
        }
      ],
      "name": "setMinRegistrationDuration",
      "outputs": [],
      "stateMutability": "nonpayable",
      "type": "function"
    },
    {
      "inputs": [
        {
          "internalType": "uint256",
          "name": "identifier",
          "type": "uint256"
        },
        {
          "internalType": "uint256",
          "name": "_minRenewDuration",
          "type": "uint256"
        }
      ],
      "name": "setMinRenewDuration",
      "outputs": [],
      "stateMutability": "nonpayable",
      "type": "function"
    },
    {
      "inputs": [
        {
          "internalType": "uint256",
          "name": "identifier",
          "type": "uint256"
        },
        {
          "internalType": "uint256",
          "name": "_mintCap",
          "type": "uint256"
        }
      ],
      "name": "setMintCap",
      "outputs": [],
      "stateMutability": "nonpayable",
      "type": "function"
    },
    {
      "inputs": [
        {
          "internalType": "uint256",
          "name": "identifier",
          "type": "uint256"
        },
        {
          "internalType": "address",
          "name": "_hook",
          "type": "address"
        }
      ],
      "name": "setPointHook",
      "outputs": [],
      "stateMutability": "nonpayable",
      "type": "function"
    },
    {
      "inputs": [
        {
          "internalType": "uint256",
          "name": "identifier",
          "type": "uint256"
        },
        {
          "internalType": "address",
          "name": "_hook",
          "type": "address"
        }
      ],
      "name": "setPriceHook",
      "outputs": [],
      "stateMutability": "nonpayable",
      "type": "function"
    },
    {
      "inputs": [
        {
          "internalType": "uint256",
          "name": "identifier",
          "type": "uint256"
        },
        {
          "internalType": "address",
          "name": "_hook",
          "type": "address"
        }
      ],
      "name": "setQualificationHook",
      "outputs": [],
      "stateMutability": "nonpayable",
      "type": "function"
    },
    {
      "inputs": [
        {
          "internalType": "uint256",
          "name": "identifier",
          "type": "uint256"
        },
        {
          "internalType": "address",
          "name": "_hook",
          "type": "address"
        }
      ],
      "name": "setRenewPointHook",
      "outputs": [],
      "stateMutability": "nonpayable",
      "type": "function"
    },
    {
      "inputs": [
        {
          "internalType": "uint256",
          "name": "identifier",
          "type": "uint256"
        },
        {
          "internalType": "address",
          "name": "_hook",
          "type": "address"
        }
      ],
      "name": "setRenewPriceHook",
      "outputs": [],
      "stateMutability": "nonpayable",
      "type": "function"
    },
    {
      "inputs": [
        {
          "internalType": "uint256",
          "name": "identifier",
          "type": "uint256"
        },
        {
          "internalType": "address",
          "name": "_hook",
          "type": "address"
        }
      ],
      "name": "setRenewRewardHook",
      "outputs": [],
      "stateMutability": "nonpayable",
      "type": "function"
    },
    {
      "inputs": [
        {
          "internalType": "uint256",
          "name": "identifier",
          "type": "uint256"
        },
        {
          "internalType": "address",
          "name": "_hook",
          "type": "address"
        }
      ],
      "name": "setRewardHook",
      "outputs": [],
      "stateMutability": "nonpayable",
      "type": "function"
    },
    {
      "inputs": [
        {
          "internalType": "uint256",
          "name": "identifier",
          "type": "uint256"
        },
        {
          "components": [
            {
              "internalType": "uint256",
              "name": "minDomainLength",
              "type": "uint256"
            },
            {
              "internalType": "uint256",
              "name": "maxDomainLength",
              "type": "uint256"
            },
            {
              "internalType": "uint256",
              "name": "minRegistrationDuration",
              "type": "uint256"
            },
            {
              "internalType": "uint256",
              "name": "minRenewDuration",
              "type": "uint256"
            },
            {
              "internalType": "uint256",
              "name": "mintCap",
              "type": "uint256"
            }
          ],
          "internalType": "struct TldConfig",
          "name": "_config",
          "type": "tuple"
        }
      ],
      "name": "setTldConfigs",
      "outputs": [],
      "stateMutability": "nonpayable",
      "type": "function"
    },
    {
      "inputs": [
        {
          "internalType": "uint256",
          "name": "identifier",
          "type": "uint256"
        },
        {
          "internalType": "address",
          "name": "_qualificationHook",
          "type": "address"
        },
        {
          "internalType": "address",
          "name": "_priceHook",
          "type": "address"
        },
        {
          "internalType": "address",
          "name": "_rewardHook",
          "type": "address"
        },
        {
          "internalType": "address",
          "name": "_renewPriceHook",
          "type": "address"
        },
        {
          "internalType": "address",
          "name": "_renewRewardHook",
          "type": "address"
        }
      ],
      "name": "setTldHooks",
      "outputs": [],
      "stateMutability": "nonpayable",
      "type": "function"
    },
    {
      "inputs": [
        {
          "internalType": "uint256",
          "name": "identifier",
          "type": "uint256"
        },
        {
          "internalType": "address",
          "name": "priceOracle",
          "type": "address"
        }
      ],
      "name": "setTldPriceOracle",
      "outputs": [],
      "stateMutability": "nonpayable",
      "type": "function"
    },
    {
      "inputs": [
        {
          "internalType": "uint256",
          "name": "",
          "type": "uint256"
        }
      ],
      "name": "tldConfigs",
      "outputs": [
        {
          "internalType": "uint256",
          "name": "minDomainLength",
          "type": "uint256"
        },
        {
          "internalType": "uint256",
          "name": "maxDomainLength",
          "type": "uint256"
        },
        {
          "internalType": "uint256",
          "name": "minRegistrationDuration",
          "type": "uint256"
        },
        {
          "internalType": "uint256",
          "name": "minRenewDuration",
          "type": "uint256"
        },
        {
          "internalType": "uint256",
          "name": "mintCap",
          "type": "uint256"
        }
      ],
      "stateMutability": "view",
      "type": "function"
    },
    {
      "inputs": [
        {
          "internalType": "uint256",
          "name": "",
          "type": "uint256"
        }
      ],
      "name": "tldHooks",
      "outputs": [
        {
          "internalType": "contract IQualificationHook",
          "name": "qualificationHook",
          "type": "address"
        },
        {
          "internalType": "contract IPriceHook",
          "name": "priceHook",
          "type": "address"
        },
        {
          "internalType": "contract IPointHook",
          "name": "pointHook",
          "type": "address"
        },
        {
          "internalType": "contract IRewardHook",
          "name": "rewardHook",
          "type": "address"
        },
        {
          "internalType": "contract IRenewPriceHook",
          "name": "renewPriceHook",
          "type": "address"
        },
        {
          "internalType": "contract IRenewPointHook",
          "name": "renewPointHook",
          "type": "address"
        },
        {
          "internalType": "contract IRenewRewardHook",
          "name": "renewRewardHook",
          "type": "address"
        }
      ],
      "stateMutability": "view",
      "type": "function"
    },
    {
      "inputs": [
        {
          "internalType": "uint256",
          "name": "",
          "type": "uint256"
        }
      ],
      "name": "tldPriceOracles",
      "outputs": [
        {
          "internalType": "contract IPriceOracle",
          "name": "",
          "type": "address"
        }
      ],
      "stateMutability": "view",
      "type": "function"
    },
    {
      "inputs": [
        {
          "internalType": "uint256",
          "name": "",
          "type": "uint256"
        }
      ],
      "name": "tldRevenues",
      "outputs": [
        {
          "internalType": "uint256",
          "name": "",
          "type": "uint256"
        }
      ],
      "stateMutability": "view",
      "type": "function"
    },
    {
      "inputs": [
        {
          "internalType": "address",
          "name": "newImplementation",
          "type": "address"
        }
      ],
      "name": "upgradeTo",
      "outputs": [],
      "stateMutability": "nonpayable",
      "type": "function"
    },
    {
      "inputs": [
        {
          "internalType": "address",
          "name": "newImplementation",
          "type": "address"
        },
        {
          "internalType": "bytes",
          "name": "data",
          "type": "bytes"
        }
      ],
      "name": "upgradeToAndCall",
      "outputs": [],
      "stateMutability": "payable",
      "type": "function"
    },
    {
      "inputs": [
        {
          "internalType": "uint256",
          "name": "identifier",
          "type": "uint256"
        }
      ],
      "name": "withdraw",
      "outputs": [],
      "stateMutability": "nonpayable",
      "type": "function"
    },
    {
      "inputs": [],
      "name": "withdrawPlatformFee",
      "outputs": [],
      "stateMutability": "nonpayable",
      "type": "function"
    },
    {
      "stateMutability": "payable",
      "type": "receive"
    }
  ],
  "bytecode": "0x60a0604052306080523480156200001557600080fd5b506200002062000026565b620000e7565b600054610100900460ff1615620000935760405162461bcd60e51b815260206004820152602760248201527f496e697469616c697a61626c653a20636f6e747261637420697320696e697469604482015266616c697a696e6760c81b606482015260840160405180910390fd5b60005460ff90811614620000e5576000805460ff191660ff9081179091556040519081527f7f26b83ff96e1f2b6a682f133852f6798a09c465da95921460cefb38474024989060200160405180910390a15b565b608051615f9d6200011f6000396000818161140d01528181611492015281816115880152818161160d01526116f30152615f9d6000f3fe6080604052600436106102d55760003560e01c806382a352e711610179578063d2bc8adc116100d6578063e6bc7ea21161008a578063f2f47b8411610064578063f2f47b8414610877578063fd5bc42e146108e9578063fdd32ec41461090957600080fd5b8063e6bc7ea214610817578063e944463c14610837578063f1af9c5e1461085757600080fd5b8063d46da387116100bb578063d46da387146107bb578063de48bbcb146107e1578063e3c98ba01461080157600080fd5b8063d2bc8adc1461077b578063d45e7ed01461079b57600080fd5b8063b34de3e71161012d578063b863dcdd11610112578063b863dcdd14610728578063c048cb2014610748578063ccb787cb1461076857600080fd5b8063b34de3e7146106f5578063b442c8cf1461071557600080fd5b8063a289cf841161015e578063a289cf8414610687578063a494e5cf146106a7578063ac7ad443146106ba57600080fd5b806382a352e7146106475780639fb27d1d1461066757600080fd5b80633659cfe611610232578063576b3a64116101e6578063669ce5cd116101c0578063669ce5cd146105e75780636909579b14610607578063808698531461062757600080fd5b8063576b3a64146105875780635d3590d5146105a757806363dfd0e8146105c757600080fd5b80634d24e236116102175780634d24e2361461053f5780634f1ef2861461055f57806352d1902d1461057257600080fd5b80633659cfe6146104d157806343d6807b146104f157600080fd5b80631f0389471161028957806323a7c86d1161026e57806323a7c86d1461047e5780632e1a7d4d1461049e57806332692b89146104be57600080fd5b80631f03894714610449578063202cefd51461046957600080fd5b806308d2396f116102ba57806308d2396f146103435780631459457a146103735780631be0d2af1461039357600080fd5b806302d8f56d146102e1578063076730c71461032157600080fd5b366102dc57005b600080fd5b3480156102ed57600080fd5b5061030e6102fc3660046152e7565b60386020526000908152604090205481565b6040519081526020015b60405180910390f35b34801561032d57600080fd5b5061034161033c366004615315565b610929565b005b34801561034f57600080fd5b5061036361035e36600461538e565b610a69565b6040519015158152602001610318565b34801561037f57600080fd5b5061034161038e3660046153da565b610b9b565b34801561039f57600080fd5b506104006103ae3660046152e7565b60356020526000908152604090208054600182015460028301546003840154600485015460058601546006909601546001600160a01b0395861696948616959384169492841693918216928216911687565b604080516001600160a01b039889168152968816602088015294871694860194909452918516606085015284166080840152831660a083015290911660c082015260e001610318565b34801561045557600080fd5b5061034161046436600461544b565b610d0f565b34801561047557600080fd5b50610341610e29565b34801561048a57600080fd5b5061034161049936600461544b565b61101d565b3480156104aa57600080fd5b506103416104b93660046152e7565b611137565b61030e6104cc3660046154b2565b611302565b3480156104dd57600080fd5b506103416104ec366004615535565b611403565b3480156104fd57600080fd5b5061052761050c3660046152e7565b6036602052600090815260409020546001600160a01b031681565b6040516001600160a01b039091168152602001610318565b34801561054b57600080fd5b50600154610527906001600160a01b031681565b61034161056d3660046155c1565b61157e565b34801561057e57600080fd5b5061030e6116e6565b34801561059357600080fd5b50603a54610527906001600160a01b031681565b3480156105b357600080fd5b506103416105c2366004615654565b6117ab565b3480156105d357600080fd5b506103416105e2366004615315565b611915565b3480156105f357600080fd5b50610341610602366004615315565b611a49565b34801561061357600080fd5b506105276106223660046152e7565b611b7a565b34801561063357600080fd5b50603b54610527906001600160a01b031681565b34801561065357600080fd5b50610341610662366004615695565b611bb0565b34801561067357600080fd5b5061034161068236600461544b565b611e2a565b34801561069357600080fd5b50603754610527906001600160a01b031681565b61030e6106b536600461571c565b611f56565b3480156106c657600080fd5b506106da6106d53660046157df565b611ff0565b60408051825181526020928301519281019290925201610318565b34801561070157600080fd5b50610341610710366004615315565b6120a9565b61030e610723366004615832565b6121da565b34801561073457600080fd5b5061034161074336600461544b565b6122c3565b34801561075457600080fd5b506103416107633660046158ca565b612452565b61030e61077636600461571c565b612567565b34801561078757600080fd5b50610341610796366004615315565b6125d0565b3480156107a757600080fd5b506103416107b6366004615315565b612701565b3480156107c757600080fd5b50600054610527906201000090046001600160a01b031681565b3480156107ed57600080fd5b5061030e6107fc366004615902565b612832565b34801561080d57600080fd5b5061030e60395481565b34801561082357600080fd5b50610341610832366004615315565b6128aa565b34801561084357600080fd5b50610341610852366004615315565b6129d6565b34801561086357600080fd5b5061034161087236600461544b565b612b07565b34801561088357600080fd5b506108c16108923660046152e7565b603460205260009081526040902080546001820154600283015460038401546004909401549293919290919085565b604080519586526020860194909452928401919091526060830152608082015260a001610318565b3480156108f557600080fd5b506106da6109043660046157df565b612ca0565b34801561091557600080fd5b5061030e610924366004615942565b612d0f565b60005460405162e4decd60e31b815283913391620100009091046001600160a01b031690630726f6689061096590859060040190815260200190565b602060405180830381865afa158015610982573d6000803e3d6000fd5b505050506040513d601f19601f820116820180604052508101906109a691906159c7565b6001600160a01b0316146109fb5760405162461bcd60e51b815260206004820152602480820152600080516020615f218339815191526044820152633bb732b960e11b60648201526084015b60405180910390fd5b6000838152603560209081526040918290206003810180546001600160a01b0319166001600160a01b038716908117909155835187815292830152917fe204b1408cc4313756b658144b601fe723a958484dc182f37e0ded386a94ef7d91015b60405180910390a150505050565b60008054604051632c7263b560e01b81526004810186905282916201000090046001600160a01b031690632c7263b590602401602060405180830381865afa158015610ab9573d6000803e3d6000fd5b505050506040513d601f19601f82011682018060405250810190610add91906159c7565b905060008484604051610af19291906159e4565b60405180910390209050610b06868686612e6b565b8015610b8f57506040517f96e494e8000000000000000000000000000000000000000000000000000000008152600481018290526001600160a01b038316906396e494e890602401602060405180830381865afa158015610b6b573d6000803e3d6000fd5b505050506040513d601f19601f82011682018060405250810190610b8f91906159f4565b925050505b9392505050565b600054610100900460ff1615808015610bbb5750600054600160ff909116105b80610bd55750303b158015610bd5575060005460ff166001145b610c475760405162461bcd60e51b815260206004820152602e60248201527f496e697469616c697a61626c653a20636f6e747261637420697320616c72656160448201527f647920696e697469616c697a656400000000000000000000000000000000000060648201526084016109f2565b6000805460ff191660011790558015610c6a576000805461ff0019166101001790555b603780546001600160a01b038087166001600160a01b031992831617909255603a8054868416908316179055603b805492851692909116919091179055610cb08661306b565b610cb985613116565b610cc16131a3565b8015610d07576000805461ff0019169055604051600181527f7f26b83ff96e1f2b6a682f133852f6798a09c465da95921460cefb38474024989060200160405180910390a15b505050505050565b60005460405162e4decd60e31b815283913391620100009091046001600160a01b031690630726f66890610d4b90859060040190815260200190565b602060405180830381865afa158015610d68573d6000803e3d6000fd5b505050506040513d601f19601f82011682018060405250810190610d8c91906159c7565b6001600160a01b031614610ddc5760405162461bcd60e51b815260206004820152602480820152600080516020615f218339815191526044820152633bb732b960e11b60648201526084016109f2565b600083815260346020908152604091829020600381018590558251868152918201859052917fcce38ffda70360ed2c66d1a39c523ef1d8aa472a5606b6c0a528d5ecf2fe52fe9101610a5b565b600154604080517f853a65f9000000000000000000000000000000000000000000000000000000008152905133926001600160a01b03169163853a65f99160048083019260209291908290030181865afa158015610e8b573d6000803e3d6000fd5b505050506040513d601f19601f82011682018060405250810190610eaf91906159c7565b6001600160a01b031614610f2b5760405162461bcd60e51b815260206004820152603160248201527f4f776e61626c653a2063616c6c6572206973206e6f742074686520706c61746660448201527f6f726d2066656520636f6c6c6563746f7200000000000000000000000000000060648201526084016109f2565b60398054600090915580610f815760405162461bcd60e51b815260206004820152601060248201527f696e73756666696369656e74206665650000000000000000000000000000000060448201526064016109f2565b604051600090339083908381818185875af1925050503d8060008114610fc3576040519150601f19603f3d011682016040523d82523d6000602084013e610fc8565b606091505b50509050806110195760405162461bcd60e51b815260206004820152601460248201527f4661696c656420746f2073656e6420457468657200000000000000000000000060448201526064016109f2565b5050565b60005460405162e4decd60e31b815283913391620100009091046001600160a01b031690630726f6689061105990859060040190815260200190565b602060405180830381865afa158015611076573d6000803e3d6000fd5b505050506040513d601f19601f8201168201806040525081019061109a91906159c7565b6001600160a01b0316146110ea5760405162461bcd60e51b815260206004820152602480820152600080516020615f218339815191526044820152633bb732b960e11b60648201526084016109f2565b600083815260346020908152604091829020600281018590558251868152918201859052917fe8c4cdf070fb09893e85544385665a343aef60941524ba76f869c565982c4c289101610a5b565b60005460405162e4decd60e31b815282913391620100009091046001600160a01b031690630726f6689061117390859060040190815260200190565b602060405180830381865afa158015611190573d6000803e3d6000fd5b505050506040513d601f19601f820116820180604052508101906111b491906159c7565b6001600160a01b0316146112045760405162461bcd60e51b815260206004820152602480820152600080516020615f218339815191526044820152633bb732b960e11b60648201526084016109f2565b60008281526038602052604081208054919055806112645760405162461bcd60e51b815260206004820152601460248201527f696e73756666696369656e7420726576656e756500000000000000000000000060448201526064016109f2565b604051600090339083908381818185875af1925050503d80600081146112a6576040519150601f19603f3d011682016040523d82523d6000602084013e6112ab565b606091505b50509050806112fc5760405162461bcd60e51b815260206004820152601460248201527f4661696c656420746f2073656e6420457468657200000000000000000000000060448201526064016109f2565b50505050565b60008080805b878110156113e7576000808987036113775761136d8c8c8c8681811061133057611330615a11565b90506020028101906113429190615a27565b8c338d8d8a81811061135657611356615a11565b90506020028101906113689190615a27565b613218565b90925090506113ba565b6113b48c8c8c8681811061138d5761138d615a11565b905060200281019061139f9190615a27565b8c338d8d600081811061135657611356615a11565b90925090505b6113c48285615a84565b93506113d08186615a84565b9450505080806113df90615a97565b915050611308565b5060006113f58a8385613424565b9a9950505050505050505050565b6001600160a01b037f00000000000000000000000000000000000000000000000000000000000000001630036114905760405162461bcd60e51b815260206004820152602c60248201527f46756e6374696f6e206d7573742062652063616c6c6564207468726f7567682060448201526b19195b1959d85d1958d85b1b60a21b60648201526084016109f2565b7f00000000000000000000000000000000000000000000000000000000000000006001600160a01b03166114eb7f360894a13ba1a3210667c828492db98dca3e2076cc3735a920a3ca505d382bbc546001600160a01b031690565b6001600160a01b0316146115565760405162461bcd60e51b815260206004820152602c60248201527f46756e6374696f6e206d7573742062652063616c6c6564207468726f7567682060448201526b6163746976652070726f787960a01b60648201526084016109f2565b61155f816136da565b6040805160008082526020820190925261157b918391906137b8565b50565b6001600160a01b037f000000000000000000000000000000000000000000000000000000000000000016300361160b5760405162461bcd60e51b815260206004820152602c60248201527f46756e6374696f6e206d7573742062652063616c6c6564207468726f7567682060448201526b19195b1959d85d1958d85b1b60a21b60648201526084016109f2565b7f00000000000000000000000000000000000000000000000000000000000000006001600160a01b03166116667f360894a13ba1a3210667c828492db98dca3e2076cc3735a920a3ca505d382bbc546001600160a01b031690565b6001600160a01b0316146116d15760405162461bcd60e51b815260206004820152602c60248201527f46756e6374696f6e206d7573742062652063616c6c6564207468726f7567682060448201526b6163746976652070726f787960a01b60648201526084016109f2565b6116da826136da565b611019828260016137b8565b6000306001600160a01b037f000000000000000000000000000000000000000000000000000000000000000016146117865760405162461bcd60e51b815260206004820152603860248201527f555550535570677261646561626c653a206d757374206e6f742062652063616c60448201527f6c6564207468726f7567682064656c656761746563616c6c000000000000000060648201526084016109f2565b507f360894a13ba1a3210667c828492db98dca3e2076cc3735a920a3ca505d382bbc90565b6000546040805163cdcd7fb560e01b8152905133926201000090046001600160a01b03169163cdcd7fb59160048083019260209291908290030181865afa1580156117fa573d6000803e3d6000fd5b505050506040513d601f19601f8201168201806040525081019061181e91906159c7565b6001600160a01b0316146118895760405162461bcd60e51b815260206004820152602c60248201527f41636365737369626c653a2063616c6c6572206973206e6f742074686520706c60448201526b30ba3337b9369030b236b4b760a11b60648201526084016109f2565b6040517fa9059cbb0000000000000000000000000000000000000000000000000000000081526001600160a01b0383811660048301526024820183905284169063a9059cbb906044016020604051808303816000875af11580156118f1573d6000803e3d6000fd5b505050506040513d601f19601f820116820180604052508101906112fc91906159f4565b60005460405162e4decd60e31b815283913391620100009091046001600160a01b031690630726f6689061195190859060040190815260200190565b602060405180830381865afa15801561196e573d6000803e3d6000fd5b505050506040513d601f19601f8201168201806040525081019061199291906159c7565b6001600160a01b0316146119e25760405162461bcd60e51b815260206004820152602480820152600080516020615f218339815191526044820152633bb732b960e11b60648201526084016109f2565b60008381526036602090815260409182902080546001600160a01b0319166001600160a01b0386169081179091558251868152918201527f0e65447dcb916c8017fbe654fdd00b172fec1f0e7803018a37050e700c20a37f910160405180910390a1505050565b60005460405162e4decd60e31b815283913391620100009091046001600160a01b031690630726f66890611a8590859060040190815260200190565b602060405180830381865afa158015611aa2573d6000803e3d6000fd5b505050506040513d601f19601f82011682018060405250810190611ac691906159c7565b6001600160a01b031614611b165760405162461bcd60e51b815260206004820152602480820152600080516020615f218339815191526044820152633bb732b960e11b60648201526084016109f2565b6000838152603560209081526040918290206005810180546001600160a01b0319166001600160a01b038716908117909155835187815292830152917fcf1f0d17ea01938c06cba546f89b9b7dda5f259ef5b77a4733ec642bceb008eb9101610a5b565b6000818152603660205260408120546001600160a01b031680611baa575050603a546001600160a01b0316919050565b92915050565b60005460405162e4decd60e31b815287913391620100009091046001600160a01b031690630726f66890611bec90859060040190815260200190565b602060405180830381865afa158015611c09573d6000803e3d6000fd5b505050506040513d601f19601f82011682018060405250810190611c2d91906159c7565b6001600160a01b031614611c7d5760405162461bcd60e51b815260206004820152602480820152600080516020615f218339815191526044820152633bb732b960e11b60648201526084016109f2565b60008781526035602090815260409182902080546001600160a01b03199081166001600160a01b038b8116918217845560018401805484168c831617905560038401805484168b831617905560048401805484168a83161790556006840180549093169088161790915583518b815292830152917fac577474c2505adbd93b1ddd44b3a31ec78fe871b97a97dd15f2ae2fdea45776910160405180910390a1604080518981526001600160a01b03881660208201527fc7f42afd8cbc412e62bfa6e8bc2866776a5ac1caaaf585d2faf16ccde19fbef5910160405180910390a1604080518981526001600160a01b03871660208201527fe204b1408cc4313756b658144b601fe723a958484dc182f37e0ded386a94ef7d910160405180910390a1604080518981526001600160a01b03861660208201527f34b3dc41ee7dd660208f82c4dea165b04dbc34ba2272219bc0be902798d8904b910160405180910390a1604080518981526001600160a01b03851660208201527fbce6be89b296a4efbc6a0e570267d046bcd4816102c86bfc0388b54eb0bb676a910160405180910390a15050505050505050565b60005460405162e4decd60e31b815283913391620100009091046001600160a01b031690630726f66890611e6690859060040190815260200190565b602060405180830381865afa158015611e83573d6000803e3d6000fd5b505050506040513d601f19601f82011682018060405250810190611ea791906159c7565b6001600160a01b031614611ef75760405162461bcd60e51b815260206004820152602480820152600080516020615f218339815191526044820152633bb732b960e11b60648201526084016109f2565b60008381526034602052604090208215611f175760048101839055611f20565b60001960048201555b60408051858152602081018590527fd0705bce265d909a183d44137621ac0cead8ebcd1a59e86bab7fe1da3ad566da9101610a5b565b60003315611f6357600080fd5b6040805160a0810182526001600160a01b03808a16808352602083015291810188905290861660608201528415156080820152600080611fa78d8d8d868a8a613958565b915091506000611fb88e8484613424565b9050806040517f357301630000000000000000000000000000000000000000000000000000000081526004016109f291815260200190565b6040805180820190915260008082526020820152600061200f86611b7a565b6040517f0502c6750000000000000000000000000000000000000000000000000000000081529091506001600160a01b03821690630502c6759061205f9088908890429089908d90600401615ad9565b6040805180830381865afa15801561207b573d6000803e3d6000fd5b505050506040513d601f19601f8201168201806040525081019061209f9190615b0a565b9695505050505050565b60005460405162e4decd60e31b815283913391620100009091046001600160a01b031690630726f668906120e590859060040190815260200190565b602060405180830381865afa158015612102573d6000803e3d6000fd5b505050506040513d601f19601f8201168201806040525081019061212691906159c7565b6001600160a01b0316146121765760405162461bcd60e51b815260206004820152602480820152600080516020615f218339815191526044820152633bb732b960e11b60648201526084016109f2565b6000838152603560209081526040918290206002810180546001600160a01b0319166001600160a01b038716908117909155835187815292830152917f8a1b187e18ba1cf07ac179c27384169e67be275060c3b2dc512da41492be9fee9101610a5b565b600033156121e757600080fd5b60008060005b888110156122b5576000808a87036122455761223b8d8d8d8681811061221557612215615a11565b90506020028101906122279190615a27565b8d8d8d8d8a81811061135657611356615a11565b9092509050612288565b6122828d8d8d8681811061225b5761225b615a11565b905060200281019061226d9190615a27565b8d8d8d8d600081811061135657611356615a11565b90925090505b6122928285615a84565b935061229e8186615a84565b9450505080806122ad90615a97565b9150506121ed565b506000611fb88b8385613424565b60005460405162e4decd60e31b815283913391620100009091046001600160a01b031690630726f668906122ff90859060040190815260200190565b602060405180830381865afa15801561231c573d6000803e3d6000fd5b505050506040513d601f19601f8201168201806040525081019061234091906159c7565b6001600160a01b0316146123905760405162461bcd60e51b815260206004820152602480820152600080516020615f218339815191526044820152633bb732b960e11b60648201526084016109f2565b600083815260346020526040902080548310156124155760405162461bcd60e51b815260206004820152603b60248201527f6d6178446f6d61696e4c656e677468206d75737420626520677265617465722060448201527f6f7220657175616c20746f206d696e446f6d61696e4c656e677468000000000060648201526084016109f2565b6001810183905560408051858152602081018590527f5cc178cc645fedac2530cae167f2d00984528d986ad85e645f0283deac25fcf29101610a5b565b60005460405162e4decd60e31b815283913391620100009091046001600160a01b031690630726f6689061248e90859060040190815260200190565b602060405180830381865afa1580156124ab573d6000803e3d6000fd5b505050506040513d601f19601f820116820180604052508101906124cf91906159c7565b6001600160a01b03161461251f5760405162461bcd60e51b815260206004820152602480820152600080516020615f218339815191526044820152633bb732b960e11b60648201526084016109f2565b61252d8383602001356122c3565b612538838335612b07565b612546838360800135611e2a565b61255483836040013561101d565b612562838360600135610d0f565b505050565b6040805160a0810182523381526001600160a01b0388811660208301529181018790529085166060820152831515608082015260009081806125ad8d8d8d868a8a613958565b9150915060006125be8e8484613424565b9e9d5050505050505050505050505050565b60005460405162e4decd60e31b815283913391620100009091046001600160a01b031690630726f6689061260c90859060040190815260200190565b602060405180830381865afa158015612629573d6000803e3d6000fd5b505050506040513d601f19601f8201168201806040525081019061264d91906159c7565b6001600160a01b03161461269d5760405162461bcd60e51b815260206004820152602480820152600080516020615f218339815191526044820152633bb732b960e11b60648201526084016109f2565b6000838152603560209081526040918290206004810180546001600160a01b0319166001600160a01b038716908117909155835187815292830152917f34b3dc41ee7dd660208f82c4dea165b04dbc34ba2272219bc0be902798d8904b9101610a5b565b60005460405162e4decd60e31b815283913391620100009091046001600160a01b031690630726f6689061273d90859060040190815260200190565b602060405180830381865afa15801561275a573d6000803e3d6000fd5b505050506040513d601f19601f8201168201806040525081019061277e91906159c7565b6001600160a01b0316146127ce5760405162461bcd60e51b815260206004820152602480820152600080516020615f218339815191526044820152633bb732b960e11b60648201526084016109f2565b6000838152603560209081526040918290206006810180546001600160a01b0319166001600160a01b038716908117909155835187815292830152917fbce6be89b296a4efbc6a0e570267d046bcd4816102c86bfc0388b54eb0bb676a9101610a5b565b6000805b838110156128a157600061286e8787878581811061285657612856615a11565b90506020028101906128689190615a27565b87612ca0565b6020810151815191925061288191615a84565b61288b9084615a84565b925050808061289990615a97565b915050612836565b50949350505050565b60005460405162e4decd60e31b815283913391620100009091046001600160a01b031690630726f668906128e690859060040190815260200190565b602060405180830381865afa158015612903573d6000803e3d6000fd5b505050506040513d601f19601f8201168201806040525081019061292791906159c7565b6001600160a01b0316146129775760405162461bcd60e51b815260206004820152602480820152600080516020615f218339815191526044820152633bb732b960e11b60648201526084016109f2565b60008381526035602090815260409182902080546001600160a01b0319166001600160a01b0386169081178255835187815292830152917fac577474c2505adbd93b1ddd44b3a31ec78fe871b97a97dd15f2ae2fdea457769101610a5b565b60005460405162e4decd60e31b815283913391620100009091046001600160a01b031690630726f66890612a1290859060040190815260200190565b602060405180830381865afa158015612a2f573d6000803e3d6000fd5b505050506040513d601f19601f82011682018060405250810190612a5391906159c7565b6001600160a01b031614612aa35760405162461bcd60e51b815260206004820152602480820152600080516020615f218339815191526044820152633bb732b960e11b60648201526084016109f2565b6000838152603560209081526040918290206001810180546001600160a01b0319166001600160a01b038716908117909155835187815292830152917fc7f42afd8cbc412e62bfa6e8bc2866776a5ac1caaaf585d2faf16ccde19fbef59101610a5b565b60005460405162e4decd60e31b815283913391620100009091046001600160a01b031690630726f66890612b4390859060040190815260200190565b602060405180830381865afa158015612b60573d6000803e3d6000fd5b505050506040513d601f19601f82011682018060405250810190612b8491906159c7565b6001600160a01b031614612bd45760405162461bcd60e51b815260206004820152602480820152600080516020615f218339815191526044820152633bb732b960e11b60648201526084016109f2565b60008381526034602052604090208215801590612bf5575080600101548311155b612c675760405162461bcd60e51b815260206004820152603860248201527f6d696e446f6d61696e4c656e677468206d757374206265206c657373206f722060448201527f657175616c20746f206d6178446f6d61696e4c656e677468000000000000000060648201526084016109f2565b82815560408051858152602081018590527f5a76e4dbb1f005eb83fcaadd13ceb68b0e0b3e0114c4c53fb8d38e3f907037919101610a5b565b60408051808201909152600080825260208201526000612cbf86611b7a565b6040517fc9920ebe0000000000000000000000000000000000000000000000000000000081529091506001600160a01b0382169063c9920ebe9061205f9088908890429089908d90600401615ad9565b600080612d1e89898988611ff0565b60208101518151919250612d3191615a84565b60008a8152603560205260409020600181015491935091506001600160a01b031615612df45760018101546040517f93ba731b0000000000000000000000000000000000000000000000000000000081526001600160a01b03909116906393ba731b90612db0908c908c908c908c908c908a908d908d90600401615b59565b602060405180830381865afa158015612dcd573d6000803e3d6000fd5b505050506040513d601f19601f82011682018060405250810190612df19190615bb0565b91505b6000612dff8a611b7a565b6040516368a33fc360e11b8152600481018590529091506001600160a01b0382169063d1467f8690602401602060405180830381865afa158015612e47573d6000803e3d6000fd5b505050506040513d601f19601f820116820180604052508101906113f59190615bb0565b60008381526034602052604080822082549151632c7263b560e01b81526004810187905290918391620100009091046001600160a01b031690632c7263b590602401602060405180830381865afa158015612eca573d6000803e3d6000fd5b505050506040513d601f19601f82011682018060405250810190612eee91906159c7565b90508160000154612f3486868080601f016020809104026020016040519081016040528093929190818152602001838380828437600092019190915250613a4792505050565b1015612f4557600092505050610b94565b8160010154612f8986868080601f016020809104026020016040519081016040528093929190818152602001838380828437600092019190915250613a4792505050565b1115612f9a57600092505050610b94565b612fd985858080601f016020809104026020016040519081016040528093929190818152602001838380828437600092019190915250613bba92505050565b612fe857600092505050610b94565b806001600160a01b0316636f3d8fe86040518163ffffffff1660e01b8152600401602060405180830381865afa158015613026573d6000803e3d6000fd5b505050506040513d601f19601f8201168201806040525081019061304a9190615bb0565b82600401541161305f57600092505050610b94565b50600195945050505050565b600054610100900460ff166130d65760405162461bcd60e51b815260206004820152602b60248201527f496e697469616c697a61626c653a20636f6e7472616374206973206e6f74206960448201526a6e697469616c697a696e6760a81b60648201526084016109f2565b600080546001600160a01b0390921662010000027fffffffffffffffffffff0000000000000000000000000000000000000000ffff909216919091179055565b600054610100900460ff166131815760405162461bcd60e51b815260206004820152602b60248201527f496e697469616c697a61626c653a20636f6e7472616374206973206e6f74206960448201526a6e697469616c697a696e6760a81b60648201526084016109f2565b600180546001600160a01b0319166001600160a01b0392909216919091179055565b600054610100900460ff1661320e5760405162461bcd60e51b815260206004820152602b60248201527f496e697469616c697a61626c653a20636f6e7472616374206973206e6f74206960448201526a6e697469616c697a696e6760a81b60648201526084016109f2565b613216613e90565b565b600080613223613f02565b6000898152603460205260409020600381015487101561326057604051634086703360e11b8152600481018b9052602481018890526044016109f2565b506000806132708b8b8b8b611ff0565b6020810151815191925061328391615a84565b60008c8152603560205260409020600481015491935091506001600160a01b0316156132cb5760048101546132c8906001600160a01b03168c8c8c8b8d888d8d613f59565b91505b6001546040517f38ad9159000000000000000000000000000000000000000000000000000000008152600481018d9052602481018490526001600160a01b03909116906338ad915990604401602060405180830381865afa158015613334573d6000803e3d6000fd5b505050506040513d601f19601f820116820180604052508101906133589190615bb0565b925081831061336a5760009350613377565b6133748383615bc9565b93505b60058101546001600160a01b0316156133cb5760058101546133aa906001600160a01b03168c8c8c8b8d888a8e8e613fce565b935091508282106133c6576133bf8383615bc9565b93506133cb565b600093505b60068101546001600160a01b0316156133ff5760068101546133ff906001600160a01b03168c8c8c8b8d888b8b8f8f614126565b61340c8b8b8b8b8661422f565b50506134186001600255565b97509795505050505050565b60008061343085611b7a565b905060006001600160a01b03821663d1467f8661344d8688615a84565b6040518263ffffffff1660e01b815260040161346b91815260200190565b602060405180830381865afa158015613488573d6000803e3d6000fd5b505050506040513d601f19601f820116820180604052508101906134ac9190615bb0565b9050803410156134fe5760405162461bcd60e51b815260206004820152601260248201527f496e73756666696369656e742066756e6473000000000000000000000000000060448201526064016109f2565b600061350a8234615bc9565b905080156135ac57604051600090339083908381818185875af1925050503d8060008114613554576040519150601f19603f3d011682016040523d82523d6000602084013e613559565b606091505b50509050806135aa5760405162461bcd60e51b815260206004820152601460248201527f4661696c656420746f2073656e6420457468657200000000000000000000000060448201526064016109f2565b505b60008515613637576040516368a33fc360e11b8152600481018790526001600160a01b0385169063d1467f8690602401602060405180830381865afa1580156135f9573d6000803e3d6000fd5b505050506040513d601f19601f8201168201806040525081019061361d9190615bb0565b905080603960008282546136319190615a84565b90915550505b8286156136aa576040516368a33fc360e11b8152600481018990526001600160a01b0386169063d1467f8690602401602060405180830381865afa158015613683573d6000803e3d6000fd5b505050506040513d601f19601f820116820180604052508101906136a79190615bb0565b90505b600089815260386020526040812080548392906136c8908490615a84565b90915550939998505050505050505050565b6000546040805163cdcd7fb560e01b8152905133926201000090046001600160a01b03169163cdcd7fb59160048083019260209291908290030181865afa158015613729573d6000803e3d6000fd5b505050506040513d601f19601f8201168201806040525081019061374d91906159c7565b6001600160a01b03161461157b5760405162461bcd60e51b815260206004820152602c60248201527f41636365737369626c653a2063616c6c6572206973206e6f742074686520706c60448201526b30ba3337b9369030b236b4b760a11b60648201526084016109f2565b7f4910fdfa16fed3260ed0e7147f7cc6da11a60208b5b9406d12a635614ffd91435460ff16156137eb5761256283614398565b826001600160a01b03166352d1902d6040518163ffffffff1660e01b8152600401602060405180830381865afa925050508015613845575060408051601f3d908101601f1916820190925261384291810190615bb0565b60015b6138b75760405162461bcd60e51b815260206004820152602e60248201527f45524331393637557067726164653a206e657720696d706c656d656e7461746960448201527f6f6e206973206e6f74205555505300000000000000000000000000000000000060648201526084016109f2565b7f360894a13ba1a3210667c828492db98dca3e2076cc3735a920a3ca505d382bbc811461394c5760405162461bcd60e51b815260206004820152602960248201527f45524331393637557067726164653a20756e737570706f727465642070726f7860448201527f6961626c6555554944000000000000000000000000000000000000000000000060648201526084016109f2565b50612562838383614456565b60008060005b86811015613a3b576000808886036139cc576139c28b8b8b8681811061398657613986615a11565b90506020028101906139989190615a27565b8b8b8b898181106139ab576139ab615a11565b90506020028101906139bd9190615a27565b61447b565b9092509050613a0e565b613a088b8b8b868181106139e2576139e2615a11565b90506020028101906139f49190615a27565b8b8b8b60008181106139ab576139ab615a11565b90925090505b613a188286615a84565b9450613a248185615a84565b935050508080613a3390615a97565b91505061395e565b50965096945050505050565b8051600090819081905b80821015613bb1576000858381518110613a6d57613a6d615a11565b01602001516001600160f81b0319169050600160ff1b811015613a9c57613a95600184615a84565b9250613b9e565b7fe0000000000000000000000000000000000000000000000000000000000000006001600160f81b031982161015613ad957613a95600284615a84565b7ff0000000000000000000000000000000000000000000000000000000000000006001600160f81b031982161015613b1657613a95600384615a84565b7ff8000000000000000000000000000000000000000000000000000000000000006001600160f81b031982161015613b5357613a95600484615a84565b7ffc000000000000000000000000000000000000000000000000000000000000006001600160f81b031982161015613b9057613a95600584615a84565b613b9b600684615a84565b92505b5082613ba981615a97565b935050613a51565b50909392505050565b600080829050600381511015613bd35750600192915050565b60005b60028251613be49190615bc9565b811015613e8657818181518110613bfd57613bfd615a11565b6020910101516001600160f81b0319167fe200000000000000000000000000000000000000000000000000000000000000148015613c69575081613c42826001615a84565b81518110613c5257613c52615a11565b6020910101516001600160f81b031916600160ff1b145b15613d7a5781613c7a826002615a84565b81518110613c8a57613c8a615a11565b6020910101516001600160f81b0319167f8b000000000000000000000000000000000000000000000000000000000000001480613d11575081613cce826002615a84565b81518110613cde57613cde615a11565b6020910101516001600160f81b0319167f8c00000000000000000000000000000000000000000000000000000000000000145b80613d66575081613d23826002615a84565b81518110613d3357613d33615a11565b6020910101516001600160f81b0319167f8d00000000000000000000000000000000000000000000000000000000000000145b15613d75575060009392505050565b613e74565b818181518110613d8c57613d8c615a11565b01602001516001600160f81b0319167fef0000000000000000000000000000000000000000000000000000000000000003613e745781613dcd826001615a84565b81518110613ddd57613ddd615a11565b6020910101516001600160f81b0319167fbb00000000000000000000000000000000000000000000000000000000000000148015613e65575081613e22826002615a84565b81518110613e3257613e32615a11565b6020910101516001600160f81b0319167fbf00000000000000000000000000000000000000000000000000000000000000145b15613e74575060009392505050565b80613e7e81615a97565b915050613bd6565b5060019392505050565b600054610100900460ff16613efb5760405162461bcd60e51b815260206004820152602b60248201527f496e697469616c697a61626c653a20636f6e7472616374206973206e6f74206960448201526a6e697469616c697a696e6760a81b60648201526084016109f2565b6001600255565b6002805403613f535760405162461bcd60e51b815260206004820152601f60248201527f5265656e7472616e637947756172643a207265656e7472616e742063616c6c0060448201526064016109f2565b60028055565b6040517f0b6ca8970000000000000000000000000000000000000000000000000000000081526000906001600160a01b038b1690630b6ca89790613faf908c908c908c908c908c908c908c908c90600401615b59565b6020604051808303816000875af1158015612e47573d6000803e3d6000fd5b6000806000808d6001600160a01b031663392130da8e8e8e8e8e8e8e8e8e6040518a63ffffffff1660e01b815260040161401099989796959493929190615bdc565b60408051808303816000875af115801561402e573d6000803e3d6000fd5b505050506040513d601f19601f820116820180604052508101906140529190615c3a565b915091508188101561406357600080fd5b61406d8289615bc9565b975086811115614080575060009561408d565b61408a8188615bc9565b96505b8015614112576037546040517f95d4be7f000000000000000000000000000000000000000000000000000000008152600481018f9052602481018390526001600160a01b03909116906395d4be7f90604401600060405180830381600087803b1580156140f957600080fd5b505af115801561410d573d6000803e3d6000fd5b505050505b50959c949b50939950505050505050505050565b60006141318b611b7a565b6040516368a33fc360e11b8152600481018790529091506000906001600160a01b0383169063d1467f8690602401602060405180830381865afa15801561417c573d6000803e3d6000fd5b505050506040513d601f19601f820116820180604052508101906141a09190615bb0565b9050348111156141af57600080fd5b8c6001600160a01b03166376b0bb7d828e8e8e8e8e8e8e8e8e8e6040518c63ffffffff1660e01b81526004016141ee9a99989796959493929190615c5e565b6000604051808303818588803b15801561420757600080fd5b505af115801561421b573d6000803e3d6000fd5b505050505050505050505050505050505050565b60008054604051632c7263b560e01b815260048101889052620100009091046001600160a01b031690632c7263b590602401602060405180830381865afa15801561427e573d6000803e3d6000fd5b505050506040513d601f19601f820116820180604052508101906142a291906159c7565b9050600085856040516142b69291906159e4565b6040519081900381207fc475abff000000000000000000000000000000000000000000000000000000008252600482018190526024820186905291506000906001600160a01b0384169063c475abff906044016020604051808303816000875af1158015614328573d6000803e3d6000fd5b505050506040513d601f19601f8201168201806040525081019061434c9190615bb0565b9050817f784220c4d2cf9a5d0361368e22f52f257be5f1e4819cf161d06f62dcec9721168989898886604051614386959493929190615cc6565b60405180910390a25050505050505050565b6001600160a01b0381163b6144155760405162461bcd60e51b815260206004820152602d60248201527f455243313936373a206e657720696d706c656d656e746174696f6e206973206e60448201527f6f74206120636f6e74726163740000000000000000000000000000000000000060648201526084016109f2565b7f360894a13ba1a3210667c828492db98dca3e2076cc3735a920a3ca505d382bbc80546001600160a01b0319166001600160a01b0392909216919091179055565b61445f83614780565b60008251118061446c5750805b15612562576112fc83836147c0565b600080614486613f02565b614491888888610a69565b6144cd578787876040517fc8e58ae80000000000000000000000000000000000000000000000000000000081526004016109f293929190615cf4565b600088815260346020526040908190206002810154918701519091111561451857888660400151604051634086703360e11b81526004016109f2929190918252602082015260400190565b50600088815260356020526040902080546001600160a01b03161561455b5780548651604088015161455b926001600160a01b0316918c918c918c918b8b6147e5565b60008061456e8b8b8b8b60400151611ff0565b6020810151815191925061458191615a84565b60018401549092506001600160a01b03161590506145c4576001820154875160408901516145c1926001600160a01b0316918d918d918d91878d8d6148c0565b90505b6001546040517f9972d944000000000000000000000000000000000000000000000000000000008152600481018c9052602481018390526001600160a01b0390911690639972d94490604401602060405180830381865afa15801561462d573d6000803e3d6000fd5b505050506040513d601f19601f820116820180604052508101906146519190615bb0565b92508083106146635760009350614670565b61466d8382615bc9565b93505b60028201546001600160a01b0316156146cd576002820154875160408901516146ac926001600160a01b0316918d918d918d91878a8e8e614916565b935090508281106146c8576146c18382615bc9565b93506146cd565b600093505b60038201546001600160a01b03161561470a5760038201548751604089015161470a926001600160a01b0316918d918d918d91878b8b8f8f614958565b6147258a8a8a8a602001518b604001518c6060015187614a20565b8660800151801561474f575086602001516001600160a01b031687600001516001600160a01b0316145b15614769576147698a8a8a8a606001518b60200151614e96565b50506147756001600255565b965096945050505050565b61478981614398565b6040516001600160a01b038216907fbc7cd75a20ee27fd9adebab32041f755214dbc6bffa90cc0225b39da2e5c2d3b90600090a250565b6060610b948383604051806060016040528060278152602001615f41602791396151c9565b6040517f36625cc30000000000000000000000000000000000000000000000000000000081526000906001600160a01b038a16906336625cc390614839908b908b908b908b908b908b908b90600401615d17565b6020604051808303816000875af1158015614858573d6000803e3d6000fd5b505050506040513d601f19601f8201168201806040525081019061487c91906159f4565b9050806148b5576040517f3c166a5400000000000000000000000000000000000000000000000000000000815260040160405180910390fd5b505050505050505050565b6040517f80fd9d8d0000000000000000000000000000000000000000000000000000000081526000906001600160a01b038b16906380fd9d8d90613faf908c908c908c908c908c908c908c908c90600401615b59565b6000806000808d6001600160a01b031663347652e38e8e8e8e8e8e8e8e8e6040518a63ffffffff1660e01b815260040161401099989796959493929190615bdc565b60006149638b611b7a565b6040516368a33fc360e11b8152600481018790529091506000906001600160a01b0383169063d1467f8690602401602060405180830381865afa1580156149ae573d6000803e3d6000fd5b505050506040513d601f19601f820116820180604052508101906149d29190615bb0565b9050348111156149e157600080fd5b8c6001600160a01b03166322a6f8db828e8e8e8e8e8e8e8e8e8e6040518c63ffffffff1660e01b81526004016141ee9a99989796959493929190615c5e565b6000808787604051614a339291906159e4565b60405190819003812060008054632c7263b560e01b8452600484018d9052919350839290916201000090046001600160a01b031690632c7263b590602401602060405180830381865afa158015614a8e573d6000803e3d6000fd5b505050506040513d601f19601f82011682018060405250810190614ab291906159c7565b6040517ffca247ac00000000000000000000000000000000000000000000000000000000815260048101849052306024820152604481018990529091506001600160a01b0382169063fca247ac906064016020604051808303816000875af1158015614b22573d6000803e3d6000fd5b505050506040513d601f19601f82011682018060405250810190614b469190615bb0565b9350876001600160a01b0316837ffff5126f1caa0828f41366705e553eafc996d02fffa924bf2c463a00a17600dc8d8d8d8a8a604051614b8a959493929190615cc6565b60405180910390a36000816001600160a01b031663ddf7fcb06040518163ffffffff1660e01b8152600401602060405180830381865afa158015614bd2573d6000803e3d6000fd5b505050506040513d601f19601f82011682018060405250810190614bf69190615bb0565b6040805160208101929092528101859052606001604051602081830303815290604052805190602001209050816001600160a01b031663f9482e1a6040518163ffffffff1660e01b8152600401602060405180830381865afa158015614c60573d6000803e3d6000fd5b505050506040513d601f19601f82011682018060405250810190614c8491906159c7565b6040517f1896f70a000000000000000000000000000000000000000000000000000000008152600481018390526001600160a01b0389811660248301529190911690631896f70a90604401600060405180830381600087803b158015614ce957600080fd5b505af1158015614cfd573d6000803e3d6000fd5b505050506001600160a01b03891615614d8c576040517fd5fa2b00000000000000000000000000000000000000000000000000000000008152600481018290526001600160a01b038a8116602483015288169063d5fa2b0090604401600060405180830381600087803b158015614d7357600080fd5b505af1158015614d87573d6000803e3d6000fd5b505050505b6040517f28ed4f6c000000000000000000000000000000000000000000000000000000008152600481018490526001600160a01b038a811660248301528316906328ed4f6c90604401600060405180830381600087803b158015614def57600080fd5b505af1158015614e03573d6000803e3d6000fd5b50506040517f23b872dd0000000000000000000000000000000000000000000000000000000081523060048201526001600160a01b038c8116602483015260448201879052851692506323b872dd9150606401600060405180830381600087803b158015614e7057600080fd5b505af1158015614e84573d6000803e3d6000fd5b50505050505050505050505050505050565b600080546040517f9424bff800000000000000000000000000000000000000000000000000000000815260048101889052620100009091046001600160a01b031690639424bff890602401600060405180830381865afa158015614efe573d6000803e3d6000fd5b505050506040513d6000823e601f3d908101601f19168201604052614f269190810190615d7d565b603b546040517fbffbe61c0000000000000000000000000000000000000000000000000000000081523360048201529192506000916001600160a01b039091169063bffbe61c90602401602060405180830381865afa158015614f8d573d6000803e3d6000fd5b505050506040513d601f19601f82011682018060405250810190614fb19190615bb0565b6040517f691f3431000000000000000000000000000000000000000000000000000000008152600481018290529091506000906001600160a01b0386169063691f343190602401600060405180830381865afa158015615015573d6000803e3d6000fd5b505050506040513d6000823e601f3d908101601f1916820160405261503d9190810190615d7d565b9050805160000361510857603b546040516001600160a01b0390911690637a806d6b90339087908990615076908d908d90602001615deb565b60408051601f1981840301815290829052615095918a90602001615e1d565b6040516020818303038152906040526040518563ffffffff1660e01b81526004016150c39493929190615e78565b6020604051808303816000875af11580156150e2573d6000803e3d6000fd5b505050506040513d601f19601f820116820180604052508101906151069190615bb0565b505b603b546040516001600160a01b03909116906397c3a355903390879089908d90615138908e908e90602001615deb565b60408051601f1981840301815290829052615157918b90602001615e1d565b6040516020818303038152906040526040518663ffffffff1660e01b8152600401615186959493929190615eac565b6020604051808303816000875af11580156151a5573d6000803e3d6000fd5b505050506040513d601f19601f820116820180604052508101906148b59190615bb0565b60606001600160a01b0384163b6152485760405162461bcd60e51b815260206004820152602660248201527f416464726573733a2064656c65676174652063616c6c20746f206e6f6e2d636f60448201527f6e7472616374000000000000000000000000000000000000000000000000000060648201526084016109f2565b600080856001600160a01b0316856040516152639190615ef1565b600060405180830381855af49150503d806000811461529e576040519150601f19603f3d011682016040523d82523d6000602084013e6152a3565b606091505b5091509150610b8f828286606083156152bd575081610b94565b8251156152cd5782518084602001fd5b8160405162461bcd60e51b81526004016109f29190615f0d565b6000602082840312156152f957600080fd5b5035919050565b6001600160a01b038116811461157b57600080fd5b6000806040838503121561532857600080fd5b82359150602083013561533a81615300565b809150509250929050565b60008083601f84011261535757600080fd5b50813567ffffffffffffffff81111561536f57600080fd5b60208301915083602082850101111561538757600080fd5b9250929050565b6000806000604084860312156153a357600080fd5b83359250602084013567ffffffffffffffff8111156153c157600080fd5b6153cd86828701615345565b9497909650939450505050565b600080600080600060a086880312156153f257600080fd5b85356153fd81615300565b9450602086013561540d81615300565b9350604086013561541d81615300565b9250606086013561542d81615300565b9150608086013561543d81615300565b809150509295509295909350565b6000806040838503121561545e57600080fd5b50508035926020909101359150565b60008083601f84011261547f57600080fd5b50813567ffffffffffffffff81111561549757600080fd5b6020830191508360208260051b850101111561538757600080fd5b600080600080600080608087890312156154cb57600080fd5b86359550602087013567ffffffffffffffff808211156154ea57600080fd5b6154f68a838b0161546d565b909750955060408901359450606089013591508082111561551657600080fd5b5061552389828a0161546d565b979a9699509497509295939492505050565b60006020828403121561554757600080fd5b8135610b9481615300565b634e487b7160e01b600052604160045260246000fd5b604051601f8201601f1916810167ffffffffffffffff8111828210171561559157615591615552565b604052919050565b600067ffffffffffffffff8211156155b3576155b3615552565b50601f01601f191660200190565b600080604083850312156155d457600080fd5b82356155df81615300565b9150602083013567ffffffffffffffff8111156155fb57600080fd5b8301601f8101851361560c57600080fd5b803561561f61561a82615599565b615568565b81815286602083850101111561563457600080fd5b816020840160208301376000602083830101528093505050509250929050565b60008060006060848603121561566957600080fd5b833561567481615300565b9250602084013561568481615300565b929592945050506040919091013590565b60008060008060008060c087890312156156ae57600080fd5b8635955060208701356156c081615300565b945060408701356156d081615300565b935060608701356156e081615300565b925060808701356156f081615300565b915060a087013561570081615300565b809150509295509295509295565b801515811461157b57600080fd5b600080600080600080600080600060e08a8c03121561573a57600080fd5b8935985060208a013567ffffffffffffffff8082111561575957600080fd5b6157658d838e0161546d565b909a50985060408c0135915061577a82615300565b90965060608b0135955060808b01359061579382615300565b90945060a08b0135906157a58261570e565b90935060c08b013590808211156157bb57600080fd5b506157c88c828d0161546d565b915080935050809150509295985092959850929598565b600080600080606085870312156157f557600080fd5b84359350602085013567ffffffffffffffff81111561581357600080fd5b61581f87828801615345565b9598909750949560400135949350505050565b600080600080600080600060a0888a03121561584d57600080fd5b87359650602088013567ffffffffffffffff8082111561586c57600080fd5b6158788b838c0161546d565b909850965060408a0135955060608a0135915061589482615300565b909350608089013590808211156158aa57600080fd5b506158b78a828b0161546d565b989b979a50959850939692959293505050565b60008082840360c08112156158de57600080fd5b8335925060a0601f19820112156158f457600080fd5b506020830190509250929050565b6000806000806060858703121561591857600080fd5b84359350602085013567ffffffffffffffff81111561593657600080fd5b61581f8782880161546d565b600080600080600080600060a0888a03121561595d57600080fd5b87359650602088013567ffffffffffffffff8082111561597c57600080fd5b6159888b838c01615345565b909850965060408a0135915061599d82615300565b90945060608901359350608089013590808211156159ba57600080fd5b506158b78a828b01615345565b6000602082840312156159d957600080fd5b8151610b9481615300565b8183823760009101908152919050565b600060208284031215615a0657600080fd5b8151610b948161570e565b634e487b7160e01b600052603260045260246000fd5b6000808335601e19843603018112615a3e57600080fd5b83018035915067ffffffffffffffff821115615a5957600080fd5b60200191503681900382131561538757600080fd5b634e487b7160e01b600052601160045260246000fd5b80820180821115611baa57611baa615a6e565b600060018201615aa957615aa9615a6e565b5060010190565b81835281816020850137506000828201602090810191909152601f909101601f19169091010190565b608081526000615aed608083018789615ab0565b602083019590955250604081019290925260609091015292915050565b600060408284031215615b1c57600080fd5b6040516040810181811067ffffffffffffffff82111715615b3f57615b3f615552565b604052825181526020928301519281019290925250919050565b88815260c060208201526000615b7360c08301898b615ab0565b6001600160a01b038816604084015286606084015285608084015282810360a0840152615ba1818587615ab0565b9b9a5050505050505050505050565b600060208284031215615bc257600080fd5b5051919050565b81810381811115611baa57611baa615a6e565b89815260e060208201526000615bf660e083018a8c615ab0565b6001600160a01b03891660408401528760608401528660808401528560a084015282810360c0840152615c2a818587615ab0565b9c9b505050505050505050505050565b60008060408385031215615c4d57600080fd5b505080516020909101519092909150565b60006101008c8352806020840152615c798184018c8e615ab0565b90506001600160a01b038a1660408401528860608401528760808401528660a08401528560c084015282810360e0840152615cb5818587615ab0565b9d9c50505050505050505050505050565b858152608060208201526000615ce0608083018688615ab0565b604083019490945250606001529392505050565b838152604060208201526000615d0e604083018486615ab0565b95945050505050565b87815260a060208201526000615d3160a08301888a615ab0565b6001600160a01b038716604084015285606084015282810360808401526113f5818587615ab0565b60005b83811015615d74578181015183820152602001615d5c565b50506000910152565b600060208284031215615d8f57600080fd5b815167ffffffffffffffff811115615da657600080fd5b8201601f81018413615db757600080fd5b8051615dc561561a82615599565b818152856020838501011115615dda57600080fd5b615d0e826020830160208601615d59565b818382377f2e000000000000000000000000000000000000000000000000000000000000009101908152600101919050565b60008351615e2f818460208801615d59565b835190830190615e43818360208801615d59565b01949350505050565b60008151808452615e64816020860160208601615d59565b601f01601f19169290920160200192915050565b60006001600160a01b03808716835280861660208401528085166040840152506080606083015261209f6080830184615e4c565b60006001600160a01b038088168352808716602084015280861660408401525083606083015260a06080830152615ee660a0830184615e4c565b979650505050505050565b60008251615f03818460208701615d59565b9190910192915050565b602081526000610b946020830184615e4c56fe4f776e61626c653a2063616c6c6572206973206e6f742074686520746c64206f416464726573733a206c6f772d6c6576656c2064656c65676174652063616c6c206661696c6564a2646970667358221220abdb1a4c1bfafb49424c6f79d4e74df76b28bf3555c396a1084d9f9d6ad4a10e64736f6c63430008120033",
  "linkReferences": {},
  "deployedLinkReferences": {}
}