{
  "_format": "hh-sol-artifact-1",
  "contractName": "PrepaidPlatformFee",
  "sourceName": "contracts/admin/PrepaidPlatformFee.sol",
  "abi": [
    {
      "inputs": [
        {
          "internalType": "contract ISANN",
          "name": "_sann",
          "type": "address"
        },
        {
          "internalType": "contract IPlatformConfig",
          "name": "_config",
          "type": "address"
        },
        {
          "internalType": "contract IPriceOracle",
          "name": "_priceOracle",
          "type": "address"
        }
      ],
      "stateMutability": "nonpayable",
      "type": "constructor"
    },
    {
      "anonymous": false,
      "inputs": [
        {
          "indexed": false,
          "internalType": "uint256",
          "name": "identifier",
          "type": "uint256"
        },
        {
          "indexed": false,
          "internalType": "uint256",
          "name": "usdAmount",
          "type": "uint256"
        }
      ],
      "name": "PlatformFeeDeduct",
      "type": "event"
    },
    {
      "anonymous": false,
      "inputs": [
        {
          "indexed": false,
          "internalType": "uint256",
          "name": "identifier",
          "type": "uint256"
        },
        {
          "indexed": false,
          "internalType": "uint256",
          "name": "usdAmount",
          "type": "uint256"
        }
      ],
      "name": "PlatformFeeDeposit",
      "type": "event"
    },
    {
      "anonymous": false,
      "inputs": [
        {
          "indexed": false,
          "internalType": "uint256",
          "name": "amount",
          "type": "uint256"
        }
      ],
      "name": "PlatformFeeWithdraw",
      "type": "event"
    },
    {
      "inputs": [
        {
          "internalType": "uint256",
          "name": "identifier",
          "type": "uint256"
        },
        {
          "internalType": "uint256",
          "name": "amount",
          "type": "uint256"
        }
      ],
      "name": "deduct",
      "outputs": [],
      "stateMutability": "nonpayable",
      "type": "function"
    },
    {
      "inputs": [
        {
          "internalType": "uint256",
          "name": "identifier",
          "type": "uint256"
        }
      ],
      "name": "deposit",
      "outputs": [],
      "stateMutability": "payable",
      "type": "function"
    },
    {
      "inputs": [
        {
          "internalType": "uint256",
          "name": "",
          "type": "uint256"
        }
      ],
      "name": "feeCredits",
      "outputs": [
        {
          "internalType": "uint256",
          "name": "",
          "type": "uint256"
        }
      ],
      "stateMutability": "view",
      "type": "function"
    },
    {
      "inputs": [],
      "name": "platformConfig",
      "outputs": [
        {
          "internalType": "contract IPlatformConfig",
          "name": "",
          "type": "address"
        }
      ],
      "stateMutability": "view",
      "type": "function"
    },
    {
      "inputs": [],
      "name": "priceOracle",
      "outputs": [
        {
          "internalType": "contract IPriceOracle",
          "name": "",
          "type": "address"
        }
      ],
      "stateMutability": "view",
      "type": "function"
    },
    {
      "inputs": [],
      "name": "sann",
      "outputs": [
        {
          "internalType": "contract ISANN",
          "name": "",
          "type": "address"
        }
      ],
      "stateMutability": "view",
      "type": "function"
    },
    {
      "inputs": [],
      "name": "withdraw",
      "outputs": [],
      "stateMutability": "nonpayable",
      "type": "function"
    }
  ],
  "bytecode": "0x608060405234801561001057600080fd5b5060405161085e38038061085e83398101604081905261002f91610089565b600080546001600160a01b039485166001600160a01b0319918216179091556001805493851693821693909317909255600380549190931691161790556100d6565b6001600160a01b038116811461008657600080fd5b50565b60008060006060848603121561009e57600080fd5b83516100a981610071565b60208501519093506100ba81610071565b60408501519092506100cb81610071565b809150509250925092565b610779806100e56000396000f3fe6080604052600436106100705760003560e01c806395d4be7f1161004e57806395d4be7f146100e9578063b6b55f2514610109578063c0325cf81461011c578063d46da3871461015757600080fd5b80632630c12f146100755780633ccfd60b146100b25780634d24e236146100c9575b600080fd5b34801561008157600080fd5b50600354610095906001600160a01b031681565b6040516001600160a01b0390911681526020015b60405180910390f35b3480156100be57600080fd5b506100c7610177565b005b3480156100d557600080fd5b50600154610095906001600160a01b031681565b3480156100f557600080fd5b506100c7610104366004610664565b61034f565b6100c7610117366004610686565b610512565b34801561012857600080fd5b50610149610137366004610686565b60026020526000908152604090205481565b6040519081526020016100a9565b34801561016357600080fd5b50600054610095906001600160a01b031681565b600154604080517f853a65f9000000000000000000000000000000000000000000000000000000008152905133926001600160a01b03169163853a65f99160048083019260209291908290030181865afa1580156101d9573d6000803e3d6000fd5b505050506040513d601f19601f820116820180604052508101906101fd919061069f565b6001600160a01b03161461027e5760405162461bcd60e51b815260206004820152603160248201527f4f776e61626c653a2063616c6c6572206973206e6f742074686520706c61746660448201527f6f726d2066656520636f6c6c6563746f7200000000000000000000000000000060648201526084015b60405180910390fd5b6040514790600090339083908381818185875af1925050503d80600081146102c2576040519150601f19603f3d011682016040523d82523d6000602084013e6102c7565b606091505b50509050806103185760405162461bcd60e51b815260206004820152601460248201527f4661696c656420746f2073656e642045746865720000000000000000000000006044820152606401610275565b6040518281527f62a23d4358c7cb06ba363801ebd01eb7a12fb4d21d960c8efb90dea5d8c6eb049060200160405180910390a15050565b600054604080517ff3400419000000000000000000000000000000000000000000000000000000008152905133926001600160a01b03169163f34004199160048083019260209291908290030181865afa1580156103b1573d6000803e3d6000fd5b505050506040513d601f19601f820116820180604052508101906103d5919061069f565b6001600160a01b0316146104515760405162461bcd60e51b815260206004820152602c60248201527f41636365737369626c653a2063616c6c6572206973206e6f742074686520746c60448201527f6420636f6e74726f6c6c657200000000000000000000000000000000000000006064820152608401610275565b600082815260026020526040902054818110156104b05760405162461bcd60e51b815260206004820152601760248201527f696e73756666696369656e7420666565206372656469740000000000000000006044820152606401610275565b600083815260026020526040812080548492906104ce9084906106fe565b909155505060408051848152602081018490527fb0c90b30c72dab97a885d72b76e652bad52e466acfbf578f5b127c73f20dd05391015b60405180910390a1505050565b600034116105625760405162461bcd60e51b815260206004820152601660248201527f6465706f73697420616d6f756e7420746f6f206c6f77000000000000000000006044820152606401610275565b34633b9aca0081111561057d5761057a600182610717565b90505b6003546040517f6c01c874000000000000000000000000000000000000000000000000000000008152600481018390526000916001600160a01b031690636c01c87490602401602060405180830381865afa1580156105e0573d6000803e3d6000fd5b505050506040513d601f19601f82011682018060405250810190610604919061072a565b9050806002600085815260200190815260200160002060008282546106299190610717565b909155505060408051848152602081018390527f75e6b035a5de3444eb98402e1d612067879a80bce29e6d6b7bbedfdccf4196eb9101610505565b6000806040838503121561067757600080fd5b50508035926020909101359150565b60006020828403121561069857600080fd5b5035919050565b6000602082840312156106b157600080fd5b81516001600160a01b03811681146106c857600080fd5b9392505050565b7f4e487b7100000000000000000000000000000000000000000000000000000000600052601160045260246000fd5b81810381811115610711576107116106cf565b92915050565b80820180821115610711576107116106cf565b60006020828403121561073c57600080fd5b505191905056fea26469706673582212202966dcc6f0910e75df0886aeda17b9553108e73a11020265adf1ecc9c735ac8564736f6c63430008120033",
  "linkReferences": {},
  "deployedLinkReferences": {}
}