{
  "_format": "hh-sol-artifact-1",
  "contractName": "ReverseRegistrar",
  "sourceName": "contracts/registrar/ReverseRegistrar.sol",
  "abi": [
    {
      "inputs": [
        {
          "internalType": "address",
          "name": "owner",
          "type": "address"
        }
      ],
      "stateMutability": "nonpayable",
      "type": "constructor"
    },
    {
      "anonymous": false,
      "inputs": [
        {
          "indexed": true,
          "internalType": "address",
          "name": "controller",
          "type": "address"
        },
        {
          "indexed": false,
          "internalType": "bool",
          "name": "enabled",
          "type": "bool"
        }
      ],
      "name": "ControllerChanged",
      "type": "event"
    },
    {
      "anonymous": false,
      "inputs": [
        {
          "indexed": false,
          "internalType": "uint8",
          "name": "version",
          "type": "uint8"
        }
      ],
      "name": "Initialized",
      "type": "event"
    },
    {
      "anonymous": false,
      "inputs": [
        {
          "indexed": true,
          "internalType": "address",
          "name": "previousOwner",
          "type": "address"
        },
        {
          "indexed": true,
          "internalType": "address",
          "name": "newOwner",
          "type": "address"
        }
      ],
      "name": "OwnershipTransferred",
      "type": "event"
    },
    {
      "anonymous": false,
      "inputs": [
        {
          "indexed": true,
          "internalType": "address",
          "name": "addr",
          "type": "address"
        },
        {
          "indexed": true,
          "internalType": "bytes32",
          "name": "node",
          "type": "bytes32"
        }
      ],
      "name": "ReverseClaimed",
      "type": "event"
    },
    {
      "inputs": [
        {
          "internalType": "address",
          "name": "owner",
          "type": "address"
        }
      ],
      "name": "claim",
      "outputs": [
        {
          "internalType": "bytes32",
          "name": "",
          "type": "bytes32"
        }
      ],
      "stateMutability": "nonpayable",
      "type": "function"
    },
    {
      "inputs": [
        {
          "internalType": "address",
          "name": "addr",
          "type": "address"
        },
        {
          "internalType": "address",
          "name": "owner",
          "type": "address"
        },
        {
          "internalType": "address",
          "name": "resolver",
          "type": "address"
        }
      ],
      "name": "claimForAddr",
      "outputs": [
        {
          "internalType": "bytes32",
          "name": "",
          "type": "bytes32"
        }
      ],
      "stateMutability": "nonpayable",
      "type": "function"
    },
    {
      "inputs": [
        {
          "internalType": "address",
          "name": "owner",
          "type": "address"
        },
        {
          "internalType": "address",
          "name": "resolver",
          "type": "address"
        }
      ],
      "name": "claimWithResolver",
      "outputs": [
        {
          "internalType": "bytes32",
          "name": "",
          "type": "bytes32"
        }
      ],
      "stateMutability": "nonpayable",
      "type": "function"
    },
    {
      "inputs": [
        {
          "internalType": "address",
          "name": "",
          "type": "address"
        }
      ],
      "name": "controllers",
      "outputs": [
        {
          "internalType": "bool",
          "name": "",
          "type": "bool"
        }
      ],
      "stateMutability": "view",
      "type": "function"
    },
    {
      "inputs": [],
      "name": "defaultResolver",
      "outputs": [
        {
          "internalType": "contract ReverseResolver",
          "name": "",
          "type": "address"
        }
      ],
      "stateMutability": "view",
      "type": "function"
    },
    {
      "inputs": [
        {
          "internalType": "contract SidRegistry",
          "name": "sidAddr",
          "type": "address"
        }
      ],
      "name": "initialize",
      "outputs": [],
      "stateMutability": "nonpayable",
      "type": "function"
    },
    {
      "inputs": [
        {
          "internalType": "address",
          "name": "addr",
          "type": "address"
        }
      ],
      "name": "node",
      "outputs": [
        {
          "internalType": "bytes32",
          "name": "",
          "type": "bytes32"
        }
      ],
      "stateMutability": "pure",
      "type": "function"
    },
    {
      "inputs": [],
      "name": "owner",
      "outputs": [
        {
          "internalType": "address",
          "name": "",
          "type": "address"
        }
      ],
      "stateMutability": "view",
      "type": "function"
    },
    {
      "inputs": [],
      "name": "renounceOwnership",
      "outputs": [],
      "stateMutability": "nonpayable",
      "type": "function"
    },
    {
      "inputs": [
        {
          "internalType": "address",
          "name": "addr",
          "type": "address"
        },
        {
          "internalType": "address",
          "name": "owner",
          "type": "address"
        },
        {
          "internalType": "address",
          "name": "resolver",
          "type": "address"
        },
        {
          "internalType": "string",
          "name": "name",
          "type": "string"
        },
        {
          "internalType": "uint256",
          "name": "identifier",
          "type": "uint256"
        },
        {
          "internalType": "string",
          "name": "tldName",
          "type": "string"
        }
      ],
      "name": "setAllNamesForAddr",
      "outputs": [
        {
          "internalType": "bytes32",
          "name": "",
          "type": "bytes32"
        }
      ],
      "stateMutability": "nonpayable",
      "type": "function"
    },
    {
      "inputs": [
        {
          "internalType": "address",
          "name": "controller",
          "type": "address"
        },
        {
          "internalType": "bool",
          "name": "enabled",
          "type": "bool"
        }
      ],
      "name": "setController",
      "outputs": [],
      "stateMutability": "nonpayable",
      "type": "function"
    },
    {
      "inputs": [
        {
          "internalType": "address",
          "name": "resolver",
          "type": "address"
        }
      ],
      "name": "setDefaultResolver",
      "outputs": [],
      "stateMutability": "nonpayable",
      "type": "function"
    },
    {
      "inputs": [
        {
          "internalType": "string",
          "name": "name",
          "type": "string"
        }
      ],
      "name": "setName",
      "outputs": [
        {
          "internalType": "bytes32",
          "name": "",
          "type": "bytes32"
        }
      ],
      "stateMutability": "nonpayable",
      "type": "function"
    },
    {
      "inputs": [
        {
          "internalType": "address",
          "name": "addr",
          "type": "address"
        },
        {
          "internalType": "address",
          "name": "owner",
          "type": "address"
        },
        {
          "internalType": "address",
          "name": "resolver",
          "type": "address"
        },
        {
          "internalType": "string",
          "name": "name",
          "type": "string"
        }
      ],
      "name": "setNameForAddr",
      "outputs": [
        {
          "internalType": "bytes32",
          "name": "",
          "type": "bytes32"
        }
      ],
      "stateMutability": "nonpayable",
      "type": "function"
    },
    {
      "inputs": [
        {
          "internalType": "uint256",
          "name": "identifier",
          "type": "uint256"
        },
        {
          "internalType": "string",
          "name": "name",
          "type": "string"
        }
      ],
      "name": "setTldName",
      "outputs": [
        {
          "internalType": "bytes32",
          "name": "",
          "type": "bytes32"
        }
      ],
      "stateMutability": "nonpayable",
      "type": "function"
    },
    {
      "inputs": [
        {
          "internalType": "address",
          "name": "addr",
          "type": "address"
        },
        {
          "internalType": "address",
          "name": "owner",
          "type": "address"
        },
        {
          "internalType": "address",
          "name": "resolver",
          "type": "address"
        },
        {
          "internalType": "uint256",
          "name": "identifier",
          "type": "uint256"
        },
        {
          "internalType": "string",
          "name": "name",
          "type": "string"
        }
      ],
      "name": "setTldNameForAddr",
      "outputs": [
        {
          "internalType": "bytes32",
          "name": "",
          "type": "bytes32"
        }
      ],
      "stateMutability": "nonpayable",
      "type": "function"
    },
    {
      "inputs": [],
      "name": "sid",
      "outputs": [
        {
          "internalType": "contract SidRegistry",
          "name": "",
          "type": "address"
        }
      ],
      "stateMutability": "view",
      "type": "function"
    },
    {
      "inputs": [
        {
          "internalType": "address",
          "name": "newOwner",
          "type": "address"
        }
      ],
      "name": "transferOwnership",
      "outputs": [],
      "stateMutability": "nonpayable",
      "type": "function"
    }
  ],
  "bytecode": "0x60806040523480156200001157600080fd5b506040516200135e3803806200135e833981016040819052620000349162000182565b6200003f3362000051565b6200004a81620000a1565b50620001b4565b600080546001600160a01b038381166001600160a01b0319831681178455604051919092169283917f8be0079c531659141344cd1fd0a4f28419497f9722a3daafe3b4186f6b6457e09190a35050565b620000ab62000124565b6001600160a01b038116620001165760405162461bcd60e51b815260206004820152602660248201527f4f776e61626c653a206e6577206f776e657220697320746865207a65726f206160448201526564647265737360d01b60648201526084015b60405180910390fd5b620001218162000051565b50565b6000546001600160a01b03163314620001805760405162461bcd60e51b815260206004820181905260248201527f4f776e61626c653a2063616c6c6572206973206e6f7420746865206f776e657260448201526064016200010d565b565b6000602082840312156200019557600080fd5b81516001600160a01b0381168114620001ad57600080fd5b9392505050565b61119a80620001c46000396000f3fe608060405234801561001057600080fd5b50600436106101365760003560e01c8063b1e8eb95116100b2578063c4d66de811610081578063da8c229e11610066578063da8c229e14610278578063e0dba60f146102ab578063f2fde38b146102be57600080fd5b8063c4d66de814610252578063c66485b21461026557600080fd5b8063b1e8eb9514610206578063bfbefbb914610219578063bffbe61c1461022c578063c47f00271461023f57600080fd5b8063715018a611610109578063828eab0e116100ee578063828eab0e146101b75780638da5cb5b146101e257806397c3a355146101f357600080fd5b8063715018a61461019a5780637a806d6b146101a457600080fd5b80630f5a54661461013b5780631e83409a14610161578063625e3dfa146101745780636566963114610187575b600080fd5b61014e610149366004610cee565b6102d1565b6040519081526020015b60405180910390f35b61014e61016f366004610d27565b6102e5565b61014e610182366004610e00565b610307565b61014e610195366004610ea4565b6103e6565b6101a261069a565b005b61014e6101b2366004610eef565b6106ae565b6002546101ca906001600160a01b031681565b6040516001600160a01b039091168152602001610158565b6000546001600160a01b03166101ca565b61014e610201366004610f64565b610729565b6001546101ca906001600160a01b031681565b61014e610227366004610fe3565b61076a565b61014e61023a366004610d27565b610788565b61014e61024d36600461102a565b6107e3565b6101a2610260366004610d27565b610800565b6101a2610273366004610d27565b61097f565b61029b610286366004610d27565b60036020526000908152604090205460ff1681565b6040519015158152602001610158565b6101a26102b9366004611075565b610a32565b6101a26102cc366004610d27565b610a99565b60006102de3384846103e6565b9392505050565b60025460009061030190339084906001600160a01b03166103e6565b92915050565b6000806103158888886103e6565b604051637737221360e01b81529091506001600160a01b0387169063773722139061034690849089906004016110e9565b600060405180830381600087803b15801561036057600080fd5b505af1158015610374573d6000803e3d6000fd5b5050604051636236a1b360e11b81526001600160a01b038916925063c46d436691506103a890849088908890600401611102565b600060405180830381600087803b1580156103c257600080fd5b505af11580156103d6573d6000803e3d6000fd5b50929a9950505050505050505050565b6000836001600160a01b03811633148061040f57503360009081526003602052604090205460ff165b806104a257506001546040517fe985e9c50000000000000000000000000000000000000000000000000000000081526001600160a01b0383811660048301523360248301529091169063e985e9c590604401602060405180830381865afa15801561047e573d6000803e3d6000fd5b505050506040513d601f19601f820116820180604052508101906104a2919061112a565b806104b157506104b181610b29565b61054e5760405162461bcd60e51b815260206004820152605b60248201527f526576657273655265676973747261723a2043616c6c6572206973206e6f742060448201527f6120636f6e74726f6c6c6572206f7220617574686f726973656420627920616460648201527f6472657373206f7220746865206164647265737320697473656c660000000000608482015260a4015b60405180910390fd5b600061055986610ba2565b604080517f91d1777781884d03a6757a803996e38de2a42967fb37eeaca72729271025a9e2602080830191909152818301849052825180830384018152606090920192839052815191012091925081906001600160a01b038916907f6ada868dd3058cf77a48a74489fd7963688e5464b2b0fa957ace976243270e9290600090a36001546040517f5ef2c7f00000000000000000000000000000000000000000000000000000000081527f91d1777781884d03a6757a803996e38de2a42967fb37eeaca72729271025a9e26004820152602481018490526001600160a01b03888116604483015287811660648301526000608483015290911690635ef2c7f09060a4015b600060405180830381600087803b15801561067757600080fd5b505af115801561068b573d6000803e3d6000fd5b50929998505050505050505050565b6106a2610c22565b6106ac6000610c7c565b565b6000806106bc8686866103e6565b604051637737221360e01b81529091506001600160a01b038516906377372213906106ed90849087906004016110e9565b600060405180830381600087803b15801561070757600080fd5b505af115801561071b573d6000803e3d6000fd5b509298975050505050505050565b6000806107378787876103e6565b604051636236a1b360e11b81529091506001600160a01b0386169063c46d43669061065d90849088908890600401611102565b6002546000906102de90339081906001600160a01b03168686610729565b60007f91d1777781884d03a6757a803996e38de2a42967fb37eeaca72729271025a9e26107b483610ba2565b604080516020810193909352820152606001604051602081830303815290604052805190602001209050919050565b60025460009061030190339081906001600160a01b0316856106ae565b600054600160a81b900460ff161580801561082857506000546001600160a01b90910460ff16105b806108495750303b1580156108495750600054600160a01b900460ff166001145b6108bb5760405162461bcd60e51b815260206004820152602e60248201527f496e697469616c697a61626c653a20636f6e747261637420697320616c72656160448201527f647920696e697469616c697a65640000000000000000000000000000000000006064820152608401610545565b600080547fffffffffffffffffffffff00ffffffffffffffffffffffffffffffffffffffff16600160a01b1790558015610903576000805460ff60a81b1916600160a81b1790555b61090b610c22565b6001805473ffffffffffffffffffffffffffffffffffffffff19166001600160a01b038416179055801561097b576000805460ff60a81b19169055604051600181527f7f26b83ff96e1f2b6a682f133852f6798a09c465da95921460cefb38474024989060200160405180910390a15b5050565b610987610c22565b6001600160a01b038116610a035760405162461bcd60e51b815260206004820152603060248201527f526576657273655265676973747261723a205265736f6c76657220616464726560448201527f7373206d757374206e6f742062652030000000000000000000000000000000006064820152608401610545565b6002805473ffffffffffffffffffffffffffffffffffffffff19166001600160a01b0392909216919091179055565b610a3a610c22565b6001600160a01b038216600081815260036020908152604091829020805460ff191685151590811790915591519182527f4c97694570a07277810af7e5669ffd5f6a2d6b74b6e9a274b8b870fd5114cf87910160405180910390a25050565b610aa1610c22565b6001600160a01b038116610b1d5760405162461bcd60e51b815260206004820152602660248201527f4f776e61626c653a206e6577206f776e657220697320746865207a65726f206160448201527f64647265737300000000000000000000000000000000000000000000000000006064820152608401610545565b610b2681610c7c565b50565b6000816001600160a01b0316638da5cb5b6040518163ffffffff1660e01b8152600401602060405180830381865afa925050508015610b85575060408051601f3d908101601f19168201909252610b8291810190611147565b60015b610b9157506000919050565b6001600160a01b0316331492915050565b600060285b8015610c1657600019017f3031323334353637383961626364656600000000000000000000000000000000600f84161a8153601090920491600019017f3031323334353637383961626364656600000000000000000000000000000000600f84161a8153601083049250610ba7565b50506028600020919050565b6000546001600160a01b031633146106ac5760405162461bcd60e51b815260206004820181905260248201527f4f776e61626c653a2063616c6c6572206973206e6f7420746865206f776e65726044820152606401610545565b600080546001600160a01b0383811673ffffffffffffffffffffffffffffffffffffffff19831681178455604051919092169283917f8be0079c531659141344cd1fd0a4f28419497f9722a3daafe3b4186f6b6457e09190a35050565b6001600160a01b0381168114610b2657600080fd5b60008060408385031215610d0157600080fd5b8235610d0c81610cd9565b91506020830135610d1c81610cd9565b809150509250929050565b600060208284031215610d3957600080fd5b81356102de81610cd9565b7f4e487b7100000000000000000000000000000000000000000000000000000000600052604160045260246000fd5b600082601f830112610d8457600080fd5b813567ffffffffffffffff80821115610d9f57610d9f610d44565b604051601f8301601f19908116603f01168101908282118183101715610dc757610dc7610d44565b81604052838152866020858801011115610de057600080fd5b836020870160208301376000602085830101528094505050505092915050565b60008060008060008060c08789031215610e1957600080fd5b8635610e2481610cd9565b95506020870135610e3481610cd9565b94506040870135610e4481610cd9565b9350606087013567ffffffffffffffff80821115610e6157600080fd5b610e6d8a838b01610d73565b94506080890135935060a0890135915080821115610e8a57600080fd5b50610e9789828a01610d73565b9150509295509295509295565b600080600060608486031215610eb957600080fd5b8335610ec481610cd9565b92506020840135610ed481610cd9565b91506040840135610ee481610cd9565b809150509250925092565b60008060008060808587031215610f0557600080fd5b8435610f1081610cd9565b93506020850135610f2081610cd9565b92506040850135610f3081610cd9565b9150606085013567ffffffffffffffff811115610f4c57600080fd5b610f5887828801610d73565b91505092959194509250565b600080600080600060a08688031215610f7c57600080fd5b8535610f8781610cd9565b94506020860135610f9781610cd9565b93506040860135610fa781610cd9565b925060608601359150608086013567ffffffffffffffff811115610fca57600080fd5b610fd688828901610d73565b9150509295509295909350565b60008060408385031215610ff657600080fd5b82359150602083013567ffffffffffffffff81111561101457600080fd5b61102085828601610d73565b9150509250929050565b60006020828403121561103c57600080fd5b813567ffffffffffffffff81111561105357600080fd5b61105f84828501610d73565b949350505050565b8015158114610b2657600080fd5b6000806040838503121561108857600080fd5b823561109381610cd9565b91506020830135610d1c81611067565b6000815180845260005b818110156110c9576020818501810151868301820152016110ad565b506000602082860101526020601f19601f83011685010191505092915050565b82815260406020820152600061105f60408301846110a3565b83815282602082015260606040820152600061112160608301846110a3565b95945050505050565b60006020828403121561113c57600080fd5b81516102de81611067565b60006020828403121561115957600080fd5b81516102de81610cd956fea2646970667358221220e57b7f04f52cbe14635d5897d1b1481187d70c454979aa6968dbe915cca0923f64736f6c63430008120033",
  "linkReferences": {},
  "deployedLinkReferences": {}
}