{
  "_format": "hh-sol-artifact-1",
  "contractName": "SANN",
  "sourceName": "contracts/admin/SANN.sol",
  "abi": [
    {
      "inputs": [],
      "stateMutability": "nonpayable",
      "type": "constructor"
    },
    {
      "inputs": [
        {
          "internalType": "string",
          "name": "tld",
          "type": "string"
        }
      ],
      "name": "InvalidTLD",
      "type": "error"
    },
    {
      "anonymous": false,
      "inputs": [
        {
          "indexed": false,
          "internalType": "address",
          "name": "previousAdmin",
          "type": "address"
        },
        {
          "indexed": false,
          "internalType": "address",
          "name": "newAdmin",
          "type": "address"
        }
      ],
      "name": "AdminChanged",
      "type": "event"
    },
    {
      "anonymous": false,
      "inputs": [
        {
          "indexed": true,
          "internalType": "address",
          "name": "beacon",
          "type": "address"
        }
      ],
      "name": "BeaconUpgraded",
      "type": "event"
    },
    {
      "anonymous": false,
      "inputs": [
        {
          "indexed": false,
          "internalType": "uint8",
          "name": "version",
          "type": "uint8"
        }
      ],
      "name": "Initialized",
      "type": "event"
    },
    {
      "anonymous": false,
      "inputs": [
        {
          "indexed": false,
          "internalType": "address",
          "name": "tldFactory",
          "type": "address"
        }
      ],
      "name": "NewPlatformAdmin",
      "type": "event"
    },
    {
      "anonymous": false,
      "inputs": [
        {
          "indexed": false,
          "internalType": "string",
          "name": "tld",
          "type": "string"
        },
        {
          "indexed": false,
          "internalType": "uint256",
          "name": "identifier",
          "type": "uint256"
        },
        {
          "indexed": false,
          "internalType": "address",
          "name": "owner",
          "type": "address"
        },
        {
          "indexed": false,
          "internalType": "address",
          "name": "base",
          "type": "address"
        },
        {
          "indexed": false,
          "internalType": "address",
          "name": "controller",
          "type": "address"
        }
      ],
      "name": "NewTld",
      "type": "event"
    },
    {
      "anonymous": false,
      "inputs": [
        {
          "indexed": false,
          "internalType": "address",
          "name": "tldController",
          "type": "address"
        }
      ],
      "name": "NewTldController",
      "type": "event"
    },
    {
      "anonymous": false,
      "inputs": [
        {
          "indexed": false,
          "internalType": "address",
          "name": "tldFactory",
          "type": "address"
        }
      ],
      "name": "NewTldFactory",
      "type": "event"
    },
    {
      "anonymous": false,
      "inputs": [
        {
          "indexed": false,
          "internalType": "uint256",
          "name": "identifier",
          "type": "uint256"
        },
        {
          "indexed": false,
          "internalType": "address",
          "name": "owner",
          "type": "address"
        }
      ],
      "name": "NewTldOwner",
      "type": "event"
    },
    {
      "anonymous": false,
      "inputs": [
        {
          "indexed": false,
          "internalType": "uint256",
          "name": "maxTldLength",
          "type": "uint256"
        }
      ],
      "name": "SetMaxTldLength",
      "type": "event"
    },
    {
      "anonymous": false,
      "inputs": [
        {
          "indexed": false,
          "internalType": "uint256",
          "name": "minTldLength",
          "type": "uint256"
        }
      ],
      "name": "SetMinTldLength",
      "type": "event"
    },
    {
      "anonymous": false,
      "inputs": [
        {
          "indexed": true,
          "internalType": "address",
          "name": "implementation",
          "type": "address"
        }
      ],
      "name": "Upgraded",
      "type": "event"
    },
    {
      "inputs": [],
      "name": "chainId",
      "outputs": [
        {
          "internalType": "uint256",
          "name": "",
          "type": "uint256"
        }
      ],
      "stateMutability": "view",
      "type": "function"
    },
    {
      "inputs": [],
      "name": "currentTldController",
      "outputs": [
        {
          "internalType": "address",
          "name": "",
          "type": "address"
        }
      ],
      "stateMutability": "view",
      "type": "function"
    },
    {
      "inputs": [],
      "name": "currentTldFactory",
      "outputs": [
        {
          "internalType": "address",
          "name": "",
          "type": "address"
        }
      ],
      "stateMutability": "view",
      "type": "function"
    },
    {
      "inputs": [
        {
          "internalType": "address",
          "name": "_domainRegistry",
          "type": "address"
        },
        {
          "internalType": "address",
          "name": "_platformAdmin",
          "type": "address"
        }
      ],
      "name": "initialize",
      "outputs": [],
      "stateMutability": "nonpayable",
      "type": "function"
    },
    {
      "inputs": [],
      "name": "maxTldLength",
      "outputs": [
        {
          "internalType": "uint256",
          "name": "",
          "type": "uint256"
        }
      ],
      "stateMutability": "view",
      "type": "function"
    },
    {
      "inputs": [],
      "name": "minTldLength",
      "outputs": [
        {
          "internalType": "uint256",
          "name": "",
          "type": "uint256"
        }
      ],
      "stateMutability": "view",
      "type": "function"
    },
    {
      "inputs": [],
      "name": "platformAdmin",
      "outputs": [
        {
          "internalType": "address",
          "name": "",
          "type": "address"
        }
      ],
      "stateMutability": "view",
      "type": "function"
    },
    {
      "inputs": [],
      "name": "proxiableUUID",
      "outputs": [
        {
          "internalType": "bytes32",
          "name": "",
          "type": "bytes32"
        }
      ],
      "stateMutability": "view",
      "type": "function"
    },
    {
      "inputs": [
        {
          "internalType": "string",
          "name": "tldName",
          "type": "string"
        },
        {
          "internalType": "uint256",
          "name": "identifier",
          "type": "uint256"
        },
        {
          "internalType": "address",
          "name": "owner",
          "type": "address"
        },
        {
          "internalType": "address",
          "name": "base",
          "type": "address"
        }
      ],
      "name": "registerTld",
      "outputs": [],
      "stateMutability": "nonpayable",
      "type": "function"
    },
    {
      "inputs": [],
      "name": "registry",
      "outputs": [
        {
          "internalType": "address",
          "name": "",
          "type": "address"
        }
      ],
      "stateMutability": "view",
      "type": "function"
    },
    {
      "inputs": [
        {
          "internalType": "uint256",
          "name": "_maxTldLength",
          "type": "uint256"
        }
      ],
      "name": "setMaxTldLength",
      "outputs": [],
      "stateMutability": "nonpayable",
      "type": "function"
    },
    {
      "inputs": [
        {
          "internalType": "uint256",
          "name": "_minTldLength",
          "type": "uint256"
        }
      ],
      "name": "setMinTldLength",
      "outputs": [],
      "stateMutability": "nonpayable",
      "type": "function"
    },
    {
      "inputs": [
        {
          "internalType": "address",
          "name": "_platformAdmin",
          "type": "address"
        }
      ],
      "name": "setPlatformAdmin",
      "outputs": [],
      "stateMutability": "nonpayable",
      "type": "function"
    },
    {
      "inputs": [
        {
          "internalType": "address",
          "name": "_tldController",
          "type": "address"
        }
      ],
      "name": "setTldController",
      "outputs": [],
      "stateMutability": "nonpayable",
      "type": "function"
    },
    {
      "inputs": [
        {
          "internalType": "address",
          "name": "tldFactory",
          "type": "address"
        }
      ],
      "name": "setTldFactory",
      "outputs": [],
      "stateMutability": "nonpayable",
      "type": "function"
    },
    {
      "inputs": [
        {
          "internalType": "uint256",
          "name": "identifier",
          "type": "uint256"
        },
        {
          "internalType": "address",
          "name": "newOwner",
          "type": "address"
        }
      ],
      "name": "setTldOwner",
      "outputs": [],
      "stateMutability": "nonpayable",
      "type": "function"
    },
    {
      "inputs": [
        {
          "internalType": "uint256",
          "name": "identifier",
          "type": "uint256"
        }
      ],
      "name": "tld",
      "outputs": [
        {
          "internalType": "string",
          "name": "",
          "type": "string"
        }
      ],
      "stateMutability": "view",
      "type": "function"
    },
    {
      "inputs": [
        {
          "internalType": "uint256",
          "name": "identifier",
          "type": "uint256"
        }
      ],
      "name": "tldBase",
      "outputs": [
        {
          "internalType": "address",
          "name": "",
          "type": "address"
        }
      ],
      "stateMutability": "view",
      "type": "function"
    },
    {
      "inputs": [],
      "name": "tldController",
      "outputs": [
        {
          "internalType": "address",
          "name": "",
          "type": "address"
        }
      ],
      "stateMutability": "view",
      "type": "function"
    },
    {
      "inputs": [
        {
          "internalType": "string",
          "name": "tldName",
          "type": "string"
        },
        {
          "internalType": "address",
          "name": "owner",
          "type": "address"
        }
      ],
      "name": "tldIdentifier",
      "outputs": [
        {
          "internalType": "uint256",
          "name": "",
          "type": "uint256"
        }
      ],
      "stateMutability": "view",
      "type": "function"
    },
    {
      "inputs": [
        {
          "internalType": "uint256",
          "name": "",
          "type": "uint256"
        }
      ],
      "name": "tldInfos",
      "outputs": [
        {
          "internalType": "string",
          "name": "tld",
          "type": "string"
        },
        {
          "internalType": "address",
          "name": "owner",
          "type": "address"
        },
        {
          "internalType": "address",
          "name": "base",
          "type": "address"
        }
      ],
      "stateMutability": "view",
      "type": "function"
    },
    {
      "inputs": [
        {
          "internalType": "uint256",
          "name": "identifier",
          "type": "uint256"
        }
      ],
      "name": "tldOwner",
      "outputs": [
        {
          "internalType": "address",
          "name": "",
          "type": "address"
        }
      ],
      "stateMutability": "view",
      "type": "function"
    },
    {
      "inputs": [
        {
          "internalType": "bytes32",
          "name": "node",
          "type": "bytes32"
        },
        {
          "internalType": "address",
          "name": "newOwner",
          "type": "address"
        }
      ],
      "name": "transferNodeOwner",
      "outputs": [],
      "stateMutability": "nonpayable",
      "type": "function"
    },
    {
      "inputs": [
        {
          "internalType": "address",
          "name": "newImplementation",
          "type": "address"
        }
      ],
      "name": "upgradeTo",
      "outputs": [],
      "stateMutability": "nonpayable",
      "type": "function"
    },
    {
      "inputs": [
        {
          "internalType": "address",
          "name": "newImplementation",
          "type": "address"
        },
        {
          "internalType": "bytes",
          "name": "data",
          "type": "bytes"
        }
      ],
      "name": "upgradeToAndCall",
      "outputs": [],
      "stateMutability": "payable",
      "type": "function"
    }
  ],
  "bytecode": "0x60a06040523060805234801561001457600080fd5b5061001d610022565b6100e1565b600054610100900460ff161561008e5760405162461bcd60e51b815260206004820152602760248201527f496e697469616c697a61626c653a20636f6e747261637420697320696e697469604482015266616c697a696e6760c81b606482015260840160405180910390fd5b60005460ff908116146100df576000805460ff191660ff9081179091556040519081527f7f26b83ff96e1f2b6a682f133852f6798a09c465da95921460cefb38474024989060200160405180910390a15b565b60805161206162000119600039600081816106940152818161071901528181610b9f01528181610c240152610d0e01526120616000f3fe6080604052600436106101965760003560e01c806353bdd0c6116100e15780639424bff81161008a578063a334815a11610064578063a334815a1461048a578063b202ca11146104aa578063cdcd7fb5146104c0578063f3400419146104e057600080fd5b80639424bff81461042757806397793e2a146104545780639a8a05921461047457600080fd5b80637b103999116100bb5780637b103999146103c75780637ee664fa146103e757806389a71c2c1461040757600080fd5b806353bdd0c6146103675780636a0dfac1146103875780637805dca3146103a757600080fd5b80633659cfe611610143578063485cc9551161011d578063485cc9551461031f5780634f1ef2861461033f57806352d1902d1461035257600080fd5b80633659cfe6146102b05780633e696ffc146102d05780634376c801146102ff57600080fd5b80631e038cc8116101745780631e038cc814610233578063261bd4c5146102615780632c7263b51461027757600080fd5b80630726f6681461019b5780630975f8dd146101f15780631ce96ae714610213575b600080fd5b3480156101a757600080fd5b506101d46101b6366004611a6d565b6000908152600860205260409020600101546001600160a01b031690565b6040516001600160a01b0390911681526020015b60405180910390f35b3480156101fd57600080fd5b5061021161020c366004611aa2565b6104fe565b005b34801561021f57600080fd5b5061021161022e366004611aa2565b6105a8565b34801561023f57600080fd5b5061025361024e366004611b06565b610646565b6040519081526020016101e8565b34801561026d57600080fd5b5061025360065481565b34801561028357600080fd5b506101d4610292366004611a6d565b6000908152600860205260409020600201546001600160a01b031690565b3480156102bc57600080fd5b506102116102cb366004611aa2565b61068a565b3480156102dc57600080fd5b506102f06102eb366004611a6d565b610805565b6040516101e893929190611baa565b34801561030b57600080fd5b5061021161031a366004611bdd565b6108bc565b34801561032b57600080fd5b5061021161033a366004611c09565b610992565b61021161034d366004611c49565b610b95565b34801561035e57600080fd5b50610253610d01565b34801561037357600080fd5b50610211610382366004611bdd565b610dc6565b34801561039357600080fd5b506002546101d4906001600160a01b031681565b3480156103b357600080fd5b506102116103c2366004611a6d565b610eef565b3480156103d357600080fd5b506005546101d4906001600160a01b031681565b3480156103f357600080fd5b50610211610402366004611a6d565b610f74565b34801561041357600080fd5b506003546101d4906001600160a01b031681565b34801561043357600080fd5b50610447610442366004611a6d565b610ff9565b6040516101e89190611d0b565b34801561046057600080fd5b5061021161046f366004611aa2565b61109b565b34801561048057600080fd5b5061025360015481565b34801561049657600080fd5b506102116104a5366004611d1e565b611139565b3480156104b657600080fd5b5061025360075481565b3480156104cc57600080fd5b506004546101d4906001600160a01b031681565b3480156104ec57600080fd5b506003546001600160a01b03166101d4565b6004546001600160a01b031633146105535760405162461bcd60e51b815260206004820152601360248201527237b7363c90383630ba3337b9369030b236b4b760691b60448201526064015b60405180910390fd5b600380546001600160a01b0319166001600160a01b0383169081179091556040519081527f6cf26c4bb730d3a50074d1f62d9edaa313bf3019d6d1ddd081b934ea6d1c7102906020015b60405180910390a150565b6004546001600160a01b031633146105f85760405162461bcd60e51b815260206004820152601360248201527237b7363c90383630ba3337b9369030b236b4b760691b604482015260640161054a565b600480546001600160a01b0319166001600160a01b0383169081179091556040519081527f42d3f9a40a5172c752f90ad0ba180b6be6323be2fa3431e428377a1b6aaf7b6a9060200161059d565b6000602082858560405160200161065f93929190611d8c565b60408051601f19818403018152919052805160209091012060015460e01b911c1790505b9392505050565b6001600160a01b037f00000000000000000000000000000000000000000000000000000000000000001630036107175760405162461bcd60e51b815260206004820152602c60248201527f46756e6374696f6e206d7573742062652063616c6c6564207468726f7567682060448201526b19195b1959d85d1958d85b1b60a21b606482015260840161054a565b7f00000000000000000000000000000000000000000000000000000000000000006001600160a01b03166107727f360894a13ba1a3210667c828492db98dca3e2076cc3735a920a3ca505d382bbc546001600160a01b031690565b6001600160a01b0316146107dd5760405162461bcd60e51b815260206004820152602c60248201527f46756e6374696f6e206d7573742062652063616c6c6564207468726f7567682060448201526b6163746976652070726f787960a01b606482015260840161054a565b6107e6816114af565b60408051600080825260208201909252610802918391906114ff565b50565b60086020526000908152604090208054819061082090611db8565b80601f016020809104026020016040519081016040528092919081815260200182805461084c90611db8565b80156108995780601f1061086e57610100808354040283529160200191610899565b820191906000526020600020905b81548152906001019060200180831161087c57829003601f168201915b50505050600183015460029093015491926001600160a01b039081169216905083565b60008281526008602052604090206001015482906001600160a01b031633146109275760405162461bcd60e51b815260206004820152600e60248201527f6f6e6c7920746c64206f776e6572000000000000000000000000000000000000604482015260640161054a565b60008381526008602090815260409182902060010180546001600160a01b0319166001600160a01b0386169081179091558251868152918201527fd84dedae7e875b17c62d587f2bbfc7af84cda07be53c8bc1c867c59e300b8c6291015b60405180910390a1505050565b600054610100900460ff16158080156109b25750600054600160ff909116105b806109cc5750303b1580156109cc575060005460ff166001145b610a3e5760405162461bcd60e51b815260206004820152602e60248201527f496e697469616c697a61626c653a20636f6e747261637420697320616c72656160448201527f647920696e697469616c697a6564000000000000000000000000000000000000606482015260840161054a565b6000805460ff191660011790558015610a61576000805461ff0019166101001790555b46600155600280546001600160a01b0319908116909155600480546001600160a01b0385169216821790556040519081527f42d3f9a40a5172c752f90ad0ba180b6be6323be2fa3431e428377a1b6aaf7b6a9060200160405180910390a1600580546001600160a01b0319166001600160a01b038516179055600360068190556040519081527f6b5c80d77bb052d8516ace3d07ad7dd68ddaf7015995199ee2e8eec9e8e591289060200160405180910390a1600560078190556040519081527f6e477cd155c7e73030167ff820363b94fb27b6fcc2f484d83b9a8c87a5c77fcf9060200160405180910390a18015610b90576000805461ff0019169055604051600181527f7f26b83ff96e1f2b6a682f133852f6798a09c465da95921460cefb384740249890602001610985565b505050565b6001600160a01b037f0000000000000000000000000000000000000000000000000000000000000000163003610c225760405162461bcd60e51b815260206004820152602c60248201527f46756e6374696f6e206d7573742062652063616c6c6564207468726f7567682060448201526b19195b1959d85d1958d85b1b60a21b606482015260840161054a565b7f00000000000000000000000000000000000000000000000000000000000000006001600160a01b0316610c7d7f360894a13ba1a3210667c828492db98dca3e2076cc3735a920a3ca505d382bbc546001600160a01b031690565b6001600160a01b031614610ce85760405162461bcd60e51b815260206004820152602c60248201527f46756e6374696f6e206d7573742062652063616c6c6564207468726f7567682060448201526b6163746976652070726f787960a01b606482015260840161054a565b610cf1826114af565b610cfd828260016114ff565b5050565b6000306001600160a01b037f00000000000000000000000000000000000000000000000000000000000000001614610da15760405162461bcd60e51b815260206004820152603860248201527f555550535570677261646561626c653a206d757374206e6f742062652063616c60448201527f6c6564207468726f7567682064656c656761746563616c6c0000000000000000606482015260840161054a565b507f360894a13ba1a3210667c828492db98dca3e2076cc3735a920a3ca505d382bbc90565b6004546001600160a01b03163314610e165760405162461bcd60e51b815260206004820152601360248201527237b7363c90383630ba3337b9369030b236b4b760691b604482015260640161054a565b6001600160a01b038116610e6c5760405162461bcd60e51b815260206004820152600c60248201527f7a65726f20616464726573730000000000000000000000000000000000000000604482015260640161054a565b6005546040517f5b0fc9c3000000000000000000000000000000000000000000000000000000008152600481018490526001600160a01b03838116602483015290911690635b0fc9c390604401600060405180830381600087803b158015610ed357600080fd5b505af1158015610ee7573d6000803e3d6000fd5b505050505050565b6004546001600160a01b03163314610f3f5760405162461bcd60e51b815260206004820152601360248201527237b7363c90383630ba3337b9369030b236b4b760691b604482015260640161054a565b60068190556040518181527f6b5c80d77bb052d8516ace3d07ad7dd68ddaf7015995199ee2e8eec9e8e591289060200161059d565b6004546001600160a01b03163314610fc45760405162461bcd60e51b815260206004820152601360248201527237b7363c90383630ba3337b9369030b236b4b760691b604482015260640161054a565b60078190556040518181527f6e477cd155c7e73030167ff820363b94fb27b6fcc2f484d83b9a8c87a5c77fcf9060200161059d565b600081815260086020526040902080546060919061101690611db8565b80601f016020809104026020016040519081016040528092919081815260200182805461104290611db8565b801561108f5780601f106110645761010080835404028352916020019161108f565b820191906000526020600020905b81548152906001019060200180831161107257829003601f168201915b50505050509050919050565b6004546001600160a01b031633146110eb5760405162461bcd60e51b815260206004820152601360248201527237b7363c90383630ba3337b9369030b236b4b760691b604482015260640161054a565b600280546001600160a01b0319166001600160a01b0383169081179091556040519081527fbc133274df720db82d6c944422fee883c098d643cee44ed7c18626c59939620e9060200161059d565b6002546001600160a01b031633146111935760405162461bcd60e51b815260206004820152601660248201527f6f6e6c792076616c696420746c6420666163746f727900000000000000000000604482015260640161054a565b6001600160a01b0382166111e95760405162461bcd60e51b815260206004820152601560248201527f696e76616c6964206f776e657220616464726573730000000000000000000000604482015260640161054a565b6001600160a01b03811661123f5760405162461bcd60e51b815260206004820152601460248201527f696e76616c696420626173652061646472657373000000000000000000000000604482015260640161054a565b611249858561169f565b6112835784846040517fe895f6b400000000000000000000000000000000000000000000000000000000815260040161054a929190611e1b565b6000838152600860205260409020805461129c90611db8565b1590506112eb5760405162461bcd60e51b815260206004820152601760248201527f544c4420686173206265656e2072656769737465726564000000000000000000604482015260640161054a565b6000838152600860205260409020611304858783611e7d565b50600083815260086020526040908190206001810180546001600160a01b038087166001600160a01b0319928316179092556002909201805485831693169290921790915560035491517fe600e4a40deb2e23ab9133f4c86b57e1605f608a7623a6e6da1171837813b7f892611387928992899289928992899290911690611f3e565b60405180910390a16005546040516306ab592360e01b815260006004820181905260248201869052306044830152916001600160a01b0316906306ab5923906064016020604051808303816000875af11580156113e8573d6000803e3d6000fd5b505050506040513d601f19601f8201168201806040525081019061140c9190611f82565b905060008686604051611420929190611f9b565b6040519081900381206005546306ab592360e01b835260048301859052602483018290526001600160a01b03868116604485015291935016906306ab5923906064016020604051808303816000875af1158015611481573d6000803e3d6000fd5b505050506040513d601f19601f820116820180604052508101906114a59190611f82565b5050505050505050565b6004546001600160a01b031633146108025760405162461bcd60e51b815260206004820152601360248201527237b7363c90383630ba3337b9369030b236b4b760691b604482015260640161054a565b7f4910fdfa16fed3260ed0e7147f7cc6da11a60208b5b9406d12a635614ffd91435460ff161561153257610b90836117f7565b826001600160a01b03166352d1902d6040518163ffffffff1660e01b8152600401602060405180830381865afa92505050801561158c575060408051601f3d908101601f1916820190925261158991810190611f82565b60015b6115fe5760405162461bcd60e51b815260206004820152602e60248201527f45524331393637557067726164653a206e657720696d706c656d656e7461746960448201527f6f6e206973206e6f742055555053000000000000000000000000000000000000606482015260840161054a565b7f360894a13ba1a3210667c828492db98dca3e2076cc3735a920a3ca505d382bbc81146116935760405162461bcd60e51b815260206004820152602960248201527f45524331393637557067726164653a20756e737570706f727465642070726f7860448201527f6961626c65555549440000000000000000000000000000000000000000000000606482015260840161054a565b50610b908383836118b5565b6006546000908390839081908110806116b9575060075481115b156116ca57600093505050506117f1565b60005b818110156117e85760008484838181106116e9576116e9611fab565b909101356001600160f81b0319169150507f6100000000000000000000000000000000000000000000000000000000000000811080159061175457507f7a000000000000000000000000000000000000000000000000000000000000006001600160f81b0319821611155b1580156117c257507f30000000000000000000000000000000000000000000000000000000000000006001600160f81b03198216108015906117c057507f39000000000000000000000000000000000000000000000000000000000000006001600160f81b0319821611155b155b156117d5576000955050505050506117f1565b50806117e081611fc1565b9150506116cd565b50600193505050505b92915050565b6001600160a01b0381163b6118745760405162461bcd60e51b815260206004820152602d60248201527f455243313936373a206e657720696d706c656d656e746174696f6e206973206e60448201527f6f74206120636f6e747261637400000000000000000000000000000000000000606482015260840161054a565b7f360894a13ba1a3210667c828492db98dca3e2076cc3735a920a3ca505d382bbc80546001600160a01b0319166001600160a01b0392909216919091179055565b6118be836118e0565b6000825111806118cb5750805b15610b90576118da8383611920565b50505050565b6118e9816117f7565b6040516001600160a01b038216907fbc7cd75a20ee27fd9adebab32041f755214dbc6bffa90cc0225b39da2e5c2d3b90600090a250565b606061068383836040518060600160405280602781526020016120056027913960606001600160a01b0384163b6119bf5760405162461bcd60e51b815260206004820152602660248201527f416464726573733a2064656c65676174652063616c6c20746f206e6f6e2d636f60448201527f6e74726163740000000000000000000000000000000000000000000000000000606482015260840161054a565b600080856001600160a01b0316856040516119da9190611fe8565b600060405180830381855af49150503d8060008114611a15576040519150601f19603f3d011682016040523d82523d6000602084013e611a1a565b606091505b5091509150611a2a828286611a34565b9695505050505050565b60608315611a43575081610683565b825115611a535782518084602001fd5b8160405162461bcd60e51b815260040161054a9190611d0b565b600060208284031215611a7f57600080fd5b5035919050565b80356001600160a01b0381168114611a9d57600080fd5b919050565b600060208284031215611ab457600080fd5b61068382611a86565b60008083601f840112611acf57600080fd5b50813567ffffffffffffffff811115611ae757600080fd5b602083019150836020828501011115611aff57600080fd5b9250929050565b600080600060408486031215611b1b57600080fd5b833567ffffffffffffffff811115611b3257600080fd5b611b3e86828701611abd565b9094509250611b51905060208501611a86565b90509250925092565b60005b83811015611b75578181015183820152602001611b5d565b50506000910152565b60008151808452611b96816020860160208601611b5a565b601f01601f19169290920160200192915050565b606081526000611bbd6060830186611b7e565b6001600160a01b0394851660208401529290931660409091015292915050565b60008060408385031215611bf057600080fd5b82359150611c0060208401611a86565b90509250929050565b60008060408385031215611c1c57600080fd5b611c2583611a86565b9150611c0060208401611a86565b634e487b7160e01b600052604160045260246000fd5b60008060408385031215611c5c57600080fd5b611c6583611a86565b9150602083013567ffffffffffffffff80821115611c8257600080fd5b818501915085601f830112611c9657600080fd5b813581811115611ca857611ca8611c33565b604051601f8201601f19908116603f01168101908382118183101715611cd057611cd0611c33565b81604052828152886020848701011115611ce957600080fd5b8260208601602083013760006020848301015280955050505050509250929050565b6020815260006106836020830184611b7e565b600080600080600060808688031215611d3657600080fd5b853567ffffffffffffffff811115611d4d57600080fd5b611d5988828901611abd565b90965094505060208601359250611d7260408701611a86565b9150611d8060608701611a86565b90509295509295909350565b6bffffffffffffffffffffffff198460601b168152818360148301376000910160140190815292915050565b600181811c90821680611dcc57607f821691505b602082108103611dec57634e487b7160e01b600052602260045260246000fd5b50919050565b81835281816020850137506000828201602090810191909152601f909101601f19169091010190565b602081526000611e2f602083018486611df2565b949350505050565b601f821115610b9057600081815260208120601f850160051c81016020861015611e5e5750805b601f850160051c820191505b81811015610ee757828155600101611e6a565b67ffffffffffffffff831115611e9557611e95611c33565b611ea983611ea38354611db8565b83611e37565b6000601f841160018114611edd5760008515611ec55750838201355b600019600387901b1c1916600186901b178355611f37565b600083815260209020601f19861690835b82811015611f0e5786850135825560209485019460019092019101611eee565b5086821015611f2b5760001960f88860031b161c19848701351681555b505060018560011b0183555b5050505050565b60a081526000611f5260a08301888a611df2565b6020830196909652506001600160a01b039384166040820152918316606083015290911660809091015292915050565b600060208284031215611f9457600080fd5b5051919050565b8183823760009101908152919050565b634e487b7160e01b600052603260045260246000fd5b600060018201611fe157634e487b7160e01b600052601160045260246000fd5b5060010190565b60008251611ffa818460208701611b5a565b919091019291505056fe416464726573733a206c6f772d6c6576656c2064656c65676174652063616c6c206661696c6564a26469706673582212203bef36807a4a0afab866c33dcd4a12615aa3ec3bcaa3f0a02c67e31f4ceef09e64736f6c63430008120033",
  "linkReferences": {},
  "deployedLinkReferences": {}
}